{
  "contractName": "BlockRewardAuRa",
  "abi": [
    {
      "constant": true,
      "inputs": [
        {
          "name": "",
          "type": "uint256"
        },
        {
          "name": "",
          "type": "address"
        }
      ],
      "name": "snapshotPoolValidatorStakeAmount",
      "outputs": [
        {
          "name": "",
          "type": "uint256"
        }
      ],
      "payable": false,
      "stateMutability": "view",
      "type": "function"
    },
    {
      "constant": false,
      "inputs": [
        {
          "name": "_bridgesAllowed",
          "type": "address[]"
        }
      ],
      "name": "setErcToNativeBridgesAllowed",
      "outputs": [],
      "payable": false,
      "stateMutability": "nonpayable",
      "type": "function"
    },
    {
      "constant": false,
      "inputs": [
        {
          "name": "_amount",
          "type": "uint256"
        }
      ],
      "name": "addBridgeNativeRewardReceivers",
      "outputs": [],
      "payable": false,
      "stateMutability": "nonpayable",
      "type": "function"
    },
    {
      "constant": true,
      "inputs": [],
      "name": "blockRewardContractId",
      "outputs": [
        {
          "name": "",
          "type": "bytes4"
        }
      ],
      "payable": false,
      "stateMutability": "pure",
      "type": "function"
    },
    {
      "constant": true,
      "inputs": [
        {
          "name": "",
          "type": "address"
        },
        {
          "name": "",
          "type": "uint256"
        }
      ],
      "name": "mintedForAccountInBlock",
      "outputs": [
        {
          "name": "",
          "type": "uint256"
        }
      ],
      "payable": false,
      "stateMutability": "view",
      "type": "function"
    },
    {
      "constant": true,
      "inputs": [
        {
          "name": "",
          "type": "uint256"
        },
        {
          "name": "",
          "type": "address"
        }
      ],
      "name": "epochPoolNativeReward",
      "outputs": [
        {
          "name": "",
          "type": "uint256"
        }
      ],
      "payable": false,
      "stateMutability": "view",
      "type": "function"
    },
    {
      "constant": true,
      "inputs": [],
      "name": "isInitialized",
      "outputs": [
        {
          "name": "",
          "type": "bool"
        }
      ],
      "payable": false,
      "stateMutability": "view",
      "type": "function"
    },
    {
      "constant": true,
      "inputs": [],
      "name": "NATIVE_COIN_INFLATION_RATE",
      "outputs": [
        {
          "name": "",
          "type": "uint256"
        }
      ],
      "payable": false,
      "stateMutability": "view",
      "type": "function"
    },
    {
      "constant": true,
      "inputs": [
        {
          "name": "",
          "type": "address"
        }
      ],
      "name": "mintedForAccount",
      "outputs": [
        {
          "name": "",
          "type": "uint256"
        }
      ],
      "payable": false,
      "stateMutability": "view",
      "type": "function"
    },
    {
      "constant": true,
      "inputs": [],
      "name": "ercToNativeBridgesAllowed",
      "outputs": [
        {
          "name": "",
          "type": "address[]"
        }
      ],
      "payable": false,
      "stateMutability": "view",
      "type": "function"
    },
    {
      "constant": true,
      "inputs": [
        {
          "name": "",
          "type": "uint256"
        }
      ],
      "name": "mintedInBlock",
      "outputs": [
        {
          "name": "",
          "type": "uint256"
        }
      ],
      "payable": false,
      "stateMutability": "view",
      "type": "function"
    },
    {
      "constant": false,
      "inputs": [
        {
          "name": "_nativeCoins",
          "type": "uint256"
        },
        {
          "name": "_to",
          "type": "address"
        }
      ],
      "name": "transferReward",
      "outputs": [],
      "payable": false,
      "stateMutability": "nonpayable",
      "type": "function"
    },
    {
      "constant": true,
      "inputs": [
        {
          "name": "_poolStakingAddress",
          "type": "address"
        },
        {
          "name": "_staker",
          "type": "address"
        }
      ],
      "name": "epochsToClaimRewardFrom",
      "outputs": [
        {
          "name": "epochsToClaimFrom",
          "type": "uint256[]"
        }
      ],
      "payable": false,
      "stateMutability": "view",
      "type": "function"
    },
    {
      "constant": true,
      "inputs": [
        {
          "name": "_stakingAddress",
          "type": "address"
        }
      ],
      "name": "validatorRewardPercent",
      "outputs": [
        {
          "name": "",
          "type": "uint256"
        }
      ],
      "payable": false,
      "stateMutability": "view",
      "type": "function"
    },
    {
      "constant": true,
      "inputs": [],
      "name": "mintedTotally",
      "outputs": [
        {
          "name": "",
          "type": "uint256"
        }
      ],
      "payable": false,
      "stateMutability": "view",
      "type": "function"
    },
    {
      "constant": true,
      "inputs": [
        {
          "name": "_stakingEpoch",
          "type": "uint256"
        },
        {
          "name": "_delegatorStaked",
          "type": "uint256"
        },
        {
          "name": "_validatorStaked",
          "type": "uint256"
        },
        {
          "name": "_totalStaked",
          "type": "uint256"
        },
        {
          "name": "_poolReward",
          "type": "uint256"
        }
      ],
      "name": "delegatorShare",
      "outputs": [
        {
          "name": "",
          "type": "uint256"
        }
      ],
      "payable": false,
      "stateMutability": "view",
      "type": "function"
    },
    {
      "constant": true,
      "inputs": [
        {
          "name": "",
          "type": "uint256"
        },
        {
          "name": "",
          "type": "address"
        }
      ],
      "name": "snapshotPoolTotalStakeAmount",
      "outputs": [
        {
          "name": "",
          "type": "uint256"
        }
      ],
      "payable": false,
      "stateMutability": "view",
      "type": "function"
    },
    {
      "constant": true,
      "inputs": [
        {
          "name": "_stakingEpoch",
          "type": "uint256"
        },
        {
          "name": "_validatorStaked",
          "type": "uint256"
        },
        {
          "name": "_totalStaked",
          "type": "uint256"
        },
        {
          "name": "_poolReward",
          "type": "uint256"
        }
      ],
      "name": "validatorShare",
      "outputs": [
        {
          "name": "",
          "type": "uint256"
        }
      ],
      "payable": false,
      "stateMutability": "view",
      "type": "function"
    },
    {
      "constant": true,
      "inputs": [
        {
          "name": "",
          "type": "address"
        },
        {
          "name": "",
          "type": "uint256"
        },
        {
          "name": "",
          "type": "bytes"
        }
      ],
      "name": "onTokenTransfer",
      "outputs": [
        {
          "name": "",
          "type": "bool"
        }
      ],
      "payable": false,
      "stateMutability": "pure",
      "type": "function"
    },
    {
      "constant": true,
      "inputs": [],
      "name": "extraReceiversQueueSize",
      "outputs": [
        {
          "name": "",
          "type": "uint256"
        }
      ],
      "payable": false,
      "stateMutability": "view",
      "type": "function"
    },
    {
      "constant": false,
      "inputs": [
        {
          "name": "_amount",
          "type": "uint256"
        },
        {
          "name": "_receiver",
          "type": "address"
        }
      ],
      "name": "addExtraReceiver",
      "outputs": [],
      "payable": false,
      "stateMutability": "nonpayable",
      "type": "function"
    },
    {
      "constant": true,
      "inputs": [],
      "name": "bridgeNativeReward",
      "outputs": [
        {
          "name": "",
          "type": "uint256"
        }
      ],
      "payable": false,
      "stateMutability": "view",
      "type": "function"
    },
    {
      "constant": true,
      "inputs": [],
      "name": "nativeRewardUndistributed",
      "outputs": [
        {
          "name": "",
          "type": "uint256"
        }
      ],
      "payable": false,
      "stateMutability": "view",
      "type": "function"
    },
    {
      "constant": true,
      "inputs": [
        {
          "name": "",
          "type": "address"
        }
      ],
      "name": "mintedTotallyByBridge",
      "outputs": [
        {
          "name": "",
          "type": "uint256"
        }
      ],
      "payable": false,
      "stateMutability": "view",
      "type": "function"
    },
    {
      "constant": true,
      "inputs": [
        {
          "name": "_stakingEpoch",
          "type": "uint256"
        },
        {
          "name": "_poolMiningAddress",
          "type": "address"
        }
      ],
      "name": "getValidatorReward",
      "outputs": [
        {
          "name": "nativeReward",
          "type": "uint256"
        }
      ],
      "payable": false,
      "stateMutability": "view",
      "type": "function"
    },
    {
      "constant": false,
      "inputs": [
        {
          "name": "_validatorSet",
          "type": "address"
        }
      ],
      "name": "initialize",
      "outputs": [],
      "payable": false,
      "stateMutability": "nonpayable",
      "type": "function"
    },
    {
      "constant": false,
      "inputs": [],
      "name": "clearBlocksCreated",
      "outputs": [],
      "payable": false,
      "stateMutability": "nonpayable",
      "type": "function"
    },
    {
      "constant": true,
      "inputs": [
        {
          "name": "",
          "type": "uint256"
        }
      ],
      "name": "validatorMinRewardPercent",
      "outputs": [
        {
          "name": "",
          "type": "uint256"
        }
      ],
      "payable": false,
      "stateMutability": "view",
      "type": "function"
    },
    {
      "constant": true,
      "inputs": [
        {
          "name": "_miningAddress",
          "type": "address"
        }
      ],
      "name": "epochsPoolGotRewardFor",
      "outputs": [
        {
          "name": "",
          "type": "uint256[]"
        }
      ],
      "payable": false,
      "stateMutability": "view",
      "type": "function"
    },
    {
      "constant": true,
      "inputs": [],
      "name": "validatorSetContract",
      "outputs": [
        {
          "name": "",
          "type": "address"
        }
      ],
      "payable": false,
      "stateMutability": "view",
      "type": "function"
    },
    {
      "constant": true,
      "inputs": [
        {
          "name": "_delegatorStake",
          "type": "uint256"
        },
        {
          "name": "_stakingEpoch",
          "type": "uint256"
        },
        {
          "name": "_poolMiningAddress",
          "type": "address"
        }
      ],
      "name": "getDelegatorReward",
      "outputs": [
        {
          "name": "nativeReward",
          "type": "uint256"
        }
      ],
      "payable": false,
      "stateMutability": "view",
      "type": "function"
    },
    {
      "constant": true,
      "inputs": [
        {
          "name": "",
          "type": "uint256"
        },
        {
          "name": "",
          "type": "address"
        }
      ],
      "name": "blocksCreated",
      "outputs": [
        {
          "name": "",
          "type": "uint256"
        }
      ],
      "payable": false,
      "stateMutability": "view",
      "type": "function"
    },
    {
      "constant": false,
      "inputs": [
        {
          "name": "benefactors",
          "type": "address[]"
        },
        {
          "name": "kind",
          "type": "uint16[]"
        }
      ],
      "name": "reward",
      "outputs": [
        {
          "name": "receiversNative",
          "type": "address[]"
        },
        {
          "name": "rewardsNative",
          "type": "uint256[]"
        }
      ],
      "payable": false,
      "stateMutability": "nonpayable",
      "type": "function"
    },
    {
      "constant": false,
      "inputs": [
        {
          "name": "_bridge",
          "type": "address"
        },
        {
          "name": "_prevBlockRewardContract",
          "type": "address"
        }
      ],
      "name": "migrateMintingStatistics",
      "outputs": [],
      "payable": false,
      "stateMutability": "nonpayable",
      "type": "function"
    },
    {
      "payable": true,
      "stateMutability": "payable",
      "type": "fallback"
    },
    {
      "anonymous": false,
      "inputs": [
        {
          "indexed": false,
          "name": "amount",
          "type": "uint256"
        },
        {
          "indexed": true,
          "name": "receiver",
          "type": "address"
        },
        {
          "indexed": true,
          "name": "bridge",
          "type": "address"
        }
      ],
      "name": "AddedReceiver",
      "type": "event"
    },
    {
      "anonymous": false,
      "inputs": [
        {
          "indexed": false,
          "name": "amount",
          "type": "uint256"
        },
        {
          "indexed": false,
          "name": "cumulativeAmount",
          "type": "uint256"
        },
        {
          "indexed": true,
          "name": "bridge",
          "type": "address"
        }
      ],
      "name": "BridgeNativeRewardAdded",
      "type": "event"
    },
    {
      "anonymous": false,
      "inputs": [
        {
          "indexed": false,
          "name": "receivers",
          "type": "address[]"
        },
        {
          "indexed": false,
          "name": "rewards",
          "type": "uint256[]"
        }
      ],
      "name": "MintedNative",
      "type": "event"
    }
  ],
  "bytecode": "0x608060405234801561001057600080fd5b5061363d806100206000396000f3fe6080604052600436106101f95760003560e01c80638737929a1161010d578063c4d66de8116100a0578063dfc8bf4e1161006f578063dfc8bf4e14610856578063e1ab96d814610887578063f7f8fd37146108c6578063f91c2898146108ff578063fcbdbe3f14610a63576101f9565b8063c4d66de8146107b1578063c5dd7628146107e4578063cdf7a090146107f9578063dd03f5b914610823576101f9565b8063ac8a0942116100dc578063ac8a09421461071b578063adc481a714610730578063b4a523e814610745578063ba2d759714610778576101f9565b80638737929a146105cb578063a4c0ed3614610607578063a9add57d146106cd578063aa9fa274146106e2576101f9565b80633d84b8c1116101905780634de6c0361161015f5780634de6c036146104cd578063527d8bc414610508578063553a5c851461053b5780635fba554e14610550578063728345db14610592576101f9565b80633d84b8c1146103d2578063419ce264146104055780634476d66a1461046a578063469507c614610494576101f9565b806330f6eb16116101cc57806330f6eb161461032257806333d699211461035b578063392e53cd1461039457806339f53709146103bd576101f9565b80631345b8a5146101fe578063171d54dd14610249578063222fafb2146102c65780632ee57f8d146102f0575b600080fd5b34801561020a57600080fd5b506102376004803603604081101561022157600080fd5b50803590602001356001600160a01b0316610a9e565b60408051918252519081900360200190f35b34801561025557600080fd5b506102c46004803603602081101561026c57600080fd5b810190602081018135600160201b81111561028657600080fd5b82018360208201111561029857600080fd5b803590602001918460208302840111600160201b831117156102b957600080fd5b509092509050610abb565b005b3480156102d257600080fd5b506102c4600480360360208110156102e957600080fd5b5035610bb6565b3480156102fc57600080fd5b50610305610c33565b604080516001600160e01b03199092168252519081900360200190f35b34801561032e57600080fd5b506102376004803603604081101561034557600080fd5b506001600160a01b038135169060200135610c3f565b34801561036757600080fd5b506102376004803603604081101561037e57600080fd5b50803590602001356001600160a01b0316610c5c565b3480156103a057600080fd5b506103a9610c79565b604080519115158252519081900360200190f35b3480156103c957600080fd5b50610237610c8a565b3480156103de57600080fd5b50610237600480360360208110156103f557600080fd5b50356001600160a01b0316610c94565b34801561041157600080fd5b5061041a610ca6565b60408051602080825283518183015283519192839290830191858101910280838360005b8381101561045657818101518382015260200161043e565b505050509050019250505060405180910390f35b34801561047657600080fd5b506102376004803603602081101561048d57600080fd5b5035610d08565b3480156104a057600080fd5b506102c4600480360360408110156104b757600080fd5b50803590602001356001600160a01b0316610d1a565b3480156104d957600080fd5b5061041a600480360360408110156104f057600080fd5b506001600160a01b0381358116916020013516610db6565b34801561051457600080fd5b506102376004803603602081101561052b57600080fd5b50356001600160a01b03166111d6565b34801561054757600080fd5b50610237611886565b34801561055c57600080fd5b50610237600480360360a081101561057357600080fd5b508035906020810135906040810135906060810135906080013561188c565b34801561059e57600080fd5b50610237600480360360408110156105b557600080fd5b50803590602001356001600160a01b0316611920565b3480156105d757600080fd5b50610237600480360360808110156105ee57600080fd5b508035906020810135906040810135906060013561193d565b34801561061357600080fd5b506103a96004803603606081101561062a57600080fd5b6001600160a01b0382351691602081013591810190606081016040820135600160201b81111561065957600080fd5b82018360208201111561066b57600080fd5b803590602001918460018302840111600160201b8311171561068c57600080fd5b91908080601f0160208091040260200160405190810160405280939291908181526020018383808284376000920191909152509295506119b9945050505050565b3480156106d957600080fd5b506102376119c0565b3480156106ee57600080fd5b506102c46004803603604081101561070557600080fd5b50803590602001356001600160a01b03166119cd565b34801561072757600080fd5b50610237611a51565b34801561073c57600080fd5b50610237611a57565b34801561075157600080fd5b506102376004803603602081101561076857600080fd5b50356001600160a01b0316611a5d565b34801561078457600080fd5b506102376004803603604081101561079b57600080fd5b50803590602001356001600160a01b0316611a6f565b3480156107bd57600080fd5b506102c4600480360360208110156107d457600080fd5b50356001600160a01b0316611acb565b3480156107f057600080fd5b506102c4611b74565b34801561080557600080fd5b506102376004803603602081101561081c57600080fd5b5035611da0565b34801561082f57600080fd5b5061041a6004803603602081101561084657600080fd5b50356001600160a01b0316611db2565b34801561086257600080fd5b5061086b611e1c565b604080516001600160a01b039092168252519081900360200190f35b34801561089357600080fd5b50610237600480360360608110156108aa57600080fd5b50803590602081013590604001356001600160a01b0316611e2b565b3480156108d257600080fd5b50610237600480360360408110156108e957600080fd5b50803590602001356001600160a01b0316611e93565b34801561090b57600080fd5b506109ca6004803603604081101561092257600080fd5b810190602081018135600160201b81111561093c57600080fd5b82018360208201111561094e57600080fd5b803590602001918460208302840111600160201b8311171561096f57600080fd5b919390929091602081019035600160201b81111561098c57600080fd5b82018360208201111561099e57600080fd5b803590602001918460208302840111600160201b831117156109bf57600080fd5b509092509050611eae565b604051808060200180602001838103835285818151815260200191508051906020019060200280838360005b83811015610a0e5781810151838201526020016109f6565b50505050905001838103825284818151815260200191508051906020019060200280838360005b83811015610a4d578181015183820152602001610a35565b5050505090500194505050505060405180910390f35b348015610a6f57600080fd5b506102c460048036036040811015610a8657600080fd5b506001600160a01b0381358116916020013516612779565b602a60209081526000928352604080842090915290825290205481565b610ac36128ca565b6001600160a01b0316336001600160a01b031614610ae057600080fd5b610ae8610c79565b610af157600080fd5b60005b600254811015610b4d5760006001600060028481548110610b1157fe5b6000918252602080832091909101546001600160a01b031683528201929092526040019020805460ff1916911515919091179055600101610af4565b610b5960028484613543565b50600090505b81811015610bb1576001806000858585818110610b7857fe5b602090810292909201356001600160a01b0316835250810191909152604001600020805460ff1916911515919091179055600101610b5f565b505050565b3360009081526001602052604090205460ff16610bd257600080fd5b80610bdc57600080fd5b602154610bef908263ffffffff6128ef16565b6021819055604080518381526020810192909252805133927f619cc90cbd264bea3dfc113e68fd307789a937a8c10ef4b0110607ac7490367392908290030190a250565b63069ad3e560e11b5b90565b602460209081526000928352604080842090915290825290205481565b602260209081526000928352604080842090915290825290205481565b602c546001600160a01b0316151590565b6502987894704b81565b60236020526000908152604090205481565b60606002805480602002602001604051908101604052809291908181526020018280548015610cfe57602002820191906000526020600020905b81546001600160a01b03168152600190910190602001808311610ce0575b5050505050905090565b60256020526000908152604090205481565b602c60009054906101000a90046001600160a01b03166001600160a01b031663ee99205c6040518163ffffffff1660e01b815260040160206040518083038186803b158015610d6857600080fd5b505afa158015610d7c573d6000803e3d6000fd5b505050506040513d6020811015610d9257600080fd5b50516001600160a01b03163314610da857600080fd5b610db28282612908565b5050565b602c54604080516253517560e01b81526001600160a01b0385811660048301529151606093600093169162535175916024808301926020929190829003018186803b158015610e0457600080fd5b505afa158015610e18573d6000803e3d6000fd5b505050506040513d6020811015610e2e57600080fd5b5051602c5460408051633ba6481760e21b815290519293506000926001600160a01b039092169163ee99205c91600480820192602092909190829003018186803b158015610e7b57600080fd5b505afa158015610e8f573d6000803e3d6000fd5b505050506040513d6020811015610ea557600080fd5b505190506001600160a01b03858116908516148015906000908190610fe65760408051632b2cdba160e11b81526001600160a01b038a811660048301528981166024830152915191861691635659b74291604480820192602092909190829003018186803b158015610f1657600080fd5b505afa158015610f2a573d6000803e3d6000fd5b505050506040513d6020811015610f4057600080fd5b5051915081610f6557505060408051600081526020810190915293506111d092505050565b6040805163bc9eb2c360e01b81526001600160a01b038a81166004830152898116602483015291519186169163bc9eb2c391604480820192602092909190829003018186803b158015610fb757600080fd5b505afa158015610fcb573d6000803e3d6000fd5b505050506040513d6020811015610fe157600080fd5b505190505b6001600160a01b03851660009081526020818152604091829020805483518181528184028101909301909352919060609082801561102e578160200160208202803883390190505b5090506000805b8381101561115857600085828154811061104b57fe5b906000526020600020015490508815611086578781101561106c5750611150565b80871115801561107b57508615155b156110865750611158565b896001600160a01b031663317277308f8f846040518463ffffffff1660e01b815260040180846001600160a01b03166001600160a01b03168152602001836001600160a01b03166001600160a01b03168152602001828152602001935050505060206040518083038186803b1580156110fe57600080fd5b505afa158015611112573d6000803e3d6000fd5b505050506040513d602081101561112857600080fd5b505161114e578084848060010195508151811061114157fe5b6020026020010181815250505b505b600101611035565b81604051908082528060200260200182016040528015611182578160200160208202803883390190505b509a50600090505b818110156111c55782818151811061119e57fe5b60200260200101518b82815181106111b257fe5b602090810291909101015260010161118a565b505050505050505050505b92915050565b600080602c60009054906101000a90046001600160a01b03166001600160a01b031663ee99205c6040518163ffffffff1660e01b815260040160206040518083038186803b15801561122757600080fd5b505afa15801561123b573d6000803e3d6000fd5b505050506040513d602081101561125157600080fd5b505160408051630f29818d60e31b815290519192506000916001600160a01b0384169163794c0c68916004808301926020929190829003018186803b15801561129957600080fd5b505afa1580156112ad573d6000803e3d6000fd5b505050506040513d60208110156112c357600080fd5b50519050806112d757600092505050611881565b602c54604080516253517560e01b81526001600160a01b038781166004830152915160009392909216916253517591602480820192602092909190829003018186803b15801561132657600080fd5b505afa15801561133a573d6000803e3d6000fd5b505050506040513d602081101561135057600080fd5b5051602c546040805163facd743b60e01b81526001600160a01b038085166004830152915193945091169163facd743b91602480820192602092909190829003018186803b1580156113a157600080fd5b505afa1580156113b5573d6000803e3d6000fd5b505050506040513d60208110156113cb57600080fd5b505115611423576000828152602a602090815260408083206001600160a01b0385168085529083528184205486855260298452828520918552925290912054611419918491620f424061193d565b9350505050611881565b602c60009054906101000a90046001600160a01b03166001600160a01b031663b927ef436040518163ffffffff1660e01b815260040160206040518083038186803b15801561147157600080fd5b505afa158015611485573d6000803e3d6000fd5b505050506040513d602081101561149b57600080fd5b50516117795760606000602c60009054906101000a90046001600160a01b03166001600160a01b031663eebc7a396040518163ffffffff1660e01b815260040160006040518083038186803b1580156114f357600080fd5b505afa158015611507573d6000803e3d6000fd5b505050506040513d6000823e601f3d908101601f19168201604052602081101561153057600080fd5b810190808051600160201b81111561154757600080fd5b8201602081018481111561155a57600080fd5b81518560208202830111600160201b8211171561157657600080fd5b5090955060009450505050505b81518110156116145781818151811061159857fe5b60200260200101516001600160a01b0316836001600160a01b0316141561160c576000848152602a602090815260408083206001600160a01b0387168085529083528184205488855260298452828520918552925290912054611600918691620f424061193d565b95505050505050611881565b600101611583565b602c60009054906101000a90046001600160a01b03166001600160a01b0316624a88036040518163ffffffff1660e01b815260040160006040518083038186803b15801561166157600080fd5b505afa158015611675573d6000803e3d6000fd5b505050506040513d6000823e601f3d908101601f19168201604090815281101561169e57600080fd5b810190808051600160201b8111156116b557600080fd5b820160208101848111156116c857600080fd5b81518560208202830111600160201b821117156116e457600080fd5b5090955060009450505050505b81518110156117765781818151811061170657fe5b60200260200101516001600160a01b0316836001600160a01b0316141561176e576000848152602a602090815260408083206001600160a01b0387168085529083528184205488855260298452828520918552925290912054611600918691620f424061193d565b6001016116f1565b50505b6040805163a697ecff60e01b81526001600160a01b03878116600483018190526024830152915161187b9285929087169163a697ecff91604480820192602092909190829003018186803b1580156117d057600080fd5b505afa1580156117e4573d6000803e3d6000fd5b505050506040513d60208110156117fa57600080fd5b505160408051632933f0eb60e11b81526001600160a01b038a81166004830152915191881691635267e1d691602480820192602092909190829003018186803b15801561184657600080fd5b505afa15801561185a573d6000803e3d6000fd5b505050506040513d602081101561187057600080fd5b5051620f424061193d565b93505050505b919050565b60265481565b6000841580611899575083155b806118a2575082155b156118af57506000611917565b600080858510156118c15760006118c5565b8585035b6000898152602b60205260409020549091508082026064829003880211156118fa5785888602816118f257fe5b049250611911565b8160640281606403898702028161190d57fe5b0492505b50909150505b95945050505050565b602960209081526000928352604080842090915290825290205481565b600083158061194a575082155b15611957575060006119b1565b6000808585101561196957600061196d565b8585035b6000888152602b60205260409020549091508082026064829003880211156119a257858786028161199a57fe5b0492506119ab565b60648582020492505b50909150505b949350505050565b6000806000fd5b6004546005540360010190565b3360009081526001602052604090205460ff166119e957600080fd5b816119f357600080fd5b60035460ff16611a0257600080fd5b611a0d82823361297f565b60408051838152905133916001600160a01b038416917f3c798bbcf33115b42c728b8504cff11dd58736e9fa789f1cda2738db7d696b2a9181900360200190a35050565b60215481565b60285481565b60276020526000908152604090205481565b6000828152602a602090815260408083206001600160a01b03851680855290835281842054868552602984528285208286528452828520548786526022855283862092865291909352908320546119179086908490849061193d565b611ad36129f4565b1580611af75750611ae26128ca565b6001600160a01b0316336001600160a01b0316145b611b0057600080fd5b611b08610c79565b15611b1257600080fd5b6001600160a01b038116611b2557600080fd5b602c80546001600160a01b0319166001600160a01b039290921691909117905560008052602b602052601e7fe18c65fb8491ea105d3652ed62258476aaccd771ae89682addbba12f33acc62a55565b602c546001600160a01b03163314611b8b57600080fd5b602c5460408051633ba6481760e21b815290516000926001600160a01b03169163ee99205c916004808301926020929190829003018186803b158015611bd057600080fd5b505afa158015611be4573d6000803e3d6000fd5b505050506040513d6020811015611bfa57600080fd5b505160408051630f29818d60e31b815290519192506000916001600160a01b0384169163794c0c68916004808301926020929190829003018186803b158015611c4257600080fd5b505afa158015611c56573d6000803e3d6000fd5b505050506040513d6020811015611c6c57600080fd5b5051602c546040805163b7ab4db560e01b815290519293506060926001600160a01b039092169163b7ab4db591600480820192600092909190829003018186803b158015611cb957600080fd5b505afa158015611ccd573d6000803e3d6000fd5b505050506040513d6000823e601f3d908101601f191682016040526020811015611cf657600080fd5b810190808051600160201b811115611d0d57600080fd5b82016020810184811115611d2057600080fd5b81518560208202830111600160201b82111715611d3c57600080fd5b50909450600093505050505b8151811015611d9a576000838152602080526040812083518290859085908110611d6e57fe5b6020908102919091018101516001600160a01b0316825281019190915260400160002055600101611d48565b50505050565b602b6020526000908152604090205481565b6001600160a01b03811660009081526020818152604091829020805483518184028101840190945280845260609392830182828015611e1057602002820191906000526020600020905b815481526020019060010190808311611dfc575b50505050509050919050565b602c546001600160a01b031681565b6000828152602a602090815260408083206001600160a01b0385168085529083528184205486855260298452828520828652845282852054878652602285528386209286529190935290832054611e8990869088908590859061188c565b9695505050505050565b60208080526000928352604080842090915290825290205481565b6060806002600160a01b033314611ec457600080fd5b8483141580611ed4575060018514155b80611efb575083836000818110611ee757fe5b9050602002013561ffff1661ffff16600014155b15611f2c5760408051600080825260208201909252905b506040805160008152602081019091529092509050612770565b602c546001600160a01b031663facd743b8787600081611f4857fe5b905060200201356001600160a01b03166040518263ffffffff1660e01b815260040180826001600160a01b03166001600160a01b0316815260200191505060206040518083038186803b158015611f9e57600080fd5b505afa158015611fb2573d6000803e3d6000fd5b505050506040513d6020811015611fc857600080fd5b5051611fe4576040805160008082526020820190925290611f12565b602c60009054906101000a90046001600160a01b03166001600160a01b031663ccf69e9b6040518163ffffffff1660e01b815260040160206040518083038186803b15801561203257600080fd5b505afa158015612046573d6000803e3d6000fd5b505050506040513d602081101561205c57600080fd5b50516040805163109c110760e01b815290516001600160a01b039092169163109c11079160048082019260009290919082900301818387803b1580156120a157600080fd5b505af11580156120b5573d6000803e3d6000fd5b505060035460ff1691506120df9050576001600481905560006005556003805460ff191690911790555b602c5460408051633ba6481760e21b815290516064926000926001600160a01b039091169163ee99205c91600480820192602092909190829003018186803b15801561212a57600080fd5b505afa15801561213e573d6000803e3d6000fd5b505050506040513d602081101561215457600080fd5b505160408051630f29818d60e31b815290519192506000916001600160a01b0384169163794c0c68916004808301926020929190829003018186803b15801561219c57600080fd5b505afa1580156121b0573d6000803e3d6000fd5b505050506040513d60208110156121c657600080fd5b50516040805163461121d760e11b815290519192506000916001600160a01b03851691638c2243ae916004808301926020929190829003018186803b15801561220e57600080fd5b505afa158015612222573d6000803e3d6000fd5b505050506040513d602081101561223857600080fd5b5051602c546040805163b927ef4360e01b815290519293506000926001600160a01b039092169163b927ef4391600480820192602092909190829003018186803b15801561228557600080fd5b505afa158015612299573d6000803e3d6000fd5b505050506040513d60208110156122af57600080fd5b5051156123a75782158015906123605750602c546001600160a01b031663a92252ae8c8c6000816122dc57fe5b905060200201356001600160a01b03166040518263ffffffff1660e01b815260040180826001600160a01b03166001600160a01b0316815260200191505060206040518083038186803b15801561233257600080fd5b505afa158015612346573d6000803e3d6000fd5b505050506040513d602081101561235c57600080fd5b5051155b156123a75760008381526020805260408120908c8c828161237d57fe5b602090810292909201356001600160a01b0316835250810191909152604001600020805460010190555b816123b06129f4565b141561275c5782156123ca576123c78484846129f8565b90505b602c60009054906101000a90046001600160a01b03166001600160a01b0316635ccee1de6040518163ffffffff1660e01b8152600401600060405180830381600087803b15801561241a57600080fd5b505af115801561242e573d6000803e3d6000fd5b5050602c546040805163eebc7a3960e01b81529051600094506001880193506060926001600160a01b03169163eebc7a399160048083019288929190829003018186803b15801561247e57600080fd5b505afa158015612492573d6000803e3d6000fd5b505050506040513d6000823e601f3d908101601f1916820160405260208110156124bb57600080fd5b810190808051600160201b8111156124d257600080fd5b820160208101848111156124e557600080fd5b81518560208202830111600160201b8211171561250157600080fd5b5060009750909450505050505b805183101561254057612535878383868151811061252857fe5b6020026020010151612e78565b60019092019161250e565b602c60009054906101000a90046001600160a01b03166001600160a01b031663b7ab4db56040518163ffffffff1660e01b815260040160006040518083038186803b15801561258e57600080fd5b505afa1580156125a2573d6000803e3d6000fd5b505050506040513d6000823e601f3d908101601f1916820160405260208110156125cb57600080fd5b810190808051600160201b8111156125e257600080fd5b820160208101848111156125f557600080fd5b81518560208202830111600160201b8211171561261157600080fd5b5060009750909450505050505b805183101561264357612638878383868151811061252857fe5b60019092019161261e565b602c60009054906101000a90046001600160a01b03166001600160a01b0316624a88036040518163ffffffff1660e01b815260040160006040518083038186803b15801561269057600080fd5b505afa1580156126a4573d6000803e3d6000fd5b505050506040513d6000823e601f3d908101601f1916820160409081528110156126cd57600080fd5b810190808051600160201b8111156126e457600080fd5b820160208101848111156126f757600080fd5b81518560208202830111600160201b8211171561271357600080fd5b5060009750909450505050505b80518310156127455761273a878383868151811061252857fe5b600190920191612720565b506000908152602b60205260408120601e90559550505b612766818661306e565b9650965050505050505b94509492505050565b6127816128ca565b6001600160a01b0316336001600160a01b03161461279e57600080fd5b602654156127ab57600080fd5b6000816001600160a01b031663553a5c856040518163ffffffff1660e01b815260040160206040518083038186803b1580156127e657600080fd5b505afa1580156127fa573d6000803e3d6000fd5b505050506040513d602081101561281057600080fd5b505160408051631694a47d60e31b81526001600160a01b03868116600483015291519293506000929185169163b4a523e891602480820192602092909190829003018186803b15801561286257600080fd5b505afa158015612876573d6000803e3d6000fd5b505050506040513d602081101561288c57600080fd5b505190508161289a57600080fd5b806128a457600080fd5b6026919091556001600160a01b0390921660009081526027602052604090209190915550565b7fb53127684a568b3173ae13b9f8a6016e243e63b6e8ee1178d6a717850b5d61035490565b60008282018381101561290157600080fd5b9392505050565b811580159061293957506040516001600160a01b0382169083156108fc029084906000818181858888f19350505050155b15610db257818160405161294c906135a6565b6001600160a01b039091168152604051908190036020019082f080158015612978573d6000803e3d6000fd5b5050505050565b60058054604080516060810182529586526001600160a01b03938416602080880191825295851687830190815260019384016000818152600690985292909620965187555191860180549285166001600160a01b03199384161790559351600290950180549590931694169390931790559055565b4390565b60006060602c60009054906101000a90046001600160a01b03166001600160a01b031663b7ab4db56040518163ffffffff1660e01b815260040160006040518083038186803b158015612a4a57600080fd5b505afa158015612a5e573d6000803e3d6000fd5b505050506040513d6000823e601f3d908101601f191682016040526020811015612a8757600080fd5b810190808051600160201b811115612a9e57600080fd5b82016020810184811115612ab157600080fd5b81518560208202830111600160201b82111715612acd57600080fd5b5050602c546040805163b927ef4360e01b8152905192965060009550600194508593506001600160a01b039091169163b927ef4391600480820192602092909190829003018186803b158015612b2257600080fd5b505afa158015612b36573d6000803e3d6000fd5b505050506040513d6020811015612b4c57600080fd5b505190508015612c665760006003602c60009054906101000a90046001600160a01b03166001600160a01b031663714897df6040518163ffffffff1660e01b815260040160206040518083038186803b158015612ba857600080fd5b505afa158015612bbc573d6000803e3d6000fd5b505050506040513d6020811015612bd257600080fd5b505160020281612bde57fe5b04896001600160a01b0316637069e7466040518163ffffffff1660e01b815260040160206040518083038186803b158015612c1857600080fd5b505afa158015612c2c573d6000803e3d6000fd5b505050506040513d6020811015612c4257600080fd5b505101600101905080821015612c56578091505b6001828803810194509087030191505b60608451604051908082528060200260200182016040528015612c93578160200160208202803883390190505b50905060008415612e4c5760005b8651811015612e4a57602c5487516001600160a01b039091169063a92252ae90899084908110612ccd57fe5b60200260200101516040518263ffffffff1660e01b815260040180826001600160a01b03166001600160a01b0316815260200191505060206040518083038186803b158015612d1b57600080fd5b505afa158015612d2f573d6000803e3d6000fd5b505050506040513d6020811015612d4557600080fd5b5051158015612d9e5750602a60008b81526020019081526020016000206000888381518110612d7057fe5b60200260200101516001600160a01b03166001600160a01b0316815260200190815260200160002054600014155b15612e0a57602060008b81526020019081526020016000206000888381518110612dc457fe5b60200260200101516001600160a01b03166001600160a01b0316815260200190815260200160002054838281518110612df957fe5b602002602001018181525050612e25565b6000838281518110612e1857fe5b6020026020010181815250505b828181518110612e3157fe5b6020026020010151820191508080600101915050612ca1565b505b612e5a898686898686613285565b9650612e6b8a8a87878a87876133bd565b5050505050509392505050565b60008281526029602090815260408083206001600160a01b038516845290915290205415612ea557610bb1565b602c54604080516307b9342f60e21b81526001600160a01b03848116600483015291516000939290921691631ee4d0bc91602480820192602092909190829003018186803b158015612ef657600080fd5b505afa158015612f0a573d6000803e3d6000fd5b505050506040513d6020811015612f2057600080fd5b505160408051632933f0eb60e11b81526001600160a01b038084166004830152915192935060009291871691635267e1d691602480820192602092909190829003018186803b158015612f7257600080fd5b505afa158015612f86573d6000803e3d6000fd5b505050506040513d6020811015612f9c57600080fd5b5051905080612fac575050610bb1565b60008481526029602090815260408083206001600160a01b03808816855290835292819020849055805163a697ecff60e01b815285841660048201819052602482015290519288169263a697ecff92604480840193919291829003018186803b15801561301857600080fd5b505afa15801561302c573d6000803e3d6000fd5b505050506040513d602081101561304257600080fd5b50516000858152602a602090815260408083206001600160a01b03881684529091529020555050505050565b606080600061307b6119c0565b9050838111156130885750825b8415158061309757600061309a565b60015b60ff1682016040519080825280602002602001820160405280156130c8578160200160208202803883390190505b50935083516040519080825280602002602001820160405280156130f6578160200160208202803883390190505b50925060005b828110156131735760008060006131116133c6565b9250925092508188858151811061312457fe5b60200260200101906001600160a01b031690816001600160a01b0316815250508287858151811061315157fe5b602002602001018181525050613168838383613447565b5050506001016130fc565b5080156131c1573084838151811061318757fe5b60200260200101906001600160a01b031690816001600160a01b031681525050858383815181106131b457fe5b6020026020010181815250505b7f2834f3daea15e82b5f27095c4b6d08cd437f303149009a0a3304be801d2dd7ce8484604051808060200180602001838103835285818151815260200191508051906020019060200280838360005b83811015613228578181015183820152602001613210565b50505050905001838103825284818151815260200191508051906020019060200280838360005b8381101561326757818101518382015260200161324f565b5050505090500194505050505060405180910390a150509250929050565b6028546021546000910161329988866134b5565b01806132a9576000915050611e89565b600060218190558084158015906132bf57508715155b156133aa5787898402816132cf57fe5b04915081156133aa5760005b87518110156133a8576000868883815181106132f357fe5b602002602001015185028161330457fe5b04905080602260008e815260200190815260200160002060008b858151811061332957fe5b6020908102919091018101516001600160a01b031682528101919091526040016000205591820191801561339f576000808a848151811061336657fe5b6020908102919091018101516001600160a01b031682528181019290925260400160009081208054600181018255908252919020018c90555b506001016132db565b505b9182900360285550979650505050505050565b50505050505050565b6004546005546000918291829190818110156133ed57600094506000935060009250613440565b6000828152600660205260408120805460028201805460018085018054969095556001600160a01b03198087169095559381169091556004805490930190925596506001600160a01b0390811695501692505b5050909192565b60006134516129f4565b6001600160a01b03938416600081815260246020908152604080832085845282528083208990559282526023815282822080548901905592815260258352818120805488019055939094168352602790525020805482019055602680549091019055565b600061290183836502987894704b846000805b845181101561352c576029600087815260200190815260200160002060008683815181106134f257fe5b60200260200101516001600160a01b03166001600160a01b03168152602001908152602001600020548201915080806001019150506134c8565b50670de0b6b3a76400009083020490509392505050565b828054828255906000526020600020908101928215613596579160200282015b828111156135965781546001600160a01b0319166001600160a01b03843516178255602090920191600190910190613563565b506135a29291506135b2565b5090565b6032806135d783390190565b610c3c91905b808211156135a25780546001600160a01b03191681556001016135b856fe60806040526040516032380380603283398181016040526020811015602357600080fd5b50516001600160a01b038116fffea265627a7a7230582020e1bc3218dd17bd8652ad8c72173f200c0832c0d92ea32759db70813f0f9fa964736f6c634300050a0032",
  "source": "pragma solidity 0.5.10;\n\n//import \"./base/BlockRewardAuRaTokens.sol\";\nimport \"./base/BlockRewardAuRaCoins.sol\";\n\n\n// contract BlockRewardAuRa is BlockRewardAuRaTokens {}\n\n// Uncomment this line and comment out the above one\n// if staking in native coins is needed instead of staking in tokens:\ncontract BlockRewardAuRa is BlockRewardAuRaCoins {}",
  "sourcePath": "/home/jack/prog/blkchn/velas/posdao-test-setup/posdao-contracts/contracts/BlockRewardAuRa.sol",
  "compiler": {
    "name": "solc",
    "version": "0.5.10+commit.5a6ea5b1.Emscripten.clang"
  },
  "schemaVersion": "3.0.17",
  "updatedAt": "2020-03-10T10:00:07.679Z",
  "devdoc": {
    "methods": {
      "addBridgeNativeRewardReceivers(uint256)": {
        "details": "Called by the `erc-to-native` bridge contract when a portion of the bridge fee should be minted and distributed to participants (validators and their delegators) in native coins. The specified amount is used by the `_distributeRewards` function.",
        "params": {
          "_amount": "The fee amount distributed to participants."
        }
      },
      "addExtraReceiver(uint256,address)": {
        "details": "Called by the `erc-to-native` bridge contract when the bridge needs to mint a specified amount of native coins for a specified address using the `reward` function.",
        "params": {
          "_amount": "The amount of native coins which must be minted for the `_receiver` address.",
          "_receiver": "The address for which the `_amount` of native coins must be minted."
        }
      },
      "blockRewardContractId()": {
        "details": "Returns an identifier for the bridge contract so that the latter could ensure it works with the BlockReward contract."
      },
      "clearBlocksCreated()": {
        "details": "Called by the `ValidatorSetAuRa.finalizeChange` to clear the values in the `blocksCreated` mapping for the current staking epoch and a new validator set."
      },
      "delegatorShare(uint256,uint256,uint256,uint256,uint256)": {
        "details": "Calculates delegator's share for the given pool reward amount and the specified staking epoch. Used by the `StakingAuRa.claimReward` function.",
        "params": {
          "_delegatorStaked": "The amount staked by a delegator.",
          "_poolReward": "The value of pool reward.",
          "_stakingEpoch": "The number of staking epoch.",
          "_totalStaked": "The total amount staked by a validator and their delegators.",
          "_validatorStaked": "The amount staked by a validator."
        }
      },
      "epochsPoolGotRewardFor(address)": {
        "details": "Returns an array of epoch numbers for which the specified pool (mining address) got a non-zero reward."
      },
      "epochsToClaimRewardFrom(address,address)": {
        "details": "Returns an array of epoch numbers for which the specified staker can claim a reward from the specified pool by the `StakingAuRa.claimReward` function.",
        "params": {
          "_poolStakingAddress": "The pool staking address.",
          "_staker": "The staker's address (delegator or candidate/validator)."
        }
      },
      "ercToNativeBridgesAllowed()": {
        "details": "Returns the array of `erc-to-native` bridge addresses set by the `setErcToNativeBridgesAllowed` setter."
      },
      "extraReceiversQueueSize()": {
        "details": "Returns the current size of the address queue created by the `addExtraReceiver` function."
      },
      "getDelegatorReward(uint256,uint256,address)": {
        "details": "Returns the reward amount in native coins for some delegator with the specified stake amount placed into the specified pool before the specified staking epoch. Used by the `StakingAuRa.claimReward` function.",
        "params": {
          "_delegatorStake": "The stake amount placed by some delegator into the `_poolMiningAddress` pool.",
          "_poolMiningAddress": "The pool mining address.",
          "_stakingEpoch": "The serial number of staking epoch."
        },
        "return": "`uint256 nativeReward` - the reward amount in native coins."
      },
      "getValidatorReward(uint256,address)": {
        "details": "Returns the reward amount in native coins for the specified validator and for the specified staking epoch. Used by the `StakingAuRa.claimReward` function.",
        "params": {
          "_poolMiningAddress": "The pool mining address.",
          "_stakingEpoch": "The serial number of staking epoch."
        },
        "return": "`uint256 nativeReward` - the reward amount in native coins."
      },
      "initialize(address)": {
        "details": "Initializes the contract at network startup. Can only be called by the constructor of the `InitializerAuRa` contract or owner.",
        "params": {
          "_validatorSet": "The address of the `ValidatorSetAuRa` contract."
        }
      },
      "isInitialized()": {
        "details": "Returns a boolean flag indicating if the `initialize` function has been called."
      },
      "migrateMintingStatistics(address,address)": {
        "details": "Copies the minting statistics from the previous BlockReward contract for the `mintedTotally` and `mintedTotallyByBridge` getters. Can only be called once by the owner. This function assumes the bridge contract address is not changed due to its upgradable nature.",
        "params": {
          "_bridge": "The address of a bridge contract.",
          "_prevBlockRewardContract": "The address of the previous BlockReward contract."
        }
      },
      "onTokenTransfer(address,uint256,bytes)": {
        "details": "Prevents sending tokens directly to the `BlockRewardAuRa` contract address by the `ERC677BridgeTokenRewardable.transferAndCall` function."
      },
      "reward(address[],uint16[])": {
        "details": "Called by the validator's node when producing and closing a block, see https://wiki.parity.io/Block-Reward-Contract.html. This function performs all of the automatic operations needed for controlling numbers revealing by validators, accumulating block producing statistics, starting a new staking epoch, snapshotting staking amounts for the upcoming staking epoch, rewards distributing at the end of a staking epoch, and minting native coins needed for the `erc-to-native` bridge."
      },
      "setErcToNativeBridgesAllowed(address[])": {
        "details": "Sets the array of `erc-to-native` bridge addresses which are allowed to call some of the functions with the `onlyErcToNativeBridge` modifier. This setter can only be called by the `owner`.",
        "params": {
          "_bridgesAllowed": "The array of bridge addresses."
        }
      },
      "transferReward(uint256,address)": {
        "details": "Called by the `StakingAuRa.claimReward` function to transfer native coins from the balance of the `BlockRewardAuRa` contract to the specified address as a reward.",
        "params": {
          "_nativeCoins": "The amount of native coins to transfer as a reward.",
          "_to": "The target address to transfer the amounts to."
        }
      },
      "validatorRewardPercent(address)": {
        "details": "Returns the reward coefficient for the specified validator. The given value should be divided by 10000 to get the value of the reward percent (since EVM doesn't support float values). If the specified staking address is an address of a candidate that is not about to be a validator on the current staking epoch the potentially possible reward coefficient is returned.",
        "params": {
          "_stakingAddress": "The staking address of the validator/candidate pool for which the getter must return the coefficient."
        }
      },
      "validatorShare(uint256,uint256,uint256,uint256)": {
        "details": "Calculates validator's share for the given pool reward amount and the specified staking epoch. Used by the `validatorRewardPercent` and `StakingAuRa.claimReward` functions.",
        "params": {
          "_poolReward": "The value of pool reward.",
          "_stakingEpoch": "The number of staking epoch.",
          "_totalStaked": "The total amount staked by a validator and their delegators.",
          "_validatorStaked": "The amount staked by a validator."
        }
      }
    }
  },
  "userdoc": {
    "methods": {}
  }
}