{
  "contractName": "StakingAuRa",
  "abi": [
    {
      "constant": true,
      "inputs": [
        {
          "name": "",
          "type": "address"
        },
        {
          "name": "",
          "type": "address"
        },
        {
          "name": "",
          "type": "uint256"
        }
      ],
      "name": "delegatorStakeSnapshot",
      "outputs": [
        {
          "name": "",
          "type": "uint256"
        }
      ],
      "payable": false,
      "stateMutability": "view",
      "type": "function"
    },
    {
      "constant": true,
      "inputs": [
        {
          "name": "",
          "type": "address"
        },
        {
          "name": "",
          "type": "address"
        }
      ],
      "name": "poolDelegatorIndex",
      "outputs": [
        {
          "name": "",
          "type": "uint256"
        }
      ],
      "payable": false,
      "stateMutability": "view",
      "type": "function"
    },
    {
      "constant": false,
      "inputs": [],
      "name": "removePools",
      "outputs": [],
      "payable": false,
      "stateMutability": "nonpayable",
      "type": "function"
    },
    {
      "constant": false,
      "inputs": [
        {
          "name": "_validatorSetContract",
          "type": "address"
        },
        {
          "name": "_initialStakingAddresses",
          "type": "address[]"
        },
        {
          "name": "_delegatorMinStake",
          "type": "uint256"
        },
        {
          "name": "_candidateMinStake",
          "type": "uint256"
        },
        {
          "name": "_stakingEpochDuration",
          "type": "uint256"
        },
        {
          "name": "_stakingEpochStartBlock",
          "type": "uint256"
        },
        {
          "name": "_stakeWithdrawDisallowPeriod",
          "type": "uint256"
        }
      ],
      "name": "initialize",
      "outputs": [],
      "payable": false,
      "stateMutability": "nonpayable",
      "type": "function"
    },
    {
      "constant": false,
      "inputs": [
        {
          "name": "_blockNumber",
          "type": "uint256"
        }
      ],
      "name": "setStakingEpochStartBlock",
      "outputs": [],
      "payable": false,
      "stateMutability": "nonpayable",
      "type": "function"
    },
    {
      "constant": false,
      "inputs": [
        {
          "name": "_stakingEpochDuration",
          "type": "uint256"
        }
      ],
      "name": "setStakingEpochDuration",
      "outputs": [],
      "payable": false,
      "stateMutability": "nonpayable",
      "type": "function"
    },
    {
      "constant": false,
      "inputs": [
        {
          "name": "_fromPoolStakingAddress",
          "type": "address"
        },
        {
          "name": "_toPoolStakingAddress",
          "type": "address"
        },
        {
          "name": "_amount",
          "type": "uint256"
        }
      ],
      "name": "moveStake",
      "outputs": [],
      "payable": false,
      "stateMutability": "nonpayable",
      "type": "function"
    },
    {
      "constant": false,
      "inputs": [
        {
          "name": "_minStake",
          "type": "uint256"
        }
      ],
      "name": "setDelegatorMinStake",
      "outputs": [],
      "payable": false,
      "stateMutability": "nonpayable",
      "type": "function"
    },
    {
      "constant": true,
      "inputs": [
        {
          "name": "",
          "type": "address"
        },
        {
          "name": "",
          "type": "address"
        },
        {
          "name": "",
          "type": "uint256"
        }
      ],
      "name": "rewardWasTaken",
      "outputs": [
        {
          "name": "",
          "type": "bool"
        }
      ],
      "payable": false,
      "stateMutability": "view",
      "type": "function"
    },
    {
      "constant": false,
      "inputs": [
        {
          "name": "_amount",
          "type": "uint256"
        },
        {
          "name": "_miningAddress",
          "type": "address"
        }
      ],
      "name": "addPool",
      "outputs": [],
      "payable": true,
      "stateMutability": "payable",
      "type": "function"
    },
    {
      "constant": true,
      "inputs": [],
      "name": "isInitialized",
      "outputs": [
        {
          "name": "",
          "type": "bool"
        }
      ],
      "payable": false,
      "stateMutability": "view",
      "type": "function"
    },
    {
      "constant": false,
      "inputs": [
        {
          "name": "_stakingAddress",
          "type": "address"
        }
      ],
      "name": "removePool",
      "outputs": [],
      "payable": false,
      "stateMutability": "nonpayable",
      "type": "function"
    },
    {
      "constant": false,
      "inputs": [
        {
          "name": "_stakingEpochs",
          "type": "uint256[]"
        },
        {
          "name": "_poolStakingAddress",
          "type": "address"
        }
      ],
      "name": "claimReward",
      "outputs": [],
      "payable": false,
      "stateMutability": "nonpayable",
      "type": "function"
    },
    {
      "constant": false,
      "inputs": [
        {
          "name": "_minStake",
          "type": "uint256"
        }
      ],
      "name": "setCandidateMinStake",
      "outputs": [],
      "payable": false,
      "stateMutability": "nonpayable",
      "type": "function"
    },
    {
      "constant": true,
      "inputs": [
        {
          "name": "",
          "type": "address"
        }
      ],
      "name": "stakeAmountTotal",
      "outputs": [
        {
          "name": "",
          "type": "uint256"
        }
      ],
      "payable": false,
      "stateMutability": "view",
      "type": "function"
    },
    {
      "constant": true,
      "inputs": [
        {
          "name": "",
          "type": "address"
        },
        {
          "name": "",
          "type": "address"
        }
      ],
      "name": "stakeFirstEpoch",
      "outputs": [
        {
          "name": "",
          "type": "uint256"
        }
      ],
      "payable": false,
      "stateMutability": "view",
      "type": "function"
    },
    {
      "constant": true,
      "inputs": [],
      "name": "candidateMinStake",
      "outputs": [
        {
          "name": "",
          "type": "uint256"
        }
      ],
      "payable": false,
      "stateMutability": "view",
      "type": "function"
    },
    {
      "constant": true,
      "inputs": [
        {
          "name": "",
          "type": "address"
        }
      ],
      "name": "poolInactiveIndex",
      "outputs": [
        {
          "name": "",
          "type": "uint256"
        }
      ],
      "payable": false,
      "stateMutability": "view",
      "type": "function"
    },
    {
      "constant": true,
      "inputs": [],
      "name": "getPools",
      "outputs": [
        {
          "name": "",
          "type": "address[]"
        }
      ],
      "payable": false,
      "stateMutability": "view",
      "type": "function"
    },
    {
      "constant": false,
      "inputs": [],
      "name": "allowMiningClaimCall",
      "outputs": [],
      "payable": false,
      "stateMutability": "nonpayable",
      "type": "function"
    },
    {
      "constant": true,
      "inputs": [
        {
          "name": "_poolStakingAddress",
          "type": "address"
        },
        {
          "name": "_staker",
          "type": "address"
        }
      ],
      "name": "maxWithdrawAllowed",
      "outputs": [
        {
          "name": "",
          "type": "uint256"
        }
      ],
      "payable": false,
      "stateMutability": "view",
      "type": "function"
    },
    {
      "constant": true,
      "inputs": [],
      "name": "stakingEpochStartBlock",
      "outputs": [
        {
          "name": "",
          "type": "uint256"
        }
      ],
      "payable": false,
      "stateMutability": "view",
      "type": "function"
    },
    {
      "constant": true,
      "inputs": [
        {
          "name": "_poolStakingAddress",
          "type": "address"
        }
      ],
      "name": "poolDelegatorsInactive",
      "outputs": [
        {
          "name": "",
          "type": "address[]"
        }
      ],
      "payable": false,
      "stateMutability": "view",
      "type": "function"
    },
    {
      "constant": false,
      "inputs": [],
      "name": "executeParamsChange",
      "outputs": [],
      "payable": false,
      "stateMutability": "nonpayable",
      "type": "function"
    },
    {
      "constant": true,
      "inputs": [
        {
          "name": "_poolStakingAddress",
          "type": "address"
        },
        {
          "name": "_staker",
          "type": "address"
        }
      ],
      "name": "stakeAmountByCurrentEpoch",
      "outputs": [
        {
          "name": "",
          "type": "uint256"
        }
      ],
      "payable": false,
      "stateMutability": "view",
      "type": "function"
    },
    {
      "constant": true,
      "inputs": [],
      "name": "stakingEpoch",
      "outputs": [
        {
          "name": "",
          "type": "uint256"
        }
      ],
      "payable": false,
      "stateMutability": "view",
      "type": "function"
    },
    {
      "constant": true,
      "inputs": [],
      "name": "stakingEpochEndBlock",
      "outputs": [
        {
          "name": "",
          "type": "uint256"
        }
      ],
      "payable": false,
      "stateMutability": "view",
      "type": "function"
    },
    {
      "constant": false,
      "inputs": [
        {
          "name": "_stakeWithdrawDisallowPeriod",
          "type": "uint256"
        }
      ],
      "name": "setStakeWithdrawDisallowPeriod",
      "outputs": [],
      "payable": false,
      "stateMutability": "nonpayable",
      "type": "function"
    },
    {
      "constant": true,
      "inputs": [
        {
          "name": "_poolStakingAddress",
          "type": "address"
        },
        {
          "name": "_staker",
          "type": "address"
        }
      ],
      "name": "maxWithdrawOrderAllowed",
      "outputs": [
        {
          "name": "",
          "type": "uint256"
        }
      ],
      "payable": false,
      "stateMutability": "view",
      "type": "function"
    },
    {
      "constant": true,
      "inputs": [
        {
          "name": "",
          "type": "address"
        },
        {
          "name": "",
          "type": "address"
        }
      ],
      "name": "poolDelegatorInactiveIndex",
      "outputs": [
        {
          "name": "",
          "type": "uint256"
        }
      ],
      "payable": false,
      "stateMutability": "view",
      "type": "function"
    },
    {
      "constant": false,
      "inputs": [
        {
          "name": "_newEpochDuration",
          "type": "uint256"
        },
        {
          "name": "_newStakeWithdrawDisallowPeriod",
          "type": "uint256"
        },
        {
          "name": "_newCollectRoundLength",
          "type": "uint256"
        }
      ],
      "name": "scheduleParamsChange",
      "outputs": [],
      "payable": false,
      "stateMutability": "nonpayable",
      "type": "function"
    },
    {
      "constant": true,
      "inputs": [],
      "name": "getPoolsLikelihood",
      "outputs": [
        {
          "name": "likelihoods",
          "type": "uint256[]"
        },
        {
          "name": "sum",
          "type": "uint256"
        }
      ],
      "payable": false,
      "stateMutability": "view",
      "type": "function"
    },
    {
      "constant": true,
      "inputs": [],
      "name": "stakeWithdrawDisallowPeriod",
      "outputs": [
        {
          "name": "",
          "type": "uint256"
        }
      ],
      "payable": false,
      "stateMutability": "view",
      "type": "function"
    },
    {
      "constant": false,
      "inputs": [
        {
          "name": "_unremovableStakingAddress",
          "type": "address"
        }
      ],
      "name": "clearUnremovableValidator",
      "outputs": [],
      "payable": false,
      "stateMutability": "nonpayable",
      "type": "function"
    },
    {
      "constant": true,
      "inputs": [
        {
          "name": "_staker",
          "type": "address"
        },
        {
          "name": "_offset",
          "type": "uint256"
        },
        {
          "name": "_length",
          "type": "uint256"
        }
      ],
      "name": "getStakerPools",
      "outputs": [
        {
          "name": "result",
          "type": "address[]"
        }
      ],
      "payable": false,
      "stateMutability": "view",
      "type": "function"
    },
    {
      "constant": true,
      "inputs": [
        {
          "name": "_poolStakingAddress",
          "type": "address"
        }
      ],
      "name": "poolDelegators",
      "outputs": [
        {
          "name": "",
          "type": "address[]"
        }
      ],
      "payable": false,
      "stateMutability": "view",
      "type": "function"
    },
    {
      "constant": true,
      "inputs": [
        {
          "name": "",
          "type": "address"
        },
        {
          "name": "",
          "type": "address"
        }
      ],
      "name": "orderWithdrawEpoch",
      "outputs": [
        {
          "name": "",
          "type": "uint256"
        }
      ],
      "payable": false,
      "stateMutability": "view",
      "type": "function"
    },
    {
      "constant": true,
      "inputs": [
        {
          "name": "",
          "type": "address"
        },
        {
          "name": "",
          "type": "uint256"
        },
        {
          "name": "",
          "type": "bytes"
        }
      ],
      "name": "onTokenTransfer",
      "outputs": [
        {
          "name": "",
          "type": "bool"
        }
      ],
      "payable": false,
      "stateMutability": "pure",
      "type": "function"
    },
    {
      "constant": true,
      "inputs": [],
      "name": "getPoolsToBeElected",
      "outputs": [
        {
          "name": "",
          "type": "address[]"
        }
      ],
      "payable": false,
      "stateMutability": "view",
      "type": "function"
    },
    {
      "constant": true,
      "inputs": [
        {
          "name": "",
          "type": "address"
        },
        {
          "name": "",
          "type": "address"
        }
      ],
      "name": "stakeAmount",
      "outputs": [
        {
          "name": "",
          "type": "uint256"
        }
      ],
      "payable": false,
      "stateMutability": "view",
      "type": "function"
    },
    {
      "constant": true,
      "inputs": [
        {
          "name": "_staker",
          "type": "address"
        }
      ],
      "name": "getStakerPoolsLength",
      "outputs": [
        {
          "name": "",
          "type": "uint256"
        }
      ],
      "payable": false,
      "stateMutability": "view",
      "type": "function"
    },
    {
      "constant": true,
      "inputs": [
        {
          "name": "_stakingAddress",
          "type": "address"
        }
      ],
      "name": "isPoolActive",
      "outputs": [
        {
          "name": "",
          "type": "bool"
        }
      ],
      "payable": false,
      "stateMutability": "view",
      "type": "function"
    },
    {
      "constant": false,
      "inputs": [
        {
          "name": "_toPoolStakingAddress",
          "type": "address"
        },
        {
          "name": "_amount",
          "type": "uint256"
        }
      ],
      "name": "stake",
      "outputs": [],
      "payable": true,
      "stateMutability": "payable",
      "type": "function"
    },
    {
      "constant": true,
      "inputs": [
        {
          "name": "",
          "type": "address"
        }
      ],
      "name": "poolIndex",
      "outputs": [
        {
          "name": "",
          "type": "uint256"
        }
      ],
      "payable": false,
      "stateMutability": "view",
      "type": "function"
    },
    {
      "constant": false,
      "inputs": [
        {
          "name": "_poolStakingAddress",
          "type": "address"
        },
        {
          "name": "_amount",
          "type": "int256"
        }
      ],
      "name": "orderWithdraw",
      "outputs": [],
      "payable": false,
      "stateMutability": "nonpayable",
      "type": "function"
    },
    {
      "constant": true,
      "inputs": [
        {
          "name": "",
          "type": "address"
        },
        {
          "name": "",
          "type": "address"
        }
      ],
      "name": "stakeLastEpoch",
      "outputs": [
        {
          "name": "",
          "type": "uint256"
        }
      ],
      "payable": false,
      "stateMutability": "view",
      "type": "function"
    },
    {
      "constant": false,
      "inputs": [
        {
          "name": "_poolStakingAddress",
          "type": "address"
        }
      ],
      "name": "claimOrderedWithdraw",
      "outputs": [],
      "payable": false,
      "stateMutability": "nonpayable",
      "type": "function"
    },
    {
      "constant": true,
      "inputs": [],
      "name": "getPoolsToBeRemoved",
      "outputs": [
        {
          "name": "",
          "type": "address[]"
        }
      ],
      "payable": false,
      "stateMutability": "view",
      "type": "function"
    },
    {
      "constant": false,
      "inputs": [],
      "name": "disallowMiningClaimCall",
      "outputs": [],
      "payable": false,
      "stateMutability": "nonpayable",
      "type": "function"
    },
    {
      "constant": true,
      "inputs": [],
      "name": "stakingEpochDuration",
      "outputs": [
        {
          "name": "",
          "type": "uint256"
        }
      ],
      "payable": false,
      "stateMutability": "view",
      "type": "function"
    },
    {
      "constant": true,
      "inputs": [],
      "name": "delegatorMinStake",
      "outputs": [
        {
          "name": "",
          "type": "uint256"
        }
      ],
      "payable": false,
      "stateMutability": "view",
      "type": "function"
    },
    {
      "constant": true,
      "inputs": [
        {
          "name": "",
          "type": "address"
        }
      ],
      "name": "orderedWithdrawAmountTotal",
      "outputs": [
        {
          "name": "",
          "type": "uint256"
        }
      ],
      "payable": false,
      "stateMutability": "view",
      "type": "function"
    },
    {
      "constant": true,
      "inputs": [],
      "name": "getPoolsInactive",
      "outputs": [
        {
          "name": "",
          "type": "address[]"
        }
      ],
      "payable": false,
      "stateMutability": "view",
      "type": "function"
    },
    {
      "constant": true,
      "inputs": [],
      "name": "validatorSetContract",
      "outputs": [
        {
          "name": "",
          "type": "address"
        }
      ],
      "payable": false,
      "stateMutability": "view",
      "type": "function"
    },
    {
      "constant": true,
      "inputs": [
        {
          "name": "_staker",
          "type": "address"
        }
      ],
      "name": "isMiningClaimCallAllowed",
      "outputs": [
        {
          "name": "",
          "type": "bool"
        }
      ],
      "payable": false,
      "stateMutability": "view",
      "type": "function"
    },
    {
      "constant": true,
      "inputs": [
        {
          "name": "",
          "type": "address"
        },
        {
          "name": "",
          "type": "address"
        }
      ],
      "name": "orderedWithdrawAmount",
      "outputs": [
        {
          "name": "",
          "type": "uint256"
        }
      ],
      "payable": false,
      "stateMutability": "view",
      "type": "function"
    },
    {
      "constant": false,
      "inputs": [],
      "name": "removeMyPool",
      "outputs": [],
      "payable": false,
      "stateMutability": "nonpayable",
      "type": "function"
    },
    {
      "constant": true,
      "inputs": [
        {
          "name": "",
          "type": "address"
        }
      ],
      "name": "poolToBeRemovedIndex",
      "outputs": [
        {
          "name": "",
          "type": "uint256"
        }
      ],
      "payable": false,
      "stateMutability": "view",
      "type": "function"
    },
    {
      "constant": false,
      "inputs": [],
      "name": "incrementStakingEpoch",
      "outputs": [],
      "payable": false,
      "stateMutability": "nonpayable",
      "type": "function"
    },
    {
      "constant": true,
      "inputs": [],
      "name": "MAX_CANDIDATES",
      "outputs": [
        {
          "name": "",
          "type": "uint256"
        }
      ],
      "payable": false,
      "stateMutability": "view",
      "type": "function"
    },
    {
      "constant": false,
      "inputs": [
        {
          "name": "_fromPoolStakingAddress",
          "type": "address"
        },
        {
          "name": "_amount",
          "type": "uint256"
        }
      ],
      "name": "withdraw",
      "outputs": [],
      "payable": false,
      "stateMutability": "nonpayable",
      "type": "function"
    },
    {
      "constant": true,
      "inputs": [],
      "name": "areStakeAndWithdrawAllowed",
      "outputs": [
        {
          "name": "",
          "type": "bool"
        }
      ],
      "payable": false,
      "stateMutability": "view",
      "type": "function"
    },
    {
      "constant": true,
      "inputs": [
        {
          "name": "",
          "type": "address"
        }
      ],
      "name": "poolToBeElectedIndex",
      "outputs": [
        {
          "name": "",
          "type": "uint256"
        }
      ],
      "payable": false,
      "stateMutability": "view",
      "type": "function"
    },
    {
      "constant": true,
      "inputs": [
        {
          "name": "_stakingEpochs",
          "type": "uint256[]"
        },
        {
          "name": "_poolStakingAddress",
          "type": "address"
        },
        {
          "name": "_staker",
          "type": "address"
        }
      ],
      "name": "getRewardAmount",
      "outputs": [
        {
          "name": "rewardSum",
          "type": "uint256"
        }
      ],
      "payable": false,
      "stateMutability": "view",
      "type": "function"
    },
    {
      "payable": true,
      "stateMutability": "payable",
      "type": "fallback"
    },
    {
      "anonymous": false,
      "inputs": [
        {
          "indexed": true,
          "name": "fromPoolStakingAddress",
          "type": "address"
        },
        {
          "indexed": true,
          "name": "staker",
          "type": "address"
        },
        {
          "indexed": true,
          "name": "stakingEpoch",
          "type": "uint256"
        },
        {
          "indexed": false,
          "name": "nativeCoinsAmount",
          "type": "uint256"
        }
      ],
      "name": "ClaimedReward",
      "type": "event"
    },
    {
      "anonymous": false,
      "inputs": [
        {
          "indexed": true,
          "name": "poolStakingAddress",
          "type": "address"
        }
      ],
      "name": "AddedPool",
      "type": "event"
    },
    {
      "anonymous": false,
      "inputs": [
        {
          "indexed": true,
          "name": "fromPoolStakingAddress",
          "type": "address"
        },
        {
          "indexed": true,
          "name": "staker",
          "type": "address"
        },
        {
          "indexed": true,
          "name": "stakingEpoch",
          "type": "uint256"
        },
        {
          "indexed": false,
          "name": "amount",
          "type": "uint256"
        }
      ],
      "name": "ClaimedOrderedWithdrawal",
      "type": "event"
    },
    {
      "anonymous": false,
      "inputs": [
        {
          "indexed": false,
          "name": "fromPoolStakingAddress",
          "type": "address"
        },
        {
          "indexed": true,
          "name": "toPoolStakingAddress",
          "type": "address"
        },
        {
          "indexed": true,
          "name": "staker",
          "type": "address"
        },
        {
          "indexed": true,
          "name": "stakingEpoch",
          "type": "uint256"
        },
        {
          "indexed": false,
          "name": "amount",
          "type": "uint256"
        }
      ],
      "name": "MovedStake",
      "type": "event"
    },
    {
      "anonymous": false,
      "inputs": [
        {
          "indexed": true,
          "name": "fromPoolStakingAddress",
          "type": "address"
        },
        {
          "indexed": true,
          "name": "staker",
          "type": "address"
        },
        {
          "indexed": true,
          "name": "stakingEpoch",
          "type": "uint256"
        },
        {
          "indexed": false,
          "name": "amount",
          "type": "int256"
        }
      ],
      "name": "OrderedWithdrawal",
      "type": "event"
    },
    {
      "anonymous": false,
      "inputs": [
        {
          "indexed": true,
          "name": "toPoolStakingAddress",
          "type": "address"
        },
        {
          "indexed": true,
          "name": "staker",
          "type": "address"
        },
        {
          "indexed": true,
          "name": "stakingEpoch",
          "type": "uint256"
        },
        {
          "indexed": false,
          "name": "amount",
          "type": "uint256"
        }
      ],
      "name": "PlacedStake",
      "type": "event"
    },
    {
      "anonymous": false,
      "inputs": [
        {
          "indexed": true,
          "name": "poolStakingAddress",
          "type": "address"
        }
      ],
      "name": "RemovedPool",
      "type": "event"
    },
    {
      "anonymous": false,
      "inputs": [
        {
          "indexed": true,
          "name": "fromPoolStakingAddress",
          "type": "address"
        },
        {
          "indexed": true,
          "name": "staker",
          "type": "address"
        },
        {
          "indexed": true,
          "name": "stakingEpoch",
          "type": "uint256"
        },
        {
          "indexed": false,
          "name": "amount",
          "type": "uint256"
        }
      ],
      "name": "WithdrewStake",
      "type": "event"
    }
  ],
  "bytecode": "0x608060405234801561001057600080fd5b50615243806100206000396000f3fe6080604052600436106103c25760003560e01c806397997ebb116101f2578063d53651701161010d578063edd7db75116100a0578063f3fef3a31161006f578063f3fef3a314611017578063f494250114611050578063fa4aaf4714611065578063fb367a9b14611098576103c2565b8063edd7db7514610fa5578063edf94b8214610fba578063ee435f5514610fed578063f078609614611002576103c2565b8063df6f55f5116100dc578063df6f55f514610ef1578063dfc8bf4e14610f06578063e9471b1c14610f37578063e9ab030014610f6a576103c2565b8063d536517014610e7f578063d609ea9314610e94578063da7a9b6a14610ea9578063dadee88a14610ebe576103c2565b8063a6a3a25611610185578063b61ed63a11610154578063b61ed63a14610dc3578063bc9eb2c314610dfc578063cfef144114610e37578063d290c21d14610e6a576103c2565b8063a6a3a25614610cfe578063a711e6a114610d31578063adc9772e14610d64578063b42754a514610d90576103c2565b8063a4205967116101c1578063a420596714610bad578063a4c0ed3614610be8578063a5d54f6514610cae578063a697ecff14610cc3576103c2565b806397997ebb14610af357806398c46b9014610b085780639dc7798814610b3b5780639ea8082b14610b7a576103c2565b80635fef7643116102e2578063750dd2a111610275578063950a651311610244578063950a6513146109d75780639518c48114610a12578063954a35f714610a4d578063957950a714610a83576103c2565b8063750dd2a114610948578063794c0c68146109835780638c2243ae146109985780638efe5e49146109ad576103c2565b80636bda1577116102b15780636bda1577146108b05780637069e746146108eb57806373c218031461090057806374d9654214610933576103c2565b80635fef7643146107ee5780636511391814610803578063673a2a1f146108365780636ada686a1461089b576103c2565b8063317277301161035a5780633ea15d62116103295780633ea15d621461069d57806348aaa4a2146107565780635267e1d6146107805780635659b742146107b3576103c2565b806331727730146105d257806333ba888214610629578063392e53cd146106555780633b7d09461461066a576103c2565b806320d96e461161039657806320d96e46146105115780632474435a1461053b578063251441a9146105655780632bafde8d146105a8576103c2565b80622ceebc146103c75780630868c0d61461041c5780631555371c146104575780631c5fb52d1461046e575b600080fd5b3480156103d357600080fd5b5061040a600480360360608110156103ea57600080fd5b506001600160a01b0381358116916020810135909116906040013561115c565b60408051918252519081900360200190f35b34801561042857600080fd5b5061040a6004803603604081101561043f57600080fd5b506001600160a01b038135811691602001351661117f565b34801561046357600080fd5b5061046c61119c565b005b34801561047a57600080fd5b5061046c600480360360e081101561049157600080fd5b6001600160a01b038235169190810190604081016020820135600160201b8111156104bb57600080fd5b8201836020820111156104cd57600080fd5b803590602001918460208302840111600160201b831117156104ee57600080fd5b919350915080359060208101359060408101359060608101359060800135611248565b34801561051d57600080fd5b5061046c6004803603602081101561053457600080fd5b50356112bf565b34801561054757600080fd5b5061046c6004803603602081101561055e57600080fd5b50356112db565b34801561057157600080fd5b5061046c6004803603606081101561058857600080fd5b506001600160a01b03813581169160208101359091169060400135611316565b3480156105b457600080fd5b5061046c600480360360208110156105cb57600080fd5b50356113bb565b3480156105de57600080fd5b50610615600480360360608110156105f557600080fd5b506001600160a01b038135811691602081013590911690604001356113f6565b604080519115158252519081900360200190f35b61046c6004803603604081101561063f57600080fd5b50803590602001356001600160a01b031661141c565b34801561066157600080fd5b50610615611499565b34801561067657600080fd5b5061046c6004803603602081101561068d57600080fd5b50356001600160a01b03166114ab565b3480156106a957600080fd5b5061046c600480360360408110156106c057600080fd5b810190602081018135600160201b8111156106da57600080fd5b8201836020820111156106ec57600080fd5b803590602001918460208302840111600160201b8311171561070d57600080fd5b919080806020026020016040519081016040528093929190818152602001838360200280828437600092019190915250929550505090356001600160a01b031691506114ce9050565b34801561076257600080fd5b5061046c6004803603602081101561077957600080fd5b5035611ba5565b34801561078c57600080fd5b5061040a600480360360208110156107a357600080fd5b50356001600160a01b0316611be0565b3480156107bf57600080fd5b5061040a600480360360408110156107d657600080fd5b506001600160a01b0381358116916020013516611bf2565b3480156107fa57600080fd5b5061040a611c0f565b34801561080f57600080fd5b5061040a6004803603602081101561082657600080fd5b50356001600160a01b0316611c15565b34801561084257600080fd5b5061084b611c27565b60408051602080825283518183015283519192839290830191858101910280838360005b8381101561088757818101518382015260200161086f565b505050509050019250505060405180910390f35b3480156108a757600080fd5b5061046c611c89565b3480156108bc57600080fd5b5061040a600480360360408110156108d357600080fd5b506001600160a01b0381358116916020013516611cb6565b3480156108f757600080fd5b5061040a611e1d565b34801561090c57600080fd5b5061084b6004803603602081101561092357600080fd5b50356001600160a01b0316611e23565b34801561093f57600080fd5b5061046c611e99565b34801561095457600080fd5b5061040a6004803603604081101561096b57600080fd5b506001600160a01b0381358116916020013516612165565b34801561098f57600080fd5b5061040a61219a565b3480156109a457600080fd5b5061040a6121a0565b3480156109b957600080fd5b5061046c600480360360208110156109d057600080fd5b50356121c5565b3480156109e357600080fd5b5061040a600480360360408110156109fa57600080fd5b506001600160a01b0381358116916020013516612200565b348015610a1e57600080fd5b5061040a60048036036040811015610a3557600080fd5b506001600160a01b0381358116916020013516612370565b348015610a5957600080fd5b5061046c60048036036060811015610a7057600080fd5b508035906020810135906040013561238d565b348015610a8f57600080fd5b50610a986124ad565b6040518080602001838152602001828103825284818151815260200191508051906020019060200280838360005b83811015610ade578181015183820152602001610ac6565b50505050905001935050505060405180910390f35b348015610aff57600080fd5b5061040a612510565b348015610b1457600080fd5b5061046c60048036036020811015610b2b57600080fd5b50356001600160a01b0316612516565b348015610b4757600080fd5b5061084b60048036036060811015610b5e57600080fd5b506001600160a01b038135169060208101359060400135612586565b348015610b8657600080fd5b5061084b60048036036020811015610b9d57600080fd5b50356001600160a01b03166126c5565b348015610bb957600080fd5b5061040a60048036036040811015610bd057600080fd5b506001600160a01b0381358116916020013516612739565b348015610bf457600080fd5b5061061560048036036060811015610c0b57600080fd5b6001600160a01b0382351691602081013591810190606081016040820135600160201b811115610c3a57600080fd5b820183602082011115610c4c57600080fd5b803590602001918460018302840111600160201b83111715610c6d57600080fd5b91908080601f016020809104026020016040519081016040528093929190818152602001838380828437600092019190915250929550612756945050505050565b348015610cba57600080fd5b5061084b61275d565b348015610ccf57600080fd5b5061040a60048036036040811015610ce657600080fd5b506001600160a01b03813581169160200135166127bd565b348015610d0a57600080fd5b5061040a60048036036020811015610d2157600080fd5b50356001600160a01b03166127da565b348015610d3d57600080fd5b5061061560048036036020811015610d5457600080fd5b50356001600160a01b03166127f5565b61046c60048036036040811015610d7a57600080fd5b506001600160a01b03813516906020013561284d565b348015610d9c57600080fd5b5061040a60048036036020811015610db357600080fd5b50356001600160a01b0316612857565b348015610dcf57600080fd5b5061046c60048036036040811015610de657600080fd5b506001600160a01b038135169060200135612869565b348015610e0857600080fd5b5061040a60048036036040811015610e1f57600080fd5b506001600160a01b0381358116916020013516612c64565b348015610e4357600080fd5b5061046c60048036036020811015610e5a57600080fd5b50356001600160a01b0316612c81565b348015610e7657600080fd5b5061084b612e79565b348015610e8b57600080fd5b5061046c612ed9565b348015610ea057600080fd5b5061040a612f03565b348015610eb557600080fd5b5061040a612f09565b348015610eca57600080fd5b5061040a60048036036020811015610ee157600080fd5b50356001600160a01b0316612f0f565b348015610efd57600080fd5b5061084b612f21565b348015610f1257600080fd5b50610f1b612f81565b604080516001600160a01b039092168252519081900360200190f35b348015610f4357600080fd5b5061061560048036036020811015610f5a57600080fd5b50356001600160a01b0316612f90565b348015610f7657600080fd5b5061040a60048036036040811015610f8d57600080fd5b506001600160a01b0381358116916020013516612fae565b348015610fb157600080fd5b5061046c612fcb565b348015610fc657600080fd5b5061040a60048036036020811015610fdd57600080fd5b50356001600160a01b031661318e565b348015610ff957600080fd5b5061046c6131a0565b34801561100e57600080fd5b5061040a6131c2565b34801561102357600080fd5b5061046c6004803603604081101561103a57600080fd5b506001600160a01b0381351690602001356131c8565b34801561105c57600080fd5b5061061561324c565b34801561107157600080fd5b5061040a6004803603602081101561108857600080fd5b50356001600160a01b0316613284565b3480156110a457600080fd5b5061040a600480360360608110156110bb57600080fd5b810190602081018135600160201b8111156110d557600080fd5b8201836020820111156110e757600080fd5b803590602001918460208302840111600160201b8311171561110857600080fd5b919080806020026020016040519081016040528093929190818152602001838360200280828437600092019190915250929550506001600160a01b0383358116945060209093013590921691506132969050565b602660209081526000938452604080852082529284528284209052825290205481565b602a60209081526000928352604080842090915290825290205481565b6039546001600160a01b031633146111b357600080fd5b6060600380548060200260200160405190810160405280929190818152602001828054801561120b57602002820191906000526020600020905b81546001600160a01b031681526001909101906020018083116111ed575b50939450600093505050505b81518110156112445761123c82828151811061122f57fe5b6020026020010151613724565b600101611217565b5050565b8261125257600080fd5b80831161125e57600080fd5b8061126857600080fd5b6112a9888888808060200260200160405190810160405280939291908181526020018383602002808284376000920191909152508a92508991506138799050565b6036929092556034919091556037555050505050565b6039546001600160a01b031633146112d657600080fd5b603755565b6112e3613a3d565b6001600160a01b0316336001600160a01b03161461130057600080fd5b611308611499565b61131157600080fd5b603655565b3a61132057600080fd5b611328611499565b61133157600080fd5b816001600160a01b0316836001600160a01b0316141561135057600080fd5b3361135c848284613a62565b611367838284613c03565b603554604080516001600160a01b03878116825260208201869052825181861693918816927f4480d8e4b1e9095b94bf513961d26fe1d32386ebdd103d18fe8738cf4b2223ff92908290030190a450505050565b6113c3613a3d565b6001600160a01b0316336001600160a01b0316146113e057600080fd5b6113e8611499565b6113f157600080fd5b602555565b603060209081526000938452604080852082529284528284209052825290205460ff1681565b60395460408051630526083960e11b81526001600160a01b0384811660048301523360248301819052925192931691630a4c10729160448082019260009290919082900301818387803b15801561147257600080fd5b505af1158015611486573d6000803e3d6000fd5b505050506114948184614012565b505050565b6039546001600160a01b031615155b90565b6039546001600160a01b031633146114c257600080fd5b6114cb81613724565b50565b3a6114d857600080fd5b6114e0611499565b6114e957600080fd5b603954604080516307b9342f60e21b8152336004820181905291519192600092839283926001600160a01b031691631ee4d0bc91602480820192602092909190829003018186803b15801561153d57600080fd5b505afa158015611551573d6000803e3d6000fd5b505050506040513d602081101561156757600080fd5b505190506001600160a01b038116156115d85761158381612f90565b6115d4576040805162461bcd60e51b815260206004820181905260248201527f6d696e696e6720636c61696d2063616c6c206973206e6f7420616c6c6f776564604482015290519081900360640190fd5b8093505b836001600160a01b0316856001600160a01b03161461164c576001600160a01b0380861660009081526032602090815260408083209388168352929052205492508261162357600080fd5b6001600160a01b0380861660009081526033602090815260408083209388168352929052205491505b60395460408051632b5aa5d760e11b815290516000926001600160a01b0316916356b54bae916004808301926020929190829003018186803b15801561169157600080fd5b505afa1580156116a5573d6000803e3d6000fd5b505050506040513d60208110156116bb57600080fd5b5051603954604080516253517560e01b81526001600160a01b038a811660048301529151939450600093919092169162535175916024808301926020929190829003018186803b15801561170e57600080fd5b505afa158015611722573d6000803e3d6000fd5b505050506040513d602081101561173857600080fd5b50518851909150600090819061182a57836001600160a01b031663dd03f5b9846040518263ffffffff1660e01b815260040180826001600160a01b03166001600160a01b0316815260200191505060006040518083038186803b15801561179e57600080fd5b505afa1580156117b2573d6000803e3d6000fd5b505050506040513d6000823e601f3d908101601f1916820160405260208110156117db57600080fd5b810190808051600160201b8111156117f257600080fd5b8201602081018481111561180557600080fd5b81518560208202830111600160201b8211171561182157600080fd5b50909d50505050505b60005b8a51811015611b205760008b828151811061184457fe5b60200260200101519050816000148061187257508b600183038151811061186757fe5b602002602001015181115b61187b57600080fd5b603554811061188957600080fd5b6001600160a01b03808c166000908152603060209081526040808320938e1683529281528282208483529052205460ff16156118c55750611b18565b60008a6001600160a01b03168c6001600160a01b0316146119b857898210156118ef575050611b18565b8189111580156118fe57508815155b1561190a575050611b20565b611917828b868f8f61408e565b9350816001019950866001600160a01b031663e1ab96d88584896040518463ffffffff1660e01b815260040180848152602001838152602001826001600160a01b03166001600160a01b03168152602001935050505060206040518083038186803b15801561198557600080fd5b505afa158015611999573d6000803e3d6000fd5b505050506040513d60208110156119af57600080fd5b50519050611a45565b866001600160a01b031663ba2d759783886040518363ffffffff1660e01b815260040180838152602001826001600160a01b03166001600160a01b031681526020019250505060206040518083038186803b158015611a1657600080fd5b505afa158015611a2a573d6000803e3d6000fd5b505050506040513d6020811015611a4057600080fd5b505190505b611a55858263ffffffff61410316565b94506001603060008e6001600160a01b03166001600160a01b0316815260200190815260200160002060008d6001600160a01b03166001600160a01b03168152602001908152602001600020600084815260200190815260200160002060006101000a81548160ff021916908315150217905550818b6001600160a01b03168d6001600160a01b03167fd3208fd5300db64b97bc442f47ade72b7ebcd9272aaecdcc04c777bb762861b9846040518082815260200191505060405180910390a450505b60010161182d565b50836001600160a01b031663469507c6838a6040518363ffffffff1660e01b815260040180838152602001826001600160a01b03166001600160a01b0316815260200192505050600060405180830381600087803b158015611b8157600080fd5b505af1158015611b95573d6000803e3d6000fd5b5050505050505050505050505050565b611bad613a3d565b6001600160a01b0316336001600160a01b031614611bca57600080fd5b611bd2611499565b611bdb57600080fd5b602455565b60386020526000908152604090205481565b603260209081526000928352604080842090915290825290205481565b60245481565b602c6020526000908152604090205481565b60606000805480602002602001604051908101604052809291908181526020018280548015611c7f57602002820191906000526020600020905b81546001600160a01b03168152600190910190602001808311611c61575b5050505050905090565b611c91611499565b611c9a57600080fd5b336000908152605360205260409020805460ff19166001179055565b603954604080516253517560e01b81526001600160a01b03858116600483015291516000938493169162535175916024808301926020929190829003018186803b158015611d0357600080fd5b505afa158015611d17573d6000803e3d6000fd5b505050506040513d6020811015611d2d57600080fd5b50519050611d4a816001600160a01b038681169086161415614115565b611d58576000915050611e17565b6001600160a01b038085166000908152603160209081526040808320878516845282529182902054603954835163a0d16cad60e01b8152868616600482015293519194169263a0d16cad926024808301939192829003018186803b158015611dbf57600080fd5b505afa158015611dd3573d6000803e3d6000fd5b505050506040513d6020811015611de957600080fd5b5051611df8579150611e179050565b6000611e048686612165565b905080821115611e12578091505b509150505b92915050565b60375481565b6001600160a01b038116600090815260076020908152604091829020805483518184028101840190945280845260609392830182828015611e8d57602002820191906000526020600020905b81546001600160a01b03168152600190910190602001808311611e6f575b50505050509050919050565b603960009054906101000a90046001600160a01b03166001600160a01b03166356b54bae6040518163ffffffff1660e01b815260040160206040518083038186803b158015611ee757600080fd5b505afa158015611efb573d6000803e3d6000fd5b505050506040513d6020811015611f1157600080fd5b50516001600160a01b03163314611f2757600080fd5b611f2f611499565b611f3857600080fd5b600b5415801590611f4d5750600b5460365414155b15611f5e57600b8054603655600090555b600c5415801590611f735750600c5460345414155b15611f8457600c8054603455600090555b6039546040805163ccf69e9b60e01b815290516000926001600160a01b03169163ccf69e9b916004808301926020929190829003018186803b158015611fc957600080fd5b505afa158015611fdd573d6000803e3d6000fd5b505050506040513d6020811015611ff357600080fd5b50516040805163071df16360e21b815290516001600160a01b0390921691631c77c58c91600480820192602092909190829003018186803b15801561203757600080fd5b505afa15801561204b573d6000803e3d6000fd5b505050506040513d602081101561206157600080fd5b5051600d54909150158015906120795750600d548114155b156114cb57603960009054906101000a90046001600160a01b03166001600160a01b031663ccf69e9b6040518163ffffffff1660e01b815260040160206040518083038186803b1580156120cc57600080fd5b505afa1580156120e0573d6000803e3d6000fd5b505050506040513d60208110156120f657600080fd5b5051600d54604080516366aae47b60e11b81526004810192909252516001600160a01b039092169163cd55c8f69160248082019260009290919082900301818387803b15801561214557600080fd5b505af1158015612159573d6000803e3d6000fd5b50506000600d55505050565b6001600160a01b039182166000908152600a602090815260408083209390941682529182528281206035548252909152205490565b60355481565b60375460009080156121b35760016121b6565b60005b60ff1660365482010391505090565b6121cd613a3d565b6001600160a01b0316336001600160a01b0316146121ea57600080fd5b6121f2611499565b6121fb57600080fd5b603455565b603954604080516253517560e01b81526001600160a01b03858116600483015291516000938493169162535175916024808301926020929190829003018186803b15801561224d57600080fd5b505afa158015612261573d6000803e3d6000fd5b505050506040513d602081101561227757600080fd5b50519050612294816001600160a01b038681169086161415614115565b6122a2576000915050611e17565b6039546040805163a0d16cad60e01b81526001600160a01b0384811660048301529151919092169163a0d16cad916024808301926020929190829003018186803b1580156122ef57600080fd5b505afa158015612303573d6000803e3d6000fd5b505050506040513d602081101561231957600080fd5b5051612329576000915050611e17565b6123686123368585612165565b6001600160a01b038087166000908152603160209081526040808320938916835292905220549063ffffffff61424b16565b949350505050565b602b60209081526000928352604080842090915290825290205481565b612395613a3d565b6001600160a01b0316336001600160a01b0316146123b257600080fd5b6123ba611499565b6123c357600080fd5b826123cd57600080fd5b8183116123d957600080fd5b8083816123e257fe5b06156123ed57600080fd5b60028106156123fb57600080fd5b603960009054906101000a90046001600160a01b03166001600160a01b031663714897df6040518163ffffffff1660e01b815260040160206040518083038186803b15801561244957600080fd5b505afa15801561245d573d6000803e3d6000fd5b505050506040513d602081101561247357600080fd5b5051818161247d57fe5b061561248857600080fd5b821561249457600b8390555b81156124a057600c8290555b801561149457600d555050565b6060600060046005548180548060200260200160405190810160405280929190818152602001828054801561250157602002820191906000526020600020905b8154815260200190600101908083116124ed575b50505050509150915091509091565b60345481565b6039546001600160a01b0316331461252d57600080fd5b6001600160a01b03811661254057600080fd5b6001600160a01b03811660009081526031602090815260408083209091529020541561257d5761256f81614260565b6125788161434f565b6114cb565b6114cb8161440f565b6001600160a01b038316600090815260086020526040902060609082612604578054604080516020808402820181019092528281529183918301828280156125f757602002820191906000526020600020905b81546001600160a01b031681526001909101906020018083116125d9575b50505050509150506126be565b8054600090612619908663ffffffff61424b16565b9050808411612628578361262a565b805b604051908082528060200260200182016040528015612653578160200160208202803883390190505b50925060005b83518110156126ba57828187018154811061267057fe5b9060005260206000200160009054906101000a90046001600160a01b031684828151811061269a57fe5b6001600160a01b0390921660209283029190910190910152600101612659565b5050505b9392505050565b6001600160a01b038116600090815260066020908152604091829020805483518184028101840190945280845260609392830182828015611e8d576020028201919060005260206000209081546001600160a01b03168152600190910190602001808311611e6f5750505050509050919050565b602960209081526000928352604080842090915290825290205481565b6000806000fd5b60606002805480602002602001604051908101604052809291908181526020018280548015611c7f576020028201919060005260206000209081546001600160a01b03168152600190910190602001808311611c61575050505050905090565b603160209081526000928352604080842090915290825290205481565b6001600160a01b031660009081526008602052604090205490565b6001600160a01b0381166000908152602d60205260408120548154811080156126be5750826001600160a01b03166000828154811061283057fe5b6000918252602090912001546001600160a01b0316149392505050565b6112448282614012565b602d6020526000908152604090205481565b3a61287357600080fd5b61287b611499565b61288457600080fd5b6001600160a01b03821661289757600080fd5b806128a157600080fd5b603954604080516253517560e01b81526001600160a01b0385811660048301529151339361293093169162535175916024808301926020929190829003018186803b1580156128ef57600080fd5b505afa158015612903573d6000803e3d6000fd5b505050506040513d602081101561291957600080fd5b50516001600160a01b038381169086161415614115565b61293957600080fd5b6001600160a01b0380841660008181526027602090815260408083209486168084529482528083205484845260288352818420546031845282852096855295835281842054948452603890925282205490939291861315612a23578561299f8887612200565b8111156129ab57600080fd5b6129bb858263ffffffff61410316565b94506129cd848263ffffffff61410316565b93506129df838263ffffffff61424b16565b92506129f1828263ffffffff61424b16565b6035546001600160a01b03808b166000908152602960209081526040808320938c16835292905220559150612a729050565b6000869003612a38858263ffffffff61424b16565b9450612a4a848263ffffffff61424b16565b9350612a5c838263ffffffff61410316565b9250612a6e828263ffffffff61410316565b9150505b6001600160a01b038088166000818152602760209081526040808320948a1680845294825280832089905583835260288252808320889055603182528083208584528252808320879055838352603890915290208390551415612bbb57811580612ade57506024548210155b612ae757600080fd5b60395460408051633820c4e560e11b815290516000926001600160a01b03169163704189ca916004808301926020929190829003018186803b158015612b2c57600080fd5b505afa158015612b40573d6000803e3d6000fd5b505050506040513d6020811015612b5657600080fd5b505190506000871315612b965782158015612b835750806001600160a01b0316886001600160a01b031614155b15612b9157612b918861440f565b612bb5565b612bb588826001600160a01b03168a6001600160a01b031614156144cd565b50612c04565b811580612bca57506025548210155b612bd357600080fd5b6000861315612bf05781612beb57612beb8786614596565b612bfa565b612bfa87866146ee565b612c0487866147b0565b612c0d8761434f565b603554856001600160a01b0316886001600160a01b03167f80d5c777e5f7ac6ee89723223803ca5c0ec0204f89e99c1b0cde973c66a64594896040518082815260200191505060405180910390a450505050505050565b603360209081526000928352604080842090915290825290205481565b3a612c8b57600080fd5b612c93611499565b612c9c57600080fd5b6001600160a01b03811660009081526029602090815260408083203380855292529091205460355411612cce57600080fd5b603954604080516253517560e01b81526001600160a01b0385811660048301529151612d5f9392909216916253517591602480820192602092909190829003018186803b158015612d1e57600080fd5b505afa158015612d32573d6000803e3d6000fd5b505050506040513d6020811015612d4857600080fd5b50516001600160a01b038381169085161415614115565b612d6857600080fd5b6001600160a01b0380831660009081526027602090815260408083209385168352929052205480612d9857600080fd5b6001600160a01b038084166000818152602760209081526040808320948716835293815283822082905591815260289091522054612ddc908263ffffffff61424b16565b6001600160a01b03808516600090815260286020908152604080832094909455603181528382209286168252919091522054612e1c57612e1c83836148a2565b612e268282614a7d565b603554826001600160a01b0316846001600160a01b03167ff380b0bc887e00f5b50d3c9d4eaaf5c9a0afd97b956316b995159384c4ede9b3846040518082815260200191505060405180910390a4505050565b60606003805480602002602001604051908101604052809291908181526020018280548015611c7f576020028201919060005260206000209081546001600160a01b03168152600190910190602001808311611c61575050505050905090565b612ee1611499565b612eea57600080fd5b336000908152605360205260409020805460ff19169055565b60365481565b60255481565b60286020526000908152604090205481565b60606001805480602002602001604051908101604052809291908181526020018280548015611c7f576020028201919060005260206000209081546001600160a01b03168152600190910190602001808311611c61575050505050905090565b6039546001600160a01b031681565b6001600160a01b031660009081526053602052604090205460ff1690565b602760209081526000928352604080842090915290825290205481565b3a612fd557600080fd5b612fdd611499565b612fe657600080fd5b603954604080516253517560e01b81523360048201819052915191926000926001600160a01b039091169162535175916024808301926020929190829003018186803b15801561303557600080fd5b505afa158015613049573d6000803e3d6000fd5b505050506040513d602081101561305f57600080fd5b50516035549091501515806130ea57506039546040805163facd743b60e01b81526001600160a01b0384811660048301529151919092169163facd743b916024808301926020929190829003018186803b1580156130bc57600080fd5b505afa1580156130d0573d6000803e3d6000fd5b505050506040513d60208110156130e657600080fd5b5051155b6130f357600080fd5b603960009054906101000a90046001600160a01b03166001600160a01b031663704189ca6040518163ffffffff1660e01b815260040160206040518083038186803b15801561314157600080fd5b505afa158015613155573d6000803e3d6000fd5b505050506040513d602081101561316b57600080fd5b50516001600160a01b038381169116141561318557600080fd5b61124482613724565b602f6020526000908152604090205481565b6039546001600160a01b031633146131b757600080fd5b603580546001019055565b610bb881565b3a6131d257600080fd5b6131da611499565b6131e357600080fd5b336131ef838284613a62565b6131f98183614a7d565b603554816001600160a01b0316846001600160a01b03167fa7c0f0cac6bd4d18042007706c84a8abe823751cf289b69c01e83eef7b5915c7856040518082815260200191505060405180910390a4505050565b600080613257614ae0565b6034546036546037549293500390821015613277576000925050506114a8565b6037549091031115905090565b602e6020526000908152604090205481565b6000806000836001600160a01b0316856001600160a01b03161461330e576001600160a01b038086166000908152603260209081526040808320938816835292905220549150816132e657600080fd5b506001600160a01b038085166000908152603360209081526040808320938716835292905220545b60395460408051632b5aa5d760e11b815290516000926001600160a01b0316916356b54bae916004808301926020929190829003018186803b15801561335357600080fd5b505afa158015613367573d6000803e3d6000fd5b505050506040513d602081101561337d57600080fd5b5051603954604080516253517560e01b81526001600160a01b038a811660048301529151939450600093919092169162535175916024808301926020929190829003018186803b1580156133d057600080fd5b505afa1580156133e4573d6000803e3d6000fd5b505050506040513d60208110156133fa57600080fd5b505188516000965090915085906134ed57826001600160a01b031663dd03f5b9836040518263ffffffff1660e01b815260040180826001600160a01b03166001600160a01b0316815260200191505060006040518083038186803b15801561346157600080fd5b505afa158015613475573d6000803e3d6000fd5b505050506040513d6000823e601f3d908101601f19168201604052602081101561349e57600080fd5b810190808051600160201b8111156134b557600080fd5b820160208101848111156134c857600080fd5b81518560208202830111600160201b821117156134e457600080fd5b50909c50505050505b60005b89518110156137175760008a828151811061350757fe5b60200260200101519050816000148061353557508a600183038151811061352a57fe5b602002602001015181115b61353e57600080fd5b603554811061354c57600080fd5b6001600160a01b03808b166000908152603060209081526040808320938d1683529281528282208483529052205460ff1615613588575061370f565b6000896001600160a01b03168b6001600160a01b03161461367b57878210156135b257505061370f565b8187111580156135c157508615155b156135cd575050613717565b6135da8289868e8e61408e565b9350816001019750856001600160a01b031663e1ab96d88584886040518463ffffffff1660e01b815260040180848152602001838152602001826001600160a01b03166001600160a01b03168152602001935050505060206040518083038186803b15801561364857600080fd5b505afa15801561365c573d6000803e3d6000fd5b505050506040513d602081101561367257600080fd5b50519050613708565b856001600160a01b031663ba2d759783876040518363ffffffff1660e01b815260040180838152602001826001600160a01b03166001600160a01b031681526020019250505060206040518083038186803b1580156136d957600080fd5b505afa1580156136ed573d6000803e3d6000fd5b505050506040513d602081101561370357600080fd5b505190505b9790970196505b6001016134f0565b5050505050509392505050565b6001600160a01b0381166000908152602d60205260408120549054811080156137765750816001600160a01b03166000828154811061375f57fe5b6000918252602090912001546001600160a01b0316145b1561384257600080548190600019810190811061378f57fe5b600091825260208220015481546001600160a01b039091169250829190849081106137b657fe5b600091825260208083209190910180546001600160a01b0319166001600160a01b039485161790558383168252602d90526040808220859055918516815290812081905580549061380b90600019830161518e565b506040516001600160a01b038416907fa594a98df279c030a78f76e64f370882494d1a6fcedd0bd0d636d4608e1eb9f990600090a2505b61384b82614ae4565b1561385e5761385982614b22565b613867565b61386782614c0e565b61387082614cc6565b61124482614e6a565b613881614ae0565b15806138a55750613890613a3d565b6001600160a01b0316336001600160a01b0316145b6138ae57600080fd5b6138b6611499565b156138c057600080fd5b6001600160a01b0384166138d357600080fd5b60008351116138e157600080fd5b816138eb57600080fd5b806138f557600080fd5b603980546001600160a01b0319166001600160a01b03868116919091179182905560408051633820c4e560e11b815290516000939092169163704189ca91600480820192602092909190829003018186803b15801561395357600080fd5b505afa158015613967573d6000803e3d6000fd5b505050506040513d602081101561397d57600080fd5b5051905060005b8451811015613a2e5760006001600160a01b03168582815181106139a457fe5b60200260200101516001600160a01b031614156139c057600080fd5b6139de8582815181106139cf57fe5b602002602001015160006144cd565b816001600160a01b03168582815181106139f457fe5b60200260200101516001600160a01b031614613a2657613a26858281518110613a1957fe5b602002602001015161440f565b600101613984565b50506025919091556024555050565b7fb53127684a568b3173ae13b9f8a6016e243e63b6e8ee1178d6a717850b5d61035490565b6001600160a01b038316613a7557600080fd5b80613a7f57600080fd5b613a898383611cb6565b811115613a9557600080fd5b6001600160a01b038084166000908152603160209081526040808320938616835292905290812054613acd908363ffffffff61424b16565b90506000836001600160a01b0316856001600160a01b031614613af257602554613af6565b6024545b9050811580613b055750808210155b613b0e57600080fd5b6001600160a01b0380861660009081526031602090815260408083209388168352929052908120839055613b428686612165565b905083811015613b53576000613b57565b8381035b6001600160a01b038088166000818152600a60209081526040808320948b16835293815283822060355483528152838220949094559081526038909252902054613ba7908563ffffffff61424b16565b6001600160a01b03871660009081526038602052604090205582613bcf57613bcf86866148a2565b856001600160a01b0316856001600160a01b031614613bf257613bf286866147b0565b613bfb8661434f565b505050505050565b603954604080516253517560e01b81526001600160a01b038681166004830152915160009392909216916253517591602480820192602092909190829003018186803b158015613c5257600080fd5b505afa158015613c66573d6000803e3d6000fd5b505050506040513d6020811015613c7c57600080fd5b505190506001600160a01b038116613c9357600080fd5b6001600160a01b038416613ca657600080fd5b81613cb057600080fd5b60395460408051635491295760e11b81526001600160a01b0384811660048301529151919092169163a92252ae916024808301926020929190829003018186803b158015613cfd57600080fd5b505afa158015613d11573d6000803e3d6000fd5b505050506040513d6020811015613d2757600080fd5b505115613d3357600080fd5b613d3b61324c565b613d4457600080fd5b6001600160a01b038085166000908152603160209081526040808320938716835292905290812054613d7c908463ffffffff61410316565b9050846001600160a01b0316846001600160a01b03161415613dac57602454811015613da757600080fd5b613de5565b602554811015613dbb57600080fd5b6001600160a01b0385166000908152603160209081526040808320909152902054613de557600080fd5b6001600160a01b038086166000908152603160209081526040808320938816835292905220819055613e2783613e1b8787612165565b9063ffffffff61410316565b6001600160a01b038087166000818152600a60209081526040808320948a16835293815283822060355483528152838220949094559081526038909252902054613e77908463ffffffff61410316565b6001600160a01b0380871660008181526038602052604090209290925585161415613f3357613f2e85603960009054906101000a90046001600160a01b03166001600160a01b031663704189ca6040518163ffffffff1660e01b815260040160206040518083038186803b158015613eee57600080fd5b505afa158015613f02573d6000803e3d6000fd5b505050506040513d6020811015613f1857600080fd5b50516001600160a01b03888116911614156144cd565b613f47565b613f3d85856146ee565b613f4785856147b0565b613f508561434f565b6001600160a01b03808516600090815260086020908152604080832060098352818420948a16845293909152902054815481101580613fb85750866001600160a01b0316828281548110613fa057fe5b6000918252602090912001546001600160a01b031614155b156140095781546001600160a01b038088166000908152600960209081526040808320938c168084529382528220849055600184018655858252902090910180546001600160a01b03191690911790555b50505050505050565b3a61401c57600080fd5b614024611499565b61402d57600080fd5b50343361403b838284613c03565b603554816001600160a01b0316846001600160a01b03167f2273de02cb1f69ba6259d22c4bc22c60e4c94c193265ef6afee324a04a9b6d22856040518082815260200191505060405180910390a4505050565b60005b506001600160a01b03808316600090815260266020908152604080832093851683529281528282208883529052205480156140df5760001981146140d557806140d8565b60005b90506140fa565b848614156140ee5750826140fa565b60001990950194614091565b95945050505050565b6000828201838110156126be57600080fd5b600081156141a8576039546040805163a881c5fd60e01b81526001600160a01b0386811660048301529151919092169163a881c5fd916024808301926020929190829003018186803b15801561416a57600080fd5b505afa15801561417e573d6000803e3d6000fd5b505050506040513d602081101561419457600080fd5b5051156141a357506000611e17565b61422e565b60395460408051635491295760e11b81526001600160a01b0386811660048301529151919092169163a92252ae916024808301926020929190829003018186803b1580156141f557600080fd5b505afa158015614209573d6000803e3d6000fd5b505050506040513d602081101561421f57600080fd5b50511561422e57506000611e17565b61423661324c565b61424257506000611e17565b50600192915050565b60008282111561425a57600080fd5b50900390565b6001600160a01b0381166000908152602e602052604090205460025480821015806142b55750826001600160a01b03166002838154811061429d57fe5b6000918252602090912001546001600160a01b031614155b15614346576001600160a01b0383166000818152602e602052604081208390556002805460018181019092557f405787fa12a823e0f2b7631cc41b3ba8828b3321ca811111fa75cd3aa3bb5ace0180546001600160a01b03191690931790925560048054928301815581527f8a35acfbc15ff81a39ae7d344fd709f28e8600b4aa8c65c6b64bfe7fe36bd19b909101555b61149483614e6a565b60008061435b83614f56565b915091508161436b5750506114cb565b60006004828154811061437a57fe5b90600052602060002001549050600060386000866001600160a01b03166001600160a01b0316815260200190815260200160002054905080600484815481106143bf57fe5b6000918252602090912001558181106143ef576005546143e79083830363ffffffff61410316565b600555614408565b6005546144049082840363ffffffff61424b16565b6005555b5050505050565b6001600160a01b0381166000908152602f602052604090205460035480821015806144645750826001600160a01b03166003838154811061444c57fe5b6000918252602090912001546001600160a01b031614155b156144c4576001600160a01b0383166000818152602f602052604081208390556003805460018101825591527fc2575a0e9e593c00f959f8c92f12db2869c3395a3b0502d05e2516446f71f85b0180546001600160a01b03191690911790555b61149483614cc6565b6144d6826127f5565b61457e57600080546001600160a01b038416808352602d602052604083208290556001820183559180527f290decd9548b62a8d60345a988386fc84ba6bc95484008f6362f93160ef3e5630180546001600160a01b031916909117905561453b614fc3565b600054111561454957600080fd5b6040516001600160a01b038316907fd26e92d2046eac29686a6b001477592c752fb2045b2875e4e96f567ad735269d90600090a25b61458782614b22565b80156112445761124482614260565b6001600160a01b038083166000908152600660209081526040808320602a83528184209486168452939091529020548154811080156145fd5750826001600160a01b03168282815481106145e657fe5b6000918252602090912001546001600160a01b0316145b156146a45781546000908390600019810190811061461757fe5b9060005260206000200160009054906101000a90046001600160a01b031690508083838154811061464457fe5b600091825260208083209190910180546001600160a01b0319166001600160a01b039485161790558783168252602a81526040808320858516845290915280822085905591861681529081205582546146a184600019830161518e565b50505b6001600160a01b03808516600090815260276020908152604080832093871683529290522054156146de576146d98484614fc9565b6146e8565b6146e88484615087565b50505050565b6001600160a01b038083166000908152600660209081526040808320602a8352818420948616845293909152902054815480821015806147575750836001600160a01b031683838154811061473f57fe5b6000918252602090912001546001600160a01b031614155b156147a6576001600160a01b038086166000908152602a602090815260408083209388168084529382528220849055855460018101875586835291200180546001600160a01b03191690911790555b6144088585615087565b6035546001600160a01b03808416600090815260316020908152604080832093861683529290522054600190910190806147ec576000196147ee565b805b6001600160a01b038086166000818152602660209081526040808320948916808452948252808320888452825280832095909555918152603282528381209281529190522054614861576001600160a01b0380851660009081526032602090815260408083209387168352929052208290555b801561486e576000614870565b815b6001600160a01b0394851660009081526033602090815260408083209690971682529490945293909220929092555050565b816001600160a01b0316816001600160a01b03161415614a5c5760395460408051633820c4e560e11b815290516000926001600160a01b03169163704189ca916004808301926020929190829003018186803b15801561490157600080fd5b505afa158015614915573d6000803e3d6000fd5b505050506040513d602081101561492b57600080fd5b505190506001600160a01b0383811690821614614a5657603954604080516253517560e01b81526001600160a01b038681166004830152915160009392909216916253517591602480820192602092909190829003018186803b15801561499157600080fd5b505afa1580156149a5573d6000803e3d6000fd5b505050506040513d60208110156149bb57600080fd5b50516039546040805163facd743b60e01b81526001600160a01b038085166004830152915193945091169163facd743b91602480820192602092909190829003018186803b158015614a0c57600080fd5b505afa158015614a20573d6000803e3d6000fd5b505050506040513d6020811015614a3657600080fd5b505115614a4b57614a468461440f565b614a54565b614a5484613724565b505b50611244565b614a668282614596565b614a6f82614ae4565b156112445761124482614b22565b6040516001600160a01b0383169082156108fc029083906000818181858888f19350505050611244578082604051614ab4906151b2565b6001600160a01b039091168152604051908190036020019082f080158015614408573d6000803e3d6000fd5b4390565b6001600160a01b038116600090815260386020526040812054158015611e175750506001600160a01b03166000908152602860205260409020541590565b6001600160a01b0381166000908152602c602052604090205460015481108015614b755750816001600160a01b031660018281548110614b5e57fe5b6000918252602090912001546001600160a01b0316145b156112445760018054600091906000198101908110614b9057fe5b600091825260209091200154600180546001600160a01b039092169250829184908110614bb957fe5b600091825260208083209190910180546001600160a01b0319166001600160a01b039485161790558383168252602c9052604080822085905591851681529081205560018054906146e890600019830161518e565b6001600160a01b0381166000908152602c60205260409020546001548082101580614c635750826001600160a01b031660018381548110614c4b57fe5b6000918252602090912001546001600160a01b031614155b15611494576001600160a01b0383166000818152602c6020526040812083905560018054808201825591527fb10e2d527612073b26eecdfd717e6a320cf44b4afac2b0732d9fcbe2b7fa0cf60180546001600160a01b0319169091179055505050565b60045460025414614cd6576114cb565b6001600160a01b0381166000908152602e602052604090205460025481108015614d295750816001600160a01b031660028281548110614d1257fe5b6000918252602090912001546001600160a01b0316145b156112445760048181548110614d3b57fe5b906000526020600020015460055410614d765760048181548110614d5b57fe5b60009182526020909120015460058054919091039055614d7c565b60006005555b6002805460001981019160009183908110614d9357fe5b600091825260209091200154600280546001600160a01b039092169250829185908110614dbc57fe5b9060005260206000200160006101000a8154816001600160a01b0302191690836001600160a01b0316021790555060048281548110614df757fe5b906000526020600020015460048481548110614e0f57fe5b60009182526020808320909101929092556001600160a01b038084168252602e90925260408082208690559186168152908120556002805490614e5690600019830161518e565b50600480549061440890600019830161518e565b6001600160a01b0381166000908152602f602052604090205460035481108015614ebd5750816001600160a01b031660038281548110614ea657fe5b6000918252602090912001546001600160a01b0316145b156112445760038054600091906000198101908110614ed857fe5b600091825260209091200154600380546001600160a01b039092169250829184908110614f0157fe5b600091825260208083209190910180546001600160a01b0319166001600160a01b039485161790558383168252602f9052604080822085905591851681529081205560038054906146e890600019830161518e565b6001600160a01b0381166000908152602e602052604081205460025481108015614fa95750826001600160a01b031660028281548110614f9257fe5b6000918252602090912001546001600160a01b0316145b15614fb75760019150614fbe565b5060009050805b915091565b610bb890565b6001600160a01b038083166000908152600760209081526040808320602b8352818420948616845293909152902054815480821015806150325750836001600160a01b031683838154811061501a57fe5b6000918252602090912001546001600160a01b031614155b15614408576001600160a01b038086166000908152602b602090815260408083209388168084529382528220849055855460018101875586835291200180546001600160a01b03191690911790555050505050565b6001600160a01b038083166000908152600760209081526040808320602b83528184209486168452939091529020548154811080156150ee5750826001600160a01b03168282815481106150d757fe5b6000918252602090912001546001600160a01b0316145b156146e85781546000908390600019810190811061510857fe5b9060005260206000200160009054906101000a90046001600160a01b031690508083838154811061513557fe5b600091825260208083209190910180546001600160a01b0319166001600160a01b039485161790558783168252602b8152604080832085851684529091528082208590559186168152908120558254613bfb8460001983015b815481835581811115611494576000838152602090206114949181019083016151be565b6032806151dd83390190565b6114a891905b808211156151d857600081556001016151c4565b509056fe60806040526040516032380380603283398181016040526020811015602357600080fd5b50516001600160a01b038116fffea265627a7a72305820752bae461158a869704ca5ca69d10353980f521793177a8b7d0bd63a9a079efb64736f6c634300050a0032",
  "source": "pragma solidity 0.5.10;\n\n//import \"./base/StakingAuRaTokens.sol\";\nimport \"./base/StakingAuRaCoins.sol\";\n\n\n// contract StakingAuRa is StakingAuRaTokens {}\n\n// Uncomment this line and comment out the above one\n// if staking in native coins is needed instead of staking in tokens:\ncontract StakingAuRa is StakingAuRaCoins {}",
  "sourcePath": "/Users/base/go/src/github.com/velas/velas-smarts/posdao-contracts/contracts/StakingAuRa.sol",
  "compiler": {
    "name": "solc",
    "version": "0.5.10+commit.5a6ea5b1.Emscripten.clang"
  },
  "schemaVersion": "3.0.17",
  "updatedAt": "2020-07-22T15:14:35.344Z",
  "devdoc": {
    "methods": {
      "addPool(uint256,address)": {
        "details": "Adds a new candidate's pool to the list of active pools (see the `getPools` getter) and moves the specified amount of staking tokens/coins from the candidate's staking address to the candidate's pool. A participant calls this function using their staking address when they want to create a pool. This is a wrapper for the `stake` function.",
        "params": {
          "_amount": "The amount of tokens to be staked. Ignored when staking in native coins because `msg.value` is used in that case.",
          "_miningAddress": "The mining address of the candidate. The mining address is bound to the staking address (msg.sender). This address cannot be equal to `msg.sender`."
        }
      },
      "areStakeAndWithdrawAllowed()": {
        "details": "Determines whether staking/withdrawal operations are allowed at the moment. Used by all staking/withdrawal functions."
      },
      "claimOrderedWithdraw(address)": {
        "details": "Withdraws the staking tokens/coins from the specified pool ordered during the previous staking epochs with the `orderWithdraw` function. The ordered amount can be retrieved by the `orderedWithdrawAmount` getter.",
        "params": {
          "_poolStakingAddress": "The staking address of the pool from which the ordered tokens/coins are withdrawn."
        }
      },
      "claimReward(uint256[],address)": {
        "details": "Withdraws a reward from the specified pool for the specified staking epochs to the staker address (msg.sender).",
        "params": {
          "_poolStakingAddress": "The staking address of the pool from which the reward needs to be withdrawn.",
          "_stakingEpochs": "The list of staking epochs in ascending order. If the list is empty, it is taken with `BlockRewardAuRa.epochsPoolGotRewardFor` getter."
        }
      },
      "clearUnremovableValidator(address)": {
        "details": "Adds the `unremovable validator` to either the `poolsToBeElected` or the `poolsToBeRemoved` array depending on their own stake in their own pool when they become removable. This allows the `ValidatorSetAuRa.newValidatorSet` function to recognize the unremovable validator as a regular removable pool. Called by the `ValidatorSet.clearUnremovableValidator` function.",
        "params": {
          "_unremovableStakingAddress": "The staking address of the unremovable validator."
        }
      },
      "executeParamsChange()": {
        "details": "Schedule stakingEpochDuration change"
      },
      "getPools()": {
        "details": "Returns an array of the current active pools (the staking addresses of candidates and validators). The size of the array cannot exceed MAX_CANDIDATES. A pool can be added to this array with the `_addPoolActive` internal function which is called by the `stake` or `orderWithdraw` function. A pool is considered active if its address has at least the minimum stake and this stake is not ordered to be withdrawn."
      },
      "getPoolsInactive()": {
        "details": "Returns an array of the current inactive pools (the staking addresses of former candidates). A pool can be added to this array with the `_addPoolInactive` internal function which is called by `_removePool`. A pool is considered inactive if it is banned for some reason, if its address has zero stake, or if its entire stake is ordered to be withdrawn."
      },
      "getPoolsLikelihood()": {
        "details": "Returns the array of stake amounts for each corresponding address in the `poolsToBeElected` array (see the `getPoolsToBeElected` getter) and a sum of these amounts. Used by the `ValidatorSetAuRa.newValidatorSet` function when randomly selecting new validators at the last block of a staking epoch. An array value is updated every time any staked amount is changed in this pool (see the `_setLikelihood` internal function).",
        "return": "`uint256[] likelihoods` - The array of the coefficients. The array length is always equal to the length of the `poolsToBeElected` array. `uint256 sum` - The total sum of the amounts."
      },
      "getPoolsToBeElected()": {
        "details": "Returns the list of pools (their staking addresses) which will participate in a new validator set selection process in the `ValidatorSetAuRa.newValidatorSet` function. This is an array of pools which will be considered as candidates when forming a new validator set (at the last block of a staking epoch). This array is kept updated by the `_addPoolToBeElected` and `_deletePoolToBeElected` internal functions."
      },
      "getPoolsToBeRemoved()": {
        "details": "Returns the list of pools (their staking addresses) which will be removed by the `ValidatorSetAuRa.newValidatorSet` function from the active `pools` array (at the last block of a staking epoch). This array is kept updated by the `_addPoolToBeRemoved` and `_deletePoolToBeRemoved` internal functions. A pool is added to this array when the pool's address withdraws (or orders) all of its own staking tokens from the pool, inactivating the pool."
      },
      "getRewardAmount(uint256[],address,address)": {
        "details": "Returns reward amount in native coins for the specified pool, the specified staking epochs, and the specified staker address (delegator or validator).",
        "params": {
          "_poolStakingAddress": "The staking address of the pool for which the amounts need to be returned.",
          "_staker": "The staker address (validator's staking address or delegator's address).",
          "_stakingEpochs": "The list of staking epochs in ascending order. If the list is empty, it is taken with `BlockRewardAuRa.epochsPoolGotRewardFor` getter."
        }
      },
      "getStakerPools(address,uint256,uint256)": {
        "details": "Returns the list of pools (staking addresses) into which the specified staker have ever staked.",
        "params": {
          "_length": "The max number of items to return.",
          "_offset": "The index in the array at which the reading should start. Ignored if the `_length` is 0.",
          "_staker": "The staker address (it can be a delegator or a pool staking address itself)."
        }
      },
      "getStakerPoolsLength(address)": {
        "details": "Returns the length of the list of pools into which the specified staker have ever staked.",
        "params": {
          "_staker": "The staker address (it can be a delegator or a pool staking address itself)."
        }
      },
      "incrementStakingEpoch()": {
        "details": "Increments the serial number of the current staking epoch. Called by the `ValidatorSetAuRa.newValidatorSet` at the last block of the finished staking epoch."
      },
      "initialize(address,address[],uint256,uint256,uint256,uint256,uint256)": {
        "details": "Initializes the network parameters. Can only be called by the constructor of the `InitializerAuRa` contract or owner.",
        "params": {
          "_candidateMinStake": "The minimum allowed amount of candidate/validator stake in Wei.",
          "_delegatorMinStake": "The minimum allowed amount of delegator stake in Wei.",
          "_initialStakingAddresses": "The array of initial validators' staking addresses.",
          "_stakeWithdrawDisallowPeriod": "The duration period (in blocks) at the end of a staking epoch during which participants cannot stake/withdraw/order/claim their staking tokens/coins (e.g., 4320 = 6 hours for 5-seconds blocks in AuRa).",
          "_stakingEpochDuration": "The duration of a staking epoch in blocks (e.g., 120954 = 1 week for 5-seconds blocks in AuRa).",
          "_stakingEpochStartBlock": "The number of the first block of initial staking epoch (must be zero if the network is starting from genesis block).",
          "_validatorSetContract": "The address of the `ValidatorSetAuRa` contract."
        }
      },
      "isInitialized()": {
        "details": "Returns a boolean flag indicating if the `initialize` function has been called."
      },
      "isPoolActive(address)": {
        "details": "Returns a flag indicating whether a specified address is in the `pools` array. See the `getPools` getter.",
        "params": {
          "_stakingAddress": "The staking address of the pool."
        }
      },
      "maxWithdrawAllowed(address,address)": {
        "details": "Returns the maximum amount which can be withdrawn from the specified pool by the specified staker at the moment. Used by the `withdraw` and `moveStake` functions.",
        "params": {
          "_poolStakingAddress": "The pool staking address from which the withdrawal will be made.",
          "_staker": "The staker address that is going to withdraw."
        }
      },
      "maxWithdrawOrderAllowed(address,address)": {
        "details": "Returns the maximum amount which can be ordered to be withdrawn from the specified pool by the specified staker at the moment. Used by the `orderWithdraw` function.",
        "params": {
          "_poolStakingAddress": "The pool staking address from which the withdrawal will be ordered.",
          "_staker": "The staker address that is going to order the withdrawal."
        }
      },
      "moveStake(address,address,uint256)": {
        "details": "Moves staking tokens/coins from one pool to another. A staker calls this function when they want to move their tokens/coins from one pool to another without withdrawing their tokens/coins.",
        "params": {
          "_amount": "The amount of staking tokens/coins to be moved. The amount cannot exceed the value returned by the `maxWithdrawAllowed` getter.",
          "_fromPoolStakingAddress": "The staking address of the source pool.",
          "_toPoolStakingAddress": "The staking address of the target pool."
        }
      },
      "onTokenTransfer(address,uint256,bytes)": {
        "details": "Prevents sending tokens directly to the `StakingAuRa` contract address by the `ERC677BridgeTokenRewardable.transferAndCall` function."
      },
      "orderWithdraw(address,int256)": {
        "details": "Orders tokens/coins withdrawal from the staking address of the specified pool to the staker's address. The requested tokens/coins can be claimed after the current staking epoch is complete using the `claimOrderedWithdraw` function.",
        "params": {
          "_amount": "The amount to be withdrawn. A positive value means the staker wants to either set or increase their withdrawal amount. A negative value means the staker wants to decrease a withdrawal amount that was previously set. The amount cannot exceed the value returned by the `maxWithdrawOrderAllowed` getter.",
          "_poolStakingAddress": "The staking address of the pool from which the amount will be withdrawn."
        }
      },
      "poolDelegators(address)": {
        "details": "Returns an array of the current active delegators of the specified pool. A delegator is considered active if they have staked into the specified pool and their stake is not ordered to be withdrawn.",
        "params": {
          "_poolStakingAddress": "The pool staking address."
        }
      },
      "poolDelegatorsInactive(address)": {
        "details": "Returns an array of the current inactive delegators of the specified pool. A delegator is considered inactive if their entire stake is ordered to be withdrawn but not yet claimed.",
        "params": {
          "_poolStakingAddress": "The pool staking address."
        }
      },
      "removeMyPool()": {
        "details": "Removes the candidate's or validator's pool from the `pools` array (a list of active pools which can be retrieved by the `getPools` getter). When a candidate or validator wants to remove their pool, they should call this function from their staking address. A validator cannot remove their pool while they are an `unremovable validator`."
      },
      "removePool(address)": {
        "details": "Removes a specified pool from the `pools` array (a list of active pools which can be retrieved by the `getPools` getter). Called by the `ValidatorSetAuRa._removeMaliciousValidator` internal function when a pool must be removed by the algorithm.",
        "params": {
          "_stakingAddress": "The staking address of the pool to be removed."
        }
      },
      "removePools()": {
        "details": "Removes pools which are in the `_poolsToBeRemoved` internal array from the `pools` array. Called by the `ValidatorSetAuRa.newValidatorSet` function when a pool must be removed by the algorithm."
      },
      "scheduleParamsChange(uint256,uint256,uint256)": {
        "details": "Schedule stakingEpochDuration change"
      },
      "setCandidateMinStake(uint256)": {
        "details": "Sets (updates) the limit of the minimum candidate stake (CANDIDATE_MIN_STAKE). Can only be called by the `owner`.",
        "params": {
          "_minStake": "The value of a new limit in Wei."
        }
      },
      "setDelegatorMinStake(uint256)": {
        "details": "Sets (updates) the limit of the minimum delegator stake (DELEGATOR_MIN_STAKE). Can only be called by the `owner`.",
        "params": {
          "_minStake": "The value of a new limit in Wei."
        }
      },
      "setStakingEpochStartBlock(uint256)": {
        "details": "Sets the number of the first block in the upcoming staking epoch. Called by the `ValidatorSetAuRa.newValidatorSet` function at the last block of a staking epoch.",
        "params": {
          "_blockNumber": "The number of the very first block in the upcoming staking epoch."
        }
      },
      "stake(address,uint256)": {
        "details": "Moves the specified amount of staking tokens/coins from the staker's address to the staking address of the specified pool. Actually, the amount is stored in a balance of this StakingAuRa contract. A staker calls this function when they want to make a stake into a pool.",
        "params": {
          "_amount": "The amount of tokens to be staked. Ignored when staking in native coins because `msg.value` is used instead.",
          "_toPoolStakingAddress": "The staking address of the pool where the tokens should be staked."
        }
      },
      "stakeAmountByCurrentEpoch(address,address)": {
        "details": "Returns the amount of staking tokens/coins staked into the specified pool by the specified staker during the current staking epoch (see the `stakingEpoch` getter). Used by the `stake`, `withdraw`, and `orderWithdraw` functions.",
        "params": {
          "_poolStakingAddress": "The pool staking address.",
          "_staker": "The staker's address."
        }
      },
      "stakingEpochEndBlock()": {
        "details": "Returns the number of the last block of the current staking epoch."
      },
      "withdraw(address,uint256)": {
        "details": "Moves the specified amount of staking tokens/coins from the staking address of the specified pool to the staker's address. A staker calls this function when they want to withdraw their tokens/coins.",
        "params": {
          "_amount": "The amount of tokens/coins to be withdrawn. The amount cannot exceed the value returned by the `maxWithdrawAllowed` getter.",
          "_fromPoolStakingAddress": "The staking address of the pool from which the tokens/coins should be withdrawn."
        }
      }
    }
  },
  "userdoc": {
    "methods": {}
  }
}