{
  "contractName": "Certifier",
  "abi": [
    {
      "constant": true,
      "inputs": [],
      "name": "validatorSetContract",
      "outputs": [
        {
          "name": "",
          "type": "address"
        }
      ],
      "payable": false,
      "stateMutability": "view",
      "type": "function"
    },
    {
      "anonymous": false,
      "inputs": [
        {
          "indexed": true,
          "name": "who",
          "type": "address"
        }
      ],
      "name": "Confirmed",
      "type": "event"
    },
    {
      "anonymous": false,
      "inputs": [
        {
          "indexed": true,
          "name": "who",
          "type": "address"
        }
      ],
      "name": "Revoked",
      "type": "event"
    },
    {
      "constant": false,
      "inputs": [
        {
          "name": "_certifiedAddresses",
          "type": "address[]"
        },
        {
          "name": "_validatorSet",
          "type": "address"
        }
      ],
      "name": "initialize",
      "outputs": [],
      "payable": false,
      "stateMutability": "nonpayable",
      "type": "function"
    },
    {
      "constant": false,
      "inputs": [
        {
          "name": "_who",
          "type": "address"
        }
      ],
      "name": "certify",
      "outputs": [],
      "payable": false,
      "stateMutability": "nonpayable",
      "type": "function"
    },
    {
      "constant": false,
      "inputs": [
        {
          "name": "_who",
          "type": "address"
        }
      ],
      "name": "revoke",
      "outputs": [],
      "payable": false,
      "stateMutability": "nonpayable",
      "type": "function"
    },
    {
      "constant": true,
      "inputs": [
        {
          "name": "_who",
          "type": "address"
        }
      ],
      "name": "certified",
      "outputs": [
        {
          "name": "",
          "type": "bool"
        }
      ],
      "payable": false,
      "stateMutability": "view",
      "type": "function"
    },
    {
      "constant": true,
      "inputs": [],
      "name": "isInitialized",
      "outputs": [
        {
          "name": "",
          "type": "bool"
        }
      ],
      "payable": false,
      "stateMutability": "view",
      "type": "function"
    }
  ],
  "bytecode": "0x608060405234801561001057600080fd5b50610493806100206000396000f3fe608060405234801561001057600080fd5b50600436106100625760003560e01c80631425388714610067578063392e53cd1461008f578063462d0b2e146100ab57806374a8f10314610124578063cc1d4c021461014a578063dfc8bf4e14610170575b600080fd5b61008d6004803603602081101561007d57600080fd5b50356001600160a01b0316610194565b005b61009761020a565b604080519115158252519081900360200190f35b61008d600480360360408110156100c157600080fd5b8101906020810181356401000000008111156100dc57600080fd5b8201836020820111156100ee57600080fd5b8035906020019184602083028401116401000000008311171561011057600080fd5b9193509150356001600160a01b031661021b565b61008d6004803603602081101561013a57600080fd5b50356001600160a01b03166102ca565b6100976004803603602081101561016057600080fd5b50356001600160a01b0316610349565b6101786103f3565b604080516001600160a01b039092168252519081900360200190f35b61019c610402565b6001600160a01b0316336001600160a01b0316146101b957600080fd5b6101c161020a565b6101ca57600080fd5b6101d381610427565b6040516001600160a01b038216907fd415b905d4dd806bfba99a7a0e6351bd0c9db3a9912add21c0e6bef4479f673f90600090a250565b6001546001600160a01b0316151590565b431580610240575061022b610402565b6001600160a01b0316336001600160a01b0316145b61024957600080fd5b61025161020a565b1561025b57600080fd5b6001600160a01b03811661026e57600080fd5b60005b828110156102a55761029d84848381811061028857fe5b905060200201356001600160a01b0316610427565b600101610271565b50600180546001600160a01b0319166001600160a01b03929092169190911790555050565b6102d2610402565b6001600160a01b0316336001600160a01b0316146102ef57600080fd5b6102f761020a565b61030057600080fd5b6001600160a01b038116600081815260208190526040808220805460ff19169055517fb6fa8b8bd5eab60f292eca876e3ef90722275b785309d84b1de113ce0b8c4e749190a250565b6001600160a01b03811660009081526020819052604081205460ff1615610372575060016103ee565b600154604080516343f76bb560e11b81526001600160a01b038581166004830152915191909216916387eed76a916024808301926020929190829003018186803b1580156103bf57600080fd5b505afa1580156103d3573d6000803e3d6000fd5b505050506040513d60208110156103e957600080fd5b505190505b919050565b6001546001600160a01b031681565b7fb53127684a568b3173ae13b9f8a6016e243e63b6e8ee1178d6a717850b5d61035490565b6001600160a01b03811661043a57600080fd5b6001600160a01b03166000908152602081905260409020805460ff1916600117905556fea265627a7a72305820e779004dd4bebb2b5ce98addfee6bf3d80de4a5e633265e438de65d313812fee64736f6c634300050a0032",
  "source": "pragma solidity 0.5.10;\n\nimport \"./interfaces/ICertifier.sol\";\nimport \"./interfaces/IValidatorSetAuRa.sol\";\nimport \"./upgradeability/UpgradeableOwned.sol\";\n\n\n/// @dev Allows validators to use a zero gas price for their service transactions\n/// (see https://wiki.parity.io/Permissioning.html#gas-price for more info).\ncontract Certifier is UpgradeableOwned, ICertifier {\n\n    // =============================================== Storage ========================================================\n\n    // WARNING: since this contract is upgradeable, do not remove\n    // existing storage variables, do not change their order,\n    // and do not change their types!\n\n    mapping(address => bool) internal _certified;\n\n    /// @dev The address of the `ValidatorSetAuRa` contract.\n    IValidatorSetAuRa public validatorSetContract;\n\n    // ================================================ Events ========================================================\n\n    /// @dev Emitted by the `certify` function when the specified address is allowed to use a zero gas price\n    /// for its transactions.\n    /// @param who Specified address allowed to make zero gas price transactions.\n    event Confirmed(address indexed who);\n\n    /// @dev Emitted by the `revoke` function when the specified address is denied using a zero gas price\n    /// for its transactions.\n    /// @param who Specified address for which zero gas price transactions are denied.\n    event Revoked(address indexed who);\n\n    // ============================================== Modifiers =======================================================\n\n    /// @dev Ensures the `initialize` function was called before.\n    modifier onlyInitialized {\n        require(isInitialized());\n        _;\n    }\n\n    // =============================================== Setters ========================================================\n\n    /// @dev Initializes the contract at network startup.\n    /// Can only be called by the constructor of the `InitializerAuRa` contract or owner.\n    /// @param _certifiedAddresses The addresses for which a zero gas price must be allowed.\n    /// @param _validatorSet The address of the `ValidatorSetAuRa` contract.\n    function initialize(\n        address[] calldata _certifiedAddresses,\n        address _validatorSet\n    ) external {\n        require(block.number == 0 || msg.sender == _admin());\n        require(!isInitialized());\n        require(_validatorSet != address(0));\n        for (uint256 i = 0; i < _certifiedAddresses.length; i++) {\n            _certify(_certifiedAddresses[i]);\n        }\n        validatorSetContract = IValidatorSetAuRa(_validatorSet);\n    }\n\n    /// @dev Allows the specified address to use a zero gas price for its transactions.\n    /// Can only be called by the `owner`.\n    /// @param _who The address for which zero gas price transactions must be allowed.\n    function certify(address _who) external onlyOwner onlyInitialized {\n        _certify(_who);\n        emit Confirmed(_who);\n    }\n\n    /// @dev Denies the specified address usage of a zero gas price for its transactions.\n    /// Can only be called by the `owner`.\n    /// @param _who The address for which transactions with a zero gas price must be denied.\n    function revoke(address _who) external onlyOwner onlyInitialized {\n        _certified[_who] = false;\n        emit Revoked(_who);\n    }\n\n    // =============================================== Getters ========================================================\n\n    /// @dev Returns a boolean flag indicating whether the specified address is allowed to use zero gas price\n    /// transactions. Returns `true` if either the address is certified using the `_certify` function or if \n    /// `ValidatorSetAuRa.isReportValidatorValid` returns `true` for the specified address.\n    /// @param _who The address for which the boolean flag must be determined.\n    function certified(address _who) external view returns(bool) {\n        if (_certified[_who]) {\n            return true;\n        }\n        return validatorSetContract.isReportValidatorValid(_who);\n    }\n\n    /// @dev Returns a boolean flag indicating if the `initialize` function has been called.\n    function isInitialized() public view returns(bool) {\n        return validatorSetContract != IValidatorSetAuRa(0);\n    }\n\n    // ============================================== Internal ========================================================\n\n    /// @dev An internal function for the `certify` and `initialize` functions.\n    /// @param _who The address for which transactions with a zero gas price must be allowed.\n    function _certify(address _who) internal {\n        require(_who != address(0));\n        _certified[_who] = true;\n    }\n}\n",
  "sourcePath": "/home/jack/prog/blkchn/velas/posdao-test-setup/posdao-contracts/contracts/Certifier.sol",
  "compiler": {
    "name": "solc",
    "version": "0.5.10+commit.5a6ea5b1.Emscripten.clang"
  },
  "schemaVersion": "3.0.17",
  "updatedAt": "2020-02-26T12:57:46.131Z",
  "devdoc": {
    "details": "Allows validators to use a zero gas price for their service transactions (see https://wiki.parity.io/Permissioning.html#gas-price for more info).",
    "methods": {
      "certified(address)": {
        "details": "Returns a boolean flag indicating whether the specified address is allowed to use zero gas price transactions. Returns `true` if either the address is certified using the `_certify` function or if  `ValidatorSetAuRa.isReportValidatorValid` returns `true` for the specified address.",
        "params": {
          "_who": "The address for which the boolean flag must be determined."
        }
      },
      "certify(address)": {
        "details": "Allows the specified address to use a zero gas price for its transactions. Can only be called by the `owner`.",
        "params": {
          "_who": "The address for which zero gas price transactions must be allowed."
        }
      },
      "initialize(address[],address)": {
        "details": "Initializes the contract at network startup. Can only be called by the constructor of the `InitializerAuRa` contract or owner.",
        "params": {
          "_certifiedAddresses": "The addresses for which a zero gas price must be allowed.",
          "_validatorSet": "The address of the `ValidatorSetAuRa` contract."
        }
      },
      "isInitialized()": {
        "details": "Returns a boolean flag indicating if the `initialize` function has been called."
      },
      "revoke(address)": {
        "details": "Denies the specified address usage of a zero gas price for its transactions. Can only be called by the `owner`.",
        "params": {
          "_who": "The address for which transactions with a zero gas price must be denied."
        }
      }
    }
  },
  "userdoc": {
    "methods": {}
  }
}