{
  "contractName": "ForeignBridgeErcToErc",
  "abi": [
    {
      "constant": false,
      "inputs": [
        {
          "name": "_receiver",
          "type": "address"
        },
        {
          "name": "_amount",
          "type": "uint256"
        }
      ],
      "name": "relayTokens",
      "outputs": [],
      "payable": false,
      "stateMutability": "nonpayable",
      "type": "function"
    },
    {
      "inputs": [
        {
          "internalType": "string",
          "name": "name_",
          "type": "string"
        },
        {
          "internalType": "string",
          "name": "symbol_",
          "type": "string"
        }
      ],
      "stateMutability": "nonpayable",
      "type": "constructor"
    },
    {
      "anonymous": false,
      "inputs": [
        {
          "indexed": true,
          "internalType": "address",
          "name": "owner",
          "type": "address"
        },
        {
          "indexed": true,
          "internalType": "address",
          "name": "spender",
          "type": "address"
        },
        {
          "indexed": false,
          "internalType": "uint256",
          "name": "value",
          "type": "uint256"
        }
      ],
      "name": "Approval",
      "type": "event"
    },
    {
      "anonymous": false,
      "inputs": [
        {
          "indexed": true,
          "internalType": "address",
          "name": "from",
          "type": "address"
        },
        {
          "indexed": true,
          "internalType": "address",
          "name": "to",
          "type": "address"
        },
        {
          "indexed": false,
          "internalType": "uint256",
          "name": "value",
          "type": "uint256"
        }
      ],
      "name": "Transfer",
      "type": "event"
    },
    {
      "constant": true,
      "inputs": [
        {
          "internalType": "address",
          "name": "owner",
          "type": "address"
        },
        {
          "internalType": "address",
          "name": "spender",
          "type": "address"
        }
      ],
      "name": "allowance",
      "outputs": [
        {
          "internalType": "uint256",
          "name": "",
          "type": "uint256"
        }
      ],
      "payable": false,
      "stateMutability": "view",
      "type": "function"
    },
    {
      "constant": true,
      "inputs": [],
      "name": "maxPerTx",
      "outputs": [
        {
          "name": "",
          "type": "uint256"
        }
      ],
      "payable": false,
      "stateMutability": "view",
      "type": "function"
    },
    {
      "constant": true,
      "inputs": [],
      "name": "minPerTx",
      "outputs": [
        {
          "name": "",
          "type": "uint256"
        }
      ],
      "payable": false,
      "stateMutability": "view",
      "type": "function"
    },
    {
      "constant": true,
      "inputs": [
        {
          "internalType": "address",
          "name": "spender",
          "type": "address"
        },
        {
          "internalType": "uint256",
          "name": "amount",
          "type": "uint256"
        }
      ],
      "name": "approve",
      "outputs": [
        {
          "internalType": "bool",
          "name": "",
          "type": "bool"
        }
      ],
      "stateMutability": "nonpayable",
      "type": "function"
    },
    {
      "inputs": [
        {
          "internalType": "address",
          "name": "account",
          "type": "address"
        }
      ],
      "name": "balanceOf",
      "outputs": [
        {
          "internalType": "uint256",
          "name": "",
          "type": "uint256"
        }
      ],
      "stateMutability": "view",
      "type": "function"
    },
    {
      "inputs": [],
      "name": "decimals",
      "outputs": [
        {
          "internalType": "uint8",
          "name": "",
          "type": "uint8"
        }
      ],
      "stateMutability": "view",
      "type": "function"
    },
    {
      "inputs": [
        {
          "internalType": "address",
          "name": "spender",
          "type": "address"
        },
        {
          "internalType": "uint256",
          "name": "subtractedValue",
          "type": "uint256"
        }
      ],
      "name": "decreaseAllowance",
      "outputs": [
        {
          "internalType": "bool",
          "name": "",
          "type": "bool"
        }
      ],
      "stateMutability": "nonpayable",
      "type": "function"
    },
    {
      "inputs": [
        {
          "internalType": "address",
          "name": "spender",
          "type": "address"
        },
        {
          "internalType": "uint256",
          "name": "addedValue",
          "type": "uint256"
        }
      ],
      "name": "increaseAllowance",
      "outputs": [
        {
          "internalType": "bool",
          "name": "",
          "type": "bool"
        }
      ],
      "stateMutability": "nonpayable",
      "type": "function"
    },
    {
      "inputs": [],
      "name": "name",
      "outputs": [
        {
          "internalType": "string",
          "name": "",
          "type": "string"
        }
      ],
      "stateMutability": "view",
      "type": "function"
    },
    {
      "inputs": [],
      "name": "symbol",
      "outputs": [
        {
          "internalType": "string",
          "name": "",
          "type": "string"
        }
      ],
      "stateMutability": "view",
      "type": "function"
    },
    {
      "inputs": [],
      "name": "totalSupply",
      "outputs": [
        {
          "internalType": "uint256",
          "name": "",
          "type": "uint256"
        }
      ],
      "stateMutability": "view",
      "type": "function"
    },
    {
      "inputs": [
        {
          "internalType": "address",
          "name": "recipient",
          "type": "address"
        },
        {
          "internalType": "uint256",
          "name": "amount",
          "type": "uint256"
        }
      ],
      "name": "transfer",
      "outputs": [
        {
          "internalType": "bool",
          "name": "",
          "type": "bool"
        }
      ],
      "stateMutability": "nonpayable",
      "type": "function"
    },
    {
      "inputs": [
        {
          "internalType": "address",
          "name": "sender",
          "type": "address"
        },
        {
          "internalType": "address",
          "name": "recipient",
          "type": "address"
        },
        {
          "internalType": "uint256",
          "name": "amount",
          "type": "uint256"
        }
      ],
      "name": "transferFrom",
      "outputs": [
        {
          "internalType": "bool",
          "name": "",
          "type": "bool"
        }
      ],
      "stateMutability": "nonpayable",
      "type": "function"
    }
  ],
  "bytecode": "0x608060405234801561001057600080fd5b5061294e806100206000396000f30060806040526004361061019d5763ffffffff60e060020a60003504166301e4f53a81146101a25780630e6a39db146101c85780631dcea4271461021c57806321d800ec1461024d5780632bd0bb0514610265578063392e53cd1461028f5780633dd95d1b146102a45780633e6968b6146102bc5780633f0a9f65146102d15780633f7658fd146102e6578063437764df1461031257806343b37dd31461035c5780634fb3fef71461037157806367eeba0c1461038957806369ffa08a1461039e578063879ce676146103c55780638aa1949a146103dd5780638d068043146103f25780638da5cb5b1461040757806395e54a171461041c57806399439089146104315780639a454b99146104465780639cb7595a1461045b578063a2a6ca271461049c578063acf5c689146104b4578063b20d30a9146104cc578063bf1fe420146104e4578063c6f6f216146104fc578063dae5f0fd14610514578063df25f3f014610529578063ea9f49681461053e578063f20151e114610556578063f2fde38b1461056e578063f968adbe1461058f578063fe173b97146105a4575b600080fd5b3480156101ae57600080fd5b506101c6600160a060020a03600435166024356105b9565b005b3480156101d457600080fd5b50610208600160a060020a03600435811690602435811690604435906064359060849060e490610124351661014435610703565b604080519115158252519081900360200190f35b34801561022857600080fd5b506102316108bd565b60408051600160a060020a039092168252519081900360200190f35b34801561025957600080fd5b50610208600435610914565b34801561027157600080fd5b5061027d6004356109dd565b60408051918252519081900360200190f35b34801561029b57600080fd5b50610208610a9a565b3480156102b057600080fd5b506101c6600435610aeb565b3480156102c857600080fd5b5061027d610bab565b3480156102dd57600080fd5b5061027d610bb4565b3480156102f257600080fd5b506101c66024600480358281019290820135918135918201910135610c02565b34801561031e57600080fd5b50610327610d77565b604080517fffffffff000000000000000000000000000000000000000000000000000000009092168252519081900360200190f35b34801561036857600080fd5b5061027d610d9b565b34801561037d57600080fd5b5061027d600435610de9565b34801561039557600080fd5b5061027d610e64565b3480156103aa57600080fd5b506101c6600160a060020a0360043581169060243516610eb2565b3480156103d157600080fd5b50610208600435610f5e565b3480156103e957600080fd5b5061027d610fa8565b3480156103fe57600080fd5b5061027d610ff6565b34801561041357600080fd5b5061023161106e565b34801561042857600080fd5b5061027d6110c5565b34801561043d57600080fd5b5061023161111f565b34801561045257600080fd5b5061027d611176565b34801561046757600080fd5b506104706111c4565b6040805167ffffffffffffffff9485168152928416602084015292168183015290519081900360600190f35b3480156104a857600080fd5b506101c66004356111cf565b3480156104c057600080fd5b506101c660043561126b565b3480156104d857600080fd5b506101c6600435611293565b3480156104f057600080fd5b506101c6600435611353565b34801561050857600080fd5b506101c6600435611378565b34801561052057600080fd5b5061027d611410565b34801561053557600080fd5b5061027d61145e565b34801561054a57600080fd5b506102086004356114ac565b34801561056257600080fd5b506101c66004356114f7565b34801561057a57600080fd5b506101c6600160a060020a0360043516611573565b34801561059b57600080fd5b5061027d611598565b3480156105b057600080fd5b5061027d6115e6565b600160a060020a03821615156105ce57600080fd5b600160a060020a0382163014156105e457600080fd5b600081116105f157600080fd5b6105fa816114ac565b151561060557600080fd5b610616610610610bab565b82611634565b61061e6108bd565b604080517f23b872dd000000000000000000000000000000000000000000000000000000008152336004820152306024820152604481018490529051600160a060020a0392909216916323b872dd916064808201926020929091908290030181600087803b15801561068f57600080fd5b505af11580156106a3573d6000803e3d6000fd5b505050506040513d60208110156106b957600080fd5b505060408051600160a060020a03841681526020810183905281517f1d491a427d1f8cc0d447496f300fac39f7306122481d8e663451eb268274146b929181900390910190a15050565b60408051600481526024810182526020810180517bffffffffffffffffffffffffffffffffffffffffffffffffffffffff167f6fde8202000000000000000000000000000000000000000000000000000000001781529151815160009330939291829190808383895b8381101561078457818101518382015260200161076c565b50505050905090810190601f1680156107b15780820380516001836020036101000a031916815260200191505b509150506000604051808303816000865af19150501580610843575030600160a060020a0316636fde82026040518163ffffffff1660e060020a028152600401602060405180830381600087803b15801561080b57600080fd5b505af115801561081f573d6000803e3d6000fd5b505050506040513d602081101561083557600080fd5b5051600160a060020a031633145b8061084d57503330145b151561085857600080fd5b6108a889898989896003806020026040519081016040528092919082600360200280828437505060408051808201825293508d9250600291508390839080828437820191505050505089896116fd565b6108b0610a9a565b9998505050505050505050565b7f15d63b18dbc21bf4438b7972d80076747e1d93c4f87552fe498c90cbde51665e60005260026020527f70dfdbaec92bfd068fb9a67f8c22440e995abe75330f5b6b79a478c9bc8ccbd154600160a060020a031690565b6000600460008360405160200180807f72656c617965644d657373616765730000000000000000000000000000000000815250600f0182600019166000191681526020019150506040516020818303038152906040526040518082805190602001908083835b602083106109995780518252601f19909201916020918201910161097a565b51815160209384036101000a600019018019909216911617905260408051929094018290039091208652850195909552929092016000205460ff1695945050505050565b60008060008360405160200180807f746f74616c5370656e74506572446179000000000000000000000000000000008152506010018281526020019150506040516020818303038152906040526040518082805190602001908083835b60208310610a595780518252601f199092019160209182019101610a3a565b51815160209384036101000a600019018019909216911617905260408051929094018290039091208652850195909552929092016000205495945050505050565b7f0a6f646cd611241d8073675e00d1a1ff700fbf1b53fcf473de56d1e6e4b714ba60005260046020527f078d888f9b66f3f8bfa10909e31f1e16240db73449f0500afdbbe3a70da457cc5460ff1690565b610af361106e565b600160a060020a03163314610b0757600080fd5b610b0f610fa8565b811180610b1a575080155b1515610b2557600080fd5b7f21dbcab260e413c20dc13c28b7db95e2b423d1135f42bb8b7d5214a92270d237600090815260209081527fadd938dbd083a16bae12238cd914fca0afc7a30edb55b1cd5c7f1823f1b0e4218290556040805183815290517f9bebf928b90863f24cc31f726a3a7545efd409f1dcf552301b1ee3710da70d3b929181900390910190a150565b62015180420490565b7f916daedf6915000ff68ced2f0b6773fe6f2582237f92c3c95bb4d7940723007160009081526020527fd2ea0feb732edb0ffe32efd33a6b9d24d46b16eb34a4d07ce256537b6f131e425490565b600080600080610c7a88888080601f0160208091040260200160405190810160405280939291908181526020018383808284375050604080516020601f8e018190048102820181019092528c815294508c93508b9250829150840183828082843750610c73945061111f9350505050565b6000611826565b610cb388888080601f01602080910402602001604051908101604052809392919081815260200183838082843750611ab0945050505050565b92965090945092509050610cc683610f5e565b15610d6257600160a060020a0381163014610ce057600080fd5b610ce982610914565b15610cf357600080fd5b610cfe826001611aeb565b610d09848484611bbd565b1515610d1457600080fd5b60408051600160a060020a03861681526020810185905280820184905290517f4ab7d581336d92edbea22636a613e8e76c99ac7f91137c1523db38dbfb3bf3299181900360600190a1610d6d565b610d6d84848461019d565b5050505050505050565b7fba4690f50000000000000000000000000000000000000000000000000000000090565b7f21dbcab260e413c20dc13c28b7db95e2b423d1135f42bb8b7d5214a92270d23760009081526020527fadd938dbd083a16bae12238cd914fca0afc7a30edb55b1cd5c7f1823f1b0e4215490565b60008060008360405160200180807f746f74616c45786563757465645065724461790000000000000000000000000081525060130182815260200191505060405160208183030381529060405260405180828051906020019080838360208310610a595780518252601f199092019160209182019101610a3a565b7f4a6a899679f26b73530d8cf1001e83b6f7702e04b6fdb98f3c62dc7e47e041a560009081526020527f1ab29a5cca988aee50edccdd61c5bcaa7ad4b29a03b7ee50f298ceccfe14cc4e5490565b30600160a060020a0316636fde82026040518163ffffffff1660e060020a028152600401602060405180830381600087803b158015610ef057600080fd5b505af1158015610f04573d6000803e3d6000fd5b505050506040513d6020811015610f1a57600080fd5b5051600160a060020a03163314610f3057600080fd5b610f386108bd565b600160a060020a0383811691161415610f5057600080fd5b610f5a8282611c7b565b5050565b600080610f8183610f75610f70610bab565b610de9565b9063ffffffff611cbe16565b905080610f8c610d9b565b10158015610fa15750610f9d610fa8565b8311155b9392505050565b7fc0ed44c192c86d1cc1ba51340b032c2766b4a2b0041031de13c46dd7104888d560009081526020527ff8e983ee86e5e377e9e34c9131b266382c3f04113d20de077f9e12663c7a646b5490565b600061100061111f565b600160a060020a0316638d0680436040518163ffffffff1660e060020a028152600401602060405180830381600087803b15801561103d57600080fd5b505af1158015611051573d6000803e3d6000fd5b505050506040513d602081101561106757600080fd5b5051905090565b7f02016836a56b71f0d02689e69e326f4f4c1b9057164ef592671cf0d37c8040c060005260026020527fb7802e97e87ef2842a6cce7da7ffaeaedaa2f61a6a7870b23d9d01fc9b73712e54600160a060020a031690565b60008060008060006110d5611598565b93506110df610e64565b92506110f16110ec610bab565b6109dd565b9150818311611101576000611105565b8183035b90508084106111145780611116565b835b94505050505090565b7f5a74bb7e202fb8e4bf311841c7d64ec19df195fee77d7e7ae749b27921b6ddfe60005260026020527fab54f3fbbe62c59b7876a9bf9bd5e0c22dbae93f4d8ee0438f7ce62b198eb0e054600160a060020a031690565b7fb120ceec05576ad0c710bc6e85f1768535e27554458f05dcbb5c65b8c7a749b060009081526020527fe66bef0282a446f9848e2903380099bb6e431483ee78778868f33b4a154c818b5490565b600560026000909192565b6111d761106e565b600160a060020a031633146111eb57600080fd5b60008111801561120157506111fe610e64565b81105b80156112135750611210611598565b81105b151561121e57600080fd5b7fbbb088c505d18e049d114c7c91f11724e69c55ad6c5397e2b929e68b41fa05d160009081526020527f8df5c48c6b6e11d97548adc824ba0c99103ec09830fa5d53a179984085e6eaa055565b61127361106e565b600160a060020a0316331461128757600080fd5b61129081611cd1565b50565b61129b61106e565b600160a060020a031633146112af57600080fd5b6112b7611598565b8111806112c2575080155b15156112cd57600080fd5b7f4a6a899679f26b73530d8cf1001e83b6f7702e04b6fdb98f3c62dc7e47e041a5600090815260209081527f1ab29a5cca988aee50edccdd61c5bcaa7ad4b29a03b7ee50f298ceccfe14cc4e8290556040805183815290517fad4123ae17c414d9c6d2fec478b402e6b01856cc250fd01fbfd252fda0089d3c929181900390910190a150565b61135b61106e565b600160a060020a0316331461136f57600080fd5b61129081611d64565b61138061106e565b600160a060020a0316331461139457600080fd5b8015806113b857506113a461145e565b811180156113b857506113b5610e64565b81105b15156113c357600080fd5b7f0f8803acad17c63ee38bf2de71e1888bc7a079a6f73658e274b08018bea4e29c60009081526020527f9de0f81379b4d8e60fe509315d071b56e7b732abaf193e74e0d15808b0951d0955565b7f1e8ecaafaddea96ed9ac6d2642dcdfe1bebe58a930b1085842d8fc122b371ee560009081526020527fd5c78dd9468716ca9bb96be25d56436811b20aab3523a9904b12deef1cab239d5490565b7fbbb088c505d18e049d114c7c91f11724e69c55ad6c5397e2b929e68b41fa05d160009081526020527f8df5c48c6b6e11d97548adc824ba0c99103ec09830fa5d53a179984085e6eaa05490565b6000806114be83610f756110ec610bab565b9050806114c9610e64565b101580156114de57506114da611598565b8311155b8015610fa157506114ed61145e565b9092101592915050565b6114ff61106e565b600160a060020a0316331461151357600080fd5b61151b610d9b565b811061152657600080fd5b7fc0ed44c192c86d1cc1ba51340b032c2766b4a2b0041031de13c46dd7104888d560009081526020527ff8e983ee86e5e377e9e34c9131b266382c3f04113d20de077f9e12663c7a646b55565b61157b61106e565b600160a060020a0316331461158f57600080fd5b61129081611d7a565b7f0f8803acad17c63ee38bf2de71e1888bc7a079a6f73658e274b08018bea4e29c60009081526020527f9de0f81379b4d8e60fe509315d071b56e7b732abaf193e74e0d15808b0951d095490565b7f55b3774520b5993024893d303890baa4e84b1244a43c60034d1ced2d3cf2b04b60009081526020527ff7d5eefab3776d7f0450bd0193564bcb4f832ce313ff2836c450fc63a4b944195490565b61164181610f75846109dd565b6000808460405160200180807f746f74616c5370656e74506572446179000000000000000000000000000000008152506010018281526020019150506040516020818303038152906040526040518082805190602001908083835b602083106116bb5780518252601f19909201916020918201910161169c565b51815160209384036101000a60001901801990921691161790526040805192909401829003909120865285019590955292909201600020939093555050505050565b611705610a9a565b1561170f57600080fd5b61171888611e51565b151561172357600080fd5b7f5a74bb7e202fb8e4bf311841c7d64ec19df195fee77d7e7ae749b27921b6ddfe60005260026020527fab54f3fbbe62c59b7876a9bf9bd5e0c22dbae93f4d8ee0438f7ce62b198eb0e0805473ffffffffffffffffffffffffffffffffffffffff1916600160a060020a038a1617905561179c87611e59565b7fb120ceec05576ad0c710bc6e85f1768535e27554458f05dcbb5c65b8c7a749b06000908152602052437fe66bef0282a446f9848e2903380099bb6e431483ee78778868f33b4a154c818b556117f186611cd1565b6117fa85611d64565b61180384611ee4565b61180c83612041565b61181581612116565b61181e82611d7a565b610d6d61217f565b6000806000606060008060008060008060008b8061184857506118488f6121d6565b151561185357600080fd5b8c600160a060020a0316638d0680436040518163ffffffff1660e060020a028152600401602060405180830381600087803b15801561189157600080fd5b505af11580156118a5573d6000803e3d6000fd5b505050506040513d60208110156118bb57600080fd5b505160018f0151909b5060ff1699508a8a10156118d757600080fd5b6118e18f8d6121ea565b98508a60405190808252806020026020018201604052801561190d578160200160208202803883390190505b509750600096505b8a871015611a9f57866020028a6021010192508960200283019150866002018e01519550828e01519450818e01519350600189878787604051600081526020016040526040518085600019166000191681526020018460ff1660ff1681526020018360001916600019168152602001826000191660001916815260200194505050505060206040516020810390808403906000865af11580156119bc573d6000803e3d6000fd5b5050506020604051035190508c600160a060020a031663facd743b826040518263ffffffff1660e060020a0281526004018082600160a060020a0316600160a060020a03168152602001915050602060405180830381600087803b158015611a2357600080fd5b505af1158015611a37573d6000803e3d6000fd5b505050506040513d6020811015611a4d57600080fd5b50511515611a5a57600080fd5b611a648882612404565b15611a6e57600080fd5b808888815181101515611a7d57fe5b600160a060020a03909216602092830290910190910152600190960195611915565b505050505050505050505050505050565b600080600080611abf856121d6565b1515611aca57600080fd5b50505050601481015160348201516054830151606890930151919390929190565b80600460008460405160200180807f72656c617965644d657373616765730000000000000000000000000000000000815250600f0182600019166000191681526020019150506040516020818303038152906040526040518082805190602001908083835b60208310611b6f5780518252601f199092019160209182019101611b50565b51815160209384036101000a60001901801990921691161790526040805192909401829003909120865285019590955292909201600020805460ff1916941515949094179093555050505050565b600080611bd1611bcb610bab565b8561245f565b611bda846124e5565b9050611be46108bd565b600160a060020a031663a9059cbb86836040518363ffffffff1660e060020a0281526004018083600160a060020a0316600160a060020a0316815260200182815260200192505050602060405180830381600087803b158015611c4657600080fd5b505af1158015611c5a573d6000803e3d6000fd5b505050506040513d6020811015611c7057600080fd5b505195945050505050565b80600160a060020a0381161515611c9157600080fd5b600160a060020a0383161515611caf57611caa826124fb565b611cb9565b611cb98383612507565b505050565b81810182811015611ccb57fe5b92915050565b60008111611cde57600080fd5b7f916daedf6915000ff68ced2f0b6773fe6f2582237f92c3c95bb4d79407230071600090815260209081527fd2ea0feb732edb0ffe32efd33a6b9d24d46b16eb34a4d07ce256537b6f131e428290556040805183815290517f4fb76205cd57c896b21511d2114137d8e901b4ccd659e1a0f97d6306795264fb929181900390910190a150565b60008111611d7157600080fd5b611290816125ba565b600160a060020a0381161515611d8f57600080fd5b7f8be0079c531659141344cd1fd0a4f28419497f9722a3daafe3b4186f6b6457e0611db861106e565b60408051600160a060020a03928316815291841660208301528051918290030190a17f02016836a56b71f0d02689e69e326f4f4c1b9057164ef592671cf0d37c8040c060005260026020527fb7802e97e87ef2842a6cce7da7ffaeaedaa2f61a6a7870b23d9d01fc9b73712e805473ffffffffffffffffffffffffffffffffffffffff1916600160a060020a0392909216919091179055565b6000903b1190565b611e6281611e51565b1515611e6d57600080fd5b7f15d63b18dbc21bf4438b7972d80076747e1d93c4f87552fe498c90cbde51665e60005260026020527f70dfdbaec92bfd068fb9a67f8c22440e995abe75330f5b6b79a478c9bc8ccbd1805473ffffffffffffffffffffffffffffffffffffffff1916600160a060020a0392909216919091179055565b60408101516000108015611eff575060408101516020820151115b8015611f0f575060208101518151115b1515611f1a57600080fd5b80517f4a6a899679f26b73530d8cf1001e83b6f7702e04b6fdb98f3c62dc7e47e041a5600090815260208181527f1ab29a5cca988aee50edccdd61c5bcaa7ad4b29a03b7ee50f298ceccfe14cc4e92909255908201517f0f8803acad17c63ee38bf2de71e1888bc7a079a6f73658e274b08018bea4e29c82527f9de0f81379b4d8e60fe509315d071b56e7b732abaf193e74e0d15808b0951d095560408201517fbbb088c505d18e049d114c7c91f11724e69c55ad6c5397e2b929e68b41fa05d182527f8df5c48c6b6e11d97548adc824ba0c99103ec09830fa5d53a179984085e6eaa0557fad4123ae17c414d9c6d2fec478b402e6b01856cc250fd01fbfd252fda0089d3c9082905b60200201516040518082815260200191505060405180910390a150565b805160208201511061205257600080fd5b80517f21dbcab260e413c20dc13c28b7db95e2b423d1135f42bb8b7d5214a92270d237600090815260208181527fadd938dbd083a16bae12238cd914fca0afc7a30edb55b1cd5c7f1823f1b0e42192909255908201517fc0ed44c192c86d1cc1ba51340b032c2766b4a2b0041031de13c46dd7104888d582527ff8e983ee86e5e377e9e34c9131b266382c3f04113d20de077f9e12663c7a646b557f9bebf928b90863f24cc31f726a3a7545efd409f1dcf552301b1ee3710da70d3b908290612024565b604c19811380156121275750604d81125b151561213257600080fd5b7f1e8ecaafaddea96ed9ac6d2642dcdfe1bebe58a930b1085842d8fc122b371ee560009081526020527fd5c78dd9468716ca9bb96be25d56436811b20aab3523a9904b12deef1cab239d55565b7f0a6f646cd611241d8073675e00d1a1ff700fbf1b53fcf473de56d1e6e4b714ba60005260046020527f078d888f9b66f3f8bfa10909e31f1e16240db73449f0500afdbbe3a70da457cc805460ff19166001179055565b60006121e0612640565b8251149050919050565b60408051808201909152601a81527f19457468657265756d205369676e6564204d6573736167653a0a00000000000060208201526000906060831561239057816122348651612645565b866040516020018084805190602001908083835b602083106122675780518252601f199092019160209182019101612248565b51815160209384036101000a600019018019909216911617905286519190930192860191508083835b602083106122af5780518252601f199092019160209182019101612290565b51815160209384036101000a600019018019909216911617905285519190930192850191508083835b602083106122f75780518252601f1990920191602091820191016122d8565b6001836020036101000a03801982511681845116808217855250505050505090500193505050506040516020818303038152906040526040518082805190602001908083835b6020831061235c5780518252601f19909201916020918201910161233d565b6001836020036101000a038019825116818451168082178552505050505050905001915050604051809103902092506123fc565b6040805190810160405280600381526020017f31303400000000000000000000000000000000000000000000000000000000008152509050818186604051602001808480519060200190808383602083106122675780518252601f199092019160209182019101612248565b505092915050565b6000805b83518110156124535782600160a060020a0316848281518110151561242957fe5b90602001906020020151600160a060020a0316141561244b5760019150612458565b600101612408565b600091505b5092915050565b61246c81610f7584610de9565b6000808460405160200180807f746f74616c457865637574656450657244617900000000000000000000000000815250601301828152602001915050604051602081830303815290604052604051808280519060200190808383602083106116bb5780518252601f19909201916020918201910161169c565b6000611ccb826124f3611410565b60000361276c565b3031610f5a82826127b7565b604080517f70a0823100000000000000000000000000000000000000000000000000000000815230600482015290518391600091600160a060020a038416916370a0823191602480830192602092919082900301818787803b15801561256c57600080fd5b505af1158015612580573d6000803e3d6000fd5b505050506040513d602081101561259657600080fd5b505190506125b4600160a060020a038516848363ffffffff61281f16565b50505050565b7f55b3774520b5993024893d303890baa4e84b1244a43c60034d1ced2d3cf2b04b600090815260209081527ff7d5eefab3776d7f0450bd0193564bcb4f832ce313ff2836c450fc63a4b944198290556040805183815290517f52264b89e0fceafb26e79fd49ef8a366eb6297483bf4035b027f0c99a7ad512e929181900390910190a150565b606890565b6060600080828185151561268e5760408051808201909152600181527f300000000000000000000000000000000000000000000000000000000000000060208201529450612763565b8593505b83156126a957600190920191600a84049350612692565b826040519080825280601f01601f1916602001820160405280156126d7578160200160208202803883390190505b5091505060001982015b851561275f5781516000198201917f01000000000000000000000000000000000000000000000000000000000000006030600a8a06010291849190811061272457fe5b9060200101907effffffffffffffffffffffffffffffffffffffffffffffffffffffffffffff1916908160001a905350600a860495506126e1565b8194505b50505050919050565b600081151561277c575081611ccb565b60008213156127a05761279983600a84900a63ffffffff6128b416565b9050611ccb565b610fa1836000849003600a0a63ffffffff6128dd16565b604051600160a060020a0383169082156108fc029083906000818181858888f193505050501515610f5a5780826127ec6128f2565b600160a060020a039091168152604051908190036020019082f080158015612818573d6000803e3d6000fd5b5050505050565b82600160a060020a031663a9059cbb83836040518363ffffffff1660e060020a0281526004018083600160a060020a0316600160a060020a0316815260200182815260200192505050600060405180830381600087803b15801561288257600080fd5b505af1158015612896573d6000803e3d6000fd5b505050503d15611cb95760206000803e6000511515611cb957600080fd5b60008215156128c557506000611ccb565b508181028183828115156128d557fe5b0414611ccb57fe5b600081838115156128ea57fe5b049392505050565b604051602180612902833901905600608060405260405160208060218339810160405251600160a060020a038116ff00a165627a7a723058205fa564d7f2b60a10dfb20e691b053ccb0295627030ca01ae1f8070e51a06c5d80029",
  "source": "pragma solidity 0.4.24;\n\nimport \"./BasicForeignBridgeErcToErc.sol\";\nimport \"../ERC20Bridge.sol\";\n\ncontract ForeignBridgeErcToErc is BasicForeignBridgeErcToErc, ERC20Bridge {\n    function initialize(\n        address _validatorContract,\n        address _erc20token,\n        uint256 _requiredBlockConfirmations,\n        uint256 _gasPrice,\n        uint256[3] _dailyLimitMaxPerTxMinPerTxArray, // [ 0 = _dailyLimit, 1 = _maxPerTx, 2 = _minPerTx ]\n        uint256[2] _homeDailyLimitHomeMaxPerTxArray, // [ 0 = _homeDailyLimit, 1 = _homeMaxPerTx ]\n        address _owner,\n        int256 _decimalShift\n    ) external onlyRelevantSender returns (bool) {\n        _initialize(\n            _validatorContract,\n            _erc20token,\n            _requiredBlockConfirmations,\n            _gasPrice,\n            _dailyLimitMaxPerTxMinPerTxArray,\n            _homeDailyLimitHomeMaxPerTxArray,\n            _owner,\n            _decimalShift\n        );\n        return isInitialized();\n    }\n}\n",
  "sourcePath": "/Users/tetyanalevochko/go/src/github.com/poanetwork/tokenbridge-contracts/contracts/upgradeable_contracts/erc20_to_erc20/ForeignBridgeErcToErc.sol",
  "compiler": {
    "name": "solc",
    "version": "0.4.24+commit.e67f0147.Emscripten.clang"
  },
  "schemaVersion": "3.0.15",
  "updatedAt": "2021-05-07T18:57:09.344Z",
  "devdoc": {
    "methods": {
      "claimTokens(address,address)": {
        "details": "Withdraws the erc20 tokens or native coins from this contract. Bridged token cannot be withdrawn by this function.",
        "params": {
          "_to": "address of the tokens/coins receiver.",
          "_token": "address of the claimed token or address(0) for native coins."
        }
      },
      "decimalShift()": {
        "details": "Returns the value of foreign-to-home decimal shift.",
        "return": "decimal shift."
      },
      "executeSignatures(bytes,bytes)": {
        "details": "Validates provided signatures and relays a given message",
        "params": {
          "message": "bytes to be relayed",
          "signatures": "bytes blob with signatures to be validated"
        }
      },
      "maxAvailablePerTx()": {
        "details": "Retrieves maximum available bridge amount per one transaction taking into account maxPerTx() and dailyLimit() parameters.",
        "return": "minimum of maxPerTx parameter and remaining daily quota."
      },
      "owner()": {
        "details": "Tells the address of the owner",
        "return": "the address of the owner"
      },
      "setGasPrice(uint256)": {
        "details": "Public setter for fallback gas price value. Only bridge owner can call this method.",
        "params": {
          "_gasPrice": "new value for the gas price."
        }
      },
      "transferOwnership(address)": {
        "details": "Allows the current owner to transfer control of the contract to a newOwner.",
        "params": {
          "newOwner": "the address to transfer ownership to."
        }
      }
    }
  },
  "userdoc": {
    "methods": {}
  }
}