{
  "contractName": "ForeignBridgeNativeToErc",
  "abi": [
    {
      "constant": true,
      "inputs": [
        {
          "name": "_to",
          "type": "address"
        },
        {
          "name": "_value",
          "type": "uint256"
        },
        {
          "name": "_data",
          "type": "bytes"
        }
      ],
      "name": "transferAndCall",
      "outputs": [
        {
          "name": "",
          "type": "bool"
        }
      ],
      "payable": false,
      "stateMutability": "nonpayable",
      "type": "function"
    },
    {
      "constant": false,
      "inputs": [
        {
          "name": "_receiver",
          "type": "address"
        },
        {
          "name": "_amount",
          "type": "uint256"
        }
      ],
      "name": "relayTokens",
      "outputs": [],
      "payable": false,
      "stateMutability": "nonpayable",
      "type": "function"
    },
    {
      "constant": false,
      "inputs": [
        {
          "name": "_to",
          "type": "address"
        },
        {
          "name": "_value",
          "type": "uint256"
        }
      ],
      "name": "transfer",
      "outputs": [
        {
          "name": "",
          "type": "bool"
        }
      ],
      "payable": false,
      "stateMutability": "nonpayable",
      "type": "function"
    },
    {
      "constant": true,
      "inputs": [],
      "name": "erc677token",
      "outputs": [
        {
          "name": "",
          "type": "address"
        }
      ],
      "payable": false,
      "stateMutability": "view",
      "type": "function"
    },
    {
      "constant": true,
      "inputs": [
        {
          "name": "_txHash",
          "type": "bytes32"
        }
      ],
      "name": "relayedMessages",
      "outputs": [
        {
          "name": "",
          "type": "bool"
        }
      ],
      "payable": false,
      "stateMutability": "view",
      "type": "function"
    },
    {
      "constant": true,
      "inputs": [
        {
          "name": "_day",
          "type": "uint256"
        }
      ],
      "name": "totalSpentPerDay",
      "outputs": [
        {
          "name": "",
          "type": "uint256"
        }
      ],
      "payable": false,
      "stateMutability": "view",
      "type": "function"
    },
    {
      "constant": false,
      "inputs": [
        {
          "name": "_fee",
          "type": "uint256"
        }
      ],
      "name": "setHomeFee",
      "outputs": [],
      "payable": false,
      "stateMutability": "nonpayable",
      "type": "function"
    },
    {
      "constant": true,
      "inputs": [],
      "name": "isInitialized",
      "outputs": [
        {
          "name": "",
          "type": "bool"
        }
      ],
      "payable": false,
      "stateMutability": "view",
      "type": "function"
    },
    {
      "constant": false,
      "inputs": [
        {
          "name": "_dailyLimit",
          "type": "uint256"
        }
      ],
      "name": "setExecutionDailyLimit",
      "outputs": [],
      "payable": false,
      "stateMutability": "nonpayable",
      "type": "function"
    },
    {
      "constant": true,
      "inputs": [],
      "name": "getCurrentDay",
      "outputs": [
        {
          "name": "",
          "type": "uint256"
        }
      ],
      "payable": false,
      "stateMutability": "view",
      "type": "function"
    },
    {
      "constant": true,
      "inputs": [],
      "name": "requiredBlockConfirmations",
      "outputs": [
        {
          "name": "",
          "type": "uint256"
        }
      ],
      "payable": false,
      "stateMutability": "view",
      "type": "function"
    },
    {
      "constant": false,
      "inputs": [
        {
          "name": "message",
          "type": "bytes"
        },
        {
          "name": "signatures",
          "type": "bytes"
        }
      ],
      "name": "executeSignatures",
      "outputs": [],
      "payable": false,
      "stateMutability": "nonpayable",
      "type": "function"
    },
    {
      "constant": true,
      "inputs": [],
      "name": "executionDailyLimit",
      "outputs": [
        {
          "name": "",
          "type": "uint256"
        }
      ],
      "payable": false,
      "stateMutability": "view",
      "type": "function"
    },
    {
      "constant": true,
      "inputs": [
        {
          "name": "_day",
          "type": "uint256"
        }
      ],
      "name": "totalExecutedPerDay",
      "outputs": [
        {
          "name": "",
          "type": "uint256"
        }
      ],
      "payable": false,
      "stateMutability": "view",
      "type": "function"
    },
    {
      "constant": false,
      "inputs": [
        {
          "name": "_feeManager",
          "type": "address"
        }
      ],
      "name": "setFeeManagerContract",
      "outputs": [],
      "payable": false,
      "stateMutability": "nonpayable",
      "type": "function"
    },
    {
      "constant": true,
      "inputs": [],
      "name": "dailyLimit",
      "outputs": [
        {
          "name": "",
          "type": "uint256"
        }
      ],
      "payable": false,
      "stateMutability": "view",
      "type": "function"
    },
    {
      "constant": true,
      "inputs": [
        {
          "name": "_amount",
          "type": "uint256"
        }
      ],
      "name": "withinExecutionLimit",
      "outputs": [
        {
          "name": "",
          "type": "bool"
        }
      ],
      "payable": false,
      "stateMutability": "view",
      "type": "function"
    },
    {
      "constant": true,
      "inputs": [],
      "name": "executionMaxPerTx",
      "outputs": [
        {
          "name": "",
          "type": "uint256"
        }
      ],
      "payable": false,
      "stateMutability": "view",
      "type": "function"
    },
    {
      "constant": true,
      "inputs": [],
      "name": "requiredSignatures",
      "outputs": [
        {
          "name": "",
          "type": "uint256"
        }
      ],
      "payable": false,
      "stateMutability": "view",
      "type": "function"
    },
    {
      "constant": true,
      "inputs": [],
      "name": "owner",
      "outputs": [
        {
          "name": "",
          "type": "address"
        }
      ],
      "payable": false,
      "stateMutability": "view",
      "type": "function"
    },
    {
      "constant": true,
      "inputs": [],
      "name": "getHomeFee",
      "outputs": [
        {
          "name": "",
          "type": "uint256"
        }
      ],
      "payable": false,
      "stateMutability": "view",
      "type": "function"
    },
    {
      "constant": true,
      "inputs": [],
      "name": "maxAvailablePerTx",
      "outputs": [
        {
          "name": "",
          "type": "uint256"
        }
      ],
      "payable": false,
      "stateMutability": "view",
      "type": "function"
    },
    {
      "constant": true,
      "inputs": [],
      "name": "validatorContract",
      "outputs": [
        {
          "name": "",
          "type": "address"
        }
      ],
      "payable": false,
      "stateMutability": "view",
      "type": "function"
    },
    {
      "constant": true,
      "inputs": [],
      "name": "deployedAtBlock",
      "outputs": [
        {
          "name": "",
          "type": "uint256"
        }
      ],
      "payable": false,
      "stateMutability": "view",
      "type": "function"
    },
    {
      "constant": true,
      "inputs": [],
      "name": "getBridgeInterfacesVersion",
      "outputs": [
        {
          "name": "major",
          "type": "uint64"
        },
        {
          "name": "minor",
          "type": "uint64"
        },
        {
          "name": "patch",
          "type": "uint64"
        }
      ],
      "payable": false,
      "stateMutability": "pure",
      "type": "function"
    },
    {
      "constant": false,
      "inputs": [
        {
          "name": "_minPerTx",
          "type": "uint256"
        }
      ],
      "name": "setMinPerTx",
      "outputs": [],
      "payable": false,
      "stateMutability": "nonpayable",
      "type": "function"
    },
    {
      "constant": false,
      "inputs": [
        {
          "name": "_from",
          "type": "address"
        },
        {
          "name": "_value",
          "type": "uint256"
        },
        {
          "name": "_data",
          "type": "bytes"
        }
      ],
      "name": "onTokenTransfer",
      "outputs": [
        {
          "name": "",
          "type": "bool"
        }
      ],
      "payable": false,
      "stateMutability": "nonpayable",
      "type": "function"
    },
    {
      "constant": false,
      "inputs": [
        {
          "name": "_blockConfirmations",
          "type": "uint256"
        }
      ],
      "name": "setRequiredBlockConfirmations",
      "outputs": [],
      "payable": false,
      "stateMutability": "nonpayable",
      "type": "function"
    },
    {
      "constant": false,
      "inputs": [
        {
          "name": "_dailyLimit",
          "type": "uint256"
        }
      ],
      "name": "setDailyLimit",
      "outputs": [],
      "payable": false,
      "stateMutability": "nonpayable",
      "type": "function"
    },
    {
      "constant": false,
      "inputs": [
        {
          "name": "_gasPrice",
          "type": "uint256"
        }
      ],
      "name": "setGasPrice",
      "outputs": [],
      "payable": false,
      "stateMutability": "nonpayable",
      "type": "function"
    },
    {
      "constant": false,
      "inputs": [
        {
          "name": "_maxPerTx",
          "type": "uint256"
        }
      ],
      "name": "setMaxPerTx",
      "outputs": [],
      "payable": false,
      "stateMutability": "nonpayable",
      "type": "function"
    },
    {
      "constant": true,
      "inputs": [],
      "name": "decimalShift",
      "outputs": [
        {
          "name": "",
          "type": "int256"
        }
      ],
      "payable": false,
      "stateMutability": "view",
      "type": "function"
    },
    {
      "constant": true,
      "inputs": [],
      "name": "feeManagerContract",
      "outputs": [
        {
          "name": "",
          "type": "address"
        }
      ],
      "payable": false,
      "stateMutability": "view",
      "type": "function"
    },
    {
      "constant": true,
      "inputs": [],
      "name": "minPerTx",
      "outputs": [
        {
          "name": "",
          "type": "uint256"
        }
      ],
      "payable": false,
      "stateMutability": "view",
      "type": "function"
    },
    {
      "constant": true,
      "inputs": [
        {
          "name": "_amount",
          "type": "uint256"
        }
      ],
      "name": "withinLimit",
      "outputs": [
        {
          "name": "",
          "type": "bool"
        }
      ],
      "payable": false,
      "stateMutability": "view",
      "type": "function"
    },
    {
      "constant": false,
      "inputs": [
        {
          "name": "_maxPerTx",
          "type": "uint256"
        }
      ],
      "name": "setExecutionMaxPerTx",
      "outputs": [],
      "payable": false,
      "stateMutability": "nonpayable",
      "type": "function"
    },
    {
      "constant": true,
      "inputs": [],
      "name": "getFeeManagerMode",
      "outputs": [
        {
          "name": "mode",
          "type": "bytes4"
        }
      ],
      "payable": false,
      "stateMutability": "view",
      "type": "function"
    },
    {
      "constant": false,
      "inputs": [
        {
          "name": "newOwner",
          "type": "address"
        }
      ],
      "name": "transferOwnership",
      "outputs": [],
      "payable": false,
      "stateMutability": "nonpayable",
      "type": "function"
    },
    {
      "constant": true,
      "inputs": [],
      "name": "maxPerTx",
      "outputs": [
        {
          "name": "",
          "type": "uint256"
        }
      ],
      "payable": false,
      "stateMutability": "view",
      "type": "function"
    },
    {
      "constant": true,
      "inputs": [],
      "name": "gasPrice",
      "outputs": [
        {
          "name": "",
          "type": "uint256"
        }
      ],
      "payable": false,
      "stateMutability": "view",
      "type": "function"
    },
    {
      "anonymous": false,
      "inputs": [
        {
          "indexed": false,
          "name": "feeAmount",
          "type": "uint256"
        },
        {
          "indexed": true,
          "name": "transactionHash",
          "type": "bytes32"
        }
      ],
      "name": "FeeDistributedFromAffirmation",
      "type": "event"
    },
    {
      "anonymous": false,
      "inputs": [
        {
          "indexed": false,
          "name": "feeAmount",
          "type": "uint256"
        },
        {
          "indexed": true,
          "name": "transactionHash",
          "type": "bytes32"
        }
      ],
      "name": "FeeDistributedFromSignatures",
      "type": "event"
    },
    {
      "anonymous": false,
      "inputs": [
        {
          "indexed": false,
          "name": "recipient",
          "type": "address"
        },
        {
          "indexed": false,
          "name": "value",
          "type": "uint256"
        },
        {
          "indexed": false,
          "name": "transactionHash",
          "type": "bytes32"
        }
      ],
      "name": "RelayedMessage",
      "type": "event"
    },
    {
      "anonymous": false,
      "inputs": [
        {
          "indexed": false,
          "name": "recipient",
          "type": "address"
        },
        {
          "indexed": false,
          "name": "value",
          "type": "uint256"
        }
      ],
      "name": "UserRequestForAffirmation",
      "type": "event"
    },
    {
      "anonymous": false,
      "inputs": [
        {
          "indexed": false,
          "name": "newLimit",
          "type": "uint256"
        }
      ],
      "name": "DailyLimitChanged",
      "type": "event"
    },
    {
      "anonymous": false,
      "inputs": [
        {
          "indexed": false,
          "name": "newLimit",
          "type": "uint256"
        }
      ],
      "name": "ExecutionDailyLimitChanged",
      "type": "event"
    },
    {
      "anonymous": false,
      "inputs": [
        {
          "indexed": false,
          "name": "gasPrice",
          "type": "uint256"
        }
      ],
      "name": "GasPriceChanged",
      "type": "event"
    },
    {
      "anonymous": false,
      "inputs": [
        {
          "indexed": false,
          "name": "requiredBlockConfirmations",
          "type": "uint256"
        }
      ],
      "name": "RequiredBlockConfirmationChanged",
      "type": "event"
    },
    {
      "anonymous": false,
      "inputs": [
        {
          "indexed": false,
          "name": "previousOwner",
          "type": "address"
        },
        {
          "indexed": false,
          "name": "newOwner",
          "type": "address"
        }
      ],
      "name": "OwnershipTransferred",
      "type": "event"
    },
    {
      "constant": false,
      "inputs": [
        {
          "name": "_validatorContract",
          "type": "address"
        },
        {
          "name": "_erc677token",
          "type": "address"
        },
        {
          "name": "_dailyLimitMaxPerTxMinPerTxArray",
          "type": "uint256[3]"
        },
        {
          "name": "_foreignGasPrice",
          "type": "uint256"
        },
        {
          "name": "_requiredBlockConfirmations",
          "type": "uint256"
        },
        {
          "name": "_homeDailyLimitHomeMaxPerTxArray",
          "type": "uint256[2]"
        },
        {
          "name": "_owner",
          "type": "address"
        },
        {
          "name": "_decimalShift",
          "type": "int256"
        },
        {
          "name": "_bridgeOnOtherSide",
          "type": "address"
        }
      ],
      "name": "initialize",
      "outputs": [
        {
          "name": "",
          "type": "bool"
        }
      ],
      "payable": false,
      "stateMutability": "nonpayable",
      "type": "function"
    },
    {
      "constant": false,
      "inputs": [
        {
          "name": "_validatorContract",
          "type": "address"
        },
        {
          "name": "_erc677token",
          "type": "address"
        },
        {
          "name": "_dailyLimitMaxPerTxMinPerTxArray",
          "type": "uint256[3]"
        },
        {
          "name": "_foreignGasPrice",
          "type": "uint256"
        },
        {
          "name": "_requiredBlockConfirmations",
          "type": "uint256"
        },
        {
          "name": "_homeDailyLimitHomeMaxPerTxArray",
          "type": "uint256[2]"
        },
        {
          "name": "_owner",
          "type": "address"
        },
        {
          "name": "_feeManager",
          "type": "address"
        },
        {
          "name": "_homeFee",
          "type": "uint256"
        },
        {
          "name": "_decimalShift",
          "type": "int256"
        },
        {
          "name": "_bridgeOnOtherSide",
          "type": "address"
        }
      ],
      "name": "rewardableInitialize",
      "outputs": [
        {
          "name": "",
          "type": "bool"
        }
      ],
      "payable": false,
      "stateMutability": "nonpayable",
      "type": "function"
    },
    {
      "constant": true,
      "inputs": [],
      "name": "getBridgeMode",
      "outputs": [
        {
          "name": "_data",
          "type": "bytes4"
        }
      ],
      "payable": false,
      "stateMutability": "pure",
      "type": "function"
    },
    {
      "constant": false,
      "inputs": [
        {
          "name": "_token",
          "type": "address"
        },
        {
          "name": "_to",
          "type": "address"
        }
      ],
      "name": "claimTokensFromErc677",
      "outputs": [],
      "payable": false,
      "stateMutability": "nonpayable",
      "type": "function"
    },
    {
      "constant": false,
      "inputs": [
        {
          "name": "_token",
          "type": "address"
        },
        {
          "name": "_to",
          "type": "address"
        }
      ],
      "name": "claimTokens",
      "outputs": [],
      "payable": false,
      "stateMutability": "nonpayable",
      "type": "function"
    }
  ],
  "bytecode": "0x608060405234801561001057600080fd5b506135da806100206000396000f3006080604052600436106101ea5763ffffffff60e060020a60003504166318d8f9c981146101ef57806321d800ec146102205780632bd0bb051461024c57806334a9e14814610276578063392e53cd146102905780633dd95d1b146102a55780633e6968b6146102bd5780633f0a9f65146102d25780633f7658fd146102e7578063437764df146103135780634396cef91461035a57806343b37dd3146103ae5780634fb3fef7146103c357806360756f7c146103db57806367eeba0c146103fc57806369ffa08a14610411578063879ce676146104385780638aa1949a146104505780638d068043146104655780638da5cb5b1461047a5780639313dc431461048f57806394da17cd146104b657806395e54a17146104cb57806399439089146104e05780639a454b99146104f55780639c175e701461050a5780639cb7595a14610552578063a2a6ca2714610593578063a4c0ed36146105ab578063acf5c689146105dc578063b20d30a9146105f4578063bf1fe4201461060c578063c6f6f21614610624578063dae5f0fd1461063c578063dbe03a8b14610651578063df25f3f014610666578063ea9f49681461067b578063f20151e114610693578063f2ba9561146106ab578063f2fde38b146106c0578063f968adbe146106e1578063fe173b97146106f6575b600080fd5b3480156101fb57600080fd5b5061020461070b565b60408051600160a060020a039092168252519081900360200190f35b34801561022c57600080fd5b5061023860043561071a565b604080519115158252519081900360200190f35b34801561025857600080fd5b506102646004356107e3565b60408051918252519081900360200190f35b34801561028257600080fd5b5061028e6004356108a0565b005b34801561029c57600080fd5b506102386108df565b3480156102b157600080fd5b5061028e600435610930565b3480156102c957600080fd5b506102646109f0565b3480156102de57600080fd5b506102646109f9565b3480156102f357600080fd5b5061028e6024600480358281019290820135918135918201910135610a47565b34801561031f57600080fd5b50610328610bbc565b604080517bffffffffffffffffffffffffffffffffffffffffffffffffffffffff199092168252519081900360200190f35b34801561036657600080fd5b50610238600160a060020a0360043581169060243581169060449060a4359060c4359060e4906101243581169061014435811690610164359061018435906101a43516610be0565b3480156103ba57600080fd5b50610264610e38565b3480156103cf57600080fd5b50610264600435610e86565b3480156103e757600080fd5b5061028e600160a060020a0360043516610f01565b34801561040857600080fd5b50610264610fb9565b34801561041d57600080fd5b5061028e600160a060020a0360043581169060243516611007565b34801561044457600080fd5b50610238600435611093565b34801561045c57600080fd5b506102646110dd565b34801561047157600080fd5b5061026461112b565b34801561048657600080fd5b506102046111a3565b34801561049b57600080fd5b5061028e600160a060020a03600435811690602435166111fa565b3480156104c257600080fd5b50610264611309565b3480156104d757600080fd5b50610264611322565b3480156104ec57600080fd5b5061020461137c565b34801561050157600080fd5b506102646113d3565b34801561051657600080fd5b50610238600160a060020a0360043581169060243581169060449060a4359060c4359060e4906101243581169061014435906101643516611421565b34801561055e57600080fd5b506105676115d2565b6040805167ffffffffffffffff9485168152928416602084015292168183015290519081900360600190f35b34801561059f57600080fd5b5061028e6004356115dd565b3480156105b757600080fd5b5061023860048035600160a060020a0316906024803591604435918201910135611679565b3480156105e857600080fd5b5061028e600435611708565b34801561060057600080fd5b5061028e60043561172d565b34801561061857600080fd5b5061028e6004356117ed565b34801561063057600080fd5b5061028e600435611812565b34801561064857600080fd5b506102646118aa565b34801561065d57600080fd5b506102046118f8565b34801561067257600080fd5b5061026461194f565b34801561068757600080fd5b5061023860043561199d565b34801561069f57600080fd5b5061028e6004356119e8565b3480156106b757600080fd5b50610328611a64565b3480156106cc57600080fd5b5061028e600160a060020a0360043516611ada565b3480156106ed57600080fd5b50610264611aff565b34801561070257600080fd5b50610264611b4d565b6000610715611b9b565b905090565b6000600460008360405160200180807f72656c617965644d657373616765730000000000000000000000000000000000815250600f0182600019166000191681526020019150506040516020818303038152906040526040518082805190602001908083835b6020831061079f5780518252601f199092019160209182019101610780565b51815160209384036101000a600019018019909216911617905260408051929094018290039091208652850195909552929092016000205460ff1695945050505050565b60008060008360405160200180807f746f74616c5370656e74506572446179000000000000000000000000000000008152506010018281526020019150506040516020818303038152906040526040518082805190602001908083835b6020831061085f5780518252601f199092019160209182019101610840565b51815160209384036101000a600019018019909216911617905260408051929094018290039091208652850195909552929092016000205495945050505050565b6108a86111a3565b600160a060020a031633146108bc57600080fd5b6108dc6108c76118f8565b8260008051602061358f833981519152611bf2565b50565b7f0a6f646cd611241d8073675e00d1a1ff700fbf1b53fcf473de56d1e6e4b714ba60005260046020527f078d888f9b66f3f8bfa10909e31f1e16240db73449f0500afdbbe3a70da457cc5460ff1690565b6109386111a3565b600160a060020a0316331461094c57600080fd5b6109546110dd565b81118061095f575080155b151561096a57600080fd5b7f21dbcab260e413c20dc13c28b7db95e2b423d1135f42bb8b7d5214a92270d237600090815260209081527fadd938dbd083a16bae12238cd914fca0afc7a30edb55b1cd5c7f1823f1b0e4218290556040805183815290517f9bebf928b90863f24cc31f726a3a7545efd409f1dcf552301b1ee3710da70d3b929181900390910190a150565b62015180420490565b7f916daedf6915000ff68ced2f0b6773fe6f2582237f92c3c95bb4d7940723007160009081526020527fd2ea0feb732edb0ffe32efd33a6b9d24d46b16eb34a4d07ce256537b6f131e425490565b600080600080610abf88888080601f0160208091040260200160405190810160405280939291908181526020018383808284375050604080516020601f8e018190048102820181019092528c815294508c93508b9250829150840183828082843750610ab8945061137c9350505050565b6000611d70565b610af888888080601f01602080910402602001604051908101604052809392919081815260200183838082843750611ffa945050505050565b92965090945092509050610b0b83611093565b15610ba757600160a060020a0381163014610b2557600080fd5b610b2e8261071a565b15610b3857600080fd5b610b43826001612035565b610b4e848484612107565b1515610b5957600080fd5b60408051600160a060020a03861681526020810185905280820184905290517f4ab7d581336d92edbea22636a613e8e76c99ac7f91137c1523db38dbfb3bf3299181900360600190a1610bb2565b610bb28484846101ea565b5050505050505050565b7f92a8d7fe0000000000000000000000000000000000000000000000000000000090565b6040805160048152602481018252602081018051600160e060020a03167f6fde8202000000000000000000000000000000000000000000000000000000001781529151815160009330939291829190808383895b83811015610c4c578181015183820152602001610c34565b50505050905090810190601f168015610c795780820380516001836020036101000a031916815260200191505b509150506000604051808303816000865af19150501580610d0b575030600160a060020a0316636fde82026040518163ffffffff1660e060020a028152600401602060405180830381600087803b158015610cd357600080fd5b505af1158015610ce7573d6000803e3d6000fd5b505050506040513d6020811015610cfd57600080fd5b5051600160a060020a031633145b80610d1557503330145b1515610d2057600080fd5b610d7b8c8c8c600380602002604051908101604052809291908260036020028082843782019150505050508c8c8c600280602002604051908101604052809291908260026020028082843782019150505050508c8a8a612227565b610d848561235c565b1515610d8f57600080fd5b7f779a349c5bee7817f04c960f525ee3e2f2516078c38c68a3149787976ee837e560005260026020527fc155b21a14c4592b97825e495fbe0d2705fb46420018cac5bfa7a09c43fae517805473ffffffffffffffffffffffffffffffffffffffff1916600160a060020a038716179055610e18858560008051602061358f833981519152611bf2565b610e20612364565b610e286108df565b9c9b505050505050505050505050565b7f21dbcab260e413c20dc13c28b7db95e2b423d1135f42bb8b7d5214a92270d23760009081526020527fadd938dbd083a16bae12238cd914fca0afc7a30edb55b1cd5c7f1823f1b0e4215490565b60008060008360405160200180807f746f74616c4578656375746564506572446179000000000000000000000000008152506013018281526020019150506040516020818303038152906040526040518082805190602001908083836020831061085f5780518252601f199092019160209182019101610840565b610f096111a3565b600160a060020a03163314610f1d57600080fd5b600160a060020a0381161580610f375750610f378161235c565b1515610f4257600080fd5b7f779a349c5bee7817f04c960f525ee3e2f2516078c38c68a3149787976ee837e560005260026020527fc155b21a14c4592b97825e495fbe0d2705fb46420018cac5bfa7a09c43fae517805473ffffffffffffffffffffffffffffffffffffffff1916600160a060020a0392909216919091179055565b7f4a6a899679f26b73530d8cf1001e83b6f7702e04b6fdb98f3c62dc7e47e041a560009081526020527f1ab29a5cca988aee50edccdd61c5bcaa7ad4b29a03b7ee50f298ceccfe14cc4e5490565b30600160a060020a0316636fde82026040518163ffffffff1660e060020a028152600401602060405180830381600087803b15801561104557600080fd5b505af1158015611059573d6000803e3d6000fd5b505050506040513d602081101561106f57600080fd5b5051600160a060020a0316331461108557600080fd5b61108f82826123bb565b5050565b6000806110b6836110aa6110a56109f0565b610e86565b9063ffffffff6123fe16565b9050806110c1610e38565b101580156110d657506110d26110dd565b8311155b9392505050565b7fc0ed44c192c86d1cc1ba51340b032c2766b4a2b0041031de13c46dd7104888d560009081526020527ff8e983ee86e5e377e9e34c9131b266382c3f04113d20de077f9e12663c7a646b5490565b600061113561137c565b600160a060020a0316638d0680436040518163ffffffff1660e060020a028152600401602060405180830381600087803b15801561117257600080fd5b505af1158015611186573d6000803e3d6000fd5b505050506040513d602081101561119c57600080fd5b5051905090565b7f02016836a56b71f0d02689e69e326f4f4c1b9057164ef592671cf0d37c8040c060005260026020527fb7802e97e87ef2842a6cce7da7ffaeaedaa2f61a6a7870b23d9d01fc9b73712e54600160a060020a031690565b30600160a060020a0316636fde82026040518163ffffffff1660e060020a028152600401602060405180830381600087803b15801561123857600080fd5b505af115801561124c573d6000803e3d6000fd5b505050506040513d602081101561126257600080fd5b5051600160a060020a0316331461127857600080fd5b61128061070b565b604080517f69ffa08a000000000000000000000000000000000000000000000000000000008152600160a060020a0385811660048301528481166024830152915192909116916369ffa08a9160448082019260009290919082900301818387803b1580156112ed57600080fd5b505af1158015611301573d6000803e3d6000fd5b505050505050565b600061071560008051602061358f833981519152612411565b6000806000806000611332611aff565b935061133c610fb9565b925061134e6113496109f0565b6107e3565b915081831161135e576000611362565b8183035b90508084106113715780611373565b835b94505050505090565b7f5a74bb7e202fb8e4bf311841c7d64ec19df195fee77d7e7ae749b27921b6ddfe60005260026020527fab54f3fbbe62c59b7876a9bf9bd5e0c22dbae93f4d8ee0438f7ce62b198eb0e054600160a060020a031690565b7fb120ceec05576ad0c710bc6e85f1768535e27554458f05dcbb5c65b8c7a749b060009081526020527fe66bef0282a446f9848e2903380099bb6e431483ee78778868f33b4a154c818b5490565b6040805160048152602481018252602081018051600160e060020a03167f6fde8202000000000000000000000000000000000000000000000000000000001781529151815160009330939291829190808383895b8381101561148d578181015183820152602001611475565b50505050905090810190601f1680156114ba5780820380516001836020036101000a031916815260200191505b509150506000604051808303816000865af1915050158061154c575030600160a060020a0316636fde82026040518163ffffffff1660e060020a028152600401602060405180830381600087803b15801561151457600080fd5b505af1158015611528573d6000803e3d6000fd5b505050506040513d602081101561153e57600080fd5b5051600160a060020a031633145b8061155657503330145b151561156157600080fd5b6115b48a8a8a600380602002604051908101604052809291908260036020028082843750506040805180820182528f94508e935091508c90600290839083908082843782019150505050508a8a8a612227565b6115bc612364565b6115c46108df565b9a9950505050505050505050565b600560026000909192565b6115e56111a3565b600160a060020a031633146115f957600080fd5b60008111801561160f575061160c610fb9565b81105b8015611621575061161e611aff565b81105b151561162c57600080fd5b7fbbb088c505d18e049d114c7c91f11724e69c55ad6c5397e2b929e68b41fa05d160009081526020527f8df5c48c6b6e11d97548adc824ba0c99103ec09830fa5d53a179984085e6eaa055565b600080611684611b9b565b905033600160a060020a0382161461169b57600080fd5b6116a48561199d565b15156116af57600080fd5b6116c06116ba6109f0565b86612532565b6116fc81878787878080601f016020809104026020016040519081016040528093929190818152602001838380828437506125fb945050505050565b50600195945050505050565b6117106111a3565b600160a060020a0316331461172457600080fd5b6108dc81612675565b6117356111a3565b600160a060020a0316331461174957600080fd5b611751611aff565b81118061175c575080155b151561176757600080fd5b7f4a6a899679f26b73530d8cf1001e83b6f7702e04b6fdb98f3c62dc7e47e041a5600090815260209081527f1ab29a5cca988aee50edccdd61c5bcaa7ad4b29a03b7ee50f298ceccfe14cc4e8290556040805183815290517fad4123ae17c414d9c6d2fec478b402e6b01856cc250fd01fbfd252fda0089d3c929181900390910190a150565b6117f56111a3565b600160a060020a0316331461180957600080fd5b6108dc81612708565b61181a6111a3565b600160a060020a0316331461182e57600080fd5b801580611852575061183e61194f565b81118015611852575061184f610fb9565b81105b151561185d57600080fd5b7f0f8803acad17c63ee38bf2de71e1888bc7a079a6f73658e274b08018bea4e29c60009081526020527f9de0f81379b4d8e60fe509315d071b56e7b732abaf193e74e0d15808b0951d0955565b7f1e8ecaafaddea96ed9ac6d2642dcdfe1bebe58a930b1085842d8fc122b371ee560009081526020527fd5c78dd9468716ca9bb96be25d56436811b20aab3523a9904b12deef1cab239d5490565b7f779a349c5bee7817f04c960f525ee3e2f2516078c38c68a3149787976ee837e560005260026020527fc155b21a14c4592b97825e495fbe0d2705fb46420018cac5bfa7a09c43fae51754600160a060020a031690565b7fbbb088c505d18e049d114c7c91f11724e69c55ad6c5397e2b929e68b41fa05d160009081526020527f8df5c48c6b6e11d97548adc824ba0c99103ec09830fa5d53a179984085e6eaa05490565b6000806119af836110aa6113496109f0565b9050806119ba610fb9565b101580156119cf57506119cb611aff565b8311155b80156110d657506119de61194f565b9092101592915050565b6119f06111a3565b600160a060020a03163314611a0457600080fd5b611a0c610e38565b8110611a1757600080fd5b7fc0ed44c192c86d1cc1ba51340b032c2766b4a2b0041031de13c46dd7104888d560009081526020527ff8e983ee86e5e377e9e34c9131b266382c3f04113d20de077f9e12663c7a646b55565b604080516004815260248101909152602081018051600160e060020a03167ff2ba95610000000000000000000000000000000000000000000000000000000017905260009081611ab26118f8565b9050600460008351602085016000855af28060203d141615611ad45760005193505b50505090565b611ae26111a3565b600160a060020a03163314611af657600080fd5b6108dc8161271e565b7f0f8803acad17c63ee38bf2de71e1888bc7a079a6f73658e274b08018bea4e29c60009081526020527f9de0f81379b4d8e60fe509315d071b56e7b732abaf193e74e0d15808b0951d095490565b7f55b3774520b5993024893d303890baa4e84b1244a43c60034d1ced2d3cf2b04b60009081526020527ff7d5eefab3776d7f0450bd0193564bcb4f832ce313ff2836c450fc63a4b944195490565b7fa8b0ade3e2b734f043ce298aca4cc8d19d74270223f34531d0988b7d00cba21d60005260026020527f603cd9dcbfa185d5c37504f4c8b3f16117ed744fba48d08b7aad44a162af1c9354600160a060020a031690565b60008160008051602061358f833981519152811480611c3057507fdeb7f3adca07d6d1f708c1774389db532a2b2f18fd05a62b957e4089f4696ed581145b1515611c3b57600080fd5b60008051602061358f8339815191528314611c76577f286c406600000000000000000000000000000000000000000000000000000000611c98565b7f34a9e148000000000000000000000000000000000000000000000000000000005b6040805160248082018890528251808303909101815260449091018252602081018051600160e060020a03167bffffffffffffffffffffffffffffffffffffffffffffffffffffffff19851617815291518151939550600160a060020a038916939192909182919080838360005b83811015611d1e578181015183820152602001611d06565b50505050905090810190601f168015611d4b5780820380516001836020036101000a031916815260200191505b50915050600060405180830381855af49150501515611d6957600080fd5b5050505050565b6000806000606060008060008060008060008b80611d925750611d928f6127f5565b1515611d9d57600080fd5b8c600160a060020a0316638d0680436040518163ffffffff1660e060020a028152600401602060405180830381600087803b158015611ddb57600080fd5b505af1158015611def573d6000803e3d6000fd5b505050506040513d6020811015611e0557600080fd5b505160018f0151909b5060ff1699508a8a1015611e2157600080fd5b611e2b8f8d612809565b98508a604051908082528060200260200182016040528015611e57578160200160208202803883390190505b509750600096505b8a871015611fe957866020028a6021010192508960200283019150866002018e01519550828e01519450818e01519350600189878787604051600081526020016040526040518085600019166000191681526020018460ff1660ff1681526020018360001916600019168152602001826000191660001916815260200194505050505060206040516020810390808403906000865af1158015611f06573d6000803e3d6000fd5b5050506020604051035190508c600160a060020a031663facd743b826040518263ffffffff1660e060020a0281526004018082600160a060020a0316600160a060020a03168152602001915050602060405180830381600087803b158015611f6d57600080fd5b505af1158015611f81573d6000803e3d6000fd5b505050506040513d6020811015611f9757600080fd5b50511515611fa457600080fd5b611fae8882612a23565b15611fb857600080fd5b808888815181101515611fc757fe5b600160a060020a03909216602092830290910190910152600190960195611e5f565b505050505050505050505050505050565b600080600080612009856127f5565b151561201457600080fd5b50505050601481015160348201516054830151606890930151919390929190565b80600460008460405160200180807f72656c617965644d657373616765730000000000000000000000000000000000815250600f0182600019166000191681526020019150506040516020818303038152906040526040518082805190602001908083835b602083106120b95780518252601f19909201916020918201910161209a565b51815160209384036101000a60001901801990921691161790526040805192909401829003909120865285019590955292909201600020805460ff1916941515949094179093555050505050565b60008060008061211e6121186109f0565b87612a7e565b61212786612b04565b92506121316118f8565b9150600160a060020a038216156121865761215d8360008460008051602061358f833981519152612b1a565b9050600081111561218657612173818387612bab565b612183838263ffffffff612cb016565b92505b61218e61070b565b600160a060020a03166340c10f1988856040518363ffffffff1660e060020a0281526004018083600160a060020a0316600160a060020a0316815260200182815260200192505050602060405180830381600087803b1580156121f057600080fd5b505af1158015612204573d6000803e3d6000fd5b505050506040513d602081101561221a57600080fd5b5051979650505050505050565b61222f6108df565b1561223957600080fd5b6122428961235c565b151561224d57600080fd5b7f5a74bb7e202fb8e4bf311841c7d64ec19df195fee77d7e7ae749b27921b6ddfe60005260026020527fab54f3fbbe62c59b7876a9bf9bd5e0c22dbae93f4d8ee0438f7ce62b198eb0e0805473ffffffffffffffffffffffffffffffffffffffff1916600160a060020a038b161790556122c688612cc2565b6122cf87612d4d565b7fb120ceec05576ad0c710bc6e85f1768535e27554458f05dcbb5c65b8c7a749b06000908152602052437fe66bef0282a446f9848e2903380099bb6e431483ee78778868f33b4a154c818b5561232486612708565b61232d85612675565b61233684612eaa565b61233f82612f7f565b6123488361271e565b61235181612fe8565b505050505050505050565b6000903b1190565b7f0a6f646cd611241d8073675e00d1a1ff700fbf1b53fcf473de56d1e6e4b714ba60005260046020527f078d888f9b66f3f8bfa10909e31f1e16240db73449f0500afdbbe3a70da457cc805460ff19166001179055565b80600160a060020a03811615156123d157600080fd5b600160a060020a03831615156123ef576123ea82613074565b6123f9565b6123f98383613080565b505050565b8181018281101561240b57fe5b92915050565b6000808060608460008051602061358f83398151915281148061245357507fdeb7f3adca07d6d1f708c1774389db532a2b2f18fd05a62b957e4089f4696ed581145b151561245e57600080fd5b6124666118f8565b935060008051602061358f83398151915286146124a3577fffd66196000000000000000000000000000000000000000000000000000000006124c5565b7f94da17cd000000000000000000000000000000000000000000000000000000005b60408051600481526024810190915260208082018051600160e060020a03167bffffffffffffffffffffffffffffffffffffffffffffffffffffffff19851617815282519396509194509160009182885af28060203d1416156125285760005195505b5050505050919050565b61253f816110aa846107e3565b6000808460405160200180807f746f74616c5370656e74506572446179000000000000000000000000000000008152506010018281526020019150506040516020818303038152906040526040518082805190602001908083835b602083106125b95780518252601f19909201916020918201910161259a565b51815160209384036101000a60001901801990921691161790526040805192909401829003909120865285019590955292909201600020939093555050505050565b83600160a060020a03166342966c68836040518263ffffffff1660e060020a02815260040180828152602001915050600060405180830381600087803b15801561264457600080fd5b505af1158015612658573d6000803e3d6000fd5b5050505061266f612669848361312d565b83613187565b50505050565b6000811161268257600080fd5b7f916daedf6915000ff68ced2f0b6773fe6f2582237f92c3c95bb4d79407230071600090815260209081527fd2ea0feb732edb0ffe32efd33a6b9d24d46b16eb34a4d07ce256537b6f131e428290556040805183815290517f4fb76205cd57c896b21511d2114137d8e901b4ccd659e1a0f97d6306795264fb929181900390910190a150565b6000811161271557600080fd5b6108dc816131cf565b600160a060020a038116151561273357600080fd5b7f8be0079c531659141344cd1fd0a4f28419497f9722a3daafe3b4186f6b6457e061275c6111a3565b60408051600160a060020a03928316815291841660208301528051918290030190a17f02016836a56b71f0d02689e69e326f4f4c1b9057164ef592671cf0d37c8040c060005260026020527fb7802e97e87ef2842a6cce7da7ffaeaedaa2f61a6a7870b23d9d01fc9b73712e805473ffffffffffffffffffffffffffffffffffffffff1916600160a060020a0392909216919091179055565b60006127ff613255565b8251149050919050565b60408051808201909152601a81527f19457468657265756d205369676e6564204d6573736167653a0a0000000000006020820152600090606083156129af5781612853865161325a565b866040516020018084805190602001908083835b602083106128865780518252601f199092019160209182019101612867565b51815160209384036101000a600019018019909216911617905286519190930192860191508083835b602083106128ce5780518252601f1990920191602091820191016128af565b51815160209384036101000a600019018019909216911617905285519190930192850191508083835b602083106129165780518252601f1990920191602091820191016128f7565b6001836020036101000a03801982511681845116808217855250505050505090500193505050506040516020818303038152906040526040518082805190602001908083835b6020831061297b5780518252601f19909201916020918201910161295c565b6001836020036101000a03801982511681845116808217855250505050505090500191505060405180910390209250612a1b565b6040805190810160405280600381526020017f31303400000000000000000000000000000000000000000000000000000000008152509050818186604051602001808480519060200190808383602083106128865780518252601f199092019160209182019101612867565b505092915050565b6000805b8351811015612a725782600160a060020a03168482815181101515612a4857fe5b90602001906020020151600160a060020a03161415612a6a5760019150612a77565b600101612a27565b600091505b5092915050565b612a8b816110aa84610e86565b6000808460405160200180807f746f74616c457865637574656450657244617900000000000000000000000000815250601301828152602001915050604051602081830303815290604052604051808280519060200190808383602083106125b95780518252601f19909201916020918201910161259a565b600061240b82612b126118aa565b600003613381565b60408051602481018690528415156044820152606480820184905282518083039091018152608490910190915260208181018051600160e060020a03167f9862f26f000000000000000000000000000000000000000000000000000000001781528251600093929184919082885af28060203d141660018114612b9c57600080fd5b50506000519695505050505050565b6040805160248082018690528251808303909101815260449091018252602081018051600160e060020a03167f59d784640000000000000000000000000000000000000000000000000000000017815291518151600160a060020a03861693829180838360005b83811015612c2a578181015183820152602001612c12565b50505050905090810190601f168015612c575780820380516001836020036101000a031916815260200191505b50915050600060405180830381855af49150501515612c7557600080fd5b60408051848152905182917f858abdcd5efcaebb936e8e8516f0cfe9a0ef5157ff99d16cdabb6db625be90d0919081900360200190a2505050565b600082821115612cbc57fe5b50900390565b612ccb8161235c565b1515612cd657600080fd5b7fa8b0ade3e2b734f043ce298aca4cc8d19d74270223f34531d0988b7d00cba21d60005260026020527f603cd9dcbfa185d5c37504f4c8b3f16117ed744fba48d08b7aad44a162af1c93805473ffffffffffffffffffffffffffffffffffffffff1916600160a060020a0392909216919091179055565b60408101516000108015612d68575060408101516020820151115b8015612d78575060208101518151115b1515612d8357600080fd5b80517f4a6a899679f26b73530d8cf1001e83b6f7702e04b6fdb98f3c62dc7e47e041a5600090815260208181527f1ab29a5cca988aee50edccdd61c5bcaa7ad4b29a03b7ee50f298ceccfe14cc4e92909255908201517f0f8803acad17c63ee38bf2de71e1888bc7a079a6f73658e274b08018bea4e29c82527f9de0f81379b4d8e60fe509315d071b56e7b732abaf193e74e0d15808b0951d095560408201517fbbb088c505d18e049d114c7c91f11724e69c55ad6c5397e2b929e68b41fa05d182527f8df5c48c6b6e11d97548adc824ba0c99103ec09830fa5d53a179984085e6eaa0557fad4123ae17c414d9c6d2fec478b402e6b01856cc250fd01fbfd252fda0089d3c9082905b60200201516040518082815260200191505060405180910390a150565b8051602082015110612ebb57600080fd5b80517f21dbcab260e413c20dc13c28b7db95e2b423d1135f42bb8b7d5214a92270d237600090815260208181527fadd938dbd083a16bae12238cd914fca0afc7a30edb55b1cd5c7f1823f1b0e42192909255908201517fc0ed44c192c86d1cc1ba51340b032c2766b4a2b0041031de13c46dd7104888d582527ff8e983ee86e5e377e9e34c9131b266382c3f04113d20de077f9e12663c7a646b557f9bebf928b90863f24cc31f726a3a7545efd409f1dcf552301b1ee3710da70d3b908290612e8d565b604c1981138015612f905750604d81125b1515612f9b57600080fd5b7f1e8ecaafaddea96ed9ac6d2642dcdfe1bebe58a930b1085842d8fc122b371ee560009081526020527fd5c78dd9468716ca9bb96be25d56436811b20aab3523a9904b12deef1cab239d55565b600160a060020a0381161515612ffd57600080fd5b7f71483949fe7a14d16644d63320f24d10cf1d60abecc30cc677a340e82b699dd260005260026020527f21ffdf150a5d180f96d98d16f50e7b4dd63e2a067adc8386cf5af55dcecd8dd9805473ffffffffffffffffffffffffffffffffffffffff1916600160a060020a0392909216919091179055565b303161108f82826133cc565b604080517f70a0823100000000000000000000000000000000000000000000000000000000815230600482015290518391600091600160a060020a038416916370a0823191602480830192602092919082900301818787803b1580156130e557600080fd5b505af11580156130f9573d6000803e3d6000fd5b505050506040513d602081101561310f57600080fd5b5051905061266f600160a060020a038516848363ffffffff61342d16565b805182906000101561240b57815160141461314757600080fd5b613150826134c2565b9050600160a060020a038116151561316757600080fd5b61316f6134c9565b600160a060020a038281169116141561240b57600080fd5b60408051600160a060020a03841681526020810183905281517f1d491a427d1f8cc0d447496f300fac39f7306122481d8e663451eb268274146b929181900390910190a15050565b7f55b3774520b5993024893d303890baa4e84b1244a43c60034d1ced2d3cf2b04b600090815260209081527ff7d5eefab3776d7f0450bd0193564bcb4f832ce313ff2836c450fc63a4b944198290556040805183815290517f52264b89e0fceafb26e79fd49ef8a366eb6297483bf4035b027f0c99a7ad512e929181900390910190a150565b606890565b606060008082818515156132a35760408051808201909152600181527f300000000000000000000000000000000000000000000000000000000000000060208201529450613378565b8593505b83156132be57600190920191600a840493506132a7565b826040519080825280601f01601f1916602001820160405280156132ec578160200160208202803883390190505b5091505060001982015b85156133745781516000198201917f01000000000000000000000000000000000000000000000000000000000000006030600a8a06010291849190811061333957fe5b9060200101907effffffffffffffffffffffffffffffffffffffffffffffffffffffffffffff1916908160001a905350600a860495506132f6565b8194505b50505050919050565b600081151561339157508161240b565b60008213156133b5576133ae83600a84900a63ffffffff61352016565b905061240b565b6110d6836000849003600a0a63ffffffff61354916565b604051600160a060020a0383169082156108fc029083906000818181858888f19350505050151561108f57808261340161355e565b600160a060020a039091168152604051908190036020019082f080158015611d69573d6000803e3d6000fd5b82600160a060020a031663a9059cbb83836040518363ffffffff1660e060020a0281526004018083600160a060020a0316600160a060020a0316815260200182815260200192505050600060405180830381600087803b15801561349057600080fd5b505af11580156134a4573d6000803e3d6000fd5b505050503d156123f95760206000803e60005115156123f957600080fd5b6014015190565b7f71483949fe7a14d16644d63320f24d10cf1d60abecc30cc677a340e82b699dd260005260026020527f21ffdf150a5d180f96d98d16f50e7b4dd63e2a067adc8386cf5af55dcecd8dd954600160a060020a031690565b60008215156135315750600061240b565b5081810281838281151561354157fe5b041461240b57fe5b6000818381151561355657fe5b049392505050565b60405160218061356e833901905600608060405260405160208060218339810160405251600160a060020a038116ff0089d93e5e92f7e37e490c25f0e50f7f4aad7cc94b308a566553280967be38bcf1a165627a7a72305820ff65a10418b26db8d7cc8cdeb788de115d8fad7ddfe19e5b19ccc05f62ada48e0029",
  "source": "pragma solidity 0.4.24;\n\nimport \"../../interfaces/IBurnableMintableERC677Token.sol\";\nimport \"../BasicForeignBridge.sol\";\nimport \"openzeppelin-solidity/contracts/token/ERC20/ERC20.sol\";\nimport \"../ERC677BridgeForBurnableMintableToken.sol\";\nimport \"./RewardableForeignBridgeNativeToErc.sol\";\n\ncontract ForeignBridgeNativeToErc is\n    BasicForeignBridge,\n    ERC677BridgeForBurnableMintableToken,\n    RewardableForeignBridgeNativeToErc\n{\n    function initialize(\n        address _validatorContract,\n        address _erc677token,\n        uint256[3] _dailyLimitMaxPerTxMinPerTxArray, // [ 0 = _dailyLimit, 1 = _maxPerTx, 2 = _minPerTx ]\n        uint256 _foreignGasPrice,\n        uint256 _requiredBlockConfirmations,\n        uint256[2] _homeDailyLimitHomeMaxPerTxArray, // [ 0 = _homeDailyLimit, 1 = _homeMaxPerTx ]\n        address _owner,\n        int256 _decimalShift,\n        address _bridgeOnOtherSide\n    ) external onlyRelevantSender returns (bool) {\n        _initialize(\n            _validatorContract,\n            _erc677token,\n            _dailyLimitMaxPerTxMinPerTxArray,\n            _foreignGasPrice,\n            _requiredBlockConfirmations,\n            _homeDailyLimitHomeMaxPerTxArray,\n            _owner,\n            _decimalShift,\n            _bridgeOnOtherSide\n        );\n        setInitialize();\n        return isInitialized();\n    }\n\n    function rewardableInitialize(\n        address _validatorContract,\n        address _erc677token,\n        uint256[3] _dailyLimitMaxPerTxMinPerTxArray, // [ 0 = _dailyLimit, 1 = _maxPerTx, 2 = _minPerTx ]\n        uint256 _foreignGasPrice,\n        uint256 _requiredBlockConfirmations,\n        uint256[2] _homeDailyLimitHomeMaxPerTxArray, // [ 0 = _homeDailyLimit, 1 = _homeMaxPerTx ]\n        address _owner,\n        address _feeManager,\n        uint256 _homeFee,\n        int256 _decimalShift,\n        address _bridgeOnOtherSide\n    ) external onlyRelevantSender returns (bool) {\n        _initialize(\n            _validatorContract,\n            _erc677token,\n            _dailyLimitMaxPerTxMinPerTxArray,\n            _foreignGasPrice,\n            _requiredBlockConfirmations,\n            _homeDailyLimitHomeMaxPerTxArray,\n            _owner,\n            _decimalShift,\n            _bridgeOnOtherSide\n        );\n        require(AddressUtils.isContract(_feeManager));\n        addressStorage[FEE_MANAGER_CONTRACT] = _feeManager;\n        _setFee(_feeManager, _homeFee, HOME_FEE);\n        setInitialize();\n        return isInitialized();\n    }\n\n    function getBridgeMode() external pure returns (bytes4 _data) {\n        return 0x92a8d7fe; // bytes4(keccak256(abi.encodePacked(\"native-to-erc-core\")))\n    }\n\n    /**\n     * @dev Withdraws erc20 tokens or native coins from the token contract. It is required since the bridge contract is the owner of the token contract.\n     * @param _token address of the claimed token or address(0) for native coins.\n     * @param _to address of the tokens/coins receiver.\n     */\n    function claimTokensFromErc677(address _token, address _to) external onlyIfUpgradeabilityOwner {\n        IBurnableMintableERC677Token(erc677token()).claimTokens(_token, _to);\n    }\n\n    /**\n     * @dev Withdraws the erc20 tokens or native coins from this contract.\n     * @param _token address of the claimed token or address(0) for native coins.\n     * @param _to address of the tokens/coins receiver.\n     */\n    function claimTokens(address _token, address _to) external onlyIfUpgradeabilityOwner {\n        // For foreign side of the bridge, tokens are not locked at the contract, they are minted and burned instead.\n        // So, its is safe to allow claiming of any tokens. Native coins are allowed as well.\n        claimValues(_token, _to);\n    }\n\n    function _initialize(\n        address _validatorContract,\n        address _erc677token,\n        uint256[3] _dailyLimitMaxPerTxMinPerTxArray, // [ 0 = _dailyLimit, 1 = _maxPerTx, 2 = _minPerTx ]\n        uint256 _foreignGasPrice,\n        uint256 _requiredBlockConfirmations,\n        uint256[2] _homeDailyLimitHomeMaxPerTxArray, // [ 0 = _homeDailyLimit, 1 = _homeMaxPerTx ]\n        address _owner,\n        int256 _decimalShift,\n        address _bridgeOnOtherSide\n    ) internal {\n        require(!isInitialized());\n        require(AddressUtils.isContract(_validatorContract));\n\n        addressStorage[VALIDATOR_CONTRACT] = _validatorContract;\n        setErc677token(_erc677token);\n        _setLimits(_dailyLimitMaxPerTxMinPerTxArray);\n        uintStorage[DEPLOYED_AT_BLOCK] = block.number;\n        _setGasPrice(_foreignGasPrice);\n        _setRequiredBlockConfirmations(_requiredBlockConfirmations);\n        _setExecutionLimits(_homeDailyLimitHomeMaxPerTxArray);\n        _setDecimalShift(_decimalShift);\n        _setOwner(_owner);\n        _setBridgeContractOnOtherSide(_bridgeOnOtherSide);\n    }\n\n    function onExecuteMessage(address _recipient, uint256 _amount, bytes32 _txHash) internal returns (bool) {\n        addTotalExecutedPerDay(getCurrentDay(), _amount);\n        uint256 valueToMint = _unshiftValue(_amount);\n        address feeManager = feeManagerContract();\n        if (feeManager != address(0)) {\n            uint256 fee = calculateFee(valueToMint, false, feeManager, HOME_FEE);\n            if (fee > 0) {\n                distributeFeeFromSignatures(fee, feeManager, _txHash);\n                valueToMint = valueToMint.sub(fee);\n            }\n        }\n        return IBurnableMintableERC677Token(erc677token()).mint(_recipient, valueToMint);\n    }\n\n    function fireEventOnTokenTransfer(address _from, uint256 _value) internal {\n        emit UserRequestForAffirmation(_from, _value);\n    }\n\n    function onFailedMessage(address, uint256, bytes32) internal {\n        revert();\n    }\n}\n",
  "sourcePath": "/Users/tetyanalevochko/go/src/github.com/poanetwork/tokenbridge-contracts/contracts/upgradeable_contracts/native_to_erc20/ForeignBridgeNativeToErc.sol",
  "compiler": {
    "name": "solc",
    "version": "0.4.24+commit.e67f0147.Emscripten.clang"
  },
  "schemaVersion": "3.0.15",
  "updatedAt": "2020-11-26T16:13:11.473Z",
  "devdoc": {
    "methods": {
      "claimTokens(address,address)": {
        "details": "Withdraws the erc20 tokens or native coins from this contract.",
        "params": {
          "_to": "address of the tokens/coins receiver.",
          "_token": "address of the claimed token or address(0) for native coins."
        }
      },
      "claimTokensFromErc677(address,address)": {
        "details": "Withdraws erc20 tokens or native coins from the token contract. It is required since the bridge contract is the owner of the token contract.",
        "params": {
          "_to": "address of the tokens/coins receiver.",
          "_token": "address of the claimed token or address(0) for native coins."
        }
      },
      "decimalShift()": {
        "details": "Returns the value of foreign-to-home decimal shift.",
        "return": "decimal shift."
      },
      "executeSignatures(bytes,bytes)": {
        "details": "Validates provided signatures and relays a given message",
        "params": {
          "message": "bytes to be relayed",
          "signatures": "bytes blob with signatures to be validated"
        }
      },
      "feeManagerContract()": {
        "details": "Retrieves the address of the fee manager contract used.",
        "return": "address of the fee manager contract."
      },
      "getFeeManagerMode()": {
        "details": "Retrieves the mode of the used fee manager.",
        "return": "manager mode identifier, or zero bytes otherwise."
      },
      "maxAvailablePerTx()": {
        "details": "Retrieves maximum available bridge amount per one transaction taking into account maxPerTx() and dailyLimit() parameters.",
        "return": "minimum of maxPerTx parameter and remaining daily quota."
      },
      "owner()": {
        "details": "Tells the address of the owner",
        "return": "the address of the owner"
      },
      "setFeeManagerContract(address)": {
        "details": "Updates the address of the used fee manager contract. Only contract owner can call this method. If during this operation, home fee is changed, it is highly recommended to stop the bridge operations first. Otherwise, pending signature requests can become a reason for imbalance between two bridge sides.",
        "params": {
          "_feeManager": "address of the new fee manager contract, or zero address to disable fee collection."
        }
      },
      "setGasPrice(uint256)": {
        "details": "Public setter for fallback gas price value. Only bridge owner can call this method.",
        "params": {
          "_gasPrice": "new value for the gas price."
        }
      },
      "setHomeFee(uint256)": {
        "details": "Updates the fee percentage for home->foreign bridge operations. Only owner is allowed to call this method. If during this operation, home fee is changed, it is highly recommended to stop the bridge operations first. Otherwise, pending signature requests can become a reason for imbalance between two bridge sides.",
        "params": {
          "_fee": "new value for fee percentage."
        }
      },
      "transferOwnership(address)": {
        "details": "Allows the current owner to transfer control of the contract to a newOwner.",
        "params": {
          "newOwner": "the address to transfer ownership to."
        }
      }
    }
  },
  "userdoc": {
    "methods": {}
  }
}