{
  "contractName": "HomeBridgeErcToErc",
  "abi": [
    {
      "constant": true,
      "inputs": [
        {
          "name": "_message",
          "type": "bytes32"
        }
      ],
      "name": "numMessagesSigned",
      "outputs": [
        {
          "name": "",
          "type": "uint256"
        }
      ],
      "payable": false,
      "stateMutability": "view",
      "type": "function"
    },
    {
      "constant": true,
      "inputs": [
        {
          "name": "_hash",
          "type": "bytes32"
        },
        {
          "name": "_index",
          "type": "uint256"
        }
      ],
      "name": "signature",
      "outputs": [
        {
          "name": "",
          "type": "bytes"
        }
      ],
      "payable": false,
      "stateMutability": "view",
      "type": "function"
    },
    {
      "constant": true,
      "inputs": [],
      "name": "erc677token",
      "outputs": [
        {
          "name": "",
          "type": "address"
        }
      ],
      "payable": false,
      "stateMutability": "view",
      "type": "function"
    },
    {
      "constant": false,
      "inputs": [
        {
          "name": "_fee",
          "type": "uint256"
        }
      ],
      "name": "setForeignFee",
      "outputs": [],
      "payable": false,
      "stateMutability": "nonpayable",
      "type": "function"
    },
    {
      "constant": true,
      "inputs": [
        {
          "name": "_day",
          "type": "uint256"
        }
      ],
      "name": "totalSpentPerDay",
      "outputs": [
        {
          "name": "",
          "type": "uint256"
        }
      ],
      "payable": false,
      "stateMutability": "view",
      "type": "function"
    },
    {
      "constant": false,
      "inputs": [
        {
          "name": "_fee",
          "type": "uint256"
        }
      ],
      "name": "setHomeFee",
      "outputs": [],
      "payable": false,
      "stateMutability": "nonpayable",
      "type": "function"
    },
    {
      "constant": true,
      "inputs": [],
      "name": "isInitialized",
      "outputs": [
        {
          "name": "",
          "type": "bool"
        }
      ],
      "payable": false,
      "stateMutability": "view",
      "type": "function"
    },
    {
      "constant": false,
      "inputs": [
        {
          "name": "_dailyLimit",
          "type": "uint256"
        }
      ],
      "name": "setExecutionDailyLimit",
      "outputs": [],
      "payable": false,
      "stateMutability": "nonpayable",
      "type": "function"
    },
    {
      "constant": true,
      "inputs": [],
      "name": "getCurrentDay",
      "outputs": [
        {
          "name": "",
          "type": "uint256"
        }
      ],
      "payable": false,
      "stateMutability": "view",
      "type": "function"
    },
    {
      "constant": true,
      "inputs": [],
      "name": "requiredBlockConfirmations",
      "outputs": [
        {
          "name": "",
          "type": "uint256"
        }
      ],
      "payable": false,
      "stateMutability": "view",
      "type": "function"
    },
    {
      "constant": true,
      "inputs": [],
      "name": "requiredMessageLength",
      "outputs": [
        {
          "name": "",
          "type": "uint256"
        }
      ],
      "payable": false,
      "stateMutability": "pure",
      "type": "function"
    },
    {
      "constant": true,
      "inputs": [],
      "name": "executionDailyLimit",
      "outputs": [
        {
          "name": "",
          "type": "uint256"
        }
      ],
      "payable": false,
      "stateMutability": "view",
      "type": "function"
    },
    {
      "constant": true,
      "inputs": [
        {
          "name": "_hash",
          "type": "bytes32"
        }
      ],
      "name": "message",
      "outputs": [
        {
          "name": "",
          "type": "bytes"
        }
      ],
      "payable": false,
      "stateMutability": "view",
      "type": "function"
    },
    {
      "constant": true,
      "inputs": [
        {
          "name": "_day",
          "type": "uint256"
        }
      ],
      "name": "totalExecutedPerDay",
      "outputs": [
        {
          "name": "",
          "type": "uint256"
        }
      ],
      "payable": false,
      "stateMutability": "view",
      "type": "function"
    },
    {
      "constant": false,
      "inputs": [
        {
          "name": "_feeManager",
          "type": "address"
        }
      ],
      "name": "setFeeManagerContract",
      "outputs": [],
      "payable": false,
      "stateMutability": "nonpayable",
      "type": "function"
    },
    {
      "constant": false,
      "inputs": [
        {
          "name": "signature",
          "type": "bytes"
        },
        {
          "name": "message",
          "type": "bytes"
        }
      ],
      "name": "submitSignature",
      "outputs": [],
      "payable": false,
      "stateMutability": "nonpayable",
      "type": "function"
    },
    {
      "constant": true,
      "inputs": [],
      "name": "dailyLimit",
      "outputs": [
        {
          "name": "",
          "type": "uint256"
        }
      ],
      "payable": false,
      "stateMutability": "view",
      "type": "function"
    },
    {
      "constant": true,
      "inputs": [
        {
          "name": "_withdrawal",
          "type": "bytes32"
        }
      ],
      "name": "numAffirmationsSigned",
      "outputs": [
        {
          "name": "",
          "type": "uint256"
        }
      ],
      "payable": false,
      "stateMutability": "view",
      "type": "function"
    },
    {
      "constant": true,
      "inputs": [
        {
          "name": "_withdrawal",
          "type": "bytes32"
        }
      ],
      "name": "affirmationsSigned",
      "outputs": [
        {
          "name": "",
          "type": "bool"
        }
      ],
      "payable": false,
      "stateMutability": "view",
      "type": "function"
    },
    {
      "constant": true,
      "inputs": [
        {
          "name": "_amount",
          "type": "uint256"
        }
      ],
      "name": "withinExecutionLimit",
      "outputs": [
        {
          "name": "",
          "type": "bool"
        }
      ],
      "payable": false,
      "stateMutability": "view",
      "type": "function"
    },
    {
      "constant": true,
      "inputs": [],
      "name": "executionMaxPerTx",
      "outputs": [
        {
          "name": "",
          "type": "uint256"
        }
      ],
      "payable": false,
      "stateMutability": "view",
      "type": "function"
    },
    {
      "constant": true,
      "inputs": [],
      "name": "requiredSignatures",
      "outputs": [
        {
          "name": "",
          "type": "uint256"
        }
      ],
      "payable": false,
      "stateMutability": "view",
      "type": "function"
    },
    {
      "constant": true,
      "inputs": [],
      "name": "owner",
      "outputs": [
        {
          "name": "",
          "type": "address"
        }
      ],
      "payable": false,
      "stateMutability": "view",
      "type": "function"
    },
    {
      "constant": true,
      "inputs": [
        {
          "name": "_message",
          "type": "bytes32"
        }
      ],
      "name": "messagesSigned",
      "outputs": [
        {
          "name": "",
          "type": "bool"
        }
      ],
      "payable": false,
      "stateMutability": "view",
      "type": "function"
    },
    {
      "constant": true,
      "inputs": [],
      "name": "getHomeFee",
      "outputs": [
        {
          "name": "",
          "type": "uint256"
        }
      ],
      "payable": false,
      "stateMutability": "view",
      "type": "function"
    },
    {
      "constant": true,
      "inputs": [],
      "name": "maxAvailablePerTx",
      "outputs": [
        {
          "name": "",
          "type": "uint256"
        }
      ],
      "payable": false,
      "stateMutability": "view",
      "type": "function"
    },
    {
      "constant": true,
      "inputs": [],
      "name": "validatorContract",
      "outputs": [
        {
          "name": "",
          "type": "address"
        }
      ],
      "payable": false,
      "stateMutability": "view",
      "type": "function"
    },
    {
      "constant": false,
      "inputs": [
        {
          "name": "recipient",
          "type": "address"
        },
        {
          "name": "value",
          "type": "uint256"
        },
        {
          "name": "transactionHash",
          "type": "bytes32"
        }
      ],
      "name": "executeAffirmation",
      "outputs": [],
      "payable": false,
      "stateMutability": "nonpayable",
      "type": "function"
    },
    {
      "constant": true,
      "inputs": [],
      "name": "deployedAtBlock",
      "outputs": [
        {
          "name": "",
          "type": "uint256"
        }
      ],
      "payable": false,
      "stateMutability": "view",
      "type": "function"
    },
    {
      "constant": true,
      "inputs": [],
      "name": "getBridgeInterfacesVersion",
      "outputs": [
        {
          "name": "major",
          "type": "uint64"
        },
        {
          "name": "minor",
          "type": "uint64"
        },
        {
          "name": "patch",
          "type": "uint64"
        }
      ],
      "payable": false,
      "stateMutability": "pure",
      "type": "function"
    },
    {
      "constant": true,
      "inputs": [],
      "name": "outOfLimitAmount",
      "outputs": [
        {
          "name": "",
          "type": "uint256"
        }
      ],
      "payable": false,
      "stateMutability": "view",
      "type": "function"
    },
    {
      "constant": false,
      "inputs": [
        {
          "name": "_minPerTx",
          "type": "uint256"
        }
      ],
      "name": "setMinPerTx",
      "outputs": [],
      "payable": false,
      "stateMutability": "nonpayable",
      "type": "function"
    },
    {
      "constant": false,
      "inputs": [
        {
          "name": "_from",
          "type": "address"
        },
        {
          "name": "_value",
          "type": "uint256"
        },
        {
          "name": "_data",
          "type": "bytes"
        }
      ],
      "name": "onTokenTransfer",
      "outputs": [
        {
          "name": "",
          "type": "bool"
        }
      ],
      "payable": false,
      "stateMutability": "nonpayable",
      "type": "function"
    },
    {
      "constant": false,
      "inputs": [
        {
          "name": "hashMsg",
          "type": "bytes32"
        },
        {
          "name": "unlockOnForeign",
          "type": "bool"
        },
        {
          "name": "valueToUnlock",
          "type": "uint256"
        }
      ],
      "name": "fixAssetsAboveLimits",
      "outputs": [],
      "payable": false,
      "stateMutability": "nonpayable",
      "type": "function"
    },
    {
      "constant": false,
      "inputs": [
        {
          "name": "_blockConfirmations",
          "type": "uint256"
        }
      ],
      "name": "setRequiredBlockConfirmations",
      "outputs": [],
      "payable": false,
      "stateMutability": "nonpayable",
      "type": "function"
    },
    {
      "constant": false,
      "inputs": [
        {
          "name": "_dailyLimit",
          "type": "uint256"
        }
      ],
      "name": "setDailyLimit",
      "outputs": [],
      "payable": false,
      "stateMutability": "nonpayable",
      "type": "function"
    },
    {
      "constant": false,
      "inputs": [
        {
          "name": "_gasPrice",
          "type": "uint256"
        }
      ],
      "name": "setGasPrice",
      "outputs": [],
      "payable": false,
      "stateMutability": "nonpayable",
      "type": "function"
    },
    {
      "constant": false,
      "inputs": [
        {
          "name": "_maxPerTx",
          "type": "uint256"
        }
      ],
      "name": "setMaxPerTx",
      "outputs": [],
      "payable": false,
      "stateMutability": "nonpayable",
      "type": "function"
    },
    {
      "constant": true,
      "inputs": [],
      "name": "decimalShift",
      "outputs": [
        {
          "name": "",
          "type": "int256"
        }
      ],
      "payable": false,
      "stateMutability": "view",
      "type": "function"
    },
    {
      "constant": true,
      "inputs": [],
      "name": "feeManagerContract",
      "outputs": [
        {
          "name": "",
          "type": "address"
        }
      ],
      "payable": false,
      "stateMutability": "view",
      "type": "function"
    },
    {
      "constant": true,
      "inputs": [],
      "name": "minPerTx",
      "outputs": [
        {
          "name": "",
          "type": "uint256"
        }
      ],
      "payable": false,
      "stateMutability": "view",
      "type": "function"
    },
    {
      "constant": true,
      "inputs": [
        {
          "name": "_amount",
          "type": "uint256"
        }
      ],
      "name": "withinLimit",
      "outputs": [
        {
          "name": "",
          "type": "bool"
        }
      ],
      "payable": false,
      "stateMutability": "view",
      "type": "function"
    },
    {
      "constant": false,
      "inputs": [
        {
          "name": "_maxPerTx",
          "type": "uint256"
        }
      ],
      "name": "setExecutionMaxPerTx",
      "outputs": [],
      "payable": false,
      "stateMutability": "nonpayable",
      "type": "function"
    },
    {
      "constant": true,
      "inputs": [],
      "name": "getFeeManagerMode",
      "outputs": [
        {
          "name": "mode",
          "type": "bytes4"
        }
      ],
      "payable": false,
      "stateMutability": "view",
      "type": "function"
    },
    {
      "constant": false,
      "inputs": [
        {
          "name": "newOwner",
          "type": "address"
        }
      ],
      "name": "transferOwnership",
      "outputs": [],
      "payable": false,
      "stateMutability": "nonpayable",
      "type": "function"
    },
    {
      "constant": true,
      "inputs": [],
      "name": "maxPerTx",
      "outputs": [
        {
          "name": "",
          "type": "uint256"
        }
      ],
      "payable": false,
      "stateMutability": "view",
      "type": "function"
    },
    {
      "constant": true,
      "inputs": [],
      "name": "gasPrice",
      "outputs": [
        {
          "name": "",
          "type": "uint256"
        }
      ],
      "payable": false,
      "stateMutability": "view",
      "type": "function"
    },
    {
      "constant": true,
      "inputs": [
        {
          "name": "_number",
          "type": "uint256"
        }
      ],
      "name": "isAlreadyProcessed",
      "outputs": [
        {
          "name": "",
          "type": "bool"
        }
      ],
      "payable": false,
      "stateMutability": "pure",
      "type": "function"
    },
    {
      "constant": true,
      "inputs": [],
      "name": "getForeignFee",
      "outputs": [
        {
          "name": "",
          "type": "uint256"
        }
      ],
      "payable": false,
      "stateMutability": "view",
      "type": "function"
    },
    {
      "anonymous": false,
      "inputs": [
        {
          "indexed": false,
          "name": "recipient",
          "type": "address"
        },
        {
          "indexed": false,
          "name": "value",
          "type": "uint256"
        }
      ],
      "name": "UserRequestForSignature",
      "type": "event"
    },
    {
      "anonymous": false,
      "inputs": [
        {
          "indexed": false,
          "name": "recipient",
          "type": "address"
        },
        {
          "indexed": false,
          "name": "value",
          "type": "uint256"
        },
        {
          "indexed": false,
          "name": "transactionHash",
          "type": "bytes32"
        }
      ],
      "name": "AffirmationCompleted",
      "type": "event"
    },
    {
      "anonymous": false,
      "inputs": [
        {
          "indexed": true,
          "name": "signer",
          "type": "address"
        },
        {
          "indexed": false,
          "name": "messageHash",
          "type": "bytes32"
        }
      ],
      "name": "SignedForUserRequest",
      "type": "event"
    },
    {
      "anonymous": false,
      "inputs": [
        {
          "indexed": true,
          "name": "signer",
          "type": "address"
        },
        {
          "indexed": false,
          "name": "transactionHash",
          "type": "bytes32"
        }
      ],
      "name": "SignedForAffirmation",
      "type": "event"
    },
    {
      "anonymous": false,
      "inputs": [
        {
          "indexed": false,
          "name": "authorityResponsibleForRelay",
          "type": "address"
        },
        {
          "indexed": false,
          "name": "messageHash",
          "type": "bytes32"
        },
        {
          "indexed": false,
          "name": "NumberOfCollectedSignatures",
          "type": "uint256"
        }
      ],
      "name": "CollectedSignatures",
      "type": "event"
    },
    {
      "anonymous": false,
      "inputs": [
        {
          "indexed": false,
          "name": "newLimit",
          "type": "uint256"
        }
      ],
      "name": "DailyLimitChanged",
      "type": "event"
    },
    {
      "anonymous": false,
      "inputs": [
        {
          "indexed": false,
          "name": "newLimit",
          "type": "uint256"
        }
      ],
      "name": "ExecutionDailyLimitChanged",
      "type": "event"
    },
    {
      "anonymous": false,
      "inputs": [
        {
          "indexed": false,
          "name": "gasPrice",
          "type": "uint256"
        }
      ],
      "name": "GasPriceChanged",
      "type": "event"
    },
    {
      "anonymous": false,
      "inputs": [
        {
          "indexed": false,
          "name": "requiredBlockConfirmations",
          "type": "uint256"
        }
      ],
      "name": "RequiredBlockConfirmationChanged",
      "type": "event"
    },
    {
      "anonymous": false,
      "inputs": [
        {
          "indexed": false,
          "name": "feeAmount",
          "type": "uint256"
        },
        {
          "indexed": true,
          "name": "transactionHash",
          "type": "bytes32"
        }
      ],
      "name": "FeeDistributedFromAffirmation",
      "type": "event"
    },
    {
      "anonymous": false,
      "inputs": [
        {
          "indexed": false,
          "name": "feeAmount",
          "type": "uint256"
        },
        {
          "indexed": true,
          "name": "transactionHash",
          "type": "bytes32"
        }
      ],
      "name": "FeeDistributedFromSignatures",
      "type": "event"
    },
    {
      "anonymous": false,
      "inputs": [
        {
          "indexed": false,
          "name": "previousOwner",
          "type": "address"
        },
        {
          "indexed": false,
          "name": "newOwner",
          "type": "address"
        }
      ],
      "name": "OwnershipTransferred",
      "type": "event"
    },
    {
      "anonymous": false,
      "inputs": [
        {
          "indexed": false,
          "name": "recipient",
          "type": "address"
        },
        {
          "indexed": false,
          "name": "value",
          "type": "uint256"
        },
        {
          "indexed": true,
          "name": "messageId",
          "type": "bytes32"
        }
      ],
      "name": "MediatorAmountLimitExceeded",
      "type": "event"
    },
    {
      "anonymous": false,
      "inputs": [
        {
          "indexed": false,
          "name": "recipient",
          "type": "address"
        },
        {
          "indexed": false,
          "name": "value",
          "type": "uint256"
        },
        {
          "indexed": true,
          "name": "transactionHash",
          "type": "bytes32"
        },
        {
          "indexed": false,
          "name": "messageId",
          "type": "bytes32"
        }
      ],
      "name": "AmountLimitExceeded",
      "type": "event"
    },
    {
      "anonymous": false,
      "inputs": [
        {
          "indexed": true,
          "name": "messageId",
          "type": "bytes32"
        },
        {
          "indexed": false,
          "name": "value",
          "type": "uint256"
        },
        {
          "indexed": false,
          "name": "remaining",
          "type": "uint256"
        }
      ],
      "name": "AssetAboveLimitsFixed",
      "type": "event"
    },
    {
      "constant": false,
      "inputs": [
        {
          "name": "_validatorContract",
          "type": "address"
        },
        {
          "name": "_dailyLimitMaxPerTxMinPerTxArray",
          "type": "uint256[3]"
        },
        {
          "name": "_homeGasPrice",
          "type": "uint256"
        },
        {
          "name": "_requiredBlockConfirmations",
          "type": "uint256"
        },
        {
          "name": "_erc677token",
          "type": "address"
        },
        {
          "name": "_foreignDailyLimitForeignMaxPerTxArray",
          "type": "uint256[2]"
        },
        {
          "name": "_owner",
          "type": "address"
        },
        {
          "name": "_decimalShift",
          "type": "int256"
        }
      ],
      "name": "initialize",
      "outputs": [
        {
          "name": "",
          "type": "bool"
        }
      ],
      "payable": false,
      "stateMutability": "nonpayable",
      "type": "function"
    },
    {
      "constant": false,
      "inputs": [
        {
          "name": "_validatorContract",
          "type": "address"
        },
        {
          "name": "_dailyLimitMaxPerTxMinPerTxArray",
          "type": "uint256[3]"
        },
        {
          "name": "_homeGasPrice",
          "type": "uint256"
        },
        {
          "name": "_requiredBlockConfirmations",
          "type": "uint256"
        },
        {
          "name": "_erc677token",
          "type": "address"
        },
        {
          "name": "_foreignDailyLimitForeignMaxPerTxArray",
          "type": "uint256[2]"
        },
        {
          "name": "_owner",
          "type": "address"
        },
        {
          "name": "_feeManager",
          "type": "address"
        },
        {
          "name": "_homeFeeForeignFeeArray",
          "type": "uint256[2]"
        },
        {
          "name": "_decimalShift",
          "type": "int256"
        }
      ],
      "name": "rewardableInitialize",
      "outputs": [
        {
          "name": "",
          "type": "bool"
        }
      ],
      "payable": false,
      "stateMutability": "nonpayable",
      "type": "function"
    },
    {
      "constant": false,
      "inputs": [
        {
          "name": "_token",
          "type": "address"
        },
        {
          "name": "_to",
          "type": "address"
        }
      ],
      "name": "claimTokensFromErc677",
      "outputs": [],
      "payable": false,
      "stateMutability": "nonpayable",
      "type": "function"
    },
    {
      "constant": true,
      "inputs": [],
      "name": "getBridgeMode",
      "outputs": [
        {
          "name": "_data",
          "type": "bytes4"
        }
      ],
      "payable": false,
      "stateMutability": "pure",
      "type": "function"
    },
    {
      "constant": false,
      "inputs": [
        {
          "name": "_recipient",
          "type": "address"
        },
        {
          "name": "_valueToMint",
          "type": "uint256"
        }
      ],
      "name": "mint",
      "outputs": [],
      "payable": false,
      "stateMutability": "nonpayable",
      "type": "function"
    }
  ],
  "bytecode": "0x608060405234801561001057600080fd5b50614690806100206000396000f30060806040526004361061026e5763ffffffff60e060020a6000350416630cbf060181146102735780631812d9961461029d57806318d8f9c91461032d578063286c40661461035e5780632bd0bb051461037857806334a9e14814610390578063392e53cd146103a85780633dd95d1b146103d15780633e6968b6146103e95780633f0a9f65146103fe578063408fef2e1461041357806340c10f1914610428578063437764df1461044c57806343b37dd314610493578063490a32c6146104a85780634fb3fef7146104c057806360756f7c146104d8578063630cea8e146104f957806367eeba0c146105255780636ae1a9761461053a5780637698da2414610552578063865c80281461056a578063879ce676146105aa5780638aa1949a146105c25780638d068043146105d75780638da5cb5b146105ec5780638f4b4b98146106015780639313dc431461061957806394da17cd1461064057806395e54a1714610655578063994390891461066a578063995b2cff1461067f5780639a454b99146106a65780639cb7595a146106bb578063a0189345146106fc578063a2a6ca2714610711578063a4c0ed3614610729578063a7444c0d1461075a578063acf5c6891461077a578063b20d30a914610792578063bf1fe420146107aa578063c6f6f216146107c2578063dae5f0fd146107da578063dbe03a8b146107ef578063df25f3f014610804578063e13d3c7914610819578063ea9f496814610863578063f20151e11461087b578063f2ba956114610893578063f2fde38b146108a8578063f968adbe146108c9578063fe173b97146108de578063ffd19e8c146108f3578063ffd661961461090b575b600080fd5b34801561027f57600080fd5b5061028b600435610920565b60408051918252519081900360200190f35b3480156102a957600080fd5b506102b86004356024356109e5565b6040805160208082528351818301528351919283929083019185019080838360005b838110156102f25781810151838201526020016102da565b50505050905090810190601f16801561031f5780820380516001836020036101000a031916815260200191505b509250505060405180910390f35b34801561033957600080fd5b50610342610bc2565b60408051600160a060020a039092168252519081900360200190f35b34801561036a57600080fd5b50610376600435610bd2565b005b34801561038457600080fd5b5061028b600435610c11565b34801561039c57600080fd5b50610376600435610c8c565b3480156103b457600080fd5b506103bd610cc8565b604080519115158252519081900360200190f35b3480156103dd57600080fd5b50610376600435610d19565b3480156103f557600080fd5b5061028b610dd9565b34801561040a57600080fd5b5061028b610de2565b34801561041f57600080fd5b5061028b610e30565b34801561043457600080fd5b50610376600160a060020a0360043516602435610e3a565b34801561045857600080fd5b50610461610f52565b604080517bffffffffffffffffffffffffffffffffffffffffffffffffffffffff199092168252519081900360200190f35b34801561049f57600080fd5b5061028b610f76565b3480156104b457600080fd5b506102b8600435610fc4565b3480156104cc57600080fd5b5061028b60043561112c565b3480156104e457600080fd5b50610376600160a060020a03600435166111a7565b34801561050557600080fd5b50610376602460048035828101929082013591813591820191013561125f565b34801561053157600080fd5b5061028b611677565b34801561054657600080fd5b5061028b6004356116c5565b34801561055e57600080fd5b506103bd600435611748565b34801561057657600080fd5b506103bd600160a060020a036004358116906024906084359060a4359060c43581169060e490610124351661014435611811565b3480156105b657600080fd5b506103bd6004356119c1565b3480156105ce57600080fd5b5061028b611a0b565b3480156105e357600080fd5b5061028b611a59565b3480156105f857600080fd5b50610342611ad1565b34801561060d57600080fd5b506103bd600435611b28565b34801561062557600080fd5b50610376600160a060020a0360043581169060243516611bac565b34801561064c57600080fd5b5061028b611cbb565b34801561066157600080fd5b5061028b611cd4565b34801561067657600080fd5b50610342611d2e565b34801561068b57600080fd5b50610376600160a060020a0360043516602435604435611d85565b3480156106b257600080fd5b5061028b612083565b3480156106c757600080fd5b506106d06120d1565b6040805167ffffffffffffffff9485168152928416602084015292168183015290519081900360600190f35b34801561070857600080fd5b5061028b6120dc565b34801561071d57600080fd5b5061037660043561212a565b34801561073557600080fd5b506103bd60048035600160a060020a03169060248035916044359182019101356121c6565b34801561076657600080fd5b506103766004356024351515604435612255565b34801561078657600080fd5b50610376600435612466565b34801561079e57600080fd5b5061037660043561248b565b3480156107b657600080fd5b5061037660043561254b565b3480156107ce57600080fd5b50610376600435612570565b3480156107e657600080fd5b5061028b612608565b3480156107fb57600080fd5b50610342612656565b34801561081057600080fd5b5061028b6126ad565b34801561082557600080fd5b506103bd600160a060020a036004358116906024906084359060a4359060c43581169060e4906101243581169061014435166101646101a4356126fb565b34801561086f57600080fd5b506103bd6004356128da565b34801561088757600080fd5b50610376600435612925565b34801561089f57600080fd5b506104616129a1565b3480156108b457600080fd5b50610376600160a060020a0360043516612a17565b3480156108d557600080fd5b5061028b612a3c565b3480156108ea57600080fd5b5061028b612a8a565b3480156108ff57600080fd5b506103bd600435612ad8565b34801561091757600080fd5b5061028b612b00565b60008060008360405160200180807f6e756d4d657373616765735369676e656400000000000000000000000000000081525060110182600019166000191681526020019150506040516020818303038152906040526040518082805190602001908083835b602083106109a45780518252601f199092019160209182019101610985565b51815160209384036101000a600019018019909216911617905260408051929094018290039091208652850195909552929092016000205495945050505050565b604080516020808201859052818301849052825180830384018152606092830193849052805192936000939192909182918401908083835b60208310610a3c5780518252601f199092019160209182019101610a1d565b51815160209384036101000a6000190180199092169116179052604080519290940182900382207f7369676e6174757265730000000000000000000000000000000000000000000083830152602a80840182905285518085039091018152604a9093019485905282519097506003965060009550919392508291908401908083835b60208310610add5780518252601f199092019160209182019101610abe565b6001836020036101000a0380198251168184511680821785525050505050509050019150506040518091039020600019166000191681526020019081526020016000208054600181600116156101000203166002900480601f016020809104026020016040519081016040528092919081815260200182805460018160011615610100020316600290048015610bb45780601f10610b8957610100808354040283529160200191610bb4565b820191906000526020600020905b815481529060010190602001808311610b9757829003601f168201915b505050505091505092915050565b6000610bcc612b19565b90505b90565b610bda611ad1565b600160a060020a03163314610bee57600080fd5b610c0e610bf9612656565b82600080516020614625833981519152612b70565b50565b60008060008360405160200180807f746f74616c5370656e7450657244617900000000000000000000000000000000815250601001828152602001915050604051602081830303815290604052604051808280519060200190808383602083106109a45780518252601f199092019160209182019101610985565b610c94611ad1565b600160a060020a03163314610ca857600080fd5b610c0e610cb3612656565b82600080516020614645833981519152612b70565b7f0a6f646cd611241d8073675e00d1a1ff700fbf1b53fcf473de56d1e6e4b714ba60005260046020527f078d888f9b66f3f8bfa10909e31f1e16240db73449f0500afdbbe3a70da457cc5460ff1690565b610d21611ad1565b600160a060020a03163314610d3557600080fd5b610d3d611a0b565b811180610d48575080155b1515610d5357600080fd5b7f21dbcab260e413c20dc13c28b7db95e2b423d1135f42bb8b7d5214a92270d237600090815260209081527fadd938dbd083a16bae12238cd914fca0afc7a30edb55b1cd5c7f1823f1b0e4218290556040805183815290517f9bebf928b90863f24cc31f726a3a7545efd409f1dcf552301b1ee3710da70d3b929181900390910190a150565b62015180420490565b7f916daedf6915000ff68ced2f0b6773fe6f2582237f92c3c95bb4d7940723007160009081526020527fd2ea0feb732edb0ffe32efd33a6b9d24d46b16eb34a4d07ce256537b6f131e425490565b6000610bcc612cdc565b30600160a060020a0316636fde82026040518163ffffffff1660e060020a028152600401602060405180830381600087803b158015610e7857600080fd5b505af1158015610e8c573d6000803e3d6000fd5b505050506040513d6020811015610ea257600080fd5b5051600160a060020a03163314610eb857600080fd5b610ec0610bc2565b600160a060020a03166340c10f1983836040518363ffffffff1660e060020a0281526004018083600160a060020a0316600160a060020a0316815260200182815260200192505050602060405180830381600087803b158015610f2257600080fd5b505af1158015610f36573d6000803e3d6000fd5b505050506040513d6020811015610f4c57600080fd5b50505050565b7fba4690f50000000000000000000000000000000000000000000000000000000090565b7f21dbcab260e413c20dc13c28b7db95e2b423d1135f42bb8b7d5214a92270d23760009081526020527fadd938dbd083a16bae12238cd914fca0afc7a30edb55b1cd5c7f1823f1b0e4215490565b6060600360008360405160200180807f6d6573736167657300000000000000000000000000000000000000000000000081525060080182600019166000191681526020019150506040516020818303038152906040526040518082805190602001908083835b602083106110495780518252601f19909201916020918201910161102a565b6001836020036101000a0380198251168184511680821785525050505050509050019150506040518091039020600019166000191681526020019081526020016000208054600181600116156101000203166002900480601f0160208091040260200160405190810160405280929190818152602001828054600181600116156101000203166002900480156111205780601f106110f557610100808354040283529160200191611120565b820191906000526020600020905b81548152906001019060200180831161110357829003601f168201915b50505050509050919050565b60008060008360405160200180807f746f74616c457865637574656450657244617900000000000000000000000000815250601301828152602001915050604051602081830303815290604052604051808280519060200190808383602083106109a45780518252601f199092019160209182019101610985565b6111af611ad1565b600160a060020a031633146111c357600080fd5b600160a060020a03811615806111dd57506111dd81612ce1565b15156111e857600080fd5b7f779a349c5bee7817f04c960f525ee3e2f2516078c38c68a3149787976ee837e560005260026020527fc155b21a14c4592b97825e495fbe0d2705fb46420018cac5bfa7a09c43fae517805473ffffffffffffffffffffffffffffffffffffffff1916600160a060020a0392909216919091179055565b600080600080600061126f611d2e565b600160a060020a031663facd743b336040518263ffffffff1660e060020a0281526004018082600160a060020a0316600160a060020a03168152602001915050602060405180830381600087803b1580156112c957600080fd5b505af11580156112dd573d6000803e3d6000fd5b505050506040513d60208110156112f357600080fd5b5051151561130057600080fd5b61133987878080601f01602080910402602001604051908101604052809392919081815260200183838082843750612ce9945050505050565b151561134457600080fd5b8686604051602001808383808284378201915050925050506040516020818303038152906040526040518082805190602001908083835b6020831061139a5780518252601f19909201916020918201910161137b565b51815160209384036101000a600019018019909216911617905260408051929094018290038220336c0100000000000000000000000002838301526034808401829052855180850390910181526054909301948590528251909b509195509293508392850191508083835b602083106114245780518252601f199092019160209182019101611405565b6001836020036101000a0380198251168184511680821785525050505050509050019150506040518091039020935061145c85610920565b925061146783612ad8565b1561147157600080fd5b6001928301928311156114965761148784611b28565b1561149157600080fd5b6114d0565b6114d08588888080601f01602080910402602001604051908101604052809392919081815260200183838082843750612cfd945050505050565b6114db846001612dd4565b604080516020808201889052600019860182840152825180830384018152606090920192839052815191929182918401908083835b6020831061152f5780518252601f199092019160209182019101611510565b51815160209384036101000a600019018019909216911617905260408051929094018290038220601f8f018290048202830182019094528d82529296506115909450869350918d91508c908190840183828082843750612ea6945050505050565b61159a8584612f29565b60408051868152905133917fbf06885f40778f5ccfb64497d3f92ce568ddaedb7e2fb4487f72690418cf8e4c919081900360200190a26115d8611a59565b905080831061166c576115f3856115ee85612fee565b612f29565b604080513381526020810187905280820183905290517f415557404d88a0c0b8e3b16967cafffc511213fd9c465c16832ee17ed57d72379181900360600190a161166c87878080601f01602080910402602001604051908101604052809392919081815260200183838082843750613013945050505050565b505050505050505050565b7f4a6a899679f26b73530d8cf1001e83b6f7702e04b6fdb98f3c62dc7e47e041a560009081526020527f1ab29a5cca988aee50edccdd61c5bcaa7ad4b29a03b7ee50f298ceccfe14cc4e5490565b60008060008360405160200180807f6e756d41666669726d6174696f6e735369676e656400000000000000000000008152506015018260001916600019168152602001915050604051602081830303815290604052604051808280519060200190808383602083106109a45780518252601f199092019160209182019101610985565b6000600460008360405160200180807f61666669726d6174696f6e735369676e6564000000000000000000000000000081525060120182600019166000191681526020019150506040516020818303038152906040526040518082805190602001908083835b602083106117cd5780518252601f1990920191602091820191016117ae565b51815160209384036101000a600019018019909216911617905260408051929094018290039091208652850195909552929092016000205460ff1695945050505050565b6040805160048152602481018252602081018051600160e060020a03167f6fde8202000000000000000000000000000000000000000000000000000000001781529151815160009330939291829190808383895b8381101561187d578181015183820152602001611865565b50505050905090810190601f1680156118aa5780820380516001836020036101000a031916815260200191505b509150506000604051808303816000865af1915050158061193c575030600160a060020a0316636fde82026040518163ffffffff1660e060020a028152600401602060405180830381600087803b15801561190457600080fd5b505af1158015611918573d6000803e3d6000fd5b505050506040513d602081101561192e57600080fd5b5051600160a060020a031633145b8061194657503330145b151561195157600080fd5b6119a48989600380602002604051908101604052809291908260036020028082843750506040805180820182528e94508d93508c9250908b9060029083908390808284378201915050505050898961306c565b6119ac61316e565b6119b4610cc8565b9998505050505050505050565b6000806119e4836119d86119d3610dd9565b61112c565b9063ffffffff6131c516565b9050806119ef610f76565b10158015611a045750611a00611a0b565b8311155b9392505050565b7fc0ed44c192c86d1cc1ba51340b032c2766b4a2b0041031de13c46dd7104888d560009081526020527ff8e983ee86e5e377e9e34c9131b266382c3f04113d20de077f9e12663c7a646b5490565b6000611a63611d2e565b600160a060020a0316638d0680436040518163ffffffff1660e060020a028152600401602060405180830381600087803b158015611aa057600080fd5b505af1158015611ab4573d6000803e3d6000fd5b505050506040513d6020811015611aca57600080fd5b5051905090565b7f02016836a56b71f0d02689e69e326f4f4c1b9057164ef592671cf0d37c8040c060005260026020527fb7802e97e87ef2842a6cce7da7ffaeaedaa2f61a6a7870b23d9d01fc9b73712e54600160a060020a031690565b6000600460008360405160200180807f6d657373616765735369676e6564000000000000000000000000000000000000815250600e018260001916600019168152602001915050604051602081830303815290604052604051808280519060200190808383602083106117cd5780518252601f1990920191602091820191016117ae565b30600160a060020a0316636fde82026040518163ffffffff1660e060020a028152600401602060405180830381600087803b158015611bea57600080fd5b505af1158015611bfe573d6000803e3d6000fd5b505050506040513d6020811015611c1457600080fd5b5051600160a060020a03163314611c2a57600080fd5b611c32610bc2565b604080517f69ffa08a000000000000000000000000000000000000000000000000000000008152600160a060020a0385811660048301528481166024830152915192909116916369ffa08a9160448082019260009290919082900301818387803b158015611c9f57600080fd5b505af1158015611cb3573d6000803e3d6000fd5b505050505050565b6000610bcc6000805160206146458339815191526131d8565b6000806000806000611ce4612a3c565b9350611cee611677565b9250611d00611cfb610dd9565b610c11565b9150818311611d10576000611d14565b8183035b9050808410611d235780611d25565b835b94505050505090565b7f5a74bb7e202fb8e4bf311841c7d64ec19df195fee77d7e7ae749b27921b6ddfe60005260026020527fab54f3fbbe62c59b7876a9bf9bd5e0c22dbae93f4d8ee0438f7ce62b198eb0e054600160a060020a031690565b6000806000611d92611d2e565b600160a060020a031663facd743b336040518263ffffffff1660e060020a0281526004018082600160a060020a0316600160a060020a03168152602001915050602060405180830381600087803b158015611dec57600080fd5b505af1158015611e00573d6000803e3d6000fd5b505050506040513d6020811015611e1657600080fd5b50511515611e2357600080fd5b604080516c01000000000000000000000000600160a060020a0389160260208083019190915260348201889052605480830188905283518084039091018152607490920192839052815191929182918401908083835b60208310611e985780518252601f199092019160209182019101611e79565b6001836020036101000a03801982511681845116808217855250505050505090500191505060405180910390209250611ed0856119c1565b1561207757604080516c010000000000000000000000003302602080830191909152603480830187905283518084039091018152605490920192839052815191929182918401908083835b60208310611f3a5780518252601f199092019160209182019101611f1b565b6001836020036101000a03801982511681845116808217855250505050505090500191505060405180910390209150611f7282611748565b15611f7c57600080fd5b611f878260016132e7565b611f90836116c5565b9050611f9b81612ad8565b15611fa557600080fd5b600101611fb2838261336a565b60408051858152905133917f5df9cc3eb93d8a9a481857a3b70a8ca966e6b80b25cf0ee2cce180ec5afa80a1919081900360200190a2611ff0611a59565b8110612072576120088361200383612fee565b61336a565b60008511156120285761201d868686866133ec565b151561202857600080fd5b60408051600160a060020a03881681526020810187905280820186905290517f6fc115a803b8703117d9a3956c5a15401cb42401f91630f015eb6b043fa762539181900360600190a15b611cb3565b611cb38686868661350e565b7fb120ceec05576ad0c710bc6e85f1768535e27554458f05dcbb5c65b8c7a749b060009081526020527fe66bef0282a446f9848e2903380099bb6e431483ee78778868f33b4a154c818b5490565b600560026000909192565b7f145286dc85799b6fb9fe322391ba2d95683077b2adf34dd576dedc437e537ba760009081526020527fba10c7a68bf463c41368d64adcf7df23c0de931ea3b09f061e2dfec302fef95f5490565b612132611ad1565b600160a060020a0316331461214657600080fd5b60008111801561215c5750612159611677565b81105b801561216e575061216b612a3c565b81105b151561217957600080fd5b7fbbb088c505d18e049d114c7c91f11724e69c55ad6c5397e2b929e68b41fa05d160009081526020527f8df5c48c6b6e11d97548adc824ba0c99103ec09830fa5d53a179984085e6eaa055565b6000806121d1612b19565b905033600160a060020a038216146121e857600080fd5b6121f1856128da565b15156121fc57600080fd5b61220d612207610dd9565b866135ad565b61224981878787878080601f01602080910402602001604051908101604052809392919081815260200183838082843750613633945050505050565b50600195945050505050565b600080600080600080600030600160a060020a0316636fde82026040518163ffffffff1660e060020a028152600401602060405180830381600087803b15801561229e57600080fd5b505af11580156122b2573d6000803e3d6000fd5b505050506040513d60208110156122c857600080fd5b5051600160a060020a031633146122de57600080fd5b6122e78a6116c5565b96506122f287612ad8565b156122fc57600080fd5b6123058a6136a7565b9096509450600160a060020a038616158015906123225750600085115b801561232e5750878510155b151561233957600080fd5b612359612354896123486120dc565b9063ffffffff61382e16565b613840565b612369858963ffffffff61382e16565b9350612375848b61388d565b604080518981526020810186905281518c927f5bcec6564fe8d2cbb4e4eb8237510ceb6b291a5c2ee2e429948d25e9c924c1fa928290030190a2881561245a576123bd612a3c565b8811156123c957600080fd5b6123d1612656565b9250879150600160a060020a03831615612415576124008860008560008051602061464583398151915261390f565b9050612412888263ffffffff61382e16565b91505b60408051600160a060020a03881681526020810184905281517f127650bcfb0ba017401abe4931453a405140a8fd36fece67bae2db174d3fdd63929181900390910190a15b50505050505050505050565b61246e611ad1565b600160a060020a0316331461248257600080fd5b610c0e816139a0565b612493611ad1565b600160a060020a031633146124a757600080fd5b6124af612a3c565b8111806124ba575080155b15156124c557600080fd5b7f4a6a899679f26b73530d8cf1001e83b6f7702e04b6fdb98f3c62dc7e47e041a5600090815260209081527f1ab29a5cca988aee50edccdd61c5bcaa7ad4b29a03b7ee50f298ceccfe14cc4e8290556040805183815290517fad4123ae17c414d9c6d2fec478b402e6b01856cc250fd01fbfd252fda0089d3c929181900390910190a150565b612553611ad1565b600160a060020a0316331461256757600080fd5b610c0e81613a33565b612578611ad1565b600160a060020a0316331461258c57600080fd5b8015806125b0575061259c6126ad565b811180156125b057506125ad611677565b81105b15156125bb57600080fd5b7f0f8803acad17c63ee38bf2de71e1888bc7a079a6f73658e274b08018bea4e29c60009081526020527f9de0f81379b4d8e60fe509315d071b56e7b732abaf193e74e0d15808b0951d0955565b7f1e8ecaafaddea96ed9ac6d2642dcdfe1bebe58a930b1085842d8fc122b371ee560009081526020527fd5c78dd9468716ca9bb96be25d56436811b20aab3523a9904b12deef1cab239d5490565b7f779a349c5bee7817f04c960f525ee3e2f2516078c38c68a3149787976ee837e560005260026020527fc155b21a14c4592b97825e495fbe0d2705fb46420018cac5bfa7a09c43fae51754600160a060020a031690565b7fbbb088c505d18e049d114c7c91f11724e69c55ad6c5397e2b929e68b41fa05d160009081526020527f8df5c48c6b6e11d97548adc824ba0c99103ec09830fa5d53a179984085e6eaa05490565b6040805160048152602481018252602081018051600160e060020a03167f6fde8202000000000000000000000000000000000000000000000000000000001781529151815160009330939291829190808383895b8381101561276757818101518382015260200161274f565b50505050905090810190601f1680156127945780820380516001836020036101000a031916815260200191505b509150506000604051808303816000865af19150501580612826575030600160a060020a0316636fde82026040518163ffffffff1660e060020a028152600401602060405180830381600087803b1580156127ee57600080fd5b505af1158015612802573d6000803e3d6000fd5b505050506040513d602081101561281857600080fd5b5051600160a060020a031633145b8061283057503330145b151561283b57600080fd5b6128bb8b8b600380602002604051908101604052809291908260036020028082843782019150505050508b8b8b8b600280602002604051908101604052809291908260026020028082843782019150505050508b8b8b6002806020026040519081016040528092919082600260200280828437508f9350613ab992505050565b6128c361316e565b6128cb610cc8565b9b9a5050505050505050505050565b6000806128ec836119d8611cfb610dd9565b9050806128f7611677565b1015801561290c5750612908612a3c565b8311155b8015611a04575061291b6126ad565b9092101592915050565b61292d611ad1565b600160a060020a0316331461294157600080fd5b612949610f76565b811061295457600080fd5b7fc0ed44c192c86d1cc1ba51340b032c2766b4a2b0041031de13c46dd7104888d560009081526020527ff8e983ee86e5e377e9e34c9131b266382c3f04113d20de077f9e12663c7a646b55565b604080516004815260248101909152602081018051600160e060020a03167ff2ba956100000000000000000000000000000000000000000000000000000000179052600090816129ef612656565b9050600460008351602085016000855af28060203d141615612a115760005193505b50505090565b612a1f611ad1565b600160a060020a03163314612a3357600080fd5b610c0e81613b89565b7f0f8803acad17c63ee38bf2de71e1888bc7a079a6f73658e274b08018bea4e29c60009081526020527f9de0f81379b4d8e60fe509315d071b56e7b732abaf193e74e0d15808b0951d095490565b7f55b3774520b5993024893d303890baa4e84b1244a43c60034d1ced2d3cf2b04b60009081526020527ff7d5eefab3776d7f0450bd0193564bcb4f832ce313ff2836c450fc63a4b944195490565b7f80000000000000000000000000000000000000000000000000000000000000009081161490565b6000610bcc6000805160206146258339815191526131d8565b7fa8b0ade3e2b734f043ce298aca4cc8d19d74270223f34531d0988b7d00cba21d60005260026020527f603cd9dcbfa185d5c37504f4c8b3f16117ed744fba48d08b7aad44a162af1c9354600160a060020a031690565b600081600080516020614645833981519152811480612b9c575060008051602061462583398151915281145b1515612ba757600080fd5b6000805160206146458339815191528314612be2577f286c406600000000000000000000000000000000000000000000000000000000612c04565b7f34a9e148000000000000000000000000000000000000000000000000000000005b6040805160248082018890528251808303909101815260449091018252602081018051600160e060020a03167bffffffffffffffffffffffffffffffffffffffffffffffffffffffff19851617815291518151939550600160a060020a038916939192909182919080838360005b83811015612c8a578181015183820152602001612c72565b50505050905090810190601f168015612cb75780820380516001836020036101000a031916815260200191505b50915050600060405180830381855af49150501515612cd557600080fd5b5050505050565b606890565b6000903b1190565b6000612cf3612cdc565b8251149050919050565b80600360008460405160200180807f6d6573736167657300000000000000000000000000000000000000000000000081525060080182600019166000191681526020019150506040516020818303038152906040526040518082805190602001908083835b60208310612d815780518252601f199092019160209182019101612d62565b51815160001960209485036101000a01908116901991909116179052604080519490920184900390932086528583019690965250929093016000208451612dcf95919450920191905061458c565b505050565b80600460008460405160200180807f6d657373616765735369676e6564000000000000000000000000000000000000815250600e0182600019166000191681526020019150506040516020818303038152906040526040518082805190602001908083835b60208310612e585780518252601f199092019160209182019101612e39565b51815160209384036101000a60001901801990921691161790526040805192909401829003909120865285019590955292909201600020805460ff1916941515949094179093555050505050565b80600360008460405160200180807f7369676e61747572657300000000000000000000000000000000000000000000815250600a01826000191660001916815260200191505060405160208183030381529060405260405180828051906020019080838360208310612d815780518252601f199092019160209182019101612d62565b806000808460405160200180807f6e756d4d657373616765735369676e656400000000000000000000000000000081525060110182600019166000191681526020019150506040516020818303038152906040526040518082805190602001908083835b60208310612fac5780518252601f199092019160209182019101612f8d565b51815160209384036101000a60001901801990921691161790526040805192909401829003909120865285019590955292909201600020939093555050505050565b7f80000000000000000000000000000000000000000000000000000000000000001790565b600080600080613021612656565b9350600160a060020a03841615612cd55761303b85613c60565b50935093505061305f8360018660008051602061464583398151915260010261390f565b9050612cd5818584613c9b565b613074610cc8565b1561307e57600080fd5b61308788612ce1565b151561309257600080fd5b7fab54f3fbbe62c59b7876a9bf9bd5e0c22dbae93f4d8ee0438f7ce62b198eb0e0805473ffffffffffffffffffffffffffffffffffffffff1916600160a060020a038a161790557fb120ceec05576ad0c710bc6e85f1768535e27554458f05dcbb5c65b8c7a749b06000908152602052437fe66bef0282a446f9848e2903380099bb6e431483ee78778868f33b4a154c818b5561312e87613da9565b61313786613a33565b613140856139a0565b61314983613f06565b61315281613fdb565b61315b82613b89565b61316484614044565b5050505050505050565b7f0a6f646cd611241d8073675e00d1a1ff700fbf1b53fcf473de56d1e6e4b714ba60005260046020527f078d888f9b66f3f8bfa10909e31f1e16240db73449f0500afdbbe3a70da457cc805460ff19166001179055565b818101828110156131d257fe5b92915050565b60008080606084600080516020614645833981519152811480613208575060008051602061462583398151915281145b151561321357600080fd5b61321b612656565b93506000805160206146458339815191528614613258577fffd661960000000000000000000000000000000000000000000000000000000061327a565b7f94da17cd000000000000000000000000000000000000000000000000000000005b60408051600481526024810190915260208082018051600160e060020a03167bffffffffffffffffffffffffffffffffffffffffffffffffffffffff19851617815282519396509194509160009182885af28060203d1416156132dd5760005195505b5050505050919050565b80600460008460405160200180807f61666669726d6174696f6e735369676e65640000000000000000000000000000815250601201826000191660001916815260200191505060405160208183030381529060405260405180828051906020019080838360208310612e585780518252601f199092019160209182019101612e39565b806000808460405160200180807f6e756d41666669726d6174696f6e735369676e65640000000000000000000000815250601501826000191660001916815260200191505060405160208183030381529060405260405180828051906020019080838360208310612fac5780518252601f199092019160209182019101612f8d565b6000806000806133fc85886140cf565b61340d613407610dd9565b88614116565b6134168761419c565b9250613420612656565b9150600160a060020a0382161561346c5761344c8360008460008051602061462583398151915261390f565b90506134598183886141af565b613469838263ffffffff61382e16565b92505b613474610bc2565b600160a060020a03166340c10f1989856040518363ffffffff1660e060020a0281526004018083600160a060020a0316600160a060020a0316815260200182815260200192505050602060405180830381600087803b1580156134d657600080fd5b505af11580156134ea573d6000803e3d6000fd5b505050506040513d602081101561350057600080fd5b505198975050505050505050565b60008061351a836136a7565b9092509050600160a060020a038216158015613534575080155b151561353f57600080fd5b61354e612354866119d86120dc565b6135598686856142bd565b60408051600160a060020a038816815260208101879052808201859052905185917f26c0a209907d8e06e55b84dfc43d1429e22a3bab2b4f9cfd49d5f7f447a42c4f919081900360600190a2505050505050565b6135ba816119d884610c11565b6000808460405160200180807f746f74616c5370656e745065724461790000000000000000000000000000000081525060100182815260200191505060405160208183030381529060405260405180828051906020019080838360208310612fac5780518252601f199092019160209182019101612f8d565b83600160a060020a03166342966c68836040518263ffffffff1660e060020a02815260040180828152602001915050600060405180830381600087803b15801561367c57600080fd5b505af1158015613690573d6000803e3d6000fd5b50505050610f4c6136a184836143b3565b8361440d565b600080600260008460405160200180807f74784f75744f664c696d6974526563697069656e74000000000000000000000081525060150182600019166000191681526020019150506040516020818303038152906040526040518082805190602001908083835b6020831061372d5780518252601f19909201916020918201910161370e565b51815160209384036101000a600019018019909216911617905260408051929094018290039091208652858101969096525092830160009081205484517f74784f75744f664c696d697456616c75650000000000000000000000000000008188015260318082018b9052865180830390910181526051909101958690528051600160a060020a0390921698509195869592945091925082918401908083835b602083106137eb5780518252601f1990920191602091820191016137cc565b51815160209384036101000a6000190180199092169116179052604080519290940182900390912086528501959095529290920160002054949694955050505050565b60008282111561383a57fe5b50900390565b7f145286dc85799b6fb9fe322391ba2d95683077b2adf34dd576dedc437e537ba760009081526020527fba10c7a68bf463c41368d64adcf7df23c0de931ea3b09f061e2dfec302fef95f55565b816000808360405160200180807f74784f75744f664c696d697456616c7565000000000000000000000000000000815250601101826000191660001916815260200191505060405160208183030381529060405260405180828051906020019080838360208310612fac5780518252601f199092019160209182019101612f8d565b60408051602481018690528415156044820152606480820184905282518083039091018152608490910190915260208181018051600160e060020a03167f9862f26f000000000000000000000000000000000000000000000000000000001781528251600093929184919082885af28060203d14166001811461399157600080fd5b50506000519695505050505050565b600081116139ad57600080fd5b7f916daedf6915000ff68ced2f0b6773fe6f2582237f92c3c95bb4d79407230071600090815260209081527fd2ea0feb732edb0ffe32efd33a6b9d24d46b16eb34a4d07ce256537b6f131e428290556040805183815290517f4fb76205cd57c896b21511d2114137d8e901b4ccd659e1a0f97d6306795264fb929181900390910190a150565b7f55b3774520b5993024893d303890baa4e84b1244a43c60034d1ced2d3cf2b04b600090815260209081527ff7d5eefab3776d7f0450bd0193564bcb4f832ce313ff2836c450fc63a4b944198290556040805183815290517f52264b89e0fceafb26e79fd49ef8a366eb6297483bf4035b027f0c99a7ad512e929181900390910190a150565b613ac98a8a8a8a8a8a8a8861306c565b613ad283612ce1565b1515613add57600080fd5b7f779a349c5bee7817f04c960f525ee3e2f2516078c38c68a3149787976ee837e560005260026020527fc155b21a14c4592b97825e495fbe0d2705fb46420018cac5bfa7a09c43fae517805473ffffffffffffffffffffffffffffffffffffffff1916600160a060020a0385161790558151613b69908490600080516020614645833981519152612b70565b61245a838360016020020151600080516020614625833981519152612b70565b600160a060020a0381161515613b9e57600080fd5b7f8be0079c531659141344cd1fd0a4f28419497f9722a3daafe3b4186f6b6457e0613bc7611ad1565b60408051600160a060020a03928316815291841660208301528051918290030190a17f02016836a56b71f0d02689e69e326f4f4c1b9057164ef592671cf0d37c8040c060005260026020527fb7802e97e87ef2842a6cce7da7ffaeaedaa2f61a6a7870b23d9d01fc9b73712e805473ffffffffffffffffffffffffffffffffffffffff1916600160a060020a0392909216919091179055565b600080600080613c6f85612ce9565b1515613c7a57600080fd5b50505050601481015160348201516054830151606890930151919390929190565b6000831115612dcf576040805160248082018690528251808303909101815260449091018252602081018051600160e060020a03167f59d784640000000000000000000000000000000000000000000000000000000017815291518151600160a060020a03861693829180838360005b83811015613d23578181015183820152602001613d0b565b50505050905090810190601f168015613d505780820380516001836020036101000a031916815260200191505b50915050600060405180830381855af49150501515613d6e57600080fd5b60408051848152905182917f858abdcd5efcaebb936e8e8516f0cfe9a0ef5157ff99d16cdabb6db625be90d0919081900360200190a2505050565b60408101516000108015613dc4575060408101516020820151115b8015613dd4575060208101518151115b1515613ddf57600080fd5b80517f4a6a899679f26b73530d8cf1001e83b6f7702e04b6fdb98f3c62dc7e47e041a5600090815260208181527f1ab29a5cca988aee50edccdd61c5bcaa7ad4b29a03b7ee50f298ceccfe14cc4e92909255908201517f0f8803acad17c63ee38bf2de71e1888bc7a079a6f73658e274b08018bea4e29c82527f9de0f81379b4d8e60fe509315d071b56e7b732abaf193e74e0d15808b0951d095560408201517fbbb088c505d18e049d114c7c91f11724e69c55ad6c5397e2b929e68b41fa05d182527f8df5c48c6b6e11d97548adc824ba0c99103ec09830fa5d53a179984085e6eaa0557fad4123ae17c414d9c6d2fec478b402e6b01856cc250fd01fbfd252fda0089d3c9082905b60200201516040518082815260200191505060405180910390a150565b8051602082015110613f1757600080fd5b80517f21dbcab260e413c20dc13c28b7db95e2b423d1135f42bb8b7d5214a92270d237600090815260208181527fadd938dbd083a16bae12238cd914fca0afc7a30edb55b1cd5c7f1823f1b0e42192909255908201517fc0ed44c192c86d1cc1ba51340b032c2766b4a2b0041031de13c46dd7104888d582527ff8e983ee86e5e377e9e34c9131b266382c3f04113d20de077f9e12663c7a646b557f9bebf928b90863f24cc31f726a3a7545efd409f1dcf552301b1ee3710da70d3b908290613ee9565b604c1981138015613fec5750604d81125b1515613ff757600080fd5b7f1e8ecaafaddea96ed9ac6d2642dcdfe1bebe58a930b1085842d8fc122b371ee560009081526020527fd5c78dd9468716ca9bb96be25d56436811b20aab3523a9904b12deef1cab239d55565b61404d81612ce1565b151561405857600080fd5b7fa8b0ade3e2b734f043ce298aca4cc8d19d74270223f34531d0988b7d00cba21d60005260026020527f603cd9dcbfa185d5c37504f4c8b3f16117ed744fba48d08b7aad44a162af1c93805473ffffffffffffffffffffffffffffffffffffffff1916600160a060020a0392909216919091179055565b6000806140db846136a7565b9092509050600160a060020a03821615610f4c578083146140fb57600080fd5b614107600080866142bd565b610f4c612354846123486120dc565b614123816119d88461112c565b6000808460405160200180807f746f74616c45786563757465645065724461790000000000000000000000000081525060130182815260200191505060405160208183030381529060405260405180828051906020019080838360208310612fac5780518252601f199092019160209182019101612f8d565b60006131d2826141aa612608565b6144a5565b6000831115612dcf576040805160248082018690528251808303909101815260449091018252602081018051600160e060020a03167f054d46ec0000000000000000000000000000000000000000000000000000000017815291518151600160a060020a03861693829180838360005b8381101561423757818101518382015260200161421f565b50505050905090810190601f1680156142645780820380516001836020036101000a031916815260200191505b50915050600060405180830381855af4915050151561428257600080fd5b60408051848152905182917fa52d3c9cbc541772e4edd92e2e4e2a3865ab73630f25deed8a6c8de41ff0f65c919081900360200190a2505050565b82600260008360405160200180807f74784f75744f664c696d6974526563697069656e74000000000000000000000081525060150182600019166000191681526020019150506040516020818303038152906040526040518082805190602001908083835b602083106143415780518252601f199092019160209182019101614322565b51815160209384036101000a60001901801990921691161790526040805192909401829003909120865285019590955292909201600020805473ffffffffffffffffffffffffffffffffffffffff1916600160a060020a03959095169490941790935550612dcf91508390508261388d565b80518290600010156131d25781516014146143cd57600080fd5b6143d6826144f0565b9050600160a060020a03811615156143ed57600080fd5b6143f56144f7565b600160a060020a03828116911614156131d257600080fd5b80600080614419612656565b9150600160a060020a0382161561445a576144458360008460008051602061464583398151915261390f565b9050614457838263ffffffff61382e16565b92505b60408051600160a060020a03871681526020810185905281517f127650bcfb0ba017401abe4931453a405140a8fd36fece67bae2db174d3fdd63929181900390910190a15050505050565b60008115156144b55750816131d2565b60008213156144d9576144d283600a84900a63ffffffff61454e16565b90506131d2565b611a04836000849003600a0a63ffffffff61457716565b6014015190565b7f71483949fe7a14d16644d63320f24d10cf1d60abecc30cc677a340e82b699dd260005260026020527f21ffdf150a5d180f96d98d16f50e7b4dd63e2a067adc8386cf5af55dcecd8dd954600160a060020a031690565b600082151561455f575060006131d2565b5081810281838281151561456f57fe5b04146131d257fe5b6000818381151561458457fe5b049392505050565b828054600181600116156101000203166002900490600052602060002090601f016020900481019282601f106145cd57805160ff19168380011785556145fa565b828001600101855582156145fa579182015b828111156145fa5782518255916020019190600101906145df565b5061460692915061460a565b5090565b610bcf91905b8082111561460657600081556001016146105600deb7f3adca07d6d1f708c1774389db532a2b2f18fd05a62b957e4089f4696ed589d93e5e92f7e37e490c25f0e50f7f4aad7cc94b308a566553280967be38bcf1a165627a7a723058201c5925454eb5135a6bc05654ff255c123f6fc8ca8cdc9e61aa2231b3ef8de2860029",
  "source": "pragma solidity 0.4.24;\n\nimport \"../../libraries/Message.sol\";\nimport \"../../upgradeability/EternalStorage.sol\";\nimport \"../../interfaces/IBurnableMintableERC677Token.sol\";\nimport \"../BasicHomeBridge.sol\";\nimport \"../HomeOverdrawManagement.sol\";\nimport \"./RewardableHomeBridgeErcToErc.sol\";\nimport \"../ERC677BridgeForBurnableMintableToken.sol\";\n\n/**\n * @title HomeBridgeErcToErc\n * @dev This contract Home side logic for the erc-to-erc vanilla bridge mode.\n * It is designed to be used as an implementation contract of EternalStorageProxy contract.\n */\ncontract HomeBridgeErcToErc is\n    EternalStorage,\n    BasicHomeBridge,\n    ERC677BridgeForBurnableMintableToken,\n    HomeOverdrawManagement,\n    RewardableHomeBridgeErcToErc\n{\n    function initialize(\n        address _validatorContract,\n        uint256[3] _dailyLimitMaxPerTxMinPerTxArray, // [ 0 = _dailyLimit, 1 = _maxPerTx, 2 = _minPerTx ]\n        uint256 _homeGasPrice,\n        uint256 _requiredBlockConfirmations,\n        address _erc677token,\n        uint256[2] _foreignDailyLimitForeignMaxPerTxArray, // [ 0 = _foreignDailyLimit, 1 = _foreignMaxPerTx ]\n        address _owner,\n        int256 _decimalShift\n    ) external onlyRelevantSender returns (bool) {\n        _initialize(\n            _validatorContract,\n            _dailyLimitMaxPerTxMinPerTxArray,\n            _homeGasPrice,\n            _requiredBlockConfirmations,\n            _erc677token,\n            _foreignDailyLimitForeignMaxPerTxArray,\n            _owner,\n            _decimalShift\n        );\n        setInitialize();\n\n        return isInitialized();\n    }\n\n    function rewardableInitialize(\n        address _validatorContract,\n        uint256[3] _dailyLimitMaxPerTxMinPerTxArray, // [ 0 = _dailyLimit, 1 = _maxPerTx, 2 = _minPerTx ]\n        uint256 _homeGasPrice,\n        uint256 _requiredBlockConfirmations,\n        address _erc677token,\n        uint256[2] _foreignDailyLimitForeignMaxPerTxArray, // [ 0 = _foreignDailyLimit, 1 = _foreignMaxPerTx ]\n        address _owner,\n        address _feeManager,\n        uint256[2] _homeFeeForeignFeeArray, // [ 0 = _homeFee, 1 = _foreignFee ]\n        int256 _decimalShift\n    ) external onlyRelevantSender returns (bool) {\n        _rewardableInitialize(\n            _validatorContract,\n            _dailyLimitMaxPerTxMinPerTxArray,\n            _homeGasPrice,\n            _requiredBlockConfirmations,\n            _erc677token,\n            _foreignDailyLimitForeignMaxPerTxArray,\n            _owner,\n            _feeManager,\n            _homeFeeForeignFeeArray,\n            _decimalShift\n        );\n        setInitialize();\n\n        return isInitialized();\n    }\n\n    function _rewardableInitialize(\n        address _validatorContract,\n        uint256[3] _dailyLimitMaxPerTxMinPerTxArray, // [ 0 = _dailyLimit, 1 = _maxPerTx, 2 = _minPerTx ]\n        uint256 _homeGasPrice,\n        uint256 _requiredBlockConfirmations,\n        address _erc677token,\n        uint256[2] _foreignDailyLimitForeignMaxPerTxArray, // [ 0 = _foreignDailyLimit, 1 = _foreignMaxPerTx ]\n        address _owner,\n        address _feeManager,\n        uint256[2] _homeFeeForeignFeeArray, // [ 0 = _homeFee, 1 = _foreignFee ]\n        int256 _decimalShift\n    ) internal {\n        _initialize(\n            _validatorContract,\n            _dailyLimitMaxPerTxMinPerTxArray,\n            _homeGasPrice,\n            _requiredBlockConfirmations,\n            _erc677token,\n            _foreignDailyLimitForeignMaxPerTxArray,\n            _owner,\n            _decimalShift\n        );\n        require(AddressUtils.isContract(_feeManager));\n        addressStorage[FEE_MANAGER_CONTRACT] = _feeManager;\n        _setFee(_feeManager, _homeFeeForeignFeeArray[0], HOME_FEE);\n        _setFee(_feeManager, _homeFeeForeignFeeArray[1], FOREIGN_FEE);\n    }\n\n    function _initialize(\n        address _validatorContract,\n        uint256[3] _dailyLimitMaxPerTxMinPerTxArray, // [ 0 = _dailyLimit, 1 = _maxPerTx, 2 = _minPerTx ]\n        uint256 _homeGasPrice,\n        uint256 _requiredBlockConfirmations,\n        address _erc677token,\n        uint256[2] _foreignDailyLimitForeignMaxPerTxArray, // [ 0 = _foreignDailyLimit, 1 = _foreignMaxPerTx ]\n        address _owner,\n        int256 _decimalShift\n    ) internal {\n        require(!isInitialized());\n        require(AddressUtils.isContract(_validatorContract));\n\n        addressStorage[VALIDATOR_CONTRACT] = _validatorContract;\n        uintStorage[DEPLOYED_AT_BLOCK] = block.number;\n        _setLimits(_dailyLimitMaxPerTxMinPerTxArray);\n        _setGasPrice(_homeGasPrice);\n        _setRequiredBlockConfirmations(_requiredBlockConfirmations);\n        _setExecutionLimits(_foreignDailyLimitForeignMaxPerTxArray);\n        _setDecimalShift(_decimalShift);\n        _setOwner(_owner);\n        setErc677token(_erc677token);\n    }\n\n    /**\n     * @dev Withdraws erc20 tokens or native coins from the token contract. It is required since the bridge contract is the owner of the token contract.\n     * @param _token address of the claimed token or address(0) for native coins.\n     * @param _to address of the tokens/coins receiver.\n     */\n    function claimTokensFromErc677(address _token, address _to) external onlyIfUpgradeabilityOwner {\n        IBurnableMintableERC677Token(erc677token()).claimTokens(_token, _to);\n    }\n\n    function getBridgeMode() external pure returns (bytes4 _data) {\n        return 0xba4690f5; // bytes4(keccak256(abi.encodePacked(\"erc-to-erc-core\")))\n    }\n\n    /**\n     * @dev Internal callback to be called on successfull message execution.\n     * Should be called only after enough affirmations from the validators are already collected.\n     * @param _recipient address of the receiver where the new tokens should be minted.\n     * @param _value amount of tokens to mint.\n     * @param _txHash reference transaction hash on the Foreign side of the bridge which cause this operation.\n     * @param _hashMsg unique identifier of the particular bridge operation.\n     * @return true, if execution completed successfully.\n     */\n    function onExecuteAffirmation(address _recipient, uint256 _value, bytes32 _txHash, bytes32 _hashMsg)\n        internal\n        returns (bool)\n    {\n        _clearAboveLimitsMarker(_hashMsg, _value);\n        addTotalExecutedPerDay(getCurrentDay(), _value);\n        uint256 valueToMint = _shiftValue(_value);\n        address feeManager = feeManagerContract();\n        if (feeManager != address(0)) {\n            uint256 fee = calculateFee(valueToMint, false, feeManager, FOREIGN_FEE);\n            distributeFeeFromAffirmation(fee, feeManager, _txHash);\n            valueToMint = valueToMint.sub(fee);\n        }\n        return IBurnableMintableERC677Token(erc677token()).mint(_recipient, valueToMint);\n    }\n\n    function fireEventOnTokenTransfer(address _from, uint256 _value) internal {\n        uint256 valueToTransfer = _value;\n        address feeManager = feeManagerContract();\n        if (feeManager != address(0)) {\n            uint256 fee = calculateFee(valueToTransfer, false, feeManager, HOME_FEE);\n            valueToTransfer = valueToTransfer.sub(fee);\n        }\n        emit UserRequestForSignature(_from, valueToTransfer);\n    }\n\n    /**\n     * @dev Internal function to be called when enough signatures are collected.\n     * Distributed the fee for collecting signatures.\n     * @param _message encoded message signed by the validators.\n     */\n    function onSignaturesCollected(bytes _message) internal {\n        address feeManager = feeManagerContract();\n        if (feeManager != address(0)) {\n            (, uint256 amount, bytes32 txHash, ) = Message.parseMessage(_message);\n            uint256 fee = calculateFee(amount, true, feeManager, HOME_FEE);\n            distributeFeeFromSignatures(fee, feeManager, txHash);\n        }\n    }\n\n    /**\n     * @dev Internal callback to be called on failed message execution due to the out-of-limits error.\n     * This function saves the bridge operation information for further processing.\n     * @param _recipient address of the receiver where the new tokens should be minted.\n     * @param _value amount of tokens to mint.\n     * @param _txHash reference transaction hash on the Foreign side of the bridge which cause this operation.\n     * @param _hashMsg unique identifier of the particular bridge operation.\n     */\n    function onFailedAffirmation(address _recipient, uint256 _value, bytes32 _txHash, bytes32 _hashMsg) internal {\n        (address recipient, uint256 value) = txAboveLimits(_hashMsg);\n        require(recipient == address(0) && value == 0);\n        setOutOfLimitAmount(outOfLimitAmount().add(_value));\n        setTxAboveLimits(_recipient, _value, _hashMsg);\n        emit AmountLimitExceeded(_recipient, _value, _txHash, _hashMsg);\n    }\n\n    function mint(address _recipient, uint256 _valueToMint) external onlyIfUpgradeabilityOwner {\n        IBurnableMintableERC677Token(erc677token()).mint(_recipient, _valueToMint);\n    }\n\n}\n",
  "sourcePath": "/Users/tetyanalevochko/go/src/github.com/poanetwork/tokenbridge-contracts/contracts/upgradeable_contracts/erc20_to_erc20/HomeBridgeErcToErc.sol",
  "compiler": {
    "name": "solc",
    "version": "0.4.24+commit.e67f0147.Emscripten.clang"
  },
  "schemaVersion": "3.0.15",
  "updatedAt": "2021-05-31T14:33:58.661Z",
  "devdoc": {
    "methods": {
      "claimTokensFromErc677(address,address)": {
        "details": "Withdraws erc20 tokens or native coins from the token contract. It is required since the bridge contract is the owner of the token contract.",
        "params": {
          "_to": "address of the tokens/coins receiver.",
          "_token": "address of the claimed token or address(0) for native coins."
        }
      },
      "decimalShift()": {
        "details": "Returns the value of foreign-to-home decimal shift.",
        "return": "decimal shift."
      },
      "executeAffirmation(address,uint256,bytes32)": {
        "details": "Executes a message affirmation for some Foreign side event. Can be called only by a current bridge validator.",
        "params": {
          "recipient": "tokens/coins of receiver address, where the assets should be unlocked/minted.",
          "transactionHash": "reference event transaction hash on the Foreign side of the bridge.",
          "value": "amount of assets to unlock/mint."
        }
      },
      "feeManagerContract()": {
        "details": "Retrieves the address of the fee manager contract used.",
        "return": "address of the fee manager contract."
      },
      "fixAssetsAboveLimits(bytes32,bool,uint256)": {
        "details": "Fixes locked tokens, that were out of execution limits during the call to executeAffirmation.",
        "params": {
          "hashMsg": "reference for bridge operation that was out of execution limits.",
          "unlockOnForeign": "true if fixed tokens should be unlocked to the other side of the bridge.",
          "valueToUnlock": "unlocked amount of tokens, should be less than txAboveLimitsValue. Should be less than maxPerTx(), if tokens need to be unlocked on the other side."
        }
      },
      "getFeeManagerMode()": {
        "details": "Retrieves the mode of the used fee manager.",
        "return": "manager mode identifier, or zero bytes otherwise."
      },
      "maxAvailablePerTx()": {
        "details": "Retrieves maximum available bridge amount per one transaction taking into account maxPerTx() and dailyLimit() parameters.",
        "return": "minimum of maxPerTx parameter and remaining daily quota."
      },
      "outOfLimitAmount()": {
        "details": "Total amount coins/tokens that were bridged from the other side and are out of execution limits.",
        "return": "total amount of all bridge operations above limits."
      },
      "owner()": {
        "details": "Tells the address of the owner",
        "return": "the address of the owner"
      },
      "setFeeManagerContract(address)": {
        "details": "Updates the address of the used fee manager contract. Only contract owner can call this method. If during this operation, home fee is changed, it is highly recommended to stop the bridge operations first. Otherwise, pending signature requests can become a reason for imbalance between two bridge sides.",
        "params": {
          "_feeManager": "address of the new fee manager contract, or zero address to disable fee collection."
        }
      },
      "setForeignFee(uint256)": {
        "details": "Updates the fee percentage for foreign->home bridge operations. Only owner is allowed to call this method.",
        "params": {
          "_fee": "new value for fee percentage."
        }
      },
      "setGasPrice(uint256)": {
        "details": "Public setter for fallback gas price value. Only bridge owner can call this method.",
        "params": {
          "_gasPrice": "new value for the gas price."
        }
      },
      "setHomeFee(uint256)": {
        "details": "Updates the fee percentage for home->foreign bridge operations. Only owner is allowed to call this method. If during this operation, home fee is changed, it is highly recommended to stop the bridge operations first. Otherwise, pending signature requests can become a reason for imbalance between two bridge sides.",
        "params": {
          "_fee": "new value for fee percentage."
        }
      },
      "transferOwnership(address)": {
        "details": "Allows the current owner to transfer control of the contract to a newOwner.",
        "params": {
          "newOwner": "the address to transfer ownership to."
        }
      }
    },
    "title": "HomeBridgeErcToErc"
  },
  "userdoc": {
    "methods": {}
  }
}