{
  "contractName": "RandomAuRa",
  "abi": [
    {
      "constant": true,
      "inputs": [],
      "name": "collectRoundLength",
      "outputs": [
        {
          "name": "",
          "type": "uint256"
        }
      ],
      "payable": false,
      "stateMutability": "view",
      "type": "function"
    },
    {
      "constant": true,
      "inputs": [
        {
          "name": "",
          "type": "uint256"
        },
        {
          "name": "",
          "type": "address"
        }
      ],
      "name": "revealSkips",
      "outputs": [
        {
          "name": "",
          "type": "uint256"
        }
      ],
      "payable": false,
      "stateMutability": "view",
      "type": "function"
    },
    {
      "constant": true,
      "inputs": [
        {
          "name": "",
          "type": "uint256"
        },
        {
          "name": "",
          "type": "address"
        }
      ],
      "name": "sentReveal",
      "outputs": [
        {
          "name": "",
          "type": "bool"
        }
      ],
      "payable": false,
      "stateMutability": "view",
      "type": "function"
    },
    {
      "constant": true,
      "inputs": [],
      "name": "currentSeed",
      "outputs": [
        {
          "name": "",
          "type": "uint256"
        }
      ],
      "payable": false,
      "stateMutability": "view",
      "type": "function"
    },
    {
      "constant": true,
      "inputs": [],
      "name": "validatorSetContract",
      "outputs": [
        {
          "name": "",
          "type": "address"
        }
      ],
      "payable": false,
      "stateMutability": "view",
      "type": "function"
    },
    {
      "constant": false,
      "inputs": [
        {
          "name": "_numberHash",
          "type": "bytes32"
        },
        {
          "name": "_cipher",
          "type": "bytes"
        }
      ],
      "name": "commitHash",
      "outputs": [],
      "payable": false,
      "stateMutability": "nonpayable",
      "type": "function"
    },
    {
      "constant": false,
      "inputs": [
        {
          "name": "_number",
          "type": "uint256"
        }
      ],
      "name": "revealNumber",
      "outputs": [],
      "payable": false,
      "stateMutability": "nonpayable",
      "type": "function"
    },
    {
      "constant": false,
      "inputs": [
        {
          "name": "_number",
          "type": "uint256"
        }
      ],
      "name": "revealSecret",
      "outputs": [],
      "payable": false,
      "stateMutability": "nonpayable",
      "type": "function"
    },
    {
      "constant": false,
      "inputs": [
        {
          "name": "_collectRoundLength",
          "type": "uint256"
        },
        {
          "name": "_validatorSet",
          "type": "address"
        }
      ],
      "name": "initialize",
      "outputs": [],
      "payable": false,
      "stateMutability": "nonpayable",
      "type": "function"
    },
    {
      "constant": false,
      "inputs": [],
      "name": "onFinishCollectRound",
      "outputs": [],
      "payable": false,
      "stateMutability": "nonpayable",
      "type": "function"
    },
    {
      "constant": true,
      "inputs": [],
      "name": "commitPhaseLength",
      "outputs": [
        {
          "name": "",
          "type": "uint256"
        }
      ],
      "payable": false,
      "stateMutability": "view",
      "type": "function"
    },
    {
      "constant": true,
      "inputs": [],
      "name": "currentCollectRound",
      "outputs": [
        {
          "name": "",
          "type": "uint256"
        }
      ],
      "payable": false,
      "stateMutability": "view",
      "type": "function"
    },
    {
      "constant": true,
      "inputs": [],
      "name": "currentCollectRoundStartBlock",
      "outputs": [
        {
          "name": "",
          "type": "uint256"
        }
      ],
      "payable": false,
      "stateMutability": "view",
      "type": "function"
    },
    {
      "constant": true,
      "inputs": [
        {
          "name": "_collectRound",
          "type": "uint256"
        },
        {
          "name": "_miningAddress",
          "type": "address"
        }
      ],
      "name": "getCipher",
      "outputs": [
        {
          "name": "",
          "type": "bytes"
        }
      ],
      "payable": false,
      "stateMutability": "view",
      "type": "function"
    },
    {
      "constant": true,
      "inputs": [
        {
          "name": "_collectRound",
          "type": "uint256"
        },
        {
          "name": "_miningAddress",
          "type": "address"
        }
      ],
      "name": "getCommit",
      "outputs": [
        {
          "name": "",
          "type": "bytes32"
        }
      ],
      "payable": false,
      "stateMutability": "view",
      "type": "function"
    },
    {
      "constant": true,
      "inputs": [
        {
          "name": "_collectRound",
          "type": "uint256"
        },
        {
          "name": "_miningAddress",
          "type": "address"
        }
      ],
      "name": "getCommitAndCipher",
      "outputs": [
        {
          "name": "",
          "type": "bytes32"
        },
        {
          "name": "",
          "type": "bytes"
        }
      ],
      "payable": false,
      "stateMutability": "view",
      "type": "function"
    },
    {
      "constant": true,
      "inputs": [
        {
          "name": "_collectRound",
          "type": "uint256"
        },
        {
          "name": "_miningAddress",
          "type": "address"
        }
      ],
      "name": "isCommitted",
      "outputs": [
        {
          "name": "",
          "type": "bool"
        }
      ],
      "payable": false,
      "stateMutability": "view",
      "type": "function"
    },
    {
      "constant": true,
      "inputs": [],
      "name": "isCommitPhase",
      "outputs": [
        {
          "name": "",
          "type": "bool"
        }
      ],
      "payable": false,
      "stateMutability": "view",
      "type": "function"
    },
    {
      "constant": true,
      "inputs": [],
      "name": "isInitialized",
      "outputs": [
        {
          "name": "",
          "type": "bool"
        }
      ],
      "payable": false,
      "stateMutability": "view",
      "type": "function"
    },
    {
      "constant": true,
      "inputs": [],
      "name": "isRevealPhase",
      "outputs": [
        {
          "name": "",
          "type": "bool"
        }
      ],
      "payable": false,
      "stateMutability": "view",
      "type": "function"
    },
    {
      "constant": true,
      "inputs": [
        {
          "name": "_miningAddress",
          "type": "address"
        },
        {
          "name": "_numberHash",
          "type": "bytes32"
        }
      ],
      "name": "commitHashCallable",
      "outputs": [
        {
          "name": "",
          "type": "bool"
        }
      ],
      "payable": false,
      "stateMutability": "view",
      "type": "function"
    },
    {
      "constant": true,
      "inputs": [],
      "name": "nextCollectRoundStartBlock",
      "outputs": [
        {
          "name": "",
          "type": "uint256"
        }
      ],
      "payable": false,
      "stateMutability": "view",
      "type": "function"
    },
    {
      "constant": true,
      "inputs": [],
      "name": "nextCommitPhaseStartBlock",
      "outputs": [
        {
          "name": "",
          "type": "uint256"
        }
      ],
      "payable": false,
      "stateMutability": "view",
      "type": "function"
    },
    {
      "constant": true,
      "inputs": [],
      "name": "nextRevealPhaseStartBlock",
      "outputs": [
        {
          "name": "",
          "type": "uint256"
        }
      ],
      "payable": false,
      "stateMutability": "view",
      "type": "function"
    },
    {
      "constant": true,
      "inputs": [
        {
          "name": "_miningAddress",
          "type": "address"
        },
        {
          "name": "_number",
          "type": "uint256"
        }
      ],
      "name": "revealNumberCallable",
      "outputs": [
        {
          "name": "",
          "type": "bool"
        }
      ],
      "payable": false,
      "stateMutability": "view",
      "type": "function"
    },
    {
      "constant": true,
      "inputs": [
        {
          "name": "_miningAddress",
          "type": "address"
        },
        {
          "name": "_number",
          "type": "uint256"
        }
      ],
      "name": "revealSecretCallable",
      "outputs": [
        {
          "name": "",
          "type": "bool"
        }
      ],
      "payable": false,
      "stateMutability": "view",
      "type": "function"
    }
  ],
  "bytecode": "0x608060405234801561001057600080fd5b5061178d806100206000396000f3fe608060405234801561001057600080fd5b506004361061018e5760003560e01c806383220626116100de578063da35a26f11610097578063f2f56ffe11610071578063f2f56ffe1461051f578063f58ccc6a1461054b578063fd6c1d151461043b578063fe7d567d1461041e5761018e565b8063da35a26f146104a3578063de109e20146104cf578063dfc8bf4e146104fb5761018e565b8063832206261461041657806398df67c61461041e578063b6b295ae1461043b578063baf11cab14610467578063c358ced014610493578063c64c20641461049b5761018e565b80635aca47f61161014b57806374ce90671161012557806374ce9067146103f657806378ab865d146103fe5780637a3e286b1461040657806383209c3f1461040e5761018e565b80635aca47f6146102f357806363f160e61461031f578063695e89f61461034b5761018e565b8063096a113d146101935780630b61ba8514610234578063109c1107146102ad5780631c77c58c146102b5578063392e53cd146102cf57806343e7aa1d146102eb575b600080fd5b6101bf600480360360408110156101a957600080fd5b50803590602001356001600160a01b0316610553565b6040805160208082528351818301528351919283929083019185019080838360005b838110156101f95781810151838201526020016101e1565b50505050905090810190601f1680156102265780820380516001836020036101000a031916815260200191505b509250505060405180910390f35b6102ab6004803603604081101561024a57600080fd5b8135919081019060408101602082013564010000000081111561026c57600080fd5b82018360208201111561027e57600080fd5b803590602001918460018302840111640100000000831117156102a057600080fd5b509092509050610605565b005b6102ab6106e1565b6102bd610e96565b60408051918252519081900360200190f35b6102d7610e9c565b604080519115158252519081900360200190f35b6102bd610eae565b6102bd6004803603604081101561030957600080fd5b50803590602001356001600160a01b0316610ec2565b6102d76004803603604081101561033557600080fd5b50803590602001356001600160a01b0316610edf565b6103776004803603604081101561036157600080fd5b50803590602001356001600160a01b0316610eff565b6040518083815260200180602001828103825283818151815260200191508051906020019080838360005b838110156103ba5781810151838201526020016103a2565b50505050905090810190601f1680156103e75780820380516001836020036101000a031916815260200191505b50935050505060405180910390f35b6102d7610fce565b6102bd610ff4565b6102bd611003565b6102bd61101a565b6102bd611048565b6102ab6004803603602081101561043457600080fd5b503561104e565b6102d76004803603604081101561045157600080fd5b506001600160a01b03813516906020013561106b565b6102d76004803603604081101561047d57600080fd5b50803590602001356001600160a01b031661107e565b6102d7611094565b6102bd6110a4565b6102ab600480360360408110156104b957600080fd5b50803590602001356001600160a01b03166110db565b6102d7600480360360408110156104e557600080fd5b506001600160a01b038135169060200135611275565b610503611344565b604080516001600160a01b039092168252519081900360200190f35b6102bd6004803603604081101561053557600080fd5b50803590602001356001600160a01b0316611353565b6102bd61137b565b6000828152602081815260408083206001600160a01b038516845282529182902080548351601f60026000196101006001861615020190931692909204918201849004840281018401909452808452606093928301828280156105f75780601f106105cc576101008083540402835291602001916105f7565b820191906000526020600020905b8154815290600101906020018083116105da57829003601f168201915b505050505090505b92915050565b61060d610e9c565b61061657600080fd5b336106218185611275565b61062a57600080fd5b806001600160a01b031661063c611391565b6001600160a01b03161461064f57600080fd5b6000610659611003565b60008181526001602090815260408083206001600160a01b0387168085529083528184208a9055848452838352818420908452909152902090915061069f908585611680565b5060009081526002602090815260408220805460018101825590835291200180546001600160a01b0319166001600160a01b0392909216919091179055505050565b600760009054906101000a90046001600160a01b03166001600160a01b03166356b54bae6040518163ffffffff1660e01b815260040160206040518083038186803b15801561072f57600080fd5b505afa158015610743573d6000803e3d6000fd5b505050506040513d602081101561075957600080fd5b50516001600160a01b0316331461076f57600080fd5b60035461077a611395565b8161078157fe5b061561078c57610e94565b60606000806000600760009054906101000a90046001600160a01b03166001600160a01b031663ee99205c6040518163ffffffff1660e01b815260040160206040518083038186803b1580156107e157600080fd5b505afa1580156107f5573d6000803e3d6000fd5b505050506040513d602081101561080b57600080fd5b505160408051630f29818d60e31b815290519192506000916001600160a01b0384169163794c0c68916004808301926020929190829003018186803b15801561085357600080fd5b505afa158015610867573d6000803e3d6000fd5b505050506040513d602081101561087d57600080fd5b505160408051633834f3a360e11b815290519192506000916001600160a01b03851691637069e746916004808301926020929190829003018186803b1580156108c557600080fd5b505afa1580156108d9573d6000803e3d6000fd5b505050506040513d60208110156108ef57600080fd5b50516040805163461121d760e11b815290519192506000916001600160a01b03861691638c2243ae916004808301926020929190829003018186803b15801561093757600080fd5b505afa15801561094b573d6000803e3d6000fd5b505050506040513d602081101561096157600080fd5b50519050600061096f611003565b90506003546003028301610981611395565b1115610ae957600760009054906101000a90046001600160a01b03166001600160a01b031663b7ab4db56040518163ffffffff1660e01b815260040160006040518083038186803b1580156109d557600080fd5b505afa1580156109e9573d6000803e3d6000fd5b505050506040513d6000823e601f3d908101601f191682016040526020811015610a1257600080fd5b810190808051640100000000811115610a2a57600080fd5b82016020810184811115610a3d57600080fd5b8151856020820283011164010000000082111715610a5a57600080fd5b50909b5060009950505050505b8751861015610ae957878681518110610a7c57fe5b60209081029190910181015160008381526006835260408082206001600160a01b0384168352909352919091205490975060ff16610ade5760008481526005602090815260408083206001600160a01b038b1684529091529020805460010190555b600190950194610a67565b81610af2611395565b1480610b08575081600354610b05611395565b01115b15610e82576000600354866001600160a01b03166397997ebb6040518163ffffffff1660e01b815260040160206040518083038186803b158015610b4b57600080fd5b505afa158015610b5f573d6000803e3d6000fd5b505050506040513d6020811015610b7557600080fd5b505181610b7e57fe5b0490508015610b8c57600019015b600760009054906101000a90046001600160a01b03166001600160a01b031663b7ab4db56040518163ffffffff1660e01b815260040160006040518083038186803b158015610bda57600080fd5b505afa158015610bee573d6000803e3d6000fd5b505050506040513d6000823e601f3d908101601f191682016040526020811015610c1757600080fd5b810190808051640100000000811115610c2f57600080fd5b82016020810184811115610c4257600080fd5b8151856020820283011164010000000082111715610c5f57600080fd5b5050929190505050985060608951604051908082528060200260200182016040528015610c96578160200160208202803883390190505b50600098509050875b8a51891015610d59578a8981518110610cb457fe5b60209081029190910181015160008681526006835260408082206001600160a01b03841683529093529190912054909a5060ff161580610d15575060008781526005602090815260408083206001600160a01b038e16845290915290205483105b15610d4e5789828280600101935081518110610d2d57fe5b60200260200101906001600160a01b031690816001600160a01b0316815250505b600190980197610c9f565b8015610e7e57606081604051908082528060200260200182016040528015610d8b578160200160208202803883390190505b509050600099505b818a1015610dde57828a81518110610da757fe5b6020026020010151818b81518110610dbb57fe5b6001600160a01b0390921660209283029190910190910152600190990198610d93565b60075460405163018daf6b60e21b81526020600482018181528451602484015284516001600160a01b0390941693630636bdac9386938392604490920191818601910280838360005b83811015610e3f578181015183820152602001610e27565b5050505090500192505050600060405180830381600087803b158015610e6457600080fd5b505af1158015610e78573d6000803e3d6000fd5b50505050505b5050505b610e8b81611399565b50505050505050505b565b60035481565b6007546001600160a01b031615155b90565b6000600260035481610ebc57fe5b04905090565b600560209081526000928352604080842090915290825290205481565b600660209081526000928352604080842090915290825290205460ff1681565b60008281526001602081815260408084206001600160a01b0386168086529083528185205487865285845282862091865290835281852080548351600296821615610100026000190190911695909504601f8101859004850286018501909352828552606094919390928391830182828015610fbc5780601f10610f9157610100808354040283529160200191610fbc565b820191906000526020600020905b815481529060010190602001808311610f9f57829003601f168201915b50505050509050915091509250929050565b6000610fd8610eae565b6003546001610fe5611395565b0381610fed57fe5b0610905090565b6000610ffe61101a565b905090565b60006003546001611012611395565b0381610ebc57fe5b600080611025611395565b90506000600354600183038161103757fe5b066003540390508082019250505090565b60045481565b611056610e9c565b61105f57600080fd5b6110688161141f565b50565b600061107783836114aa565b9392505050565b60008061108b8484611353565b14159392505050565b600061109e610fce565b15905090565b60006110ae610fce565b156110cb576110bb610eae565b6110c361137b565b019050610eab565b6110d3610eae565b6110c361101a565b8060028306156110ea57600080fd5b806001600160a01b031663714897df6040518163ffffffff1660e01b815260040160206040518083038186803b15801561112357600080fd5b505afa158015611137573d6000803e3d6000fd5b505050506040513d602081101561114d57600080fd5b5051838161115757fe5b061561116257600080fd5b82816001600160a01b031663ee99205c6040518163ffffffff1660e01b815260040160206040518083038186803b15801561119c57600080fd5b505afa1580156111b0573d6000803e3d6000fd5b505050506040513d60208110156111c657600080fd5b50516040805163d609ea9360e01b815290516001600160a01b039092169163d609ea9391600480820192602092909190829003018186803b15801561120a57600080fd5b505afa15801561121e573d6000803e3d6000fd5b505050506040513d602081101561123457600080fd5b50518161123d57fe5b061561124857600080fd5b6000831161125557600080fd5b6003541561126257600080fd5b6003839055611270826115df565b505050565b600061127f610fce565b61128b575060006105ff565b81611298575060006105ff565b6007546040805163facd743b60e01b81526001600160a01b0386811660048301529151919092169163facd743b916024808301926020929190829003018186803b1580156112e557600080fd5b505afa1580156112f9573d6000803e3d6000fd5b505050506040513d602081101561130f57600080fd5b505161131d575060006105ff565b61132e611328611003565b8461107e565b1561133b575060006105ff565b50600192915050565b6007546001600160a01b031681565b60009182526001602090815260408084206001600160a01b0393909316845291905290205490565b6000600354611388611003565b02600101905090565b4190565b4390565b806113a357611068565b60001981016000818152600260205260408120805490915b818110156114185760008085815260200190815260200160002060008483815481106113e357fe5b60009182526020808320909101546001600160a01b031683528201929092526040018120611410916116fe565b6001016113bb565b5050505050565b3361142a818361106b565b61143357600080fd5b806001600160a01b0316611445611391565b6001600160a01b03161461145857600080fd5b600480548318905560016006600061146e611003565b8152602080820192909252604090810160009081206001600160a01b0395909516815293909152909120805460ff191691151591909117905550565b60006114b4611094565b6114c0575060006105ff565b6040805160208082018590528251808303820181529183019092528051910120806114ef5760009150506105ff565b6007546040805163facd743b60e01b81526001600160a01b0387811660048301529151919092169163facd743b916024808301926020929190829003018186803b15801561153c57600080fd5b505afa158015611550573d6000803e3d6000fd5b505050506040513d602081101561156657600080fd5b50516115765760009150506105ff565b6000611580611003565b60008181526006602090815260408083206001600160a01b038a16845290915290205490915060ff16156115b9576000925050506105ff565b6115c38186611353565b82146115d4576000925050506105ff565b506001949350505050565b6115e7611395565b158061160b57506115f661165b565b6001600160a01b0316336001600160a01b0316145b61161457600080fd5b61161c610e9c565b1561162657600080fd5b6001600160a01b03811661163957600080fd5b600780546001600160a01b0319166001600160a01b0392909216919091179055565b7fb53127684a568b3173ae13b9f8a6016e243e63b6e8ee1178d6a717850b5d61035490565b828054600181600116156101000203166002900490600052602060002090601f016020900481019282601f106116c15782800160ff198235161785556116ee565b828001600101855582156116ee579182015b828111156116ee5782358255916020019190600101906116d3565b506116fa92915061173e565b5090565b50805460018160011615610100020316600290046000825580601f106117245750611068565b601f01602090049060005260206000209081019061106891905b610eab91905b808211156116fa576000815560010161174456fea265627a7a7230582048dc639e24ec05986bb501aa9fbd9a816a0c1ed4f5f079dba133850925ff84c964736f6c634300050a0032",
  "source": "pragma solidity 0.5.10;\n\nimport \"./interfaces/IRandomAuRa.sol\";\nimport \"./interfaces/IStakingAuRa.sol\";\nimport \"./interfaces/IValidatorSetAuRa.sol\";\nimport \"./upgradeability/UpgradeabilityAdmin.sol\";\n\n\n/// @dev Generates and stores random numbers in a RANDAO manner (and controls when they are revealed by AuRa\n/// validators) and accumulates a random seed. The random seed is used to form a new validator set by the\n/// `ValidatorSetAuRa.newValidatorSet` function.\ncontract RandomAuRa is UpgradeabilityAdmin, IRandomAuRa {\n\n    // =============================================== Storage ========================================================\n\n    // WARNING: since this contract is upgradeable, do not remove\n    // existing storage variables, do not change their order,\n    // and do not change their types!\n\n    mapping(uint256 => mapping(address => bytes)) internal _ciphers;\n    mapping(uint256 => mapping(address => bytes32)) internal _commits;\n    mapping(uint256 => address[]) internal _committedValidators;\n\n    /// @dev The length of the collection round (in blocks).\n    uint256 public collectRoundLength;\n\n    /// @dev The current random seed accumulated during RANDAO or another process\n    /// (depending on implementation).\n    uint256 public currentSeed;\n\n    /// @dev The number of reveal skips made by the specified validator during the specified staking epoch.\n    mapping(uint256 => mapping(address => uint256)) public revealSkips;\n\n    /// @dev A boolean flag of whether the specified validator has revealed their number for the\n    /// specified collection round.\n    mapping(uint256 => mapping(address => bool)) public sentReveal;\n\n    /// @dev The address of the `ValidatorSetAuRa` contract.\n    IValidatorSetAuRa public validatorSetContract;\n\n    // ============================================== Modifiers =======================================================\n\n    /// @dev Ensures the caller is the BlockRewardAuRa contract address.\n    modifier onlyBlockReward() {\n        require(msg.sender == validatorSetContract.blockRewardContract());\n        _;\n    }\n\n    /// @dev Ensures the `initialize` function was called before.\n    modifier onlyInitialized {\n        require(isInitialized());\n        _;\n    }\n\n    // =============================================== Setters ========================================================\n\n    /// @dev Called by the validator's node to store a hash and a cipher of the validator's number on each collection\n    /// round. The validator's node must use its mining address to call this function.\n    /// This function can only be called once per collection round (during the `commits phase`).\n    /// @param _numberHash The Keccak-256 hash of the validator's number.\n    /// @param _cipher The cipher of the validator's number. Can be used by the node to restore the lost number after\n    /// the node is restarted (see the `getCipher` getter).\n    function commitHash(bytes32 _numberHash, bytes calldata _cipher) external onlyInitialized {\n        address miningAddress = msg.sender;\n\n        require(commitHashCallable(miningAddress, _numberHash));\n        require(_getCoinbase() == miningAddress); // make sure validator node is live\n\n        uint256 collectRound = currentCollectRound();\n\n        _commits[collectRound][miningAddress] = _numberHash;\n        _ciphers[collectRound][miningAddress] = _cipher;\n        _committedValidators[collectRound].push(miningAddress);\n    }\n\n    /// @dev Called by the validator's node to XOR its number with the current random seed.\n    /// The validator's node must use its mining address to call this function.\n    /// This function can only be called once per collection round (during the `reveals phase`).\n    /// @param _number The validator's number.\n    function revealNumber(uint256 _number) external onlyInitialized {\n        _revealNumber(_number);\n    }\n\n    /// @dev The same as the `revealNumber` function (see its description).\n    /// The `revealSecret` was renamed to `revealNumber`, so this function\n    /// is left for backward compatibility with the previous client\n    /// implementation and should be deleted in the future.\n    /// @param _number The validator's number.\n    function revealSecret(uint256 _number) external onlyInitialized {\n        _revealNumber(_number);\n    }\n\n    /// @dev Initializes the contract at network startup.\n    /// Can only be called by the constructor of the `InitializerAuRa` contract or owner.\n    /// @param _collectRoundLength The length of a collection round in blocks.\n    /// @param _validatorSet The address of the `ValidatorSet` contract.\n    function initialize(\n        uint256 _collectRoundLength, // in blocks\n        address _validatorSet\n    ) external {\n        IValidatorSetAuRa validatorSet = IValidatorSetAuRa(_validatorSet);\n        require(_collectRoundLength % 2 == 0);\n        require(_collectRoundLength % validatorSet.MAX_VALIDATORS() == 0);\n        require(IStakingAuRa(validatorSet.stakingContract()).stakingEpochDuration() % _collectRoundLength == 0);\n        require(_collectRoundLength > 0);\n        require(collectRoundLength == 0);\n        collectRoundLength = _collectRoundLength;\n        _initialize(_validatorSet);\n    }\n\n    /// @dev Checks whether the current validators at the end of each collection round revealed their numbers,\n    /// and removes malicious validators if needed.\n    /// This function does nothing if the current block is not the last block of the current collection round.\n    /// Can only be called by the `BlockRewardAuRa` contract (by its `reward` function).\n    function onFinishCollectRound() external onlyBlockReward {\n        if (_getCurrentBlockNumber() % collectRoundLength != 0) return;\n\n        // This is the last block of the current collection round\n\n        address[] memory validators;\n        address validator;\n        uint256 i;\n\n        address stakingContract = validatorSetContract.stakingContract();\n\n        uint256 stakingEpoch = IStakingAuRa(stakingContract).stakingEpoch();\n        uint256 startBlock = IStakingAuRa(stakingContract).stakingEpochStartBlock();\n        uint256 endBlock = IStakingAuRa(stakingContract).stakingEpochEndBlock();\n        uint256 currentRound = currentCollectRound();\n\n        if (_getCurrentBlockNumber() > startBlock + collectRoundLength * 3) {\n            // Check whether each validator didn't reveal their number\n            // during the current collection round\n            validators = validatorSetContract.getValidators();\n            for (i = 0; i < validators.length; i++) {\n                validator = validators[i];\n                if (!sentReveal[currentRound][validator]) {\n                    revealSkips[stakingEpoch][validator]++;\n                }\n            }\n        }\n\n        // If this is the last collection round in the current staking epoch.\n        if (_getCurrentBlockNumber() == endBlock || _getCurrentBlockNumber() + collectRoundLength > endBlock) {\n            uint256 maxRevealSkipsAllowed =\n                IStakingAuRa(stakingContract).stakeWithdrawDisallowPeriod() / collectRoundLength;\n\n            if (maxRevealSkipsAllowed > 0) {\n                maxRevealSkipsAllowed--;\n            }\n\n            // Check each validator to see if they didn't reveal\n            // their number during the last full `reveals phase`\n            // or if they missed the required number of reveals per staking epoch.\n            validators = validatorSetContract.getValidators();\n\n            address[] memory maliciousValidators = new address[](validators.length);\n            uint256 maliciousValidatorsLength = 0;\n\n            for (i = 0; i < validators.length; i++) {\n                validator = validators[i];\n                if (\n                    !sentReveal[currentRound][validator] ||\n                    revealSkips[stakingEpoch][validator] > maxRevealSkipsAllowed\n                ) {\n                    // Mark the validator as malicious\n                    maliciousValidators[maliciousValidatorsLength++] = validator;\n                }\n            }\n\n            if (maliciousValidatorsLength > 0) {\n                address[] memory miningAddresses = new address[](maliciousValidatorsLength);\n                for (i = 0; i < maliciousValidatorsLength; i++) {\n                    miningAddresses[i] = maliciousValidators[i];\n                }\n                validatorSetContract.removeMaliciousValidators(miningAddresses);\n            }\n        }\n\n        // Clear unnecessary info about previous collection round.\n        _clearOldCiphers(currentRound);\n    }\n\n    // =============================================== Getters ========================================================\n\n    /// @dev Returns the length of the commits/reveals phase which is always half of the collection round length.\n    function commitPhaseLength() public view returns(uint256) {\n        return collectRoundLength / 2;\n    }\n\n    /// @dev Returns the serial number of the current collection round.\n    function currentCollectRound() public view returns(uint256) {\n        return (_getCurrentBlockNumber() - 1) / collectRoundLength;\n    }\n\n    /// @dev Returns the number of the first block of the current collection round.\n    function currentCollectRoundStartBlock() public view returns(uint256) {\n        return currentCollectRound() * collectRoundLength + 1;\n    }\n\n    /// @dev Returns the cipher of the validator's number for the specified collection round and the specified validator\n    /// stored by the validator through the `commitHash` function.\n    /// @param _collectRound The serial number of the collection round for which the cipher should be retrieved.\n    /// @param _miningAddress The mining address of validator.\n    function getCipher(uint256 _collectRound, address _miningAddress) public view returns(bytes memory) {\n        return _ciphers[_collectRound][_miningAddress];\n    }\n\n    /// @dev Returns the Keccak-256 hash of the validator's number for the specified collection round and the specified\n    /// validator stored by the validator through the `commitHash` function.\n    /// @param _collectRound The serial number of the collection round for which the hash should be retrieved.\n    /// @param _miningAddress The mining address of validator.\n    function getCommit(uint256 _collectRound, address _miningAddress) public view returns(bytes32) {\n        return _commits[_collectRound][_miningAddress];\n    }\n\n    /// @dev Returns the Keccak-256 hash and cipher of the validator's number for the specified collection round\n    /// and the specified validator stored by the validator through the `commitHash` function.\n    /// @param _collectRound The serial number of the collection round for which hash and cipher should be retrieved.\n    /// @param _miningAddress The mining address of validator.\n    function getCommitAndCipher(\n        uint256 _collectRound,\n        address _miningAddress\n    ) public view returns(bytes32, bytes memory) {\n        return (_commits[_collectRound][_miningAddress], _ciphers[_collectRound][_miningAddress]);\n    }\n\n    /// @dev Returns a boolean flag indicating whether the specified validator has committed their number's hash for the\n    /// specified collection round.\n    /// @param _collectRound The serial number of the collection round for which the checkup should be done.\n    /// @param _miningAddress The mining address of the validator.\n    function isCommitted(uint256 _collectRound, address _miningAddress) public view returns(bool) {\n        return getCommit(_collectRound, _miningAddress) != bytes32(0);\n    }\n\n    /// @dev Returns a boolean flag indicating whether the current phase of the current collection round\n    /// is a `commits phase`. Used by the validator's node to determine if it should commit the hash of\n    /// the number during the current collection round.\n    function isCommitPhase() public view returns(bool) {\n        return ((_getCurrentBlockNumber() - 1) % collectRoundLength) < commitPhaseLength();\n    }\n\n    /// @dev Returns a boolean flag indicating if the `initialize` function has been called.\n    function isInitialized() public view returns(bool) {\n        return validatorSetContract != IValidatorSetAuRa(0);\n    }\n\n    /// @dev Returns a boolean flag indicating whether the current phase of the current collection round\n    /// is a `reveals phase`. Used by the validator's node to determine if it should reveal the number during\n    /// the current collection round.\n    function isRevealPhase() public view returns(bool) {\n        return !isCommitPhase();\n    }\n\n    /// @dev Returns a boolean flag of whether the `commitHash` function can be called at the current block\n    /// by the specified validator. Used by the `commitHash` function and the `TxPermission` contract.\n    /// @param _miningAddress The mining address of the validator which tries to call the `commitHash` function.\n    /// @param _numberHash The Keccak-256 hash of validator's number passed to the `commitHash` function.\n    function commitHashCallable(address _miningAddress, bytes32 _numberHash) public view returns(bool) {\n        if (!isCommitPhase()) return false; // must only be called in `commits phase`\n\n        if (_numberHash == bytes32(0)) return false;\n\n        if (!validatorSetContract.isValidator(_miningAddress)) return false;\n\n        if (isCommitted(currentCollectRound(), _miningAddress)) return false; // cannot commit more than once\n\n        return true;\n    }\n\n    /// @dev Returns the number of the first block of the next (future) collection round.\n    function nextCollectRoundStartBlock() public view returns(uint256) {\n        uint256 currentBlock = _getCurrentBlockNumber();\n        uint256 remainingBlocksToNextRound = collectRoundLength - (currentBlock - 1) % collectRoundLength;\n        return currentBlock + remainingBlocksToNextRound;\n    }\n\n    /// @dev Returns the number of the first block of the next (future) commit phase.\n    function nextCommitPhaseStartBlock() public view returns(uint256) {\n        return nextCollectRoundStartBlock();\n    }\n\n    /// @dev Returns the number of the first block of the next (future) reveal phase.\n    function nextRevealPhaseStartBlock() public view returns(uint256) {\n        if (isCommitPhase()) {\n            return currentCollectRoundStartBlock() + commitPhaseLength();\n        } else {\n            return nextCollectRoundStartBlock() + commitPhaseLength();\n        }\n    }\n\n    /// @dev Returns a boolean flag of whether the `revealNumber` function can be called at the current block\n    /// by the specified validator. Used by the `revealNumber` function and the `TxPermission` contract.\n    /// @param _miningAddress The mining address of validator which tries to call the `revealNumber` function.\n    /// @param _number The validator's number passed to the `revealNumber` function.\n    function revealNumberCallable(address _miningAddress, uint256 _number) public view returns(bool) {\n        return _revealNumberCallable(_miningAddress, _number);\n    }\n\n    /// @dev The same as the `revealNumberCallable` getter (see its description).\n    /// The `revealSecretCallable` was renamed to `revealNumberCallable`, so this function\n    /// is left for backward compatibility with the previous client\n    /// implementation and should be deleted in the future.\n    /// @param _miningAddress The mining address of validator which tries to call the `revealSecret` function.\n    /// @param _number The validator's number passed to the `revealSecret` function.\n    function revealSecretCallable(address _miningAddress, uint256 _number) public view returns(bool) {\n        return _revealNumberCallable(_miningAddress, _number);\n    }\n\n    // ============================================== Internal ========================================================\n\n    /// @dev Removes the ciphers of all committed validators for the specified collection round.\n    /// @param _collectRound The serial number of the collection round.\n    function _clearOldCiphers(uint256 _collectRound) internal {\n        if (_collectRound == 0) {\n            return;\n        }\n\n        uint256 collectRound = _collectRound - 1;\n        address[] storage miningAddresses = _committedValidators[collectRound];\n        uint256 miningAddressesLength = miningAddresses.length;\n\n        for (uint256 i = 0; i < miningAddressesLength; i++) {\n            delete _ciphers[collectRound][miningAddresses[i]];\n        }\n    }\n\n    /// @dev Initializes the network parameters. Used by the `initialize` function.\n    /// @param _validatorSet The address of the `ValidatorSetAuRa` contract.\n    function _initialize(address _validatorSet) internal {\n        require(_getCurrentBlockNumber() == 0 || msg.sender == _admin());\n        require(!isInitialized());\n        require(_validatorSet != address(0));\n        validatorSetContract = IValidatorSetAuRa(_validatorSet);\n    }\n\n    /// @dev Used by the `revealNumber` function.\n    /// @param _number The validator's number.\n    function _revealNumber(uint256 _number) internal {\n        address miningAddress = msg.sender;\n\n        require(revealNumberCallable(miningAddress, _number));\n        require(_getCoinbase() == miningAddress); // make sure validator node is live\n\n        currentSeed = currentSeed ^ _number;\n        sentReveal[currentCollectRound()][miningAddress] = true;\n    }\n\n    /// @dev Returns the current `coinbase` address. Needed mostly for unit tests.\n    function _getCoinbase() internal view returns(address) {\n        return block.coinbase;\n    }\n\n    /// @dev Returns the current block number. Needed mostly for unit tests.\n    function _getCurrentBlockNumber() internal view returns(uint256) {\n        return block.number;\n    }\n\n    /// @dev Used by the `revealNumberCallable` public getter.\n    /// @param _miningAddress The mining address of validator which tries to call the `revealNumber` function.\n    /// @param _number The validator's number passed to the `revealNumber` function.\n    function _revealNumberCallable(address _miningAddress, uint256 _number) internal view returns(bool) {\n        if (!isRevealPhase()) return false; // must only be called in `reveals phase`\n\n        bytes32 numberHash = keccak256(abi.encodePacked(_number));\n\n        if (numberHash == bytes32(0)) return false;\n\n        if (!validatorSetContract.isValidator(_miningAddress)) return false;\n\n        uint256 collectRound = currentCollectRound();\n\n        if (sentReveal[collectRound][_miningAddress]) {\n            return false; // cannot reveal more than once during the same collectRound\n        }\n\n        if (numberHash != getCommit(collectRound, _miningAddress)) {\n            return false; // the hash must be commited\n        }\n\n        return true;\n    }\n}\n",
  "sourcePath": "/home/jack/prog/blkchn/velas/posdao-test-setup/posdao-contracts/contracts/RandomAuRa.sol",
  "compiler": {
    "name": "solc",
    "version": "0.5.10+commit.5a6ea5b1.Emscripten.clang"
  },
  "schemaVersion": "3.0.17",
  "updatedAt": "2020-02-26T12:57:46.133Z",
  "devdoc": {
    "details": "Generates and stores random numbers in a RANDAO manner (and controls when they are revealed by AuRa validators) and accumulates a random seed. The random seed is used to form a new validator set by the `ValidatorSetAuRa.newValidatorSet` function.",
    "methods": {
      "commitHash(bytes32,bytes)": {
        "details": "Called by the validator's node to store a hash and a cipher of the validator's number on each collection round. The validator's node must use its mining address to call this function. This function can only be called once per collection round (during the `commits phase`).",
        "params": {
          "_cipher": "The cipher of the validator's number. Can be used by the node to restore the lost number after the node is restarted (see the `getCipher` getter).",
          "_numberHash": "The Keccak-256 hash of the validator's number."
        }
      },
      "commitHashCallable(address,bytes32)": {
        "details": "Returns a boolean flag of whether the `commitHash` function can be called at the current block by the specified validator. Used by the `commitHash` function and the `TxPermission` contract.",
        "params": {
          "_miningAddress": "The mining address of the validator which tries to call the `commitHash` function.",
          "_numberHash": "The Keccak-256 hash of validator's number passed to the `commitHash` function."
        }
      },
      "commitPhaseLength()": {
        "details": "Returns the length of the commits/reveals phase which is always half of the collection round length."
      },
      "currentCollectRound()": {
        "details": "Returns the serial number of the current collection round."
      },
      "currentCollectRoundStartBlock()": {
        "details": "Returns the number of the first block of the current collection round."
      },
      "getCipher(uint256,address)": {
        "details": "Returns the cipher of the validator's number for the specified collection round and the specified validator stored by the validator through the `commitHash` function.",
        "params": {
          "_collectRound": "The serial number of the collection round for which the cipher should be retrieved.",
          "_miningAddress": "The mining address of validator."
        }
      },
      "getCommit(uint256,address)": {
        "details": "Returns the Keccak-256 hash of the validator's number for the specified collection round and the specified validator stored by the validator through the `commitHash` function.",
        "params": {
          "_collectRound": "The serial number of the collection round for which the hash should be retrieved.",
          "_miningAddress": "The mining address of validator."
        }
      },
      "getCommitAndCipher(uint256,address)": {
        "details": "Returns the Keccak-256 hash and cipher of the validator's number for the specified collection round and the specified validator stored by the validator through the `commitHash` function.",
        "params": {
          "_collectRound": "The serial number of the collection round for which hash and cipher should be retrieved.",
          "_miningAddress": "The mining address of validator."
        }
      },
      "initialize(uint256,address)": {
        "details": "Initializes the contract at network startup. Can only be called by the constructor of the `InitializerAuRa` contract or owner.",
        "params": {
          "_collectRoundLength": "The length of a collection round in blocks.",
          "_validatorSet": "The address of the `ValidatorSet` contract."
        }
      },
      "isCommitPhase()": {
        "details": "Returns a boolean flag indicating whether the current phase of the current collection round is a `commits phase`. Used by the validator's node to determine if it should commit the hash of the number during the current collection round."
      },
      "isCommitted(uint256,address)": {
        "details": "Returns a boolean flag indicating whether the specified validator has committed their number's hash for the specified collection round.",
        "params": {
          "_collectRound": "The serial number of the collection round for which the checkup should be done.",
          "_miningAddress": "The mining address of the validator."
        }
      },
      "isInitialized()": {
        "details": "Returns a boolean flag indicating if the `initialize` function has been called."
      },
      "isRevealPhase()": {
        "details": "Returns a boolean flag indicating whether the current phase of the current collection round is a `reveals phase`. Used by the validator's node to determine if it should reveal the number during the current collection round."
      },
      "nextCollectRoundStartBlock()": {
        "details": "Returns the number of the first block of the next (future) collection round."
      },
      "nextCommitPhaseStartBlock()": {
        "details": "Returns the number of the first block of the next (future) commit phase."
      },
      "nextRevealPhaseStartBlock()": {
        "details": "Returns the number of the first block of the next (future) reveal phase."
      },
      "onFinishCollectRound()": {
        "details": "Checks whether the current validators at the end of each collection round revealed their numbers, and removes malicious validators if needed. This function does nothing if the current block is not the last block of the current collection round. Can only be called by the `BlockRewardAuRa` contract (by its `reward` function)."
      },
      "revealNumber(uint256)": {
        "details": "Called by the validator's node to XOR its number with the current random seed. The validator's node must use its mining address to call this function. This function can only be called once per collection round (during the `reveals phase`).",
        "params": {
          "_number": "The validator's number."
        }
      },
      "revealNumberCallable(address,uint256)": {
        "details": "Returns a boolean flag of whether the `revealNumber` function can be called at the current block by the specified validator. Used by the `revealNumber` function and the `TxPermission` contract.",
        "params": {
          "_miningAddress": "The mining address of validator which tries to call the `revealNumber` function.",
          "_number": "The validator's number passed to the `revealNumber` function."
        }
      },
      "revealSecret(uint256)": {
        "details": "The same as the `revealNumber` function (see its description). The `revealSecret` was renamed to `revealNumber`, so this function is left for backward compatibility with the previous client implementation and should be deleted in the future.",
        "params": {
          "_number": "The validator's number."
        }
      },
      "revealSecretCallable(address,uint256)": {
        "details": "The same as the `revealNumberCallable` getter (see its description). The `revealSecretCallable` was renamed to `revealNumberCallable`, so this function is left for backward compatibility with the previous client implementation and should be deleted in the future.",
        "params": {
          "_miningAddress": "The mining address of validator which tries to call the `revealSecret` function.",
          "_number": "The validator's number passed to the `revealSecret` function."
        }
      }
    }
  },
  "userdoc": {
    "methods": {}
  }
}