{
  "contractName": "StakingAuRaTokens",
  "abi": [
    {
      "constant": true,
      "inputs": [
        {
          "name": "",
          "type": "address"
        },
        {
          "name": "",
          "type": "address"
        },
        {
          "name": "",
          "type": "uint256"
        }
      ],
      "name": "delegatorStakeSnapshot",
      "outputs": [
        {
          "name": "",
          "type": "uint256"
        }
      ],
      "payable": false,
      "stateMutability": "view",
      "type": "function"
    },
    {
      "constant": true,
      "inputs": [
        {
          "name": "",
          "type": "address"
        },
        {
          "name": "",
          "type": "address"
        }
      ],
      "name": "poolDelegatorIndex",
      "outputs": [
        {
          "name": "",
          "type": "uint256"
        }
      ],
      "payable": false,
      "stateMutability": "view",
      "type": "function"
    },
    {
      "constant": false,
      "inputs": [],
      "name": "removePools",
      "outputs": [],
      "payable": false,
      "stateMutability": "nonpayable",
      "type": "function"
    },
    {
      "constant": false,
      "inputs": [
        {
          "name": "_validatorSetContract",
          "type": "address"
        },
        {
          "name": "_initialStakingAddresses",
          "type": "address[]"
        },
        {
          "name": "_delegatorMinStake",
          "type": "uint256"
        },
        {
          "name": "_candidateMinStake",
          "type": "uint256"
        },
        {
          "name": "_stakingEpochDuration",
          "type": "uint256"
        },
        {
          "name": "_stakingEpochStartBlock",
          "type": "uint256"
        },
        {
          "name": "_stakeWithdrawDisallowPeriod",
          "type": "uint256"
        }
      ],
      "name": "initialize",
      "outputs": [],
      "payable": false,
      "stateMutability": "nonpayable",
      "type": "function"
    },
    {
      "constant": false,
      "inputs": [
        {
          "name": "_blockNumber",
          "type": "uint256"
        }
      ],
      "name": "setStakingEpochStartBlock",
      "outputs": [],
      "payable": false,
      "stateMutability": "nonpayable",
      "type": "function"
    },
    {
      "constant": false,
      "inputs": [
        {
          "name": "_fromPoolStakingAddress",
          "type": "address"
        },
        {
          "name": "_toPoolStakingAddress",
          "type": "address"
        },
        {
          "name": "_amount",
          "type": "uint256"
        }
      ],
      "name": "moveStake",
      "outputs": [],
      "payable": false,
      "stateMutability": "nonpayable",
      "type": "function"
    },
    {
      "constant": false,
      "inputs": [
        {
          "name": "_minStake",
          "type": "uint256"
        }
      ],
      "name": "setDelegatorMinStake",
      "outputs": [],
      "payable": false,
      "stateMutability": "nonpayable",
      "type": "function"
    },
    {
      "constant": true,
      "inputs": [],
      "name": "erc677TokenContract",
      "outputs": [
        {
          "name": "",
          "type": "address"
        }
      ],
      "payable": false,
      "stateMutability": "view",
      "type": "function"
    },
    {
      "constant": true,
      "inputs": [
        {
          "name": "",
          "type": "address"
        },
        {
          "name": "",
          "type": "address"
        },
        {
          "name": "",
          "type": "uint256"
        }
      ],
      "name": "rewardWasTaken",
      "outputs": [
        {
          "name": "",
          "type": "bool"
        }
      ],
      "payable": false,
      "stateMutability": "view",
      "type": "function"
    },
    {
      "constant": false,
      "inputs": [
        {
          "name": "_amount",
          "type": "uint256"
        },
        {
          "name": "_miningAddress",
          "type": "address"
        }
      ],
      "name": "addPool",
      "outputs": [],
      "payable": true,
      "stateMutability": "payable",
      "type": "function"
    },
    {
      "constant": true,
      "inputs": [],
      "name": "isInitialized",
      "outputs": [
        {
          "name": "",
          "type": "bool"
        }
      ],
      "payable": false,
      "stateMutability": "view",
      "type": "function"
    },
    {
      "constant": false,
      "inputs": [
        {
          "name": "_stakingAddress",
          "type": "address"
        }
      ],
      "name": "removePool",
      "outputs": [],
      "payable": false,
      "stateMutability": "nonpayable",
      "type": "function"
    },
    {
      "constant": false,
      "inputs": [
        {
          "name": "_minStake",
          "type": "uint256"
        }
      ],
      "name": "setCandidateMinStake",
      "outputs": [],
      "payable": false,
      "stateMutability": "nonpayable",
      "type": "function"
    },
    {
      "constant": true,
      "inputs": [
        {
          "name": "",
          "type": "address"
        }
      ],
      "name": "stakeAmountTotal",
      "outputs": [
        {
          "name": "",
          "type": "uint256"
        }
      ],
      "payable": false,
      "stateMutability": "view",
      "type": "function"
    },
    {
      "constant": true,
      "inputs": [
        {
          "name": "",
          "type": "address"
        },
        {
          "name": "",
          "type": "address"
        }
      ],
      "name": "stakeFirstEpoch",
      "outputs": [
        {
          "name": "",
          "type": "uint256"
        }
      ],
      "payable": false,
      "stateMutability": "view",
      "type": "function"
    },
    {
      "constant": true,
      "inputs": [],
      "name": "candidateMinStake",
      "outputs": [
        {
          "name": "",
          "type": "uint256"
        }
      ],
      "payable": false,
      "stateMutability": "view",
      "type": "function"
    },
    {
      "constant": true,
      "inputs": [
        {
          "name": "",
          "type": "address"
        }
      ],
      "name": "poolInactiveIndex",
      "outputs": [
        {
          "name": "",
          "type": "uint256"
        }
      ],
      "payable": false,
      "stateMutability": "view",
      "type": "function"
    },
    {
      "constant": true,
      "inputs": [],
      "name": "getPools",
      "outputs": [
        {
          "name": "",
          "type": "address[]"
        }
      ],
      "payable": false,
      "stateMutability": "view",
      "type": "function"
    },
    {
      "constant": true,
      "inputs": [
        {
          "name": "_poolStakingAddress",
          "type": "address"
        },
        {
          "name": "_staker",
          "type": "address"
        }
      ],
      "name": "maxWithdrawAllowed",
      "outputs": [
        {
          "name": "",
          "type": "uint256"
        }
      ],
      "payable": false,
      "stateMutability": "view",
      "type": "function"
    },
    {
      "constant": true,
      "inputs": [],
      "name": "stakingEpochStartBlock",
      "outputs": [
        {
          "name": "",
          "type": "uint256"
        }
      ],
      "payable": false,
      "stateMutability": "view",
      "type": "function"
    },
    {
      "constant": true,
      "inputs": [
        {
          "name": "_poolStakingAddress",
          "type": "address"
        }
      ],
      "name": "poolDelegatorsInactive",
      "outputs": [
        {
          "name": "",
          "type": "address[]"
        }
      ],
      "payable": false,
      "stateMutability": "view",
      "type": "function"
    },
    {
      "constant": true,
      "inputs": [
        {
          "name": "_poolStakingAddress",
          "type": "address"
        },
        {
          "name": "_staker",
          "type": "address"
        }
      ],
      "name": "stakeAmountByCurrentEpoch",
      "outputs": [
        {
          "name": "",
          "type": "uint256"
        }
      ],
      "payable": false,
      "stateMutability": "view",
      "type": "function"
    },
    {
      "constant": true,
      "inputs": [],
      "name": "stakingEpoch",
      "outputs": [
        {
          "name": "",
          "type": "uint256"
        }
      ],
      "payable": false,
      "stateMutability": "view",
      "type": "function"
    },
    {
      "constant": true,
      "inputs": [],
      "name": "stakingEpochEndBlock",
      "outputs": [
        {
          "name": "",
          "type": "uint256"
        }
      ],
      "payable": false,
      "stateMutability": "view",
      "type": "function"
    },
    {
      "constant": true,
      "inputs": [
        {
          "name": "_poolStakingAddress",
          "type": "address"
        },
        {
          "name": "_staker",
          "type": "address"
        }
      ],
      "name": "maxWithdrawOrderAllowed",
      "outputs": [
        {
          "name": "",
          "type": "uint256"
        }
      ],
      "payable": false,
      "stateMutability": "view",
      "type": "function"
    },
    {
      "constant": true,
      "inputs": [
        {
          "name": "",
          "type": "address"
        },
        {
          "name": "",
          "type": "address"
        }
      ],
      "name": "poolDelegatorInactiveIndex",
      "outputs": [
        {
          "name": "",
          "type": "uint256"
        }
      ],
      "payable": false,
      "stateMutability": "view",
      "type": "function"
    },
    {
      "constant": true,
      "inputs": [],
      "name": "getPoolsLikelihood",
      "outputs": [
        {
          "name": "likelihoods",
          "type": "uint256[]"
        },
        {
          "name": "sum",
          "type": "uint256"
        }
      ],
      "payable": false,
      "stateMutability": "view",
      "type": "function"
    },
    {
      "constant": true,
      "inputs": [],
      "name": "stakeWithdrawDisallowPeriod",
      "outputs": [
        {
          "name": "",
          "type": "uint256"
        }
      ],
      "payable": false,
      "stateMutability": "view",
      "type": "function"
    },
    {
      "constant": false,
      "inputs": [
        {
          "name": "_unremovableStakingAddress",
          "type": "address"
        }
      ],
      "name": "clearUnremovableValidator",
      "outputs": [],
      "payable": false,
      "stateMutability": "nonpayable",
      "type": "function"
    },
    {
      "constant": true,
      "inputs": [
        {
          "name": "_staker",
          "type": "address"
        },
        {
          "name": "_offset",
          "type": "uint256"
        },
        {
          "name": "_length",
          "type": "uint256"
        }
      ],
      "name": "getStakerPools",
      "outputs": [
        {
          "name": "result",
          "type": "address[]"
        }
      ],
      "payable": false,
      "stateMutability": "view",
      "type": "function"
    },
    {
      "constant": true,
      "inputs": [
        {
          "name": "_poolStakingAddress",
          "type": "address"
        }
      ],
      "name": "poolDelegators",
      "outputs": [
        {
          "name": "",
          "type": "address[]"
        }
      ],
      "payable": false,
      "stateMutability": "view",
      "type": "function"
    },
    {
      "constant": true,
      "inputs": [
        {
          "name": "",
          "type": "address"
        },
        {
          "name": "",
          "type": "address"
        }
      ],
      "name": "orderWithdrawEpoch",
      "outputs": [
        {
          "name": "",
          "type": "uint256"
        }
      ],
      "payable": false,
      "stateMutability": "view",
      "type": "function"
    },
    {
      "constant": true,
      "inputs": [
        {
          "name": "",
          "type": "address"
        },
        {
          "name": "",
          "type": "uint256"
        },
        {
          "name": "",
          "type": "bytes"
        }
      ],
      "name": "onTokenTransfer",
      "outputs": [
        {
          "name": "",
          "type": "bool"
        }
      ],
      "payable": false,
      "stateMutability": "pure",
      "type": "function"
    },
    {
      "constant": true,
      "inputs": [],
      "name": "getPoolsToBeElected",
      "outputs": [
        {
          "name": "",
          "type": "address[]"
        }
      ],
      "payable": false,
      "stateMutability": "view",
      "type": "function"
    },
    {
      "constant": true,
      "inputs": [
        {
          "name": "",
          "type": "address"
        },
        {
          "name": "",
          "type": "address"
        }
      ],
      "name": "stakeAmount",
      "outputs": [
        {
          "name": "",
          "type": "uint256"
        }
      ],
      "payable": false,
      "stateMutability": "view",
      "type": "function"
    },
    {
      "constant": true,
      "inputs": [
        {
          "name": "_staker",
          "type": "address"
        }
      ],
      "name": "getStakerPoolsLength",
      "outputs": [
        {
          "name": "",
          "type": "uint256"
        }
      ],
      "payable": false,
      "stateMutability": "view",
      "type": "function"
    },
    {
      "constant": true,
      "inputs": [
        {
          "name": "_stakingAddress",
          "type": "address"
        }
      ],
      "name": "isPoolActive",
      "outputs": [
        {
          "name": "",
          "type": "bool"
        }
      ],
      "payable": false,
      "stateMutability": "view",
      "type": "function"
    },
    {
      "constant": false,
      "inputs": [
        {
          "name": "_toPoolStakingAddress",
          "type": "address"
        },
        {
          "name": "_amount",
          "type": "uint256"
        }
      ],
      "name": "stake",
      "outputs": [],
      "payable": true,
      "stateMutability": "payable",
      "type": "function"
    },
    {
      "constant": true,
      "inputs": [
        {
          "name": "",
          "type": "address"
        }
      ],
      "name": "poolIndex",
      "outputs": [
        {
          "name": "",
          "type": "uint256"
        }
      ],
      "payable": false,
      "stateMutability": "view",
      "type": "function"
    },
    {
      "constant": false,
      "inputs": [
        {
          "name": "_poolStakingAddress",
          "type": "address"
        },
        {
          "name": "_amount",
          "type": "int256"
        }
      ],
      "name": "orderWithdraw",
      "outputs": [],
      "payable": false,
      "stateMutability": "nonpayable",
      "type": "function"
    },
    {
      "constant": true,
      "inputs": [
        {
          "name": "",
          "type": "address"
        },
        {
          "name": "",
          "type": "address"
        }
      ],
      "name": "stakeLastEpoch",
      "outputs": [
        {
          "name": "",
          "type": "uint256"
        }
      ],
      "payable": false,
      "stateMutability": "view",
      "type": "function"
    },
    {
      "constant": false,
      "inputs": [
        {
          "name": "_poolStakingAddress",
          "type": "address"
        }
      ],
      "name": "claimOrderedWithdraw",
      "outputs": [],
      "payable": false,
      "stateMutability": "nonpayable",
      "type": "function"
    },
    {
      "constant": true,
      "inputs": [],
      "name": "getPoolsToBeRemoved",
      "outputs": [
        {
          "name": "",
          "type": "address[]"
        }
      ],
      "payable": false,
      "stateMutability": "view",
      "type": "function"
    },
    {
      "constant": true,
      "inputs": [],
      "name": "stakingEpochDuration",
      "outputs": [
        {
          "name": "",
          "type": "uint256"
        }
      ],
      "payable": false,
      "stateMutability": "view",
      "type": "function"
    },
    {
      "constant": true,
      "inputs": [],
      "name": "delegatorMinStake",
      "outputs": [
        {
          "name": "",
          "type": "uint256"
        }
      ],
      "payable": false,
      "stateMutability": "view",
      "type": "function"
    },
    {
      "constant": true,
      "inputs": [
        {
          "name": "",
          "type": "address"
        }
      ],
      "name": "orderedWithdrawAmountTotal",
      "outputs": [
        {
          "name": "",
          "type": "uint256"
        }
      ],
      "payable": false,
      "stateMutability": "view",
      "type": "function"
    },
    {
      "constant": true,
      "inputs": [],
      "name": "getPoolsInactive",
      "outputs": [
        {
          "name": "",
          "type": "address[]"
        }
      ],
      "payable": false,
      "stateMutability": "view",
      "type": "function"
    },
    {
      "constant": true,
      "inputs": [],
      "name": "validatorSetContract",
      "outputs": [
        {
          "name": "",
          "type": "address"
        }
      ],
      "payable": false,
      "stateMutability": "view",
      "type": "function"
    },
    {
      "constant": true,
      "inputs": [
        {
          "name": "",
          "type": "address"
        },
        {
          "name": "",
          "type": "address"
        }
      ],
      "name": "orderedWithdrawAmount",
      "outputs": [
        {
          "name": "",
          "type": "uint256"
        }
      ],
      "payable": false,
      "stateMutability": "view",
      "type": "function"
    },
    {
      "constant": false,
      "inputs": [],
      "name": "removeMyPool",
      "outputs": [],
      "payable": false,
      "stateMutability": "nonpayable",
      "type": "function"
    },
    {
      "constant": true,
      "inputs": [
        {
          "name": "",
          "type": "address"
        }
      ],
      "name": "poolToBeRemovedIndex",
      "outputs": [
        {
          "name": "",
          "type": "uint256"
        }
      ],
      "payable": false,
      "stateMutability": "view",
      "type": "function"
    },
    {
      "constant": false,
      "inputs": [],
      "name": "incrementStakingEpoch",
      "outputs": [],
      "payable": false,
      "stateMutability": "nonpayable",
      "type": "function"
    },
    {
      "constant": true,
      "inputs": [],
      "name": "MAX_CANDIDATES",
      "outputs": [
        {
          "name": "",
          "type": "uint256"
        }
      ],
      "payable": false,
      "stateMutability": "view",
      "type": "function"
    },
    {
      "constant": false,
      "inputs": [
        {
          "name": "_fromPoolStakingAddress",
          "type": "address"
        },
        {
          "name": "_amount",
          "type": "uint256"
        }
      ],
      "name": "withdraw",
      "outputs": [],
      "payable": false,
      "stateMutability": "nonpayable",
      "type": "function"
    },
    {
      "constant": true,
      "inputs": [],
      "name": "areStakeAndWithdrawAllowed",
      "outputs": [
        {
          "name": "",
          "type": "bool"
        }
      ],
      "payable": false,
      "stateMutability": "view",
      "type": "function"
    },
    {
      "constant": true,
      "inputs": [
        {
          "name": "",
          "type": "address"
        }
      ],
      "name": "poolToBeElectedIndex",
      "outputs": [
        {
          "name": "",
          "type": "uint256"
        }
      ],
      "payable": false,
      "stateMutability": "view",
      "type": "function"
    },
    {
      "payable": true,
      "stateMutability": "payable",
      "type": "fallback"
    },
    {
      "anonymous": false,
      "inputs": [
        {
          "indexed": true,
          "name": "fromPoolStakingAddress",
          "type": "address"
        },
        {
          "indexed": true,
          "name": "staker",
          "type": "address"
        },
        {
          "indexed": true,
          "name": "stakingEpoch",
          "type": "uint256"
        },
        {
          "indexed": false,
          "name": "tokensAmount",
          "type": "uint256"
        },
        {
          "indexed": false,
          "name": "nativeCoinsAmount",
          "type": "uint256"
        }
      ],
      "name": "ClaimedReward",
      "type": "event"
    },
    {
      "anonymous": false,
      "inputs": [
        {
          "indexed": true,
          "name": "poolStakingAddress",
          "type": "address"
        }
      ],
      "name": "AddedPool",
      "type": "event"
    },
    {
      "anonymous": false,
      "inputs": [
        {
          "indexed": true,
          "name": "fromPoolStakingAddress",
          "type": "address"
        },
        {
          "indexed": true,
          "name": "staker",
          "type": "address"
        },
        {
          "indexed": true,
          "name": "stakingEpoch",
          "type": "uint256"
        },
        {
          "indexed": false,
          "name": "amount",
          "type": "uint256"
        }
      ],
      "name": "ClaimedOrderedWithdrawal",
      "type": "event"
    },
    {
      "anonymous": false,
      "inputs": [
        {
          "indexed": false,
          "name": "fromPoolStakingAddress",
          "type": "address"
        },
        {
          "indexed": true,
          "name": "toPoolStakingAddress",
          "type": "address"
        },
        {
          "indexed": true,
          "name": "staker",
          "type": "address"
        },
        {
          "indexed": true,
          "name": "stakingEpoch",
          "type": "uint256"
        },
        {
          "indexed": false,
          "name": "amount",
          "type": "uint256"
        }
      ],
      "name": "MovedStake",
      "type": "event"
    },
    {
      "anonymous": false,
      "inputs": [
        {
          "indexed": true,
          "name": "fromPoolStakingAddress",
          "type": "address"
        },
        {
          "indexed": true,
          "name": "staker",
          "type": "address"
        },
        {
          "indexed": true,
          "name": "stakingEpoch",
          "type": "uint256"
        },
        {
          "indexed": false,
          "name": "amount",
          "type": "int256"
        }
      ],
      "name": "OrderedWithdrawal",
      "type": "event"
    },
    {
      "anonymous": false,
      "inputs": [
        {
          "indexed": true,
          "name": "toPoolStakingAddress",
          "type": "address"
        },
        {
          "indexed": true,
          "name": "staker",
          "type": "address"
        },
        {
          "indexed": true,
          "name": "stakingEpoch",
          "type": "uint256"
        },
        {
          "indexed": false,
          "name": "amount",
          "type": "uint256"
        }
      ],
      "name": "PlacedStake",
      "type": "event"
    },
    {
      "anonymous": false,
      "inputs": [
        {
          "indexed": true,
          "name": "poolStakingAddress",
          "type": "address"
        }
      ],
      "name": "RemovedPool",
      "type": "event"
    },
    {
      "anonymous": false,
      "inputs": [
        {
          "indexed": true,
          "name": "fromPoolStakingAddress",
          "type": "address"
        },
        {
          "indexed": true,
          "name": "staker",
          "type": "address"
        },
        {
          "indexed": true,
          "name": "stakingEpoch",
          "type": "uint256"
        },
        {
          "indexed": false,
          "name": "amount",
          "type": "uint256"
        }
      ],
      "name": "WithdrewStake",
      "type": "event"
    },
    {
      "constant": false,
      "inputs": [
        {
          "name": "_stakingEpochs",
          "type": "uint256[]"
        },
        {
          "name": "_poolStakingAddress",
          "type": "address"
        }
      ],
      "name": "claimReward",
      "outputs": [],
      "payable": false,
      "stateMutability": "nonpayable",
      "type": "function"
    },
    {
      "constant": false,
      "inputs": [
        {
          "name": "_erc677TokenContract",
          "type": "address"
        }
      ],
      "name": "setErc677TokenContract",
      "outputs": [],
      "payable": false,
      "stateMutability": "nonpayable",
      "type": "function"
    },
    {
      "constant": true,
      "inputs": [
        {
          "name": "_stakingEpochs",
          "type": "uint256[]"
        },
        {
          "name": "_poolStakingAddress",
          "type": "address"
        },
        {
          "name": "_staker",
          "type": "address"
        }
      ],
      "name": "getRewardAmount",
      "outputs": [
        {
          "name": "tokenRewardSum",
          "type": "uint256"
        },
        {
          "name": "nativeRewardSum",
          "type": "uint256"
        }
      ],
      "payable": false,
      "stateMutability": "view",
      "type": "function"
    }
  ],
  "bytecode": "0x608060405234801561001057600080fd5b50614d51806100206000396000f3fe60806040526004361061038b5760003560e01c806397997ebb116101dc578063d290c21d11610102578063edd7db75116100a0578063f3fef3a31161006f578063f3fef3a314610f2c578063f494250114610f65578063fa4aaf4714610f7a578063fb367a9b14610fad5761038b565b8063edd7db7514610eba578063edf94b8214610ecf578063ee435f5514610f02578063f078609614610f175761038b565b8063dadee88a116100dc578063dadee88a14610e22578063df6f55f514610e55578063dfc8bf4e14610e6a578063e9ab030014610e7f5761038b565b8063d290c21d14610de3578063d609ea9314610df8578063da7a9b6a14610e0d5761038b565b8063a697ecff1161017a578063b42754a511610149578063b42754a514610d09578063b61ed63a14610d3c578063bc9eb2c314610d75578063cfef144114610db05761038b565b8063a697ecff14610c3c578063a6a3a25614610c77578063a711e6a114610caa578063adc9772e14610cdd5761038b565b80639ea8082b116101b65780639ea8082b14610af3578063a420596714610b26578063a4c0ed3614610b61578063a5d54f6514610c275761038b565b806397997ebb14610a6c57806398c46b9014610a815780639dc7798814610ab45761038b565b80635267e1d6116102c15780637069e7461161025f5780638c2243ae1161022e5780638c2243ae14610971578063950a6513146109865780639518c481146109c1578063957950a7146109fc5761038b565b80637069e746146108d957806373c21803146108ee578063750dd2a114610921578063794c0c681461095c5761038b565b80635fef76431161029b5780635fef7643146107f15780636511391814610806578063673a2a1f146108395780636bda15771461089e5761038b565b80635267e1d6146107505780635659b74214610783578063570941d2146107be5761038b565b80632d21d2171161032e578063392e53cd11610308578063392e53cd146106255780633b7d09461461063a5780633ea15d621461066d57806348aaa4a2146107265761038b565b80632d21d2171461057157806331727730146105a257806333ba8882146105f95761038b565b80631c5fb52d1161036a5780631c5fb52d1461043757806320d96e46146104da578063251441a9146105045780632bafde8d146105475761038b565b80622ceebc146103905780630868c0d6146103e55780631555371c14610420575b600080fd5b34801561039c57600080fd5b506103d3600480360360608110156103b357600080fd5b506001600160a01b0381358116916020810135909116906040013561108a565b60408051918252519081900360200190f35b3480156103f157600080fd5b506103d36004803603604081101561040857600080fd5b506001600160a01b03813581169160200135166110ad565b34801561042c57600080fd5b506104356110ca565b005b34801561044357600080fd5b50610435600480360360e081101561045a57600080fd5b6001600160a01b038235169190810190604081016020820135600160201b81111561048457600080fd5b82018360208201111561049657600080fd5b803590602001918460208302840111600160201b831117156104b757600080fd5b919350915080359060208101359060408101359060608101359060800135611176565b3480156104e657600080fd5b50610435600480360360208110156104fd57600080fd5b50356111ed565b34801561051057600080fd5b506104356004803603606081101561052757600080fd5b506001600160a01b03813581169160208101359091169060400135611209565b34801561055357600080fd5b506104356004803603602081101561056a57600080fd5b50356112ae565b34801561057d57600080fd5b506105866112e9565b604080516001600160a01b039092168252519081900360200190f35b3480156105ae57600080fd5b506105e5600480360360608110156105c557600080fd5b506001600160a01b038135811691602081013590911690604001356112f8565b604080519115158252519081900360200190f35b6104356004803603604081101561060f57600080fd5b50803590602001356001600160a01b031661131e565b34801561063157600080fd5b506105e561139b565b34801561064657600080fd5b506104356004803603602081101561065d57600080fd5b50356001600160a01b03166113ad565b34801561067957600080fd5b506104356004803603604081101561069057600080fd5b810190602081018135600160201b8111156106aa57600080fd5b8201836020820111156106bc57600080fd5b803590602001918460208302840111600160201b831117156106dd57600080fd5b919080806020026020016040519081016040528093929190818152602001838360200280828437600092019190915250929550505090356001600160a01b031691506113d09050565b34801561073257600080fd5b506104356004803603602081101561074957600080fd5b50356119b8565b34801561075c57600080fd5b506103d36004803603602081101561077357600080fd5b50356001600160a01b03166119f3565b34801561078f57600080fd5b506103d3600480360360408110156107a657600080fd5b506001600160a01b0381358116916020013516611a05565b3480156107ca57600080fd5b50610435600480360360208110156107e157600080fd5b50356001600160a01b0316611a22565b3480156107fd57600080fd5b506103d3611b1f565b34801561081257600080fd5b506103d36004803603602081101561082957600080fd5b50356001600160a01b0316611b25565b34801561084557600080fd5b5061084e611b37565b60408051602080825283518183015283519192839290830191858101910280838360005b8381101561088a578181015183820152602001610872565b505050509050019250505060405180910390f35b3480156108aa57600080fd5b506103d3600480360360408110156108c157600080fd5b506001600160a01b0381358116916020013516611b99565b3480156108e557600080fd5b506103d3611d00565b3480156108fa57600080fd5b5061084e6004803603602081101561091157600080fd5b50356001600160a01b0316611d06565b34801561092d57600080fd5b506103d36004803603604081101561094457600080fd5b506001600160a01b0381358116916020013516611d7c565b34801561096857600080fd5b506103d3611db1565b34801561097d57600080fd5b506103d3611db7565b34801561099257600080fd5b506103d3600480360360408110156109a957600080fd5b506001600160a01b0381358116916020013516611ddc565b3480156109cd57600080fd5b506103d3600480360360408110156109e457600080fd5b506001600160a01b0381358116916020013516611f4c565b348015610a0857600080fd5b50610a11611f69565b6040518080602001838152602001828103825284818151815260200191508051906020019060200280838360005b83811015610a57578181015183820152602001610a3f565b50505050905001935050505060405180910390f35b348015610a7857600080fd5b506103d3611fcc565b348015610a8d57600080fd5b5061043560048036036020811015610aa457600080fd5b50356001600160a01b0316611fd2565b348015610ac057600080fd5b5061084e60048036036060811015610ad757600080fd5b506001600160a01b038135169060208101359060400135612042565b348015610aff57600080fd5b5061084e60048036036020811015610b1657600080fd5b50356001600160a01b0316612181565b348015610b3257600080fd5b506103d360048036036040811015610b4957600080fd5b506001600160a01b03813581169160200135166121f5565b348015610b6d57600080fd5b506105e560048036036060811015610b8457600080fd5b6001600160a01b0382351691602081013591810190606081016040820135600160201b811115610bb357600080fd5b820183602082011115610bc557600080fd5b803590602001918460018302840111600160201b83111715610be657600080fd5b91908080601f016020809104026020016040519081016040528093929190818152602001838380828437600092019190915250929550612212945050505050565b348015610c3357600080fd5b5061084e612219565b348015610c4857600080fd5b506103d360048036036040811015610c5f57600080fd5b506001600160a01b0381358116916020013516612279565b348015610c8357600080fd5b506103d360048036036020811015610c9a57600080fd5b50356001600160a01b0316612296565b348015610cb657600080fd5b506105e560048036036020811015610ccd57600080fd5b50356001600160a01b03166122b1565b61043560048036036040811015610cf357600080fd5b506001600160a01b038135169060200135612309565b348015610d1557600080fd5b506103d360048036036020811015610d2c57600080fd5b50356001600160a01b0316612313565b348015610d4857600080fd5b5061043560048036036040811015610d5f57600080fd5b506001600160a01b038135169060200135612325565b348015610d8157600080fd5b506103d360048036036040811015610d9857600080fd5b506001600160a01b0381358116916020013516612720565b348015610dbc57600080fd5b5061043560048036036020811015610dd357600080fd5b50356001600160a01b031661273d565b348015610def57600080fd5b5061084e612935565b348015610e0457600080fd5b506103d3612995565b348015610e1957600080fd5b506103d361299b565b348015610e2e57600080fd5b506103d360048036036020811015610e4557600080fd5b50356001600160a01b03166129a1565b348015610e6157600080fd5b5061084e6129b3565b348015610e7657600080fd5b50610586612a13565b348015610e8b57600080fd5b506103d360048036036040811015610ea257600080fd5b506001600160a01b0381358116916020013516612a22565b348015610ec657600080fd5b50610435612a3f565b348015610edb57600080fd5b506103d360048036036020811015610ef257600080fd5b50356001600160a01b0316612c02565b348015610f0e57600080fd5b50610435612c14565b348015610f2357600080fd5b506103d3612c36565b348015610f3857600080fd5b5061043560048036036040811015610f4f57600080fd5b506001600160a01b038135169060200135612c3c565b348015610f7157600080fd5b506105e5612cc0565b348015610f8657600080fd5b506103d360048036036020811015610f9d57600080fd5b50356001600160a01b0316612cf8565b348015610fb957600080fd5b5061107160048036036060811015610fd057600080fd5b810190602081018135600160201b811115610fea57600080fd5b820183602082011115610ffc57600080fd5b803590602001918460208302840111600160201b8311171561101d57600080fd5b919080806020026020016040519081016040528093929190818152602001838360200280828437600092019190915250929550506001600160a01b038335811694506020909301359092169150612d0a9050565b6040805192835260208301919091528051918290030190f35b602660209081526000938452604080852082529284528284209052825290205481565b602a60209081526000928352604080842090915290825290205481565b6039546001600160a01b031633146110e157600080fd5b6060600380548060200260200160405190810160405280929190818152602001828054801561113957602002820191906000526020600020905b81546001600160a01b0316815260019091019060200180831161111b575b50939450600093505050505b81518110156111725761116a82828151811061115d57fe5b602002602001015161319a565b600101611145565b5050565b8261118057600080fd5b80831161118c57600080fd5b8061119657600080fd5b6111d7888888808060200260200160405190810160405280939291908181526020018383602002808284376000920191909152508a92508991506132ef9050565b6036929092556034919091556037555050505050565b6039546001600160a01b0316331461120457600080fd5b603755565b3a61121357600080fd5b61121b61139b565b61122457600080fd5b816001600160a01b0316836001600160a01b0316141561124357600080fd5b3361124f8482846134b3565b61125a838284613654565b603554604080516001600160a01b03878116825260208201869052825181861693918816927f4480d8e4b1e9095b94bf513961d26fe1d32386ebdd103d18fe8738cf4b2223ff92908290030190a450505050565b6112b6613a63565b6001600160a01b0316336001600160a01b0316146112d357600080fd5b6112db61139b565b6112e457600080fd5b602555565b6053546001600160a01b031681565b603060209081526000938452604080852082529284528284209052825290205460ff1681565b60395460408051630526083960e11b81526001600160a01b0384811660048301523360248301819052925192931691630a4c10729160448082019260009290919082900301818387803b15801561137457600080fd5b505af1158015611388573d6000803e3d6000fd5b505050506113968184613a88565b505050565b6039546001600160a01b031615155b90565b6039546001600160a01b031633146113c457600080fd5b6113cd8161319a565b50565b3a6113da57600080fd5b6113e261139b565b6113eb57600080fd5b336000806001600160a01b0384168314611459576001600160a01b0380851660009081526032602090815260408083209387168352929052205491508161143157600080fd5b506001600160a01b038084166000908152603360209081526040808320938616835292905220545b60395460408051632b5aa5d760e11b815290516000926001600160a01b0316916356b54bae916004808301926020929190829003018186803b15801561149e57600080fd5b505afa1580156114b2573d6000803e3d6000fd5b505050506040513d60208110156114c857600080fd5b5051603954604080516253517560e01b81526001600160a01b0389811660048301529151939450600093919092169162535175916024808301926020929190829003018186803b15801561151b57600080fd5b505afa15801561152f573d6000803e3d6000fd5b505050506040513d602081101561154557600080fd5b50519050611551614cc5565b5060408051808201909152600080825260208201819052885161165057836001600160a01b031663dd03f5b9846040518263ffffffff1660e01b815260040180826001600160a01b03166001600160a01b0316815260200191505060006040518083038186803b1580156115c457600080fd5b505afa1580156115d8573d6000803e3d6000fd5b505050506040513d6000823e601f3d908101601f19168201604052602081101561160157600080fd5b810190808051600160201b81111561161857600080fd5b8201602081018481111561162b57600080fd5b81518560208202830111600160201b8211171561164757600080fd5b50909c50505050505b60005b89518110156119245760008a828151811061166a57fe5b60200260200101519050816000148061169857508a600183038151811061168d57fe5b602002602001015181115b6116a157600080fd5b60355481106116af57600080fd5b6001600160a01b03808b166000908152603060209081526040808320938d1683529281528282208483529052205460ff16156116eb575061191c565b6116f3614cc5565b896001600160a01b03168b6001600160a01b0316146117e1578882101561171b57505061191c565b81881115801561172a57508715155b15611736575050611924565b611743828a868e8e613b8f565b60408051631c3572db60e31b815260048101839052602481018590526001600160a01b0389811660448301528251600187019d509397508a169263e1ab96d892606480840193919291829003018186803b1580156117a057600080fd5b505afa1580156117b4573d6000803e3d6000fd5b505050506040513d60408110156117ca57600080fd5b50805160209182015191830191909152815261186a565b6040805163ba2d759760e01b8152600481018490526001600160a01b0388811660248301528251908a169263ba2d75979260448082019391829003018186803b15801561182d57600080fd5b505afa158015611841573d6000803e3d6000fd5b505050506040513d604081101561185757600080fd5b5080516020918201519183019190915281525b8051855161187d9163ffffffff613c0416565b8552602080820151908601516118989163ffffffff613c0416565b6020808701919091526001600160a01b03808d166000818152603084526040808220938f16808352938552808220878352855290819020805460ff19166001179055845185850151825191825294810194909452805186947fc1ddb27e5367c13c1c22aae2b42bcaa45f854da4c8c061c22a4b74516824aa7992908290030190a450505b600101611653565b50836001600160a01b03166370cafd65836000015184602001518a6040518463ffffffff1660e01b815260040180848152602001838152602001826001600160a01b03166001600160a01b031681526020019350505050600060405180830381600087803b15801561199557600080fd5b505af11580156119a9573d6000803e3d6000fd5b50505050505050505050505050565b6119c0613a63565b6001600160a01b0316336001600160a01b0316146119dd57600080fd5b6119e561139b565b6119ee57600080fd5b602455565b60386020526000908152604090205481565b603260209081526000928352604080842090915290825290205481565b611a2a613a63565b6001600160a01b0316336001600160a01b031614611a4757600080fd5b611a4f61139b565b611a5857600080fd5b6001600160a01b038116611a6b57600080fd5b6053546001600160a01b031615611a8157600080fd5b604080516370a0823160e01b815230600482015290516001600160a01b038316916370a08231916024808301926020929190829003018186803b158015611ac757600080fd5b505afa158015611adb573d6000803e3d6000fd5b505050506040513d6020811015611af157600080fd5b505115611afd57600080fd5b605380546001600160a01b0319166001600160a01b0392909216919091179055565b60245481565b602c6020526000908152604090205481565b60606000805480602002602001604051908101604052809291908181526020018280548015611b8f57602002820191906000526020600020905b81546001600160a01b03168152600190910190602001808311611b71575b5050505050905090565b603954604080516253517560e01b81526001600160a01b03858116600483015291516000938493169162535175916024808301926020929190829003018186803b158015611be657600080fd5b505afa158015611bfa573d6000803e3d6000fd5b505050506040513d6020811015611c1057600080fd5b50519050611c2d816001600160a01b038681169086161415613c16565b611c3b576000915050611cfa565b6001600160a01b038085166000908152603160209081526040808320878516845282529182902054603954835163a0d16cad60e01b8152868616600482015293519194169263a0d16cad926024808301939192829003018186803b158015611ca257600080fd5b505afa158015611cb6573d6000803e3d6000fd5b505050506040513d6020811015611ccc57600080fd5b5051611cdb579150611cfa9050565b6000611ce78686611d7c565b905080821115611cf5578091505b509150505b92915050565b60375481565b6001600160a01b038116600090815260076020908152604091829020805483518184028101840190945280845260609392830182828015611d7057602002820191906000526020600020905b81546001600160a01b03168152600190910190602001808311611d52575b50505050509050919050565b6001600160a01b039182166000908152600a602090815260408083209390941682529182528281206035548252909152205490565b60355481565b6037546000908015611dca576001611dcd565b60005b60ff1660365482010391505090565b603954604080516253517560e01b81526001600160a01b03858116600483015291516000938493169162535175916024808301926020929190829003018186803b158015611e2957600080fd5b505afa158015611e3d573d6000803e3d6000fd5b505050506040513d6020811015611e5357600080fd5b50519050611e70816001600160a01b038681169086161415613c16565b611e7e576000915050611cfa565b6039546040805163a0d16cad60e01b81526001600160a01b0384811660048301529151919092169163a0d16cad916024808301926020929190829003018186803b158015611ecb57600080fd5b505afa158015611edf573d6000803e3d6000fd5b505050506040513d6020811015611ef557600080fd5b5051611f05576000915050611cfa565b611f44611f128585611d7c565b6001600160a01b038087166000908152603160209081526040808320938916835292905220549063ffffffff613d4c16565b949350505050565b602b60209081526000928352604080842090915290825290205481565b60606000600460055481805480602002602001604051908101604052809291908181526020018280548015611fbd57602002820191906000526020600020905b815481526020019060010190808311611fa9575b50505050509150915091509091565b60345481565b6039546001600160a01b03163314611fe957600080fd5b6001600160a01b038116611ffc57600080fd5b6001600160a01b0381166000908152603160209081526040808320909152902054156120395761202b81613d61565b61203481613e50565b6113cd565b6113cd81613f10565b6001600160a01b0383166000908152600860205260409020606090826120c0578054604080516020808402820181019092528281529183918301828280156120b357602002820191906000526020600020905b81546001600160a01b03168152600190910190602001808311612095575b505050505091505061217a565b80546000906120d5908663ffffffff613d4c16565b90508084116120e457836120e6565b805b60405190808252806020026020018201604052801561210f578160200160208202803883390190505b50925060005b835181101561217657828187018154811061212c57fe5b9060005260206000200160009054906101000a90046001600160a01b031684828151811061215657fe5b6001600160a01b0390921660209283029190910190910152600101612115565b5050505b9392505050565b6001600160a01b038116600090815260066020908152604091829020805483518184028101840190945280845260609392830182828015611d70576020028201919060005260206000209081546001600160a01b03168152600190910190602001808311611d525750505050509050919050565b602960209081526000928352604080842090915290825290205481565b6000806000fd5b60606002805480602002602001604051908101604052809291908181526020018280548015611b8f576020028201919060005260206000209081546001600160a01b03168152600190910190602001808311611b71575050505050905090565b603160209081526000928352604080842090915290825290205481565b6001600160a01b031660009081526008602052604090205490565b6001600160a01b0381166000908152602d602052604081205481548110801561217a5750826001600160a01b0316600082815481106122ec57fe5b6000918252602090912001546001600160a01b0316149392505050565b6111728282613a88565b602d6020526000908152604090205481565b3a61232f57600080fd5b61233761139b565b61234057600080fd5b6001600160a01b03821661235357600080fd5b8061235d57600080fd5b603954604080516253517560e01b81526001600160a01b038581166004830152915133936123ec93169162535175916024808301926020929190829003018186803b1580156123ab57600080fd5b505afa1580156123bf573d6000803e3d6000fd5b505050506040513d60208110156123d557600080fd5b50516001600160a01b038381169086161415613c16565b6123f557600080fd5b6001600160a01b03808416600081815260276020908152604080832094861680845294825280832054848452602883528184205460318452828520968552958352818420549484526038909252822054909392918613156124df578561245b8887611ddc565b81111561246757600080fd5b612477858263ffffffff613c0416565b9450612489848263ffffffff613c0416565b935061249b838263ffffffff613d4c16565b92506124ad828263ffffffff613d4c16565b6035546001600160a01b03808b166000908152602960209081526040808320938c1683529290522055915061252e9050565b60008690036124f4858263ffffffff613d4c16565b9450612506848263ffffffff613d4c16565b9350612518838263ffffffff613c0416565b925061252a828263ffffffff613c0416565b9150505b6001600160a01b038088166000818152602760209081526040808320948a16808452948252808320899055838352602882528083208890556031825280832085845282528083208790558383526038909152902083905514156126775781158061259a57506024548210155b6125a357600080fd5b60395460408051633820c4e560e11b815290516000926001600160a01b03169163704189ca916004808301926020929190829003018186803b1580156125e857600080fd5b505afa1580156125fc573d6000803e3d6000fd5b505050506040513d602081101561261257600080fd5b505190506000871315612652578215801561263f5750806001600160a01b0316886001600160a01b031614155b1561264d5761264d88613f10565b612671565b61267188826001600160a01b03168a6001600160a01b03161415613fce565b506126c0565b81158061268657506025548210155b61268f57600080fd5b60008613156126ac57816126a7576126a78786614097565b6126b6565b6126b687866141ef565b6126c087866142b1565b6126c987613e50565b603554856001600160a01b0316886001600160a01b03167f80d5c777e5f7ac6ee89723223803ca5c0ec0204f89e99c1b0cde973c66a64594896040518082815260200191505060405180910390a450505050505050565b603360209081526000928352604080842090915290825290205481565b3a61274757600080fd5b61274f61139b565b61275857600080fd5b6001600160a01b0381166000908152602960209081526040808320338085529252909120546035541161278a57600080fd5b603954604080516253517560e01b81526001600160a01b038581166004830152915161281b9392909216916253517591602480820192602092909190829003018186803b1580156127da57600080fd5b505afa1580156127ee573d6000803e3d6000fd5b505050506040513d602081101561280457600080fd5b50516001600160a01b038381169085161415613c16565b61282457600080fd5b6001600160a01b038083166000908152602760209081526040808320938516835292905220548061285457600080fd5b6001600160a01b038084166000818152602760209081526040808320948716835293815283822082905591815260289091522054612898908263ffffffff613d4c16565b6001600160a01b038085166000908152602860209081526040808320949094556031815283822092861682529190915220546128d8576128d883836143a3565b6128e2828261457e565b603554826001600160a01b0316846001600160a01b03167ff380b0bc887e00f5b50d3c9d4eaaf5c9a0afd97b956316b995159384c4ede9b3846040518082815260200191505060405180910390a4505050565b60606003805480602002602001604051908101604052809291908181526020018280548015611b8f576020028201919060005260206000209081546001600160a01b03168152600190910190602001808311611b71575050505050905090565b60365481565b60255481565b60286020526000908152604090205481565b60606001805480602002602001604051908101604052809291908181526020018280548015611b8f576020028201919060005260206000209081546001600160a01b03168152600190910190602001808311611b71575050505050905090565b6039546001600160a01b031681565b602760209081526000928352604080842090915290825290205481565b3a612a4957600080fd5b612a5161139b565b612a5a57600080fd5b603954604080516253517560e01b81523360048201819052915191926000926001600160a01b039091169162535175916024808301926020929190829003018186803b158015612aa957600080fd5b505afa158015612abd573d6000803e3d6000fd5b505050506040513d6020811015612ad357600080fd5b5051603554909150151580612b5e57506039546040805163facd743b60e01b81526001600160a01b0384811660048301529151919092169163facd743b916024808301926020929190829003018186803b158015612b3057600080fd5b505afa158015612b44573d6000803e3d6000fd5b505050506040513d6020811015612b5a57600080fd5b5051155b612b6757600080fd5b603960009054906101000a90046001600160a01b03166001600160a01b031663704189ca6040518163ffffffff1660e01b815260040160206040518083038186803b158015612bb557600080fd5b505afa158015612bc9573d6000803e3d6000fd5b505050506040513d6020811015612bdf57600080fd5b50516001600160a01b0383811691161415612bf957600080fd5b6111728261319a565b602f6020526000908152604090205481565b6039546001600160a01b03163314612c2b57600080fd5b603580546001019055565b610bb881565b3a612c4657600080fd5b612c4e61139b565b612c5757600080fd5b33612c638382846134b3565b612c6d818361457e565b603554816001600160a01b0316846001600160a01b03167fa7c0f0cac6bd4d18042007706c84a8abe823751cf289b69c01e83eef7b5915c7856040518082815260200191505060405180910390a4505050565b600080612ccb614613565b6034546036546037549293500390821015612ceb576000925050506113aa565b6037549091031115905090565b602e6020526000908152604090205481565b600080600080846001600160a01b0316866001600160a01b031614612d83576001600160a01b03808716600090815260326020908152604080832093891683529290522054915081612d5b57600080fd5b506001600160a01b038086166000908152603360209081526040808320938816835292905220545b60395460408051632b5aa5d760e11b815290516000926001600160a01b0316916356b54bae916004808301926020929190829003018186803b158015612dc857600080fd5b505afa158015612ddc573d6000803e3d6000fd5b505050506040513d6020811015612df257600080fd5b5051603954604080516253517560e01b81526001600160a01b038b811660048301529151939450600093919092169162535175916024808301926020929190829003018186803b158015612e4557600080fd5b505afa158015612e59573d6000803e3d6000fd5b505050506040513d6020811015612e6f57600080fd5b50518951600097508796509091508590612f6557826001600160a01b031663dd03f5b9836040518263ffffffff1660e01b815260040180826001600160a01b03166001600160a01b0316815260200191505060006040518083038186803b158015612ed957600080fd5b505afa158015612eed573d6000803e3d6000fd5b505050506040513d6000823e601f3d908101601f191682016040526020811015612f1657600080fd5b810190808051600160201b811115612f2d57600080fd5b82016020810184811115612f4057600080fd5b81518560208202830111600160201b82111715612f5c57600080fd5b50909d50505050505b60005b8a5181101561318c5760008b8281518110612f7f57fe5b602002602001015190508160001480612fad57508b6001830381518110612fa257fe5b602002602001015181115b612fb657600080fd5b6035548110612fc457600080fd5b6001600160a01b03808c166000908152603060209081526040808320938e1683529281528282208483529052205460ff16156130005750613184565b896001600160a01b03168b6001600160a01b0316146130f357868110156130275750613184565b80861115801561303657508515155b15613041575061318c565b61304e8188858e8e613b8f565b60408051631c3572db60e31b815260048101839052602481018490526001600160a01b0387811660448301528251600186019b509396506000938493918a169263e1ab96d8926064808301939192829003018186803b1580156130b057600080fd5b505afa1580156130c4573d6000803e3d6000fd5b505050506040513d60408110156130da57600080fd5b5080516020909101519b019a9990990198506131829050565b6040805163ba2d759760e01b8152600481018390526001600160a01b03868116602483015282516000938493928a169263ba2d75979260448083019392829003018186803b15801561314457600080fd5b505afa158015613158573d6000803e3d6000fd5b505050506040513d604081101561316e57600080fd5b5080516020909101519b019a999099019850505b505b600101612f68565b505050505050935093915050565b6001600160a01b0381166000908152602d60205260408120549054811080156131ec5750816001600160a01b0316600082815481106131d557fe5b6000918252602090912001546001600160a01b0316145b156132b857600080548190600019810190811061320557fe5b600091825260208220015481546001600160a01b0390911692508291908490811061322c57fe5b600091825260208083209190910180546001600160a01b0319166001600160a01b039485161790558383168252602d905260408082208590559185168152908120819055805490613281906000198301614cdf565b506040516001600160a01b038416907fa594a98df279c030a78f76e64f370882494d1a6fcedd0bd0d636d4608e1eb9f990600090a2505b6132c182614617565b156132d4576132cf82614655565b6132dd565b6132dd82614741565b6132e6826147f9565b6111728261499d565b6132f7614613565b158061331b5750613306613a63565b6001600160a01b0316336001600160a01b0316145b61332457600080fd5b61332c61139b565b1561333657600080fd5b6001600160a01b03841661334957600080fd5b600083511161335757600080fd5b8161336157600080fd5b8061336b57600080fd5b603980546001600160a01b0319166001600160a01b03868116919091179182905560408051633820c4e560e11b815290516000939092169163704189ca91600480820192602092909190829003018186803b1580156133c957600080fd5b505afa1580156133dd573d6000803e3d6000fd5b505050506040513d60208110156133f357600080fd5b5051905060005b84518110156134a45760006001600160a01b031685828151811061341a57fe5b60200260200101516001600160a01b0316141561343657600080fd5b61345485828151811061344557fe5b60200260200101516000613fce565b816001600160a01b031685828151811061346a57fe5b60200260200101516001600160a01b03161461349c5761349c85828151811061348f57fe5b6020026020010151613f10565b6001016133fa565b50506025919091556024555050565b6001600160a01b0383166134c657600080fd5b806134d057600080fd5b6134da8383611b99565b8111156134e657600080fd5b6001600160a01b03808416600090815260316020908152604080832093861683529290529081205461351e908363ffffffff613d4c16565b90506000836001600160a01b0316856001600160a01b03161461354357602554613547565b6024545b90508115806135565750808210155b61355f57600080fd5b6001600160a01b03808616600090815260316020908152604080832093881683529290529081208390556135938686611d7c565b9050838110156135a45760006135a8565b8381035b6001600160a01b038088166000818152600a60209081526040808320948b168352938152838220603554835281528382209490945590815260389092529020546135f8908563ffffffff613d4c16565b6001600160a01b038716600090815260386020526040902055826136205761362086866143a3565b856001600160a01b0316856001600160a01b0316146136435761364386866142b1565b61364c86613e50565b505050505050565b603954604080516253517560e01b81526001600160a01b038681166004830152915160009392909216916253517591602480820192602092909190829003018186803b1580156136a357600080fd5b505afa1580156136b7573d6000803e3d6000fd5b505050506040513d60208110156136cd57600080fd5b505190506001600160a01b0381166136e457600080fd5b6001600160a01b0384166136f757600080fd5b8161370157600080fd5b60395460408051635491295760e11b81526001600160a01b0384811660048301529151919092169163a92252ae916024808301926020929190829003018186803b15801561374e57600080fd5b505afa158015613762573d6000803e3d6000fd5b505050506040513d602081101561377857600080fd5b50511561378457600080fd5b61378c612cc0565b61379557600080fd5b6001600160a01b0380851660009081526031602090815260408083209387168352929052908120546137cd908463ffffffff613c0416565b9050846001600160a01b0316846001600160a01b031614156137fd576024548110156137f857600080fd5b613836565b60255481101561380c57600080fd5b6001600160a01b038516600090815260316020908152604080832090915290205461383657600080fd5b6001600160a01b0380861660009081526031602090815260408083209388168352929052208190556138788361386c8787611d7c565b9063ffffffff613c0416565b6001600160a01b038087166000818152600a60209081526040808320948a168352938152838220603554835281528382209490945590815260389092529020546138c8908463ffffffff613c0416565b6001600160a01b03808716600081815260386020526040902092909255851614156139845761397f85603960009054906101000a90046001600160a01b03166001600160a01b031663704189ca6040518163ffffffff1660e01b815260040160206040518083038186803b15801561393f57600080fd5b505afa158015613953573d6000803e3d6000fd5b505050506040513d602081101561396957600080fd5b50516001600160a01b0388811691161415613fce565b613998565b61398e85856141ef565b61399885856142b1565b6139a185613e50565b6001600160a01b03808516600090815260086020908152604080832060098352818420948a16845293909152902054815481101580613a095750866001600160a01b03168282815481106139f157fe5b6000918252602090912001546001600160a01b031614155b15613a5a5781546001600160a01b038088166000908152600960209081526040808320938c168084529382528220849055600184018655858252902090910180546001600160a01b03191690911790555b50505050505050565b7fb53127684a568b3173ae13b9f8a6016e243e63b6e8ee1178d6a717850b5d61035490565b3a613a9257600080fd5b613a9a61139b565b613aa357600080fd5b33613aaf838284613654565b3415613aba57600080fd5b6053546001600160a01b0316613acf57600080fd5b605354604080516356e4bb9760e11b81526001600160a01b038481166004830152602482018690529151919092169163adc9772e91604480830192600092919082900301818387803b158015613b2457600080fd5b505af1158015613b38573d6000803e3d6000fd5b50505050603554816001600160a01b0316846001600160a01b03167f2273de02cb1f69ba6259d22c4bc22c60e4c94c193265ef6afee324a04a9b6d22856040518082815260200191505060405180910390a4505050565b60005b506001600160a01b0380831660009081526026602090815260408083209385168352928152828220888352905220548015613be0576000198114613bd65780613bd9565b60005b9050613bfb565b84861415613bef575082613bfb565b60001990950194613b92565b95945050505050565b60008282018381101561217a57600080fd5b60008115613ca9576039546040805163a881c5fd60e01b81526001600160a01b0386811660048301529151919092169163a881c5fd916024808301926020929190829003018186803b158015613c6b57600080fd5b505afa158015613c7f573d6000803e3d6000fd5b505050506040513d6020811015613c9557600080fd5b505115613ca457506000611cfa565b613d2f565b60395460408051635491295760e11b81526001600160a01b0386811660048301529151919092169163a92252ae916024808301926020929190829003018186803b158015613cf657600080fd5b505afa158015613d0a573d6000803e3d6000fd5b505050506040513d6020811015613d2057600080fd5b505115613d2f57506000611cfa565b613d37612cc0565b613d4357506000611cfa565b50600192915050565b600082821115613d5b57600080fd5b50900390565b6001600160a01b0381166000908152602e60205260409020546002548082101580613db65750826001600160a01b031660028381548110613d9e57fe5b6000918252602090912001546001600160a01b031614155b15613e47576001600160a01b0383166000818152602e602052604081208390556002805460018181019092557f405787fa12a823e0f2b7631cc41b3ba8828b3321ca811111fa75cd3aa3bb5ace0180546001600160a01b03191690931790925560048054928301815581527f8a35acfbc15ff81a39ae7d344fd709f28e8600b4aa8c65c6b64bfe7fe36bd19b909101555b6113968361499d565b600080613e5c83614a89565b9150915081613e6c5750506113cd565b600060048281548110613e7b57fe5b90600052602060002001549050600060386000866001600160a01b03166001600160a01b031681526020019081526020016000205490508060048481548110613ec057fe5b600091825260209091200155818110613ef057600554613ee89083830363ffffffff613c0416565b600555613f09565b600554613f059082840363ffffffff613d4c16565b6005555b5050505050565b6001600160a01b0381166000908152602f60205260409020546003548082101580613f655750826001600160a01b031660038381548110613f4d57fe5b6000918252602090912001546001600160a01b031614155b15613fc5576001600160a01b0383166000818152602f602052604081208390556003805460018101825591527fc2575a0e9e593c00f959f8c92f12db2869c3395a3b0502d05e2516446f71f85b0180546001600160a01b03191690911790555b611396836147f9565b613fd7826122b1565b61407f57600080546001600160a01b038416808352602d602052604083208290556001820183559180527f290decd9548b62a8d60345a988386fc84ba6bc95484008f6362f93160ef3e5630180546001600160a01b031916909117905561403c614af6565b600054111561404a57600080fd5b6040516001600160a01b038316907fd26e92d2046eac29686a6b001477592c752fb2045b2875e4e96f567ad735269d90600090a25b61408882614655565b80156111725761117282613d61565b6001600160a01b038083166000908152600660209081526040808320602a83528184209486168452939091529020548154811080156140fe5750826001600160a01b03168282815481106140e757fe5b6000918252602090912001546001600160a01b0316145b156141a55781546000908390600019810190811061411857fe5b9060005260206000200160009054906101000a90046001600160a01b031690508083838154811061414557fe5b600091825260208083209190910180546001600160a01b0319166001600160a01b039485161790558783168252602a81526040808320858516845290915280822085905591861681529081205582546141a2846000198301614cdf565b50505b6001600160a01b03808516600090815260276020908152604080832093871683529290522054156141df576141da8484614afc565b6141e9565b6141e98484614bba565b50505050565b6001600160a01b038083166000908152600660209081526040808320602a8352818420948616845293909152902054815480821015806142585750836001600160a01b031683838154811061424057fe5b6000918252602090912001546001600160a01b031614155b156142a7576001600160a01b038086166000908152602a602090815260408083209388168084529382528220849055855460018101875586835291200180546001600160a01b03191690911790555b613f098585614bba565b6035546001600160a01b03808416600090815260316020908152604080832093861683529290522054600190910190806142ed576000196142ef565b805b6001600160a01b038086166000818152602660209081526040808320948916808452948252808320888452825280832095909555918152603282528381209281529190522054614362576001600160a01b0380851660009081526032602090815260408083209387168352929052208290555b801561436f576000614371565b815b6001600160a01b0394851660009081526033602090815260408083209690971682529490945293909220929092555050565b816001600160a01b0316816001600160a01b0316141561455d5760395460408051633820c4e560e11b815290516000926001600160a01b03169163704189ca916004808301926020929190829003018186803b15801561440257600080fd5b505afa158015614416573d6000803e3d6000fd5b505050506040513d602081101561442c57600080fd5b505190506001600160a01b038381169082161461455757603954604080516253517560e01b81526001600160a01b038681166004830152915160009392909216916253517591602480820192602092909190829003018186803b15801561449257600080fd5b505afa1580156144a6573d6000803e3d6000fd5b505050506040513d60208110156144bc57600080fd5b50516039546040805163facd743b60e01b81526001600160a01b038085166004830152915193945091169163facd743b91602480820192602092909190829003018186803b15801561450d57600080fd5b505afa158015614521573d6000803e3d6000fd5b505050506040513d602081101561453757600080fd5b50511561454c5761454784613f10565b614555565b6145558461319a565b505b50611172565b6145678282614097565b61457082614617565b156111725761117282614655565b6053546001600160a01b031661459357600080fd5b6053546040805163a9059cbb60e01b81526001600160a01b038581166004830152602482018590529151919092169163a9059cbb9160448083019260209291908290030181600087803b1580156145e957600080fd5b505af11580156145fd573d6000803e3d6000fd5b505050506040513d60208110156141e957600080fd5b4390565b6001600160a01b038116600090815260386020526040812054158015611cfa5750506001600160a01b03166000908152602860205260409020541590565b6001600160a01b0381166000908152602c6020526040902054600154811080156146a85750816001600160a01b03166001828154811061469157fe5b6000918252602090912001546001600160a01b0316145b1561117257600180546000919060001981019081106146c357fe5b600091825260209091200154600180546001600160a01b0390921692508291849081106146ec57fe5b600091825260208083209190910180546001600160a01b0319166001600160a01b039485161790558383168252602c9052604080822085905591851681529081205560018054906141e9906000198301614cdf565b6001600160a01b0381166000908152602c602052604090205460015480821015806147965750826001600160a01b03166001838154811061477e57fe5b6000918252602090912001546001600160a01b031614155b15611396576001600160a01b0383166000818152602c6020526040812083905560018054808201825591527fb10e2d527612073b26eecdfd717e6a320cf44b4afac2b0732d9fcbe2b7fa0cf60180546001600160a01b0319169091179055505050565b60045460025414614809576113cd565b6001600160a01b0381166000908152602e60205260409020546002548110801561485c5750816001600160a01b03166002828154811061484557fe5b6000918252602090912001546001600160a01b0316145b15611172576004818154811061486e57fe5b9060005260206000200154600554106148a9576004818154811061488e57fe5b600091825260209091200154600580549190910390556148af565b60006005555b60028054600019810191600091839081106148c657fe5b600091825260209091200154600280546001600160a01b0390921692508291859081106148ef57fe5b9060005260206000200160006101000a8154816001600160a01b0302191690836001600160a01b031602179055506004828154811061492a57fe5b90600052602060002001546004848154811061494257fe5b60009182526020808320909101929092556001600160a01b038084168252602e90925260408082208690559186168152908120556002805490614989906000198301614cdf565b506004805490613f09906000198301614cdf565b6001600160a01b0381166000908152602f6020526040902054600354811080156149f05750816001600160a01b0316600382815481106149d957fe5b6000918252602090912001546001600160a01b0316145b156111725760038054600091906000198101908110614a0b57fe5b600091825260209091200154600380546001600160a01b039092169250829184908110614a3457fe5b600091825260208083209190910180546001600160a01b0319166001600160a01b039485161790558383168252602f9052604080822085905591851681529081205560038054906141e9906000198301614cdf565b6001600160a01b0381166000908152602e602052604081205460025481108015614adc5750826001600160a01b031660028281548110614ac557fe5b6000918252602090912001546001600160a01b0316145b15614aea5760019150614af1565b5060009050805b915091565b610bb890565b6001600160a01b038083166000908152600760209081526040808320602b835281842094861684529390915290205481548082101580614b655750836001600160a01b0316838381548110614b4d57fe5b6000918252602090912001546001600160a01b031614155b15613f09576001600160a01b038086166000908152602b602090815260408083209388168084529382528220849055855460018101875586835291200180546001600160a01b03191690911790555050505050565b6001600160a01b038083166000908152600760209081526040808320602b8352818420948616845293909152902054815481108015614c215750826001600160a01b0316828281548110614c0a57fe5b6000918252602090912001546001600160a01b0316145b156141e957815460009083906000198101908110614c3b57fe5b9060005260206000200160009054906101000a90046001600160a01b0316905080838381548110614c6857fe5b600091825260208083209190910180546001600160a01b0319166001600160a01b039485161790558783168252602b815260408083208585168452909152808220859055918616815290812055825461364c846000198301614cdf565b604051806040016040528060008152602001600081525090565b815481835581811115611396576000838152602090206113969181019083016113aa91905b80821115614d185760008155600101614d04565b509056fea265627a7a72305820cc1cae8f16f4048a0856f02f1c5b89173ecc72a0ab56ea33af1bcae75f12b2cf64736f6c634300050a0032",
  "source": "pragma solidity 0.5.10;\n\nimport \"./StakingAuRaBase.sol\";\nimport \"../interfaces/IBlockRewardAuRaTokens.sol\";\nimport \"../interfaces/IStakingAuRaTokens.sol\";\n\n\n/// @dev Implements staking and withdrawal logic.\ncontract StakingAuRaTokens is IStakingAuRaTokens, StakingAuRaBase {\n\n    // =============================================== Storage ========================================================\n\n    // WARNING: since this contract is upgradeable, do not remove\n    // existing storage variables, do not change their order,\n    // and do not change their types!\n\n    /// @dev The address of the ERC677 staking token contract.\n    IERC677Minting public erc677TokenContract;\n\n    // =============================================== Structs ========================================================\n\n    /// @dev Used by the `claimReward` function to reduce stack depth.\n    struct RewardAmounts {\n        uint256 tokenAmount;\n        uint256 nativeAmount;\n    }\n\n    // ================================================ Events ========================================================\n\n    /// @dev Emitted by the `claimReward` function to signal the staker withdrew the specified\n    /// amount of tokens and native coins from the specified pool for the specified staking epoch.\n    /// @param fromPoolStakingAddress The pool from which the `staker` withdrew the amounts.\n    /// @param staker The address of the staker that withdrew the amounts.\n    /// @param stakingEpoch The serial number of the staking epoch for which the claim was made.\n    /// @param tokensAmount The withdrawal amount of tokens.\n    /// @param nativeCoinsAmount The withdrawal amount of native coins.\n    event ClaimedReward(\n        address indexed fromPoolStakingAddress,\n        address indexed staker,\n        uint256 indexed stakingEpoch,\n        uint256 tokensAmount,\n        uint256 nativeCoinsAmount\n    );\n\n    // =============================================== Setters ========================================================\n\n    /// @dev Withdraws a reward from the specified pool for the specified staking epochs\n    /// to the staker address (msg.sender).\n    /// @param _stakingEpochs The list of staking epochs in ascending order.\n    /// If the list is empty, it is taken with `BlockRewardAuRa.epochsPoolGotRewardFor` getter.\n    /// @param _poolStakingAddress The staking address of the pool from which the reward needs to be withdrawn.\n    function claimReward(\n        uint256[] memory _stakingEpochs,\n        address _poolStakingAddress\n    ) public gasPriceIsValid onlyInitialized {\n        address payable staker = msg.sender;\n        uint256 firstEpoch;\n        uint256 lastEpoch;\n\n        if (_poolStakingAddress != staker) { // this is a delegator\n            firstEpoch = stakeFirstEpoch[_poolStakingAddress][staker];\n            require(firstEpoch != 0);\n            lastEpoch = stakeLastEpoch[_poolStakingAddress][staker];\n        }\n\n        IBlockRewardAuRaTokens blockRewardContract = IBlockRewardAuRaTokens(validatorSetContract.blockRewardContract());\n        address miningAddress = validatorSetContract.miningByStakingAddress(_poolStakingAddress);\n        RewardAmounts memory rewardSum = RewardAmounts(0, 0);\n        uint256 delegatorStake = 0;\n\n        if (_stakingEpochs.length == 0) {\n            _stakingEpochs = IBlockRewardAuRa(address(blockRewardContract)).epochsPoolGotRewardFor(miningAddress);\n        }\n\n        for (uint256 i = 0; i < _stakingEpochs.length; i++) {\n            uint256 epoch = _stakingEpochs[i];\n\n            require(i == 0 || epoch > _stakingEpochs[i - 1]);\n            require(epoch < stakingEpoch);\n\n            if (rewardWasTaken[_poolStakingAddress][staker][epoch]) continue;\n            \n            RewardAmounts memory reward;\n\n            if (_poolStakingAddress != staker) { // this is a delegator\n                if (epoch < firstEpoch) {\n                    // If the delegator staked for the first time before\n                    // the `epoch`, skip this staking epoch\n                    continue;\n                }\n\n                if (lastEpoch <= epoch && lastEpoch != 0) {\n                    // If the delegator withdrew all their stake before the `epoch`,\n                    // don't check this and following epochs since it makes no sense\n                    break;\n                }\n\n                delegatorStake = _getDelegatorStake(epoch, firstEpoch, delegatorStake, _poolStakingAddress, staker);\n                firstEpoch = epoch + 1;\n\n                (reward.tokenAmount, reward.nativeAmount) =\n                    blockRewardContract.getDelegatorReward(delegatorStake, epoch, miningAddress);\n            } else { // this is a validator\n                (reward.tokenAmount, reward.nativeAmount) =\n                    blockRewardContract.getValidatorReward(epoch, miningAddress);\n            }\n\n            rewardSum.tokenAmount = rewardSum.tokenAmount.add(reward.tokenAmount);\n            rewardSum.nativeAmount = rewardSum.nativeAmount.add(reward.nativeAmount);\n\n            rewardWasTaken[_poolStakingAddress][staker][epoch] = true;\n\n            emit ClaimedReward(_poolStakingAddress, staker, epoch, reward.tokenAmount, reward.nativeAmount);\n        }\n\n        blockRewardContract.transferReward(rewardSum.tokenAmount, rewardSum.nativeAmount, staker);\n    }\n\n    /// @dev Sets the address of the ERC677 staking token contract. Can only be called by the `owner`.\n    /// Cannot be called if there was at least one stake in staking tokens before.\n    /// @param _erc677TokenContract The address of the contract.\n    function setErc677TokenContract(IERC677Minting _erc677TokenContract) external onlyOwner onlyInitialized {\n        require(_erc677TokenContract != IERC677Minting(0));\n        require(erc677TokenContract == IERC677Minting(0));\n        require(_erc677TokenContract.balanceOf(address(this)) == 0);\n        erc677TokenContract = _erc677TokenContract;\n    }\n\n    // =============================================== Getters ========================================================\n\n    /// @dev Returns reward amounts for the specified pool, the specified staking epochs,\n    /// and the specified staker address (delegator or validator).\n    /// @param _stakingEpochs The list of staking epochs in ascending order.\n    /// If the list is empty, it is taken with `BlockRewardAuRa.epochsPoolGotRewardFor` getter.\n    /// @param _poolStakingAddress The staking address of the pool for which the amounts need to be returned.\n    /// @param _staker The staker address (validator's staking address or delegator's address).\n    function getRewardAmount(\n        uint256[] memory _stakingEpochs,\n        address _poolStakingAddress,\n        address _staker\n    ) public view returns(uint256 tokenRewardSum, uint256 nativeRewardSum) {\n        uint256 firstEpoch;\n        uint256 lastEpoch;\n\n        if (_poolStakingAddress != _staker) { // this is a delegator\n            firstEpoch = stakeFirstEpoch[_poolStakingAddress][_staker];\n            require(firstEpoch != 0);\n            lastEpoch = stakeLastEpoch[_poolStakingAddress][_staker];\n        }\n\n        IBlockRewardAuRaTokens blockRewardContract = IBlockRewardAuRaTokens(validatorSetContract.blockRewardContract());\n        address miningAddress = validatorSetContract.miningByStakingAddress(_poolStakingAddress);\n        uint256 delegatorStake = 0;\n        tokenRewardSum = 0;\n        nativeRewardSum = 0;\n\n        if (_stakingEpochs.length == 0) {\n            _stakingEpochs = IBlockRewardAuRa(address(blockRewardContract)).epochsPoolGotRewardFor(miningAddress);\n        }\n\n        for (uint256 i = 0; i < _stakingEpochs.length; i++) {\n            uint256 epoch = _stakingEpochs[i];\n\n            require(i == 0 || epoch > _stakingEpochs[i - 1]);\n            require(epoch < stakingEpoch);\n\n            if (rewardWasTaken[_poolStakingAddress][_staker][epoch]) continue;\n\n            if (_poolStakingAddress != _staker) { // this is a delegator\n                if (epoch < firstEpoch) continue;\n                if (lastEpoch <= epoch && lastEpoch != 0) break;\n\n                delegatorStake = _getDelegatorStake(epoch, firstEpoch, delegatorStake, _poolStakingAddress, _staker);\n                firstEpoch = epoch + 1;\n\n                (uint256 tokenAmount, uint256 nativeAmount) =\n                    blockRewardContract.getDelegatorReward(delegatorStake, epoch, miningAddress);\n                tokenRewardSum += tokenAmount;\n                nativeRewardSum += nativeAmount;\n            } else { // this is a validator\n                (uint256 tokenAmount, uint256 nativeAmount) =\n                    blockRewardContract.getValidatorReward(epoch, miningAddress);\n                tokenRewardSum += tokenAmount;\n                nativeRewardSum += nativeAmount;\n            }\n        }\n    }\n\n    // ============================================== Internal ========================================================\n\n    /// @dev Sends tokens from this contract to the specified address.\n    /// @param _to The target address to send amount to.\n    /// @param _amount The amount to send.\n    function _sendWithdrawnStakeAmount(address payable _to, uint256 _amount) internal {\n        require(erc677TokenContract != IERC677Minting(0));\n        erc677TokenContract.transfer(_to, _amount);\n    }\n\n    /// @dev The internal function used by the `stake` and `addPool` functions.\n    /// See the `stake` public function for more details.\n    /// @param _toPoolStakingAddress The staking address of the pool where the tokens should be staked.\n    /// @param _amount The amount of tokens to be staked.\n    function _stake(address _toPoolStakingAddress, uint256 _amount) internal gasPriceIsValid onlyInitialized {\n        address staker = msg.sender;\n        _stake(_toPoolStakingAddress, staker, _amount);\n        require(msg.value == 0);\n        require(erc677TokenContract != IERC677Minting(0));\n        erc677TokenContract.stake(staker, _amount);\n        emit PlacedStake(_toPoolStakingAddress, staker, stakingEpoch, _amount);\n    }\n}\n",
  "sourcePath": "/home/jack/prog/blkchn/velas/posdao-test-setup/posdao-contracts/contracts/base/StakingAuRaTokens.sol",
  "compiler": {
    "name": "solc",
    "version": "0.5.10+commit.5a6ea5b1.Emscripten.clang"
  },
  "schemaVersion": "3.0.17",
  "updatedAt": "2020-03-10T10:00:07.748Z",
  "devdoc": {
    "details": "Implements staking and withdrawal logic.",
    "methods": {
      "addPool(uint256,address)": {
        "details": "Adds a new candidate's pool to the list of active pools (see the `getPools` getter) and moves the specified amount of staking tokens/coins from the candidate's staking address to the candidate's pool. A participant calls this function using their staking address when they want to create a pool. This is a wrapper for the `stake` function.",
        "params": {
          "_amount": "The amount of tokens to be staked. Ignored when staking in native coins because `msg.value` is used in that case.",
          "_miningAddress": "The mining address of the candidate. The mining address is bound to the staking address (msg.sender). This address cannot be equal to `msg.sender`."
        }
      },
      "areStakeAndWithdrawAllowed()": {
        "details": "Determines whether staking/withdrawal operations are allowed at the moment. Used by all staking/withdrawal functions."
      },
      "claimOrderedWithdraw(address)": {
        "details": "Withdraws the staking tokens/coins from the specified pool ordered during the previous staking epochs with the `orderWithdraw` function. The ordered amount can be retrieved by the `orderedWithdrawAmount` getter.",
        "params": {
          "_poolStakingAddress": "The staking address of the pool from which the ordered tokens/coins are withdrawn."
        }
      },
      "claimReward(uint256[],address)": {
        "details": "Withdraws a reward from the specified pool for the specified staking epochs to the staker address (msg.sender).",
        "params": {
          "_poolStakingAddress": "The staking address of the pool from which the reward needs to be withdrawn.",
          "_stakingEpochs": "The list of staking epochs in ascending order. If the list is empty, it is taken with `BlockRewardAuRa.epochsPoolGotRewardFor` getter."
        }
      },
      "clearUnremovableValidator(address)": {
        "details": "Adds the `unremovable validator` to either the `poolsToBeElected` or the `poolsToBeRemoved` array depending on their own stake in their own pool when they become removable. This allows the `ValidatorSetAuRa.newValidatorSet` function to recognize the unremovable validator as a regular removable pool. Called by the `ValidatorSet.clearUnremovableValidator` function.",
        "params": {
          "_unremovableStakingAddress": "The staking address of the unremovable validator."
        }
      },
      "getPools()": {
        "details": "Returns an array of the current active pools (the staking addresses of candidates and validators). The size of the array cannot exceed MAX_CANDIDATES. A pool can be added to this array with the `_addPoolActive` internal function which is called by the `stake` or `orderWithdraw` function. A pool is considered active if its address has at least the minimum stake and this stake is not ordered to be withdrawn."
      },
      "getPoolsInactive()": {
        "details": "Returns an array of the current inactive pools (the staking addresses of former candidates). A pool can be added to this array with the `_addPoolInactive` internal function which is called by `_removePool`. A pool is considered inactive if it is banned for some reason, if its address has zero stake, or if its entire stake is ordered to be withdrawn."
      },
      "getPoolsLikelihood()": {
        "details": "Returns the array of stake amounts for each corresponding address in the `poolsToBeElected` array (see the `getPoolsToBeElected` getter) and a sum of these amounts. Used by the `ValidatorSetAuRa.newValidatorSet` function when randomly selecting new validators at the last block of a staking epoch. An array value is updated every time any staked amount is changed in this pool (see the `_setLikelihood` internal function).",
        "return": "`uint256[] likelihoods` - The array of the coefficients. The array length is always equal to the length of the `poolsToBeElected` array. `uint256 sum` - The total sum of the amounts."
      },
      "getPoolsToBeElected()": {
        "details": "Returns the list of pools (their staking addresses) which will participate in a new validator set selection process in the `ValidatorSetAuRa.newValidatorSet` function. This is an array of pools which will be considered as candidates when forming a new validator set (at the last block of a staking epoch). This array is kept updated by the `_addPoolToBeElected` and `_deletePoolToBeElected` internal functions."
      },
      "getPoolsToBeRemoved()": {
        "details": "Returns the list of pools (their staking addresses) which will be removed by the `ValidatorSetAuRa.newValidatorSet` function from the active `pools` array (at the last block of a staking epoch). This array is kept updated by the `_addPoolToBeRemoved` and `_deletePoolToBeRemoved` internal functions. A pool is added to this array when the pool's address withdraws (or orders) all of its own staking tokens from the pool, inactivating the pool."
      },
      "getRewardAmount(uint256[],address,address)": {
        "details": "Returns reward amounts for the specified pool, the specified staking epochs, and the specified staker address (delegator or validator).",
        "params": {
          "_poolStakingAddress": "The staking address of the pool for which the amounts need to be returned.",
          "_staker": "The staker address (validator's staking address or delegator's address).",
          "_stakingEpochs": "The list of staking epochs in ascending order. If the list is empty, it is taken with `BlockRewardAuRa.epochsPoolGotRewardFor` getter."
        }
      },
      "getStakerPools(address,uint256,uint256)": {
        "details": "Returns the list of pools (staking addresses) into which the specified staker have ever staked.",
        "params": {
          "_length": "The max number of items to return.",
          "_offset": "The index in the array at which the reading should start. Ignored if the `_length` is 0.",
          "_staker": "The staker address (it can be a delegator or a pool staking address itself)."
        }
      },
      "getStakerPoolsLength(address)": {
        "details": "Returns the length of the list of pools into which the specified staker have ever staked.",
        "params": {
          "_staker": "The staker address (it can be a delegator or a pool staking address itself)."
        }
      },
      "incrementStakingEpoch()": {
        "details": "Increments the serial number of the current staking epoch. Called by the `ValidatorSetAuRa.newValidatorSet` at the last block of the finished staking epoch."
      },
      "initialize(address,address[],uint256,uint256,uint256,uint256,uint256)": {
        "details": "Initializes the network parameters. Can only be called by the constructor of the `InitializerAuRa` contract or owner.",
        "params": {
          "_candidateMinStake": "The minimum allowed amount of candidate/validator stake in Wei.",
          "_delegatorMinStake": "The minimum allowed amount of delegator stake in Wei.",
          "_initialStakingAddresses": "The array of initial validators' staking addresses.",
          "_stakeWithdrawDisallowPeriod": "The duration period (in blocks) at the end of a staking epoch during which participants cannot stake/withdraw/order/claim their staking tokens/coins (e.g., 4320 = 6 hours for 5-seconds blocks in AuRa).",
          "_stakingEpochDuration": "The duration of a staking epoch in blocks (e.g., 120954 = 1 week for 5-seconds blocks in AuRa).",
          "_stakingEpochStartBlock": "The number of the first block of initial staking epoch (must be zero if the network is starting from genesis block).",
          "_validatorSetContract": "The address of the `ValidatorSetAuRa` contract."
        }
      },
      "isInitialized()": {
        "details": "Returns a boolean flag indicating if the `initialize` function has been called."
      },
      "isPoolActive(address)": {
        "details": "Returns a flag indicating whether a specified address is in the `pools` array. See the `getPools` getter.",
        "params": {
          "_stakingAddress": "The staking address of the pool."
        }
      },
      "maxWithdrawAllowed(address,address)": {
        "details": "Returns the maximum amount which can be withdrawn from the specified pool by the specified staker at the moment. Used by the `withdraw` and `moveStake` functions.",
        "params": {
          "_poolStakingAddress": "The pool staking address from which the withdrawal will be made.",
          "_staker": "The staker address that is going to withdraw."
        }
      },
      "maxWithdrawOrderAllowed(address,address)": {
        "details": "Returns the maximum amount which can be ordered to be withdrawn from the specified pool by the specified staker at the moment. Used by the `orderWithdraw` function.",
        "params": {
          "_poolStakingAddress": "The pool staking address from which the withdrawal will be ordered.",
          "_staker": "The staker address that is going to order the withdrawal."
        }
      },
      "moveStake(address,address,uint256)": {
        "details": "Moves staking tokens/coins from one pool to another. A staker calls this function when they want to move their tokens/coins from one pool to another without withdrawing their tokens/coins.",
        "params": {
          "_amount": "The amount of staking tokens/coins to be moved. The amount cannot exceed the value returned by the `maxWithdrawAllowed` getter.",
          "_fromPoolStakingAddress": "The staking address of the source pool.",
          "_toPoolStakingAddress": "The staking address of the target pool."
        }
      },
      "onTokenTransfer(address,uint256,bytes)": {
        "details": "Prevents sending tokens directly to the `StakingAuRa` contract address by the `ERC677BridgeTokenRewardable.transferAndCall` function."
      },
      "orderWithdraw(address,int256)": {
        "details": "Orders tokens/coins withdrawal from the staking address of the specified pool to the staker's address. The requested tokens/coins can be claimed after the current staking epoch is complete using the `claimOrderedWithdraw` function.",
        "params": {
          "_amount": "The amount to be withdrawn. A positive value means the staker wants to either set or increase their withdrawal amount. A negative value means the staker wants to decrease a withdrawal amount that was previously set. The amount cannot exceed the value returned by the `maxWithdrawOrderAllowed` getter.",
          "_poolStakingAddress": "The staking address of the pool from which the amount will be withdrawn."
        }
      },
      "poolDelegators(address)": {
        "details": "Returns an array of the current active delegators of the specified pool. A delegator is considered active if they have staked into the specified pool and their stake is not ordered to be withdrawn.",
        "params": {
          "_poolStakingAddress": "The pool staking address."
        }
      },
      "poolDelegatorsInactive(address)": {
        "details": "Returns an array of the current inactive delegators of the specified pool. A delegator is considered inactive if their entire stake is ordered to be withdrawn but not yet claimed.",
        "params": {
          "_poolStakingAddress": "The pool staking address."
        }
      },
      "removeMyPool()": {
        "details": "Removes the candidate's or validator's pool from the `pools` array (a list of active pools which can be retrieved by the `getPools` getter). When a candidate or validator wants to remove their pool, they should call this function from their staking address. A validator cannot remove their pool while they are an `unremovable validator`."
      },
      "removePool(address)": {
        "details": "Removes a specified pool from the `pools` array (a list of active pools which can be retrieved by the `getPools` getter). Called by the `ValidatorSetAuRa._removeMaliciousValidator` internal function when a pool must be removed by the algorithm.",
        "params": {
          "_stakingAddress": "The staking address of the pool to be removed."
        }
      },
      "removePools()": {
        "details": "Removes pools which are in the `_poolsToBeRemoved` internal array from the `pools` array. Called by the `ValidatorSetAuRa.newValidatorSet` function when a pool must be removed by the algorithm."
      },
      "setCandidateMinStake(uint256)": {
        "details": "Sets (updates) the limit of the minimum candidate stake (CANDIDATE_MIN_STAKE). Can only be called by the `owner`.",
        "params": {
          "_minStake": "The value of a new limit in Wei."
        }
      },
      "setDelegatorMinStake(uint256)": {
        "details": "Sets (updates) the limit of the minimum delegator stake (DELEGATOR_MIN_STAKE). Can only be called by the `owner`.",
        "params": {
          "_minStake": "The value of a new limit in Wei."
        }
      },
      "setErc677TokenContract(address)": {
        "details": "Sets the address of the ERC677 staking token contract. Can only be called by the `owner`. Cannot be called if there was at least one stake in staking tokens before.",
        "params": {
          "_erc677TokenContract": "The address of the contract."
        }
      },
      "setStakingEpochStartBlock(uint256)": {
        "details": "Sets the number of the first block in the upcoming staking epoch. Called by the `ValidatorSetAuRa.newValidatorSet` function at the last block of a staking epoch.",
        "params": {
          "_blockNumber": "The number of the very first block in the upcoming staking epoch."
        }
      },
      "stake(address,uint256)": {
        "details": "Moves the specified amount of staking tokens/coins from the staker's address to the staking address of the specified pool. Actually, the amount is stored in a balance of this StakingAuRa contract. A staker calls this function when they want to make a stake into a pool.",
        "params": {
          "_amount": "The amount of tokens to be staked. Ignored when staking in native coins because `msg.value` is used instead.",
          "_toPoolStakingAddress": "The staking address of the pool where the tokens should be staked."
        }
      },
      "stakeAmountByCurrentEpoch(address,address)": {
        "details": "Returns the amount of staking tokens/coins staked into the specified pool by the specified staker during the current staking epoch (see the `stakingEpoch` getter). Used by the `stake`, `withdraw`, and `orderWithdraw` functions.",
        "params": {
          "_poolStakingAddress": "The pool staking address.",
          "_staker": "The staker's address."
        }
      },
      "stakingEpochEndBlock()": {
        "details": "Returns the number of the last block of the current staking epoch."
      },
      "withdraw(address,uint256)": {
        "details": "Moves the specified amount of staking tokens/coins from the staking address of the specified pool to the staker's address. A staker calls this function when they want to withdraw their tokens/coins.",
        "params": {
          "_amount": "The amount of tokens/coins to be withdrawn. The amount cannot exceed the value returned by the `maxWithdrawAllowed` getter.",
          "_fromPoolStakingAddress": "The staking address of the pool from which the tokens/coins should be withdrawn."
        }
      }
    }
  },
  "userdoc": {
    "methods": {}
  }
}