{
  "contractName": "VelasDevelopment",
  "abi": [
    {
      "constant": false,
      "inputs": [
        {
          "name": "proposal",
          "type": "uint256"
        }
      ],
      "name": "vote",
      "outputs": [],
      "payable": false,
      "stateMutability": "nonpayable",
      "type": "function"
    },
    {
      "constant": false,
      "inputs": [
        {
          "name": "description",
          "type": "string"
        },
        {
          "name": "name",
          "type": "string"
        }
      ],
      "name": "addProposal",
      "outputs": [],
      "payable": true,
      "stateMutability": "payable",
      "type": "function"
    },
    {
      "constant": false,
      "inputs": [
        {
          "name": "proposal",
          "type": "uint256"
        }
      ],
      "name": "deleteProposal",
      "outputs": [],
      "payable": false,
      "stateMutability": "nonpayable",
      "type": "function"
    },
    {
      "constant": true,
      "inputs": [],
      "name": "getProposalsCount",
      "outputs": [
        {
          "name": "",
          "type": "uint256"
        }
      ],
      "payable": false,
      "stateMutability": "view",
      "type": "function"
    },
    {
      "constant": true,
      "inputs": [
        {
          "name": "proposal",
          "type": "uint256"
        },
        {
          "name": "sender",
          "type": "address"
        }
      ],
      "name": "getProposalByIndex",
      "outputs": [
        {
          "name": "",
          "type": "string"
        },
        {
          "name": "",
          "type": "string"
        },
        {
          "name": "",
          "type": "uint256"
        },
        {
          "name": "",
          "type": "uint256"
        },
        {
          "name": "",
          "type": "uint256"
        },
        {
          "name": "",
          "type": "bool"
        }
      ],
      "payable": false,
      "stateMutability": "view",
      "type": "function"
    },
    {
      "constant": false,
      "inputs": [
        {
          "name": "proposal",
          "type": "uint256"
        },
        {
          "name": "progress",
          "type": "uint256"
        }
      ],
      "name": "setProgress",
      "outputs": [],
      "payable": false,
      "stateMutability": "nonpayable",
      "type": "function"
    },
    {
      "constant": true,
      "inputs": [],
      "name": "stakingContract",
      "outputs": [
        {
          "name": "",
          "type": "address"
        }
      ],
      "payable": false,
      "stateMutability": "view",
      "type": "function"
    },
    {
      "inputs": [
        {
          "name": "_stakingContract",
          "type": "address"
        }
      ],
      "payable": false,
      "stateMutability": "nonpayable",
      "type": "constructor"
    }
  ],
  "bytecode": "0x60806040523480156200001157600080fd5b506040516200114338038062001143833981016040819052620000349162000084565b62000048816001600160e01b036200004f16565b50620000d9565b600080546001600160a01b0319166001600160a01b0392909216919091179055565b80516200007e81620000bf565b92915050565b6000602082840312156200009757600080fd5b6000620000a5848462000071565b949350505050565b60006001600160a01b0382166200007e565b620000ca81620000ad565b8114620000d657600080fd5b50565b61105a80620000e96000396000f3fe60806040526004361061009c5760003560e01c806339557d3d1161006457806339557d3d1461016d578063a3ec138d14610182578063af8255ab146101a2578063d4ebc5ff146101c2578063eda72b2e146101e2578063ee99205c146102025761009c565b8063013cf08b146100a157806319b17896146100dc578063211602af146100fe5780632b38cd961461011357806337d1d38914610140575b600080fd5b3480156100ad57600080fd5b506100c16100bc366004610c02565b610224565b6040516100d396959493929190610e8a565b60405180910390f35b3480156100e857600080fd5b506100f1610394565b6040516100d39190610e6e565b61011161010c366004610c20565b6103a6565b005b34801561011f57600080fd5b5061013361012e366004610c02565b610490565b6040516100d39190610f00565b34801561014c57600080fd5b5061016061015b366004610c02565b6104a2565b6040516100d39190610e5d565b34801561017957600080fd5b506101336106a9565b34801561018e57600080fd5b5061013361019d366004610bdc565b6106af565b3480156101ae57600080fd5b506101116101bd366004610cba565b6106c1565b3480156101ce57600080fd5b506101116101dd366004610c02565b610750565b3480156101ee57600080fd5b506101116101fd366004610c02565b610818565b34801561020e57600080fd5b506102176108d7565b6040516100d39190610e7c565b6002818154811061023157fe5b60009182526020918290206006919091020180546040805160026001841615610100026000190190931692909204601f8101859004850283018501909152808252919350918391908301828280156102ca5780601f1061029f576101008083540402835291602001916102ca565b820191906000526020600020905b8154815290600101906020018083116102ad57829003601f168201915b505050505090806001018054600181600116156101000203166002900480601f0160208091040260200160405190810160405280929190818152602001828054600181600116156101000203166002900480156103685780601f1061033d57610100808354040283529160200191610368565b820191906000526020600020905b81548152906001019060200180831161034b57829003601f168201915b50505050600283015460038401546004850154600590950154939491939092506001600160a01b031686565b6000546001600160a01b031615155b90565b670de0b6b3a76400003410156103bb57600080fd5b6103c3610a63565b8381526020808201849052608082018390523360a08301526002805460018101808355600092909252835180519293859360069093027f405787fa12a823e0f2b7631cc41b3ba8828b3321ca811111fa75cd3aa3bb5ace01926104299284920190610aa2565b5060208281015180516104429260018501920190610aa2565b5060408201516002820155606082015160038201556080820151600482015560a090910151600590910180546001600160a01b0319166001600160a01b039092169190911790555050505050565b60036020526000908152604090205481565b6104aa610b20565b6104b2610a63565b600283815481106104bf57fe5b600091825260209182902060408051600693909302909101805460026001821615610100026000190190911604601f8101859004909402830160e090810190925260c08301848152929390928492909184918401828280156105625780601f1061053757610100808354040283529160200191610562565b820191906000526020600020905b81548152906001019060200180831161054557829003601f168201915b50505050508152602001600182018054600181600116156101000203166002900480601f0160208091040260200160405190810160405280929190818152602001828054600181600116156101000203166002900480156106045780601f106105d957610100808354040283529160200191610604565b820191906000526020600020905b8154815290600101906020018083116105e757829003601f168201915b5050509183525050600282015460208201526003820154604082015260048201546060808301919091526005909201546001600160a01b031660809182015282015191925090610653906108e6565b9050606061066483604001516108e6565b9050606061067584606001516108e6565b6040805160a0810182528651815260209687015196810196909652850193909352506060830152608082015290505b919050565b60025490565b60016020526000908152604090205481565b80600283815481106106cf57fe5b906000526020600020906006020160040154106106eb57600080fd5b336001600160a01b03166002838154811061070257fe5b60009182526020909120600560069092020101546001600160a01b03161461072957600080fd5b806002838154811061073757fe5b9060005260206000209060060201600401819055505050565b33600081815260016020526040902090610769906109a7565b80546107905760405162461bcd60e51b815260040161078790610ef0565b60405180910390fd5b600033836040516020016107a5929190610e29565b60408051601f19818403018152918152815160209283012060008181526003909352912054909150156107d757600080fd5b600081815260036020526040902060019055815460028054859081106107f957fe5b6000918252602090912060026006909202010180549091019055505050565b33600081815260016020526040902090610831906109a7565b805461084f5760405162461bcd60e51b815260040161078790610ef0565b60003383604051602001610864929190610e29565b60408051601f198184030181529181528151602092830120600081815260039093529120549091501561089657600080fd5b600081815260036020526040902060019055815460028054859081106108b857fe5b6000918252602090912060036006909202010180549091019055505050565b6000546001600160a01b031681565b60608161090b57506040805180820190915260018152600360fc1b60208201526106a4565b8160005b811561092357600101600a8204915061090f565b6060816040519080825280601f01601f191660200182016040528015610950576020820181803883390190505b50905060001982015b851561099e57600a860660300160f81b8282806001900393508151811061097c57fe5b60200101906001600160f81b031916908160001a905350600a86049550610959565b50949350505050565b6109af610394565b6109b857600080fd5b6001600160a01b03811660009081526001602052604090208054156109dd5750610a60565b600054604051632933f0eb60e11b81526001600160a01b0390911690635267e1d690610a0d908590600401610e4f565b60206040518083038186803b158015610a2557600080fd5b505afa158015610a39573d6000803e3d6000fd5b505050506040513d601f19601f82011682018060405250610a5d9190810190610c9c565b90555b50565b6040518060c00160405280606081526020016060815260200160008152602001600081526020016000815260200160006001600160a01b031681525090565b828054600181600116156101000203166002900490600052602060002090601f016020900481019282601f10610ae357805160ff1916838001178555610b10565b82800160010185558215610b10579182015b82811115610b10578251825591602001919060010190610af5565b50610b1c929150610b47565b5090565b6040518060a001604052806005905b6060815260200190600190039081610b2f5790505090565b6103a391905b80821115610b1c5760008155600101610b4d565b8035610b6c81610ffa565b92915050565b8035610b6c8161100e565b600082601f830112610b8e57600080fd5b8135610ba1610b9c82610f35565b610f0e565b91508082526020830160208301858383011115610bbd57600080fd5b610bc8838284610f9d565b50505092915050565b8051610b6c8161100e565b600060208284031215610bee57600080fd5b6000610bfa8484610b61565b949350505050565b600060208284031215610c1457600080fd5b6000610bfa8484610b72565b600080600060608486031215610c3557600080fd5b833567ffffffffffffffff811115610c4c57600080fd5b610c5886828701610b7d565b935050602084013567ffffffffffffffff811115610c7557600080fd5b610c8186828701610b7d565b9250506040610c9286828701610b72565b9150509250925092565b600060208284031215610cae57600080fd5b6000610bfa8484610bd1565b60008060408385031215610ccd57600080fd5b6000610cd98585610b72565b9250506020610cea85828601610b72565b9150509250929050565b6000610d008383610da7565b9392505050565b610d18610d1382610f76565b610fd9565b82525050565b610d1881610f76565b6000610d3282610f5d565b610d3c81856106a4565b935083602082028501610d4e856103a3565b8060005b85811015610d885784840389528151610d6b8582610cf4565b9450610d7683610f67565b60209a909a0199925050600101610d52565b5091979650505050505050565b610d1881610f81565b610d1881610f92565b6000610db282610f63565b610dbc8185610f6d565b9350610dcc818560208601610fa9565b610dd581610fea565b9093019392505050565b6000610dec601483610f6d565b73486173206e6f20726967687420746f20766f746560601b815260200192915050565b610d18816103a3565b610d18610e24826103a3565b6103a3565b6000610e358285610d07565b601482019150610e458284610e18565b5060200192915050565b60208101610b6c8284610d1e565b60208082528101610d008184610d27565b60208101610b6c8284610d95565b60208101610b6c8284610d9e565b60c08082528101610e9b8189610da7565b90508181036020830152610eaf8188610da7565b9050610ebe6040830187610e0f565b610ecb6060830186610e0f565b610ed86080830185610e0f565b610ee560a0830184610d1e565b979650505050505050565b60208082528101610b6c81610ddf565b60208101610b6c8284610e0f565b60405181810167ffffffffffffffff81118282101715610f2d57600080fd5b604052919050565b600067ffffffffffffffff821115610f4c57600080fd5b506020601f91909101601f19160190565b50600590565b5190565b60200190565b90815260200190565b6000610b6c82610f86565b151590565b6001600160a01b031690565b6000610b6c82610f76565b82818337506000910152565b60005b83811015610fc4578181015183820152602001610fac565b83811115610fd3576000848401525b50505050565b6000610b6c826000610b6c82610ff4565b601f01601f191690565b60601b90565b61100381610f76565b8114610a6057600080fd5b611003816103a356fea365627a7a723058202c992a0c28e0feb21a5a71dfa2bfe44d327dbb4b2d46be7bf2bb9fcf0141aaaf6c6578706572696d656e74616cf564736f6c634300050a0040",
  "source": "pragma solidity >=0.4.22 <0.7.0;\npragma experimental ABIEncoderV2;\n\n/**\n * @title Ballot\n * @dev Implements voting process along with vote delegation\n */\ncontract VelasDevelopment {\n    IStakingAuRa public stakingContract;\n\n    struct Voter {\n        uint weight;\n    }\n\n    struct Proposal {\n        string description;\n        string url;\n        uint votesUpWeight;\n        uint votesDownWeight;\n        uint progress;\n        address owner;\n    }\n\n      modifier onlyInitialized {\n        require(isStakingInitialized());\n        _;\n    }\n\n      function isStakingInitialized() public view returns(bool) {\n        return stakingContract != IStakingAuRa(0);\n    }\n\n    mapping(address => Voter) public voters;\n\n    Proposal[] public proposals;\n\n    mapping(bytes32 => uint) public votes;\n\n    constructor(address _stakingContract) public {\n        setStakingAuraAddress(_stakingContract);\n    }\n\n    function setStakingAuraAddress(address _stakingContract) internal {\n        stakingContract = IStakingAuRa(_stakingContract);\n    }\n\n\n    function updateWeight(address voter_address) internal onlyInitialized {\n        Voter storage voter = voters[voter_address];\n        if(voter.weight > 0) return;\n\n        voter.weight = stakingContract.stakeAmountTotal(voter_address);\n    }\n\n    function voteUp(uint proposal) public {\n\n        Voter storage sender = voters[msg.sender];\n        updateWeight(msg.sender);\n        require(sender.weight != 0, \"Has no right to vote\");\n        bytes32 hash = keccak256(abi.encodePacked(msg.sender, proposal));\n        require(votes[hash] == 0);\n        votes[hash] = 1;\n        proposals[proposal].votesUpWeight += sender.weight;\n    }\n\n    function voteDown(uint proposal) public {\n        Voter storage sender = voters[msg.sender];\n        updateWeight(msg.sender);\n        require(sender.weight != 0, \"Has no right to vote\");\n        bytes32 hash = keccak256(abi.encodePacked(msg.sender, proposal));\n        require(votes[hash] == 0);\n        votes[hash] = 1;\n        proposals[proposal].votesDownWeight += sender.weight;\n    }\n\n    function addProposal(string memory description, string memory url, uint progress) payable public {\n        //spam protection\n        require(msg.value >= 1 ether);\n        Proposal memory proposal;\n        proposal.description = description;\n        proposal.url = url;\n        proposal.progress = progress;\n        proposal.owner = msg.sender;\n        proposals.push(proposal);\n    }\n\n    function proposalLength() view public returns(uint) {\n        return proposals.length;\n    }\n\n    function uint2str(uint _i) internal pure returns (string memory _uintAsString) {\n            if (_i == 0) {\n                return \"0\";\n            }\n            uint j = _i;\n            uint len;\n            while (j != 0) {\n                len++;\n                j /= 10;\n            }\n            bytes memory bstr = new bytes(len);\n            uint k = len - 1;\n            while (_i != 0) {\n                bstr[k--] = byte(uint8(48 + _i % 10));\n                _i /= 10;\n            }\n            return string(bstr);\n    }\n\n    function getProposalByIndex(uint proposal) view public returns(string[5] memory) {\n        Proposal memory p = proposals[proposal];\n\n        string memory progress = uint2str(p.progress);\n        string memory votesUpWeight = uint2str(p.votesUpWeight);\n        string memory votesDownWeight = uint2str(p.votesDownWeight);\n\n        return [p.description, p.url, progress, votesUpWeight, votesDownWeight];\n    }\n\n    function updateProgress(uint proposal, uint progress) public {\n        require(proposals[proposal].progress < progress);\n        require(proposals[proposal].owner == msg.sender);\n        proposals[proposal].progress = progress;\n    }\n}\n\ninterface IStakingAuRa {\n  function stakeAmountTotal(address) external view returns(uint256);\n}\n",
  "sourcePath": "/Users/base/go/src/github.com/velas/velas-smarts/posdao-contracts/contracts/VelasDevelopment.sol",
  "compiler": {
    "name": "solc",
    "version": "0.5.10+commit.5a6ea5b1.Emscripten.clang"
  },
  "schemaVersion": "3.0.17",
  "updatedAt": "2020-07-17T14:00:48.966Z",
  "devdoc": {
    "details": "Implements voting process along with vote delegation",
    "methods": {},
    "title": "Ballot"
  },
  "userdoc": {
    "methods": {}
  }
}