{
  "contractName": "BlockRewardAuRaTokens",
  "abi": [
    {
      "constant": true,
      "inputs": [
        {
          "name": "",
          "type": "uint256"
        },
        {
          "name": "",
          "type": "address"
        }
      ],
      "name": "snapshotPoolValidatorStakeAmount",
      "outputs": [
        {
          "name": "",
          "type": "uint256"
        }
      ],
      "payable": false,
      "stateMutability": "view",
      "type": "function"
    },
    {
      "constant": false,
      "inputs": [
        {
          "name": "_bridgesAllowed",
          "type": "address[]"
        }
      ],
      "name": "setErcToNativeBridgesAllowed",
      "outputs": [],
      "payable": false,
      "stateMutability": "nonpayable",
      "type": "function"
    },
    {
      "constant": false,
      "inputs": [
        {
          "name": "_amount",
          "type": "uint256"
        }
      ],
      "name": "addBridgeNativeRewardReceivers",
      "outputs": [],
      "payable": false,
      "stateMutability": "nonpayable",
      "type": "function"
    },
    {
      "constant": true,
      "inputs": [],
      "name": "blockRewardContractId",
      "outputs": [
        {
          "name": "",
          "type": "bytes4"
        }
      ],
      "payable": false,
      "stateMutability": "pure",
      "type": "function"
    },
    {
      "constant": true,
      "inputs": [
        {
          "name": "",
          "type": "address"
        },
        {
          "name": "",
          "type": "uint256"
        }
      ],
      "name": "mintedForAccountInBlock",
      "outputs": [
        {
          "name": "",
          "type": "uint256"
        }
      ],
      "payable": false,
      "stateMutability": "view",
      "type": "function"
    },
    {
      "constant": true,
      "inputs": [
        {
          "name": "",
          "type": "uint256"
        },
        {
          "name": "",
          "type": "address"
        }
      ],
      "name": "epochPoolNativeReward",
      "outputs": [
        {
          "name": "",
          "type": "uint256"
        }
      ],
      "payable": false,
      "stateMutability": "view",
      "type": "function"
    },
    {
      "constant": true,
      "inputs": [],
      "name": "isInitialized",
      "outputs": [
        {
          "name": "",
          "type": "bool"
        }
      ],
      "payable": false,
      "stateMutability": "view",
      "type": "function"
    },
    {
      "constant": true,
      "inputs": [
        {
          "name": "",
          "type": "address"
        }
      ],
      "name": "mintedForAccount",
      "outputs": [
        {
          "name": "",
          "type": "uint256"
        }
      ],
      "payable": false,
      "stateMutability": "view",
      "type": "function"
    },
    {
      "constant": true,
      "inputs": [],
      "name": "ercToNativeBridgesAllowed",
      "outputs": [
        {
          "name": "",
          "type": "address[]"
        }
      ],
      "payable": false,
      "stateMutability": "view",
      "type": "function"
    },
    {
      "constant": true,
      "inputs": [
        {
          "name": "",
          "type": "uint256"
        }
      ],
      "name": "mintedInBlock",
      "outputs": [
        {
          "name": "",
          "type": "uint256"
        }
      ],
      "payable": false,
      "stateMutability": "view",
      "type": "function"
    },
    {
      "constant": true,
      "inputs": [],
      "name": "STAKE_TOKEN_INFLATION_RATE",
      "outputs": [
        {
          "name": "",
          "type": "uint256"
        }
      ],
      "payable": false,
      "stateMutability": "view",
      "type": "function"
    },
    {
      "constant": true,
      "inputs": [
        {
          "name": "_poolStakingAddress",
          "type": "address"
        },
        {
          "name": "_staker",
          "type": "address"
        }
      ],
      "name": "epochsToClaimRewardFrom",
      "outputs": [
        {
          "name": "epochsToClaimFrom",
          "type": "uint256[]"
        }
      ],
      "payable": false,
      "stateMutability": "view",
      "type": "function"
    },
    {
      "constant": true,
      "inputs": [
        {
          "name": "_stakingAddress",
          "type": "address"
        }
      ],
      "name": "validatorRewardPercent",
      "outputs": [
        {
          "name": "",
          "type": "uint256"
        }
      ],
      "payable": false,
      "stateMutability": "view",
      "type": "function"
    },
    {
      "constant": true,
      "inputs": [],
      "name": "mintedTotally",
      "outputs": [
        {
          "name": "",
          "type": "uint256"
        }
      ],
      "payable": false,
      "stateMutability": "view",
      "type": "function"
    },
    {
      "constant": true,
      "inputs": [
        {
          "name": "_stakingEpoch",
          "type": "uint256"
        },
        {
          "name": "_delegatorStaked",
          "type": "uint256"
        },
        {
          "name": "_validatorStaked",
          "type": "uint256"
        },
        {
          "name": "_totalStaked",
          "type": "uint256"
        },
        {
          "name": "_poolReward",
          "type": "uint256"
        }
      ],
      "name": "delegatorShare",
      "outputs": [
        {
          "name": "",
          "type": "uint256"
        }
      ],
      "payable": false,
      "stateMutability": "view",
      "type": "function"
    },
    {
      "constant": true,
      "inputs": [],
      "name": "tokenRewardUndistributed",
      "outputs": [
        {
          "name": "",
          "type": "uint256"
        }
      ],
      "payable": false,
      "stateMutability": "view",
      "type": "function"
    },
    {
      "constant": true,
      "inputs": [
        {
          "name": "",
          "type": "uint256"
        },
        {
          "name": "",
          "type": "address"
        }
      ],
      "name": "snapshotPoolTotalStakeAmount",
      "outputs": [
        {
          "name": "",
          "type": "uint256"
        }
      ],
      "payable": false,
      "stateMutability": "view",
      "type": "function"
    },
    {
      "constant": true,
      "inputs": [
        {
          "name": "_stakingEpoch",
          "type": "uint256"
        },
        {
          "name": "_validatorStaked",
          "type": "uint256"
        },
        {
          "name": "_totalStaked",
          "type": "uint256"
        },
        {
          "name": "_poolReward",
          "type": "uint256"
        }
      ],
      "name": "validatorShare",
      "outputs": [
        {
          "name": "",
          "type": "uint256"
        }
      ],
      "payable": false,
      "stateMutability": "view",
      "type": "function"
    },
    {
      "constant": true,
      "inputs": [
        {
          "name": "",
          "type": "address"
        },
        {
          "name": "",
          "type": "uint256"
        },
        {
          "name": "",
          "type": "bytes"
        }
      ],
      "name": "onTokenTransfer",
      "outputs": [
        {
          "name": "",
          "type": "bool"
        }
      ],
      "payable": false,
      "stateMutability": "pure",
      "type": "function"
    },
    {
      "constant": true,
      "inputs": [],
      "name": "extraReceiversQueueSize",
      "outputs": [
        {
          "name": "",
          "type": "uint256"
        }
      ],
      "payable": false,
      "stateMutability": "view",
      "type": "function"
    },
    {
      "constant": false,
      "inputs": [
        {
          "name": "_amount",
          "type": "uint256"
        },
        {
          "name": "_receiver",
          "type": "address"
        }
      ],
      "name": "addExtraReceiver",
      "outputs": [],
      "payable": false,
      "stateMutability": "nonpayable",
      "type": "function"
    },
    {
      "constant": true,
      "inputs": [],
      "name": "bridgeNativeReward",
      "outputs": [
        {
          "name": "",
          "type": "uint256"
        }
      ],
      "payable": false,
      "stateMutability": "view",
      "type": "function"
    },
    {
      "constant": true,
      "inputs": [],
      "name": "nativeRewardUndistributed",
      "outputs": [
        {
          "name": "",
          "type": "uint256"
        }
      ],
      "payable": false,
      "stateMutability": "view",
      "type": "function"
    },
    {
      "constant": true,
      "inputs": [
        {
          "name": "",
          "type": "address"
        }
      ],
      "name": "mintedTotallyByBridge",
      "outputs": [
        {
          "name": "",
          "type": "uint256"
        }
      ],
      "payable": false,
      "stateMutability": "view",
      "type": "function"
    },
    {
      "constant": true,
      "inputs": [
        {
          "name": "",
          "type": "uint256"
        },
        {
          "name": "",
          "type": "address"
        }
      ],
      "name": "epochPoolTokenReward",
      "outputs": [
        {
          "name": "",
          "type": "uint256"
        }
      ],
      "payable": false,
      "stateMutability": "view",
      "type": "function"
    },
    {
      "constant": false,
      "inputs": [
        {
          "name": "_validatorSet",
          "type": "address"
        }
      ],
      "name": "initialize",
      "outputs": [],
      "payable": false,
      "stateMutability": "nonpayable",
      "type": "function"
    },
    {
      "constant": false,
      "inputs": [],
      "name": "clearBlocksCreated",
      "outputs": [],
      "payable": false,
      "stateMutability": "nonpayable",
      "type": "function"
    },
    {
      "constant": true,
      "inputs": [
        {
          "name": "",
          "type": "uint256"
        }
      ],
      "name": "validatorMinRewardPercent",
      "outputs": [
        {
          "name": "",
          "type": "uint256"
        }
      ],
      "payable": false,
      "stateMutability": "view",
      "type": "function"
    },
    {
      "constant": true,
      "inputs": [
        {
          "name": "_miningAddress",
          "type": "address"
        }
      ],
      "name": "epochsPoolGotRewardFor",
      "outputs": [
        {
          "name": "",
          "type": "uint256[]"
        }
      ],
      "payable": false,
      "stateMutability": "view",
      "type": "function"
    },
    {
      "constant": true,
      "inputs": [],
      "name": "validatorSetContract",
      "outputs": [
        {
          "name": "",
          "type": "address"
        }
      ],
      "payable": false,
      "stateMutability": "view",
      "type": "function"
    },
    {
      "constant": true,
      "inputs": [
        {
          "name": "",
          "type": "uint256"
        },
        {
          "name": "",
          "type": "address"
        }
      ],
      "name": "blocksCreated",
      "outputs": [
        {
          "name": "",
          "type": "uint256"
        }
      ],
      "payable": false,
      "stateMutability": "view",
      "type": "function"
    },
    {
      "constant": false,
      "inputs": [
        {
          "name": "benefactors",
          "type": "address[]"
        },
        {
          "name": "kind",
          "type": "uint16[]"
        }
      ],
      "name": "reward",
      "outputs": [
        {
          "name": "receiversNative",
          "type": "address[]"
        },
        {
          "name": "rewardsNative",
          "type": "uint256[]"
        }
      ],
      "payable": false,
      "stateMutability": "nonpayable",
      "type": "function"
    },
    {
      "constant": true,
      "inputs": [],
      "name": "bridgeTokenReward",
      "outputs": [
        {
          "name": "",
          "type": "uint256"
        }
      ],
      "payable": false,
      "stateMutability": "view",
      "type": "function"
    },
    {
      "constant": false,
      "inputs": [
        {
          "name": "_bridge",
          "type": "address"
        },
        {
          "name": "_prevBlockRewardContract",
          "type": "address"
        }
      ],
      "name": "migrateMintingStatistics",
      "outputs": [],
      "payable": false,
      "stateMutability": "nonpayable",
      "type": "function"
    },
    {
      "payable": true,
      "stateMutability": "payable",
      "type": "fallback"
    },
    {
      "anonymous": false,
      "inputs": [
        {
          "indexed": false,
          "name": "amount",
          "type": "uint256"
        },
        {
          "indexed": false,
          "name": "cumulativeAmount",
          "type": "uint256"
        },
        {
          "indexed": true,
          "name": "bridge",
          "type": "address"
        }
      ],
      "name": "BridgeTokenRewardAdded",
      "type": "event"
    },
    {
      "anonymous": false,
      "inputs": [
        {
          "indexed": false,
          "name": "amount",
          "type": "uint256"
        },
        {
          "indexed": true,
          "name": "receiver",
          "type": "address"
        },
        {
          "indexed": true,
          "name": "bridge",
          "type": "address"
        }
      ],
      "name": "AddedReceiver",
      "type": "event"
    },
    {
      "anonymous": false,
      "inputs": [
        {
          "indexed": false,
          "name": "amount",
          "type": "uint256"
        },
        {
          "indexed": false,
          "name": "cumulativeAmount",
          "type": "uint256"
        },
        {
          "indexed": true,
          "name": "bridge",
          "type": "address"
        }
      ],
      "name": "BridgeNativeRewardAdded",
      "type": "event"
    },
    {
      "anonymous": false,
      "inputs": [
        {
          "indexed": false,
          "name": "receivers",
          "type": "address[]"
        },
        {
          "indexed": false,
          "name": "rewards",
          "type": "uint256[]"
        }
      ],
      "name": "MintedNative",
      "type": "event"
    },
    {
      "constant": false,
      "inputs": [
        {
          "name": "_amount",
          "type": "uint256"
        }
      ],
      "name": "addBridgeTokenRewardReceivers",
      "outputs": [],
      "payable": false,
      "stateMutability": "nonpayable",
      "type": "function"
    },
    {
      "constant": false,
      "inputs": [
        {
          "name": "_bridgesAllowed",
          "type": "address[]"
        }
      ],
      "name": "setErcToErcBridgesAllowed",
      "outputs": [],
      "payable": false,
      "stateMutability": "nonpayable",
      "type": "function"
    },
    {
      "constant": false,
      "inputs": [
        {
          "name": "_bridgesAllowed",
          "type": "address[]"
        }
      ],
      "name": "setNativeToErcBridgesAllowed",
      "outputs": [],
      "payable": false,
      "stateMutability": "nonpayable",
      "type": "function"
    },
    {
      "constant": false,
      "inputs": [
        {
          "name": "_tokens",
          "type": "uint256"
        },
        {
          "name": "_nativeCoins",
          "type": "uint256"
        },
        {
          "name": "_to",
          "type": "address"
        }
      ],
      "name": "transferReward",
      "outputs": [],
      "payable": false,
      "stateMutability": "nonpayable",
      "type": "function"
    },
    {
      "constant": true,
      "inputs": [],
      "name": "ercToErcBridgesAllowed",
      "outputs": [
        {
          "name": "",
          "type": "address[]"
        }
      ],
      "payable": false,
      "stateMutability": "view",
      "type": "function"
    },
    {
      "constant": true,
      "inputs": [
        {
          "name": "_delegatorStake",
          "type": "uint256"
        },
        {
          "name": "_stakingEpoch",
          "type": "uint256"
        },
        {
          "name": "_poolMiningAddress",
          "type": "address"
        }
      ],
      "name": "getDelegatorReward",
      "outputs": [
        {
          "name": "tokenReward",
          "type": "uint256"
        },
        {
          "name": "nativeReward",
          "type": "uint256"
        }
      ],
      "payable": false,
      "stateMutability": "view",
      "type": "function"
    },
    {
      "constant": true,
      "inputs": [
        {
          "name": "_stakingEpoch",
          "type": "uint256"
        },
        {
          "name": "_poolMiningAddress",
          "type": "address"
        }
      ],
      "name": "getValidatorReward",
      "outputs": [
        {
          "name": "tokenReward",
          "type": "uint256"
        },
        {
          "name": "nativeReward",
          "type": "uint256"
        }
      ],
      "payable": false,
      "stateMutability": "view",
      "type": "function"
    },
    {
      "constant": true,
      "inputs": [],
      "name": "nativeToErcBridgesAllowed",
      "outputs": [
        {
          "name": "",
          "type": "address[]"
        }
      ],
      "payable": false,
      "stateMutability": "view",
      "type": "function"
    }
  ],
  "bytecode": "0x608060405234801561001057600080fd5b50614036806100206000396000f3fe6080604052600436106102515760003560e01c80638c43986711610139578063ba2d7597116100b6578063dfc8bf4e1161007a578063dfc8bf4e14610a65578063e1ab96d814610a96578063f7f8fd3714610ad5578063f91c289814610b0e578063faaf3aff14610c72578063fcbdbe3f14610c8757610251565b8063ba2d75971461096e578063c4d66de8146109c0578063c5dd7628146109f3578063cdf7a09014610a08578063dd03f5b914610a3257610251565b8063ac8a0942116100fd578063ac8a0942146108c3578063adc481a7146108d8578063b25a00fd146108ed578063b4a523e814610902578063b5c1e8cf1461093557610251565b80638c4398671461071f5780639a0a9fdc1461079a578063a4c0ed36146107af578063a9add57d14610875578063aa9fa2741461088a57610251565b80634b6368cf116101d2578063621784781161019657806362178478146105b15780636834fc90146105db57806368c49f3d1461065657806370cafd651461066b578063728345db146106aa5780638737929a146106e357610251565b80634b6368cf146104d75780634de6c036146104ec578063527d8bc414610527578063553a5c851461055a5780635fba554e1461056f57610251565b806333d699211161021957806333d69921146103b3578063392e53cd146103ec5780633d84b8c114610415578063419ce264146104485780634476d66a146104ad57610251565b80631345b8a514610256578063171d54dd146102a1578063222fafb21461031e5780632ee57f8d1461034857806330f6eb161461037a575b600080fd5b34801561026257600080fd5b5061028f6004803603604081101561027957600080fd5b50803590602001356001600160a01b0316610cc2565b60408051918252519081900360200190f35b3480156102ad57600080fd5b5061031c600480360360208110156102c457600080fd5b810190602081018135600160201b8111156102de57600080fd5b8201836020820111156102f057600080fd5b803590602001918460208302840111600160201b8311171561031157600080fd5b509092509050610cdf565b005b34801561032a57600080fd5b5061031c6004803603602081101561034157600080fd5b5035610dda565b34801561035457600080fd5b5061035d610e57565b604080516001600160e01b03199092168252519081900360200190f35b34801561038657600080fd5b5061028f6004803603604081101561039d57600080fd5b506001600160a01b038135169060200135610e63565b3480156103bf57600080fd5b5061028f600480360360408110156103d657600080fd5b50803590602001356001600160a01b0316610e80565b3480156103f857600080fd5b50610401610e9d565b604080519115158252519081900360200190f35b34801561042157600080fd5b5061028f6004803603602081101561043857600080fd5b50356001600160a01b0316610eae565b34801561045457600080fd5b5061045d610ec0565b60408051602080825283518183015283519192839290830191858101910280838360005b83811015610499578181015183820152602001610481565b505050509050019250505060405180910390f35b3480156104b957600080fd5b5061028f600480360360208110156104d057600080fd5b5035610f22565b3480156104e357600080fd5b5061028f610f34565b3480156104f857600080fd5b5061045d6004803603604081101561050f57600080fd5b506001600160a01b0381358116916020013516610f3f565b34801561053357600080fd5b5061028f6004803603602081101561054a57600080fd5b50356001600160a01b031661135f565b34801561056657600080fd5b5061028f611a0f565b34801561057b57600080fd5b5061028f600480360360a081101561059257600080fd5b5080359060208101359060408101359060608101359060800135611a15565b3480156105bd57600080fd5b5061031c600480360360208110156105d457600080fd5b5035611aa9565b3480156105e757600080fd5b5061031c600480360360208110156105fe57600080fd5b810190602081018135600160201b81111561061857600080fd5b82018360208201111561062a57600080fd5b803590602001918460208302840111600160201b8311171561064b57600080fd5b509092509050611b40565b34801561066257600080fd5b5061028f611c37565b34801561067757600080fd5b5061031c6004803603606081101561068e57600080fd5b50803590602081013590604001356001600160a01b0316611c3d565b3480156106b657600080fd5b5061028f600480360360408110156106cd57600080fd5b50803590602001356001600160a01b0316611dcc565b3480156106ef57600080fd5b5061028f6004803603608081101561070657600080fd5b5080359060208101359060408101359060600135611de9565b34801561072b57600080fd5b5061031c6004803603602081101561074257600080fd5b810190602081018135600160201b81111561075c57600080fd5b82018360208201111561076e57600080fd5b803590602001918460208302840111600160201b8311171561078f57600080fd5b509092509050611e65565b3480156107a657600080fd5b5061045d611f5c565b3480156107bb57600080fd5b50610401600480360360608110156107d257600080fd5b6001600160a01b0382351691602081013591810190606081016040820135600160201b81111561080157600080fd5b82018360208201111561081357600080fd5b803590602001918460018302840111600160201b8311171561083457600080fd5b91908080601f016020809104026020016040519081016040528093929190818152602001838380828437600092019190915250929550611fbc945050505050565b34801561088157600080fd5b5061028f611fc3565b34801561089657600080fd5b5061031c600480360360408110156108ad57600080fd5b50803590602001356001600160a01b0316611fd0565b3480156108cf57600080fd5b5061028f612054565b3480156108e457600080fd5b5061028f61205a565b3480156108f957600080fd5b5061045d612060565b34801561090e57600080fd5b5061028f6004803603602081101561092557600080fd5b50356001600160a01b03166120c0565b34801561094157600080fd5b5061028f6004803603604081101561095857600080fd5b50803590602001356001600160a01b03166120d2565b34801561097a57600080fd5b506109a76004803603604081101561099157600080fd5b50803590602001356001600160a01b03166120ef565b6040805192835260208301919091528051918290030190f35b3480156109cc57600080fd5b5061031c600480360360208110156109e357600080fd5b50356001600160a01b031661218f565b3480156109ff57600080fd5b5061031c612238565b348015610a1457600080fd5b5061028f60048036036020811015610a2b57600080fd5b5035612464565b348015610a3e57600080fd5b5061045d60048036036020811015610a5557600080fd5b50356001600160a01b0316612476565b348015610a7157600080fd5b50610a7a6124e0565b604080516001600160a01b039092168252519081900360200190f35b348015610aa257600080fd5b506109a760048036036060811015610ab957600080fd5b50803590602081013590604001356001600160a01b03166124ef565b348015610ae157600080fd5b5061028f60048036036040811015610af857600080fd5b50803590602001356001600160a01b0316612594565b348015610b1a57600080fd5b50610bd960048036036040811015610b3157600080fd5b810190602081018135600160201b811115610b4b57600080fd5b820183602082011115610b5d57600080fd5b803590602001918460208302840111600160201b83111715610b7e57600080fd5b919390929091602081019035600160201b811115610b9b57600080fd5b820183602082011115610bad57600080fd5b803590602001918460208302840111600160201b83111715610bce57600080fd5b5090925090506125af565b604051808060200180602001838103835285818151815260200191508051906020019060200280838360005b83811015610c1d578181015183820152602001610c05565b50505050905001838103825284818151815260200191508051906020019060200280838360005b83811015610c5c578181015183820152602001610c44565b5050505090500194505050505060405180910390f35b348015610c7e57600080fd5b5061028f612e7a565b348015610c9357600080fd5b5061031c60048036036040811015610caa57600080fd5b506001600160a01b0381358116916020013516612e80565b602a60209081526000928352604080842090915290825290205481565b610ce7612fd1565b6001600160a01b0316336001600160a01b031614610d0457600080fd5b610d0c610e9d565b610d1557600080fd5b60005b600254811015610d715760006001600060028481548110610d3557fe5b6000918252602080832091909101546001600160a01b031683528201929092526040019020805460ff1916911515919091179055600101610d18565b610d7d60028484613f3c565b50600090505b81811015610dd5576001806000858585818110610d9c57fe5b602090810292909201356001600160a01b0316835250810191909152604001600020805460ff1916911515919091179055600101610d83565b505050565b3360009081526001602052604090205460ff16610df657600080fd5b80610e0057600080fd5b602154610e13908263ffffffff612ff616565b6021819055604080518381526020810192909252805133927f619cc90cbd264bea3dfc113e68fd307789a937a8c10ef4b0110607ac7490367392908290030190a250565b63069ad3e560e11b5b90565b602460209081526000928352604080842090915290825290205481565b602260209081526000928352604080842090915290825290205481565b602c546001600160a01b0316151590565b60236020526000908152604090205481565b60606002805480602002602001604051908101604052809291908181526020018280548015610f1857602002820191906000526020600020905b81546001600160a01b03168152600190910190602001808311610efa575b5050505050905090565b60256020526000908152604090205481565b660a3f8adb5049d481565b602c54604080516253517560e01b81526001600160a01b0385811660048301529151606093600093169162535175916024808301926020929190829003018186803b158015610f8d57600080fd5b505afa158015610fa1573d6000803e3d6000fd5b505050506040513d6020811015610fb757600080fd5b5051602c5460408051633ba6481760e21b815290519293506000926001600160a01b039092169163ee99205c91600480820192602092909190829003018186803b15801561100457600080fd5b505afa158015611018573d6000803e3d6000fd5b505050506040513d602081101561102e57600080fd5b505190506001600160a01b0385811690851614801590600090819061116f5760408051632b2cdba160e11b81526001600160a01b038a811660048301528981166024830152915191861691635659b74291604480820192602092909190829003018186803b15801561109f57600080fd5b505afa1580156110b3573d6000803e3d6000fd5b505050506040513d60208110156110c957600080fd5b50519150816110ee575050604080516000815260208101909152935061135992505050565b6040805163bc9eb2c360e01b81526001600160a01b038a81166004830152898116602483015291519186169163bc9eb2c391604480820192602092909190829003018186803b15801561114057600080fd5b505afa158015611154573d6000803e3d6000fd5b505050506040513d602081101561116a57600080fd5b505190505b6001600160a01b0385166000908152602081815260409182902080548351818152818402810190930190935291906060908280156111b7578160200160208202803883390190505b5090506000805b838110156112e15760008582815481106111d457fe5b90600052602060002001549050881561120f57878110156111f557506112d9565b80871115801561120457508615155b1561120f57506112e1565b896001600160a01b031663317277308f8f846040518463ffffffff1660e01b815260040180846001600160a01b03166001600160a01b03168152602001836001600160a01b03166001600160a01b03168152602001828152602001935050505060206040518083038186803b15801561128757600080fd5b505afa15801561129b573d6000803e3d6000fd5b505050506040513d60208110156112b157600080fd5b50516112d757808484806001019550815181106112ca57fe5b6020026020010181815250505b505b6001016111be565b8160405190808252806020026020018201604052801561130b578160200160208202803883390190505b509a50600090505b8181101561134e5782818151811061132757fe5b60200260200101518b828151811061133b57fe5b6020908102919091010152600101611313565b505050505050505050505b92915050565b600080602c60009054906101000a90046001600160a01b03166001600160a01b031663ee99205c6040518163ffffffff1660e01b815260040160206040518083038186803b1580156113b057600080fd5b505afa1580156113c4573d6000803e3d6000fd5b505050506040513d60208110156113da57600080fd5b505160408051630f29818d60e31b815290519192506000916001600160a01b0384169163794c0c68916004808301926020929190829003018186803b15801561142257600080fd5b505afa158015611436573d6000803e3d6000fd5b505050506040513d602081101561144c57600080fd5b505190508061146057600092505050611a0a565b602c54604080516253517560e01b81526001600160a01b038781166004830152915160009392909216916253517591602480820192602092909190829003018186803b1580156114af57600080fd5b505afa1580156114c3573d6000803e3d6000fd5b505050506040513d60208110156114d957600080fd5b5051602c546040805163facd743b60e01b81526001600160a01b038085166004830152915193945091169163facd743b91602480820192602092909190829003018186803b15801561152a57600080fd5b505afa15801561153e573d6000803e3d6000fd5b505050506040513d602081101561155457600080fd5b5051156115ac576000828152602a602090815260408083206001600160a01b03851680855290835281842054868552602984528285209185529252909120546115a2918491620f4240611de9565b9350505050611a0a565b602c60009054906101000a90046001600160a01b03166001600160a01b031663b927ef436040518163ffffffff1660e01b815260040160206040518083038186803b1580156115fa57600080fd5b505afa15801561160e573d6000803e3d6000fd5b505050506040513d602081101561162457600080fd5b50516119025760606000602c60009054906101000a90046001600160a01b03166001600160a01b031663eebc7a396040518163ffffffff1660e01b815260040160006040518083038186803b15801561167c57600080fd5b505afa158015611690573d6000803e3d6000fd5b505050506040513d6000823e601f3d908101601f1916820160405260208110156116b957600080fd5b810190808051600160201b8111156116d057600080fd5b820160208101848111156116e357600080fd5b81518560208202830111600160201b821117156116ff57600080fd5b5090955060009450505050505b815181101561179d5781818151811061172157fe5b60200260200101516001600160a01b0316836001600160a01b03161415611795576000848152602a602090815260408083206001600160a01b0387168085529083528184205488855260298452828520918552925290912054611789918691620f4240611de9565b95505050505050611a0a565b60010161170c565b602c60009054906101000a90046001600160a01b03166001600160a01b0316624a88036040518163ffffffff1660e01b815260040160006040518083038186803b1580156117ea57600080fd5b505afa1580156117fe573d6000803e3d6000fd5b505050506040513d6000823e601f3d908101601f19168201604090815281101561182757600080fd5b810190808051600160201b81111561183e57600080fd5b8201602081018481111561185157600080fd5b81518560208202830111600160201b8211171561186d57600080fd5b5090955060009450505050505b81518110156118ff5781818151811061188f57fe5b60200260200101516001600160a01b0316836001600160a01b031614156118f7576000848152602a602090815260408083206001600160a01b0387168085529083528184205488855260298452828520918552925290912054611789918691620f4240611de9565b60010161187a565b50505b6040805163a697ecff60e01b81526001600160a01b038781166004830181905260248301529151611a049285929087169163a697ecff91604480820192602092909190829003018186803b15801561195957600080fd5b505afa15801561196d573d6000803e3d6000fd5b505050506040513d602081101561198357600080fd5b505160408051632933f0eb60e11b81526001600160a01b038a81166004830152915191881691635267e1d691602480820192602092909190829003018186803b1580156119cf57600080fd5b505afa1580156119e3573d6000803e3d6000fd5b505050506040513d60208110156119f957600080fd5b5051620f4240611de9565b93505050505b919050565b60265481565b6000841580611a22575083155b80611a2b575082155b15611a3857506000611aa0565b60008085851015611a4a576000611a4e565b8585035b6000898152602b6020526040902054909150808202606482900388021115611a83578588860281611a7b57fe5b049250611a9a565b81606402816064038987020281611a9657fe5b0492505b50909150505b95945050505050565b3360009081526046602052604090205460ff1680611ad657503360009081526047602052604090205460ff165b611adf57600080fd5b80611ae957600080fd5b604a54611afc908263ffffffff612ff616565b604a819055604080518381526020810192909252805133927f412edf02d82089ccd9d6158ca78bb761a19c8f63a840cff791e4ad472bcaa0ac92908290030190a250565b611b48612fd1565b6001600160a01b0316336001600160a01b031614611b6557600080fd5b611b6d610e9d565b611b7657600080fd5b60005b604954811015611bd25760006047600060498481548110611b9657fe5b6000918252602080832091909101546001600160a01b031683528201929092526040019020805460ff1916911515919091179055600101611b79565b611bde60498484613f3c565b50600090505b81811015610dd557600160476000858585818110611bfe57fe5b602090810292909201356001600160a01b0316835250810191909152604001600020805460ff1916911515919091179055600101611be4565b604c5481565b602c60009054906101000a90046001600160a01b03166001600160a01b031663ee99205c6040518163ffffffff1660e01b815260040160206040518083038186803b158015611c8b57600080fd5b505afa158015611c9f573d6000803e3d6000fd5b505050506040513d6020811015611cb557600080fd5b50516001600160a01b03163314611ccb57600080fd5b8215611dc25760003390506000816001600160a01b0316632d21d2176040518163ffffffff1660e01b815260040160206040518083038186803b158015611d1157600080fd5b505afa158015611d25573d6000803e3d6000fd5b505050506040513d6020811015611d3b57600080fd5b50516040805163a9059cbb60e01b81526001600160a01b0386811660048301526024820189905291519293509083169163a9059cbb916044808201926020929091908290030181600087803b158015611d9357600080fd5b505af1158015611da7573d6000803e3d6000fd5b505050506040513d6020811015611dbd57600080fd5b505050505b610dd5828261300f565b602960209081526000928352604080842090915290825290205481565b6000831580611df6575082155b15611e0357506000611e5d565b60008085851015611e15576000611e19565b8585035b6000888152602b6020526040902054909150808202606482900388021115611e4e578587860281611e4657fe5b049250611e57565b60648582020492505b50909150505b949350505050565b611e6d612fd1565b6001600160a01b0316336001600160a01b031614611e8a57600080fd5b611e92610e9d565b611e9b57600080fd5b60005b604854811015611ef75760006046600060488481548110611ebb57fe5b6000918252602080832091909101546001600160a01b031683528201929092526040019020805460ff1916911515919091179055600101611e9e565b611f0360488484613f3c565b50600090505b81811015610dd557600160466000858585818110611f2357fe5b602090810292909201356001600160a01b0316835250810191909152604001600020805460ff1916911515919091179055600101611f09565b60606048805480602002602001604051908101604052809291908181526020018280548015610f18576020028201919060005260206000209081546001600160a01b03168152600190910190602001808311610efa575050505050905090565b6000806000fd5b6004546005540360010190565b3360009081526001602052604090205460ff16611fec57600080fd5b81611ff657600080fd5b60035460ff1661200557600080fd5b612010828233613087565b60408051838152905133916001600160a01b038416917f3c798bbcf33115b42c728b8504cff11dd58736e9fa789f1cda2738db7d696b2a9181900360200190a35050565b60215481565b60285481565b60606049805480602002602001604051908101604052809291908181526020018280548015610f18576020028201919060005260206000209081546001600160a01b03168152600190910190602001808311610efa575050505050905090565b60276020526000908152604090205481565b604b60209081526000928352604080842090915290825290205481565b6000828152602a602090815260408083206001600160a01b0385168085529083528184205486855260298452828520828652845282852054878652604b855283862092865291909352908320548392919061214f90879084908490611de9565b60008781526022602090815260408083206001600160a01b038a16845290915290205490945061218490879084908490611de9565b925050509250929050565b6121976130fc565b15806121bb57506121a6612fd1565b6001600160a01b0316336001600160a01b0316145b6121c457600080fd5b6121cc610e9d565b156121d657600080fd5b6001600160a01b0381166121e957600080fd5b602c80546001600160a01b0319166001600160a01b039290921691909117905560008052602b602052601e7fe18c65fb8491ea105d3652ed62258476aaccd771ae89682addbba12f33acc62a55565b602c546001600160a01b0316331461224f57600080fd5b602c5460408051633ba6481760e21b815290516000926001600160a01b03169163ee99205c916004808301926020929190829003018186803b15801561229457600080fd5b505afa1580156122a8573d6000803e3d6000fd5b505050506040513d60208110156122be57600080fd5b505160408051630f29818d60e31b815290519192506000916001600160a01b0384169163794c0c68916004808301926020929190829003018186803b15801561230657600080fd5b505afa15801561231a573d6000803e3d6000fd5b505050506040513d602081101561233057600080fd5b5051602c546040805163b7ab4db560e01b815290519293506060926001600160a01b039092169163b7ab4db591600480820192600092909190829003018186803b15801561237d57600080fd5b505afa158015612391573d6000803e3d6000fd5b505050506040513d6000823e601f3d908101601f1916820160405260208110156123ba57600080fd5b810190808051600160201b8111156123d157600080fd5b820160208101848111156123e457600080fd5b81518560208202830111600160201b8211171561240057600080fd5b50909450600093505050505b815181101561245e57600083815260208052604081208351829085908590811061243257fe5b6020908102919091018101516001600160a01b031682528101919091526040016000205560010161240c565b50505050565b602b6020526000908152604090205481565b6001600160a01b038116600090815260208181526040918290208054835181840281018401909452808452606093928301828280156124d457602002820191906000526020600020905b8154815260200190600101908083116124c0575b50505050509050919050565b602c546001600160a01b031681565b6000828152602a602090815260408083206001600160a01b0385168085529083528184205486855260298452828520828652845282852054878652604b8552838620928652919093529083205483929190612551908790899085908590611a15565b60008781526022602090815260408083206001600160a01b038a168452909152902054909450612588908790899085908590611a15565b92505050935093915050565b60208080526000928352604080842090915290825290205481565b6060806002600160a01b0333146125c557600080fd5b84831415806125d5575060018514155b806125fc5750838360008181106125e857fe5b9050602002013561ffff1661ffff16600014155b1561262d5760408051600080825260208201909252905b506040805160008152602081019091529092509050612e71565b602c546001600160a01b031663facd743b878760008161264957fe5b905060200201356001600160a01b03166040518263ffffffff1660e01b815260040180826001600160a01b03166001600160a01b0316815260200191505060206040518083038186803b15801561269f57600080fd5b505afa1580156126b3573d6000803e3d6000fd5b505050506040513d60208110156126c957600080fd5b50516126e5576040805160008082526020820190925290612613565b602c60009054906101000a90046001600160a01b03166001600160a01b031663ccf69e9b6040518163ffffffff1660e01b815260040160206040518083038186803b15801561273357600080fd5b505afa158015612747573d6000803e3d6000fd5b505050506040513d602081101561275d57600080fd5b50516040805163109c110760e01b815290516001600160a01b039092169163109c11079160048082019260009290919082900301818387803b1580156127a257600080fd5b505af11580156127b6573d6000803e3d6000fd5b505060035460ff1691506127e09050576001600481905560006005556003805460ff191690911790555b602c5460408051633ba6481760e21b815290516064926000926001600160a01b039091169163ee99205c91600480820192602092909190829003018186803b15801561282b57600080fd5b505afa15801561283f573d6000803e3d6000fd5b505050506040513d602081101561285557600080fd5b505160408051630f29818d60e31b815290519192506000916001600160a01b0384169163794c0c68916004808301926020929190829003018186803b15801561289d57600080fd5b505afa1580156128b1573d6000803e3d6000fd5b505050506040513d60208110156128c757600080fd5b50516040805163461121d760e11b815290519192506000916001600160a01b03851691638c2243ae916004808301926020929190829003018186803b15801561290f57600080fd5b505afa158015612923573d6000803e3d6000fd5b505050506040513d602081101561293957600080fd5b5051602c546040805163b927ef4360e01b815290519293506000926001600160a01b039092169163b927ef4391600480820192602092909190829003018186803b15801561298657600080fd5b505afa15801561299a573d6000803e3d6000fd5b505050506040513d60208110156129b057600080fd5b505115612aa8578215801590612a615750602c546001600160a01b031663a92252ae8c8c6000816129dd57fe5b905060200201356001600160a01b03166040518263ffffffff1660e01b815260040180826001600160a01b03166001600160a01b0316815260200191505060206040518083038186803b158015612a3357600080fd5b505afa158015612a47573d6000803e3d6000fd5b505050506040513d6020811015612a5d57600080fd5b5051155b15612aa85760008381526020805260408120908c8c8281612a7e57fe5b602090810292909201356001600160a01b0316835250810191909152604001600020805460010190555b81612ab16130fc565b1415612e5d578215612acb57612ac8848484613100565b90505b602c60009054906101000a90046001600160a01b03166001600160a01b0316635ccee1de6040518163ffffffff1660e01b8152600401600060405180830381600087803b158015612b1b57600080fd5b505af1158015612b2f573d6000803e3d6000fd5b5050602c546040805163eebc7a3960e01b81529051600094506001880193506060926001600160a01b03169163eebc7a399160048083019288929190829003018186803b158015612b7f57600080fd5b505afa158015612b93573d6000803e3d6000fd5b505050506040513d6000823e601f3d908101601f191682016040526020811015612bbc57600080fd5b810190808051600160201b811115612bd357600080fd5b82016020810184811115612be657600080fd5b81518560208202830111600160201b82111715612c0257600080fd5b5060009750909450505050505b8051831015612c4157612c368783838681518110612c2957fe5b6020026020010151613580565b600190920191612c0f565b602c60009054906101000a90046001600160a01b03166001600160a01b031663b7ab4db56040518163ffffffff1660e01b815260040160006040518083038186803b158015612c8f57600080fd5b505afa158015612ca3573d6000803e3d6000fd5b505050506040513d6000823e601f3d908101601f191682016040526020811015612ccc57600080fd5b810190808051600160201b811115612ce357600080fd5b82016020810184811115612cf657600080fd5b81518560208202830111600160201b82111715612d1257600080fd5b5060009750909450505050505b8051831015612d4457612d398783838681518110612c2957fe5b600190920191612d1f565b602c60009054906101000a90046001600160a01b03166001600160a01b0316624a88036040518163ffffffff1660e01b815260040160006040518083038186803b158015612d9157600080fd5b505afa158015612da5573d6000803e3d6000fd5b505050506040513d6000823e601f3d908101601f191682016040908152811015612dce57600080fd5b810190808051600160201b811115612de557600080fd5b82016020810184811115612df857600080fd5b81518560208202830111600160201b82111715612e1457600080fd5b5060009750909450505050505b8051831015612e4657612e3b8783838681518110612c2957fe5b600190920191612e21565b506000908152602b60205260408120601e90559550505b612e678186613776565b9650965050505050505b94509492505050565b604a5481565b612e88612fd1565b6001600160a01b0316336001600160a01b031614612ea557600080fd5b60265415612eb257600080fd5b6000816001600160a01b031663553a5c856040518163ffffffff1660e01b815260040160206040518083038186803b158015612eed57600080fd5b505afa158015612f01573d6000803e3d6000fd5b505050506040513d6020811015612f1757600080fd5b505160408051631694a47d60e31b81526001600160a01b03868116600483015291519293506000929185169163b4a523e891602480820192602092909190829003018186803b158015612f6957600080fd5b505afa158015612f7d573d6000803e3d6000fd5b505050506040513d6020811015612f9357600080fd5b5051905081612fa157600080fd5b80612fab57600080fd5b6026919091556001600160a01b0390921660009081526027602052604090209190915550565b7fb53127684a568b3173ae13b9f8a6016e243e63b6e8ee1178d6a717850b5d61035490565b60008282018381101561300857600080fd5b9392505050565b811580159061304057506040516001600160a01b0382169083156108fc029084906000818181858888f19350505050155b1561308357818160405161305390613f9f565b6001600160a01b039091168152604051908190036020019082f08015801561307f573d6000803e3d6000fd5b5050505b5050565b60058054604080516060810182529586526001600160a01b03938416602080880191825295851687830190815260019384016000818152600690985292909620965187555191860180549285166001600160a01b03199384161790559351600290950180549590931694169390931790559055565b4390565b60006060602c60009054906101000a90046001600160a01b03166001600160a01b031663b7ab4db56040518163ffffffff1660e01b815260040160006040518083038186803b15801561315257600080fd5b505afa158015613166573d6000803e3d6000fd5b505050506040513d6000823e601f3d908101601f19168201604052602081101561318f57600080fd5b810190808051600160201b8111156131a657600080fd5b820160208101848111156131b957600080fd5b81518560208202830111600160201b821117156131d557600080fd5b5050602c546040805163b927ef4360e01b8152905192965060009550600194508593506001600160a01b039091169163b927ef4391600480820192602092909190829003018186803b15801561322a57600080fd5b505afa15801561323e573d6000803e3d6000fd5b505050506040513d602081101561325457600080fd5b50519050801561336e5760006003602c60009054906101000a90046001600160a01b03166001600160a01b031663714897df6040518163ffffffff1660e01b815260040160206040518083038186803b1580156132b057600080fd5b505afa1580156132c4573d6000803e3d6000fd5b505050506040513d60208110156132da57600080fd5b5051600202816132e657fe5b04896001600160a01b0316637069e7466040518163ffffffff1660e01b815260040160206040518083038186803b15801561332057600080fd5b505afa158015613334573d6000803e3d6000fd5b505050506040513d602081101561334a57600080fd5b50510160010190508082101561335e578091505b6001828803810194509087030191505b6060845160405190808252806020026020018201604052801561339b578160200160208202803883390190505b509050600084156135545760005b865181101561355257602c5487516001600160a01b039091169063a92252ae908990849081106133d557fe5b60200260200101516040518263ffffffff1660e01b815260040180826001600160a01b03166001600160a01b0316815260200191505060206040518083038186803b15801561342357600080fd5b505afa158015613437573d6000803e3d6000fd5b505050506040513d602081101561344d57600080fd5b50511580156134a65750602a60008b8152602001908152602001600020600088838151811061347857fe5b60200260200101516001600160a01b03166001600160a01b0316815260200190815260200160002054600014155b1561351257602060008b815260200190815260200160002060008883815181106134cc57fe5b60200260200101516001600160a01b03166001600160a01b031681526020019081526020016000205483828151811061350157fe5b60200260200101818152505061352d565b600083828151811061352057fe5b6020026020010181815250505b82818151811061353957fe5b60200260200101518201915080806001019150506133a9565b505b61356289868689868661398d565b96506135738a8a87878a8787613ac7565b5050505050509392505050565b60008281526029602090815260408083206001600160a01b0385168452909152902054156135ad57610dd5565b602c54604080516307b9342f60e21b81526001600160a01b03848116600483015291516000939290921691631ee4d0bc91602480820192602092909190829003018186803b1580156135fe57600080fd5b505afa158015613612573d6000803e3d6000fd5b505050506040513d602081101561362857600080fd5b505160408051632933f0eb60e11b81526001600160a01b038084166004830152915192935060009291871691635267e1d691602480820192602092909190829003018186803b15801561367a57600080fd5b505afa15801561368e573d6000803e3d6000fd5b505050506040513d60208110156136a457600080fd5b50519050806136b4575050610dd5565b60008481526029602090815260408083206001600160a01b03808816855290835292819020849055805163a697ecff60e01b815285841660048201819052602482015290519288169263a697ecff92604480840193919291829003018186803b15801561372057600080fd5b505afa158015613734573d6000803e3d6000fd5b505050506040513d602081101561374a57600080fd5b50516000858152602a602090815260408083206001600160a01b03881684529091529020555050505050565b6060806000613783611fc3565b9050838111156137905750825b8415158061379f5760006137a2565b60015b60ff1682016040519080825280602002602001820160405280156137d0578160200160208202803883390190505b50935083516040519080825280602002602001820160405280156137fe578160200160208202803883390190505b50925060005b8281101561387b576000806000613819613db7565b9250925092508188858151811061382c57fe5b60200260200101906001600160a01b031690816001600160a01b0316815250508287858151811061385957fe5b602002602001018181525050613870838383613e38565b505050600101613804565b5080156138c9573084838151811061388f57fe5b60200260200101906001600160a01b031690816001600160a01b031681525050858383815181106138bc57fe5b6020026020010181815250505b7f2834f3daea15e82b5f27095c4b6d08cd437f303149009a0a3304be801d2dd7ce8484604051808060200180602001838103835285818151815260200191508051906020019060200280838360005b83811015613930578181015183820152602001613918565b50505050905001838103825284818151815260200191508051906020019060200280838360005b8381101561396f578181015183820152602001613957565b5050505090500194505050505060405180910390a150509250929050565b602854602154600091016139a18886613ea6565b01806139b1576000915050613abd565b600060218190558084158015906139c757508715155b15613ab25787898402816139d757fe5b0491508115613ab25760005b8751811015613ab0576000868883815181106139fb57fe5b6020026020010151850281613a0c57fe5b04905080602260008e815260200190815260200160002060008b8581518110613a3157fe5b6020908102919091018101516001600160a01b0316825281019190915260400160002055918201918015613aa7576000808a8481518110613a6e57fe5b6020908102919091018101516001600160a01b031682528181019290925260400160009081208054600181018255908252919020018c90555b506001016139e3565b505b918290036028555090505b9695505050505050565b604c54604a5401613ae08785660a3f8adb5049d4613eae565b0180613aec5750613dae565b6000604a819055506000886001600160a01b0316632d21d2176040518163ffffffff1660e01b815260040160206040518083038186803b158015613b2f57600080fd5b505afa158015613b43573d6000803e3d6000fd5b505050506040513d6020811015613b5957600080fd5b5051905060006001600160a01b03821615801590613bec5750306001600160a01b0316826001600160a01b03166356b54bae6040518163ffffffff1660e01b815260040160206040518083038186803b158015613bb557600080fd5b505afa158015613bc9573d6000803e3d6000fd5b505050506040513d6020811015613bdf57600080fd5b50516001600160a01b0316145b8015613bf757508315155b8015613c0257508615155b15613da65760008789850281613c1457fe5b0490508015613da45760005b8751811015613d4457600086888381518110613c3857fe5b6020026020010151840281613c4957fe5b04905080604b60008e815260200190815260200160002060008b8581518110613c6e57fe5b6020908102919091018101516001600160a01b0316825281019190915260400160002055928301928015801590613cee5750602260008d815260200190815260200160002060008a8481518110613cc157fe5b60200260200101516001600160a01b03166001600160a01b03168152602001908152602001600020546000145b15613d3b576000808a8481518110613d0257fe5b6020908102919091018101516001600160a01b031682528181019290925260400160009081208054600181018255908252919020018c90555b50600101613c20565b50826001600160a01b03166391c0aabf836040518263ffffffff1660e01b815260040180828152602001915050600060405180830381600087803b158015613d8b57600080fd5b505af1158015613d9f573d6000803e3d6000fd5b505050505b505b909103604c55505b50505050505050565b600454600554600091829182919081811015613dde57600094506000935060009250613e31565b6000828152600660205260408120805460028201805460018085018054969095556001600160a01b03198087169095559381169091556004805490930190925596506001600160a01b0390811695501692505b5050909192565b6000613e426130fc565b6001600160a01b03938416600081815260246020908152604080832085845282528083208990559282526023815282822080548901905592815260258352818120805488019055939094168352602790525020805482019055602680549091019055565b600092915050565b600081613ebd57506000613008565b6000805b8451811015613f2557602960008781526020019081526020016000206000868381518110613eeb57fe5b60200260200101516001600160a01b03166001600160a01b0316815260200190815260200160002054820191508080600101915050613ec1565b50670de0b6b3a76400009083020490509392505050565b828054828255906000526020600020908101928215613f8f579160200282015b82811115613f8f5781546001600160a01b0319166001600160a01b03843516178255602090920191600190910190613f5c565b50613f9b929150613fab565b5090565b603280613fd083390190565b610e6091905b80821115613f9b5780546001600160a01b0319168155600101613fb156fe60806040526040516032380380603283398181016040526020811015602357600080fd5b50516001600160a01b038116fffea265627a7a72305820f69c22addef8ab6d01f8e51d2fb069ec747ec4074e5fb762a5e8210a6598bd4564736f6c634300050a0032",
  "source": "pragma solidity 0.5.10;\n\nimport \"./BlockRewardAuRaBase.sol\";\nimport \"../interfaces/IBlockRewardAuRaTokens.sol\";\nimport \"../interfaces/IStakingAuRaTokens.sol\";\n\n\ncontract BlockRewardAuRaTokens is BlockRewardAuRaBase, IBlockRewardAuRaTokens {\n\n    // =============================================== Storage ========================================================\n\n    // WARNING: since this contract is upgradeable, do not remove\n    // existing storage variables, do not change their order,\n    // and do not change their types!\n\n    mapping(address => bool) internal _ercToErcBridgeAllowed;\n    mapping(address => bool) internal _nativeToErcBridgeAllowed;\n    address[] internal _ercToErcBridgesAllowed;\n    address[] internal _nativeToErcBridgesAllowed;\n\n    /// @dev The current bridge's total fee amount of staking tokens accumulated by\n    /// the `addBridgeTokenRewardReceivers` function.\n    uint256 public bridgeTokenReward;\n\n    /// @dev The reward amount to be distributed in staking tokens among participants (the validator and their\n    /// delegators) of the specified pool (mining address) for the specified staking epoch.\n    mapping(uint256 => mapping(address => uint256)) public epochPoolTokenReward;\n\n    /// @dev The total reward amount in staking tokens which is not yet distributed among pools.\n    uint256 public tokenRewardUndistributed;\n\n    // ============================================== Constants =======================================================\n\n    /// @dev Inflation rate per staking epoch. Calculated as follows:\n    /// 15% annual rate * 52 weeks per year / 100 * 10^18\n    /// This assumes that 1 staking epoch = 1 week\n    /// i.e. Inflation Rate = 15/52/100 * 1 ether\n    /// Recalculate it for different annual rate and/or different staking epoch duration.\n    uint256 public constant STAKE_TOKEN_INFLATION_RATE = 2884615384615380;\n\n    // ================================================ Events ========================================================\n\n    /// @dev Emitted by the `addBridgeTokenRewardReceivers` function.\n    /// @param amount The fee amount in tokens passed to the\n    /// `addBridgeTokenRewardReceivers` function as a parameter.\n    /// @param cumulativeAmount The value of `bridgeTokenReward` state variable\n    /// after adding the `amount` to it.\n    /// @param bridge The bridge address which called the `addBridgeTokenRewardReceivers` function.\n    event BridgeTokenRewardAdded(uint256 amount, uint256 cumulativeAmount, address indexed bridge);\n\n    // ============================================== Modifiers =======================================================\n\n    /// @dev Ensures the caller is the `erc-to-erc` or `native-to-erc` bridge contract address.\n    modifier onlyXToErcBridge {\n        require(_ercToErcBridgeAllowed[msg.sender] || _nativeToErcBridgeAllowed[msg.sender]);\n        _;\n    }\n\n    // =============================================== Setters ========================================================\n\n    /// @dev Called by the `erc-to-erc` or `native-to-erc` bridge contract when a portion of the bridge fee should be\n    /// minted and distributed to participants in staking tokens. The specified amount is used by the\n    /// `_distributeRewards` function.\n    /// @param _amount The fee amount distributed to participants.\n    function addBridgeTokenRewardReceivers(uint256 _amount) external onlyXToErcBridge {\n        require(_amount != 0);\n        bridgeTokenReward = bridgeTokenReward.add(_amount);\n        emit BridgeTokenRewardAdded(_amount, bridgeTokenReward, msg.sender);\n    }\n\n    /// @dev Sets the array of `erc-to-erc` bridge addresses which are allowed to call some of the functions with\n    /// the `onlyXToErcBridge` modifier. This setter can only be called by the `owner`.\n    /// @param _bridgesAllowed The array of bridge addresses.\n    function setErcToErcBridgesAllowed(address[] calldata _bridgesAllowed) external onlyOwner onlyInitialized {\n        uint256 i;\n\n        for (i = 0; i < _ercToErcBridgesAllowed.length; i++) {\n            _ercToErcBridgeAllowed[_ercToErcBridgesAllowed[i]] = false;\n        }\n\n        _ercToErcBridgesAllowed = _bridgesAllowed;\n\n        for (i = 0; i < _bridgesAllowed.length; i++) {\n            _ercToErcBridgeAllowed[_bridgesAllowed[i]] = true;\n        }\n    }\n\n    /// @dev Sets the array of `native-to-erc` bridge addresses which are allowed to call some of the functions with\n    /// the `onlyXToErcBridge` modifier. This setter can only be called by the `owner`.\n    /// @param _bridgesAllowed The array of bridge addresses.\n    function setNativeToErcBridgesAllowed(address[] calldata _bridgesAllowed) external onlyOwner onlyInitialized {\n        uint256 i;\n\n        for (i = 0; i < _nativeToErcBridgesAllowed.length; i++) {\n            _nativeToErcBridgeAllowed[_nativeToErcBridgesAllowed[i]] = false;\n        }\n\n        _nativeToErcBridgesAllowed = _bridgesAllowed;\n\n        for (i = 0; i < _bridgesAllowed.length; i++) {\n            _nativeToErcBridgeAllowed[_bridgesAllowed[i]] = true;\n        }\n    }\n\n    /// @dev Called by the `StakingAuRa.claimReward` function to transfer tokens and native coins\n    /// from the balance of the `BlockRewardAuRa` contract to the specified address as a reward.\n    /// @param _tokens The amount of tokens to transfer as a reward.\n    /// @param _nativeCoins The amount of native coins to transfer as a reward.\n    /// @param _to The target address to transfer the amounts to.\n    function transferReward(uint256 _tokens, uint256 _nativeCoins, address payable _to) external onlyStakingContract {\n        if (_tokens != 0) {\n            IStakingAuRaTokens stakingContract = IStakingAuRaTokens(msg.sender);\n            IERC677Minting erc677TokenContract = IERC677Minting(stakingContract.erc677TokenContract());\n            erc677TokenContract.transfer(_to, _tokens);\n        }\n\n        _transferNativeReward(_nativeCoins, _to);\n    }\n\n    // =============================================== Getters ========================================================\n\n    /// @dev Returns the array of `erc-to-erc` bridge addresses set by the `setErcToErcBridgesAllowed` setter.\n    function ercToErcBridgesAllowed() public view returns(address[] memory) {\n        return _ercToErcBridgesAllowed;\n    }\n\n    /// @dev Returns the reward amounts in tokens and native coins for\n    /// some delegator with the specified stake amount placed into the specified\n    /// pool before the specified staking epoch. Used by the `StakingAuRa.claimReward` function.\n    /// @param _delegatorStake The stake amount placed by some delegator into the `_poolMiningAddress` pool.\n    /// @param _stakingEpoch The serial number of staking epoch.\n    /// @param _poolMiningAddress The pool mining address.\n    /// @return `uint256 tokenReward` - the reward amount in tokens.\n    /// `uint256 nativeReward` - the reward amount in native coins.\n    function getDelegatorReward(\n        uint256 _delegatorStake,\n        uint256 _stakingEpoch,\n        address _poolMiningAddress\n    ) external view returns(uint256 tokenReward, uint256 nativeReward) {\n        uint256 validatorStake = snapshotPoolValidatorStakeAmount[_stakingEpoch][_poolMiningAddress];\n        uint256 totalStake = snapshotPoolTotalStakeAmount[_stakingEpoch][_poolMiningAddress];\n\n        tokenReward = delegatorShare(\n            _stakingEpoch,\n            _delegatorStake,\n            validatorStake,\n            totalStake,\n            epochPoolTokenReward[_stakingEpoch][_poolMiningAddress]\n        );\n\n        nativeReward = delegatorShare(\n            _stakingEpoch,\n            _delegatorStake,\n            validatorStake,\n            totalStake,\n            epochPoolNativeReward[_stakingEpoch][_poolMiningAddress]\n        );\n    }\n\n    /// @dev Returns the reward amounts in tokens and native coins for\n    /// the specified validator and for the specified staking epoch.\n    /// Used by the `StakingAuRa.claimReward` function.\n    /// @param _stakingEpoch The serial number of staking epoch.\n    /// @param _poolMiningAddress The pool mining address.\n    /// @return `uint256 tokenReward` - the reward amount in tokens.\n    /// `uint256 nativeReward` - the reward amount in native coins.\n    function getValidatorReward(\n        uint256 _stakingEpoch,\n        address _poolMiningAddress\n    ) external view returns(uint256 tokenReward, uint256 nativeReward) {\n        uint256 validatorStake = snapshotPoolValidatorStakeAmount[_stakingEpoch][_poolMiningAddress];\n        uint256 totalStake = snapshotPoolTotalStakeAmount[_stakingEpoch][_poolMiningAddress];\n\n        tokenReward = validatorShare(\n            _stakingEpoch,\n            validatorStake,\n            totalStake,\n            epochPoolTokenReward[_stakingEpoch][_poolMiningAddress]\n        );\n\n        nativeReward = validatorShare(\n            _stakingEpoch,\n            validatorStake,\n            totalStake,\n            epochPoolNativeReward[_stakingEpoch][_poolMiningAddress]\n        );\n    }\n\n    /// @dev Returns the array of `native-to-erc` bridge addresses which were set by\n    /// the `setNativeToErcBridgesAllowed` setter.\n    function nativeToErcBridgesAllowed() public view returns(address[] memory) {\n        return _nativeToErcBridgesAllowed;\n    }\n\n    // ============================================== Internal ========================================================\n\n    /// @dev See the description of `BlockRewardAuRaCoins._coinInflationAmount` internal function.\n    /// In this case (when ERC tokens are used for staking) the inflation for native coins is zero.\n    function _coinInflationAmount(uint256, address[] memory) internal view returns(uint256) {\n        return 0;\n    }\n\n    /// @dev Distributes rewards in tokens among pools at the latest block of a staking epoch.\n    /// This function is called by the `_distributeRewards` function.\n    /// @param _stakingContract The address of the StakingAuRa contract.\n    /// @param _stakingEpoch The number of the current staking epoch.\n    /// @param _totalRewardShareNum Numerator of the total reward share.\n    /// @param _totalRewardShareDenom Denominator of the total reward share.\n    /// @param _validators The array of the current validators (their mining addresses).\n    /// @param _blocksCreatedShareNum Numerators of blockCreated share for each of the validators.\n    /// @param _blocksCreatedShareDenom Denominator of blockCreated share.\n    function _distributeTokenRewards(\n        address _stakingContract,\n        uint256 _stakingEpoch,\n        uint256 _totalRewardShareNum,\n        uint256 _totalRewardShareDenom,\n        address[] memory _validators,\n        uint256[] memory _blocksCreatedShareNum,\n        uint256 _blocksCreatedShareDenom\n    ) internal {\n        uint256 totalReward = bridgeTokenReward + tokenRewardUndistributed;\n\n        totalReward += _inflationAmount(_stakingEpoch, _validators, STAKE_TOKEN_INFLATION_RATE);\n\n        if (totalReward == 0) {\n            return;\n        }\n\n        bridgeTokenReward = 0;\n\n        IERC677Minting erc677TokenContract = IERC677Minting(\n            IStakingAuRaTokens(_stakingContract).erc677TokenContract()\n        );\n\n        uint256 distributedAmount = 0;\n\n        if (\n            erc677TokenContract != IERC677Minting(0) &&\n            erc677TokenContract.blockRewardContract() == address(this) &&\n            _blocksCreatedShareDenom != 0 &&\n            _totalRewardShareDenom != 0\n        ) {\n            uint256 rewardToDistribute = totalReward * _totalRewardShareNum / _totalRewardShareDenom;\n\n            if (rewardToDistribute != 0) {\n                for (uint256 i = 0; i < _validators.length; i++) {\n                    uint256 poolReward =\n                        rewardToDistribute * _blocksCreatedShareNum[i] / _blocksCreatedShareDenom;\n                    epochPoolTokenReward[_stakingEpoch][_validators[i]] = poolReward;\n                    distributedAmount += poolReward;\n                    if (poolReward != 0 && epochPoolNativeReward[_stakingEpoch][_validators[i]] == 0) {\n                        _epochsPoolGotRewardFor[_validators[i]].push(_stakingEpoch);\n                    }\n                }\n\n                erc677TokenContract.mintReward(distributedAmount);\n            }\n        }\n\n        tokenRewardUndistributed = totalReward - distributedAmount;\n    }\n}\n",
  "sourcePath": "/home/jack/prog/blkchn/velas/posdao-test-setup/posdao-contracts/contracts/base/BlockRewardAuRaTokens.sol",
  "compiler": {
    "name": "solc",
    "version": "0.5.10+commit.5a6ea5b1.Emscripten.clang"
  },
  "schemaVersion": "3.0.17",
  "updatedAt": "2020-03-03T11:55:07.442Z",
  "devdoc": {
    "methods": {
      "addBridgeNativeRewardReceivers(uint256)": {
        "details": "Called by the `erc-to-native` bridge contract when a portion of the bridge fee should be minted and distributed to participants (validators and their delegators) in native coins. The specified amount is used by the `_distributeRewards` function.",
        "params": {
          "_amount": "The fee amount distributed to participants."
        }
      },
      "addBridgeTokenRewardReceivers(uint256)": {
        "details": "Called by the `erc-to-erc` or `native-to-erc` bridge contract when a portion of the bridge fee should be minted and distributed to participants in staking tokens. The specified amount is used by the `_distributeRewards` function.",
        "params": {
          "_amount": "The fee amount distributed to participants."
        }
      },
      "addExtraReceiver(uint256,address)": {
        "details": "Called by the `erc-to-native` bridge contract when the bridge needs to mint a specified amount of native coins for a specified address using the `reward` function.",
        "params": {
          "_amount": "The amount of native coins which must be minted for the `_receiver` address.",
          "_receiver": "The address for which the `_amount` of native coins must be minted."
        }
      },
      "blockRewardContractId()": {
        "details": "Returns an identifier for the bridge contract so that the latter could ensure it works with the BlockReward contract."
      },
      "clearBlocksCreated()": {
        "details": "Called by the `ValidatorSetAuRa.finalizeChange` to clear the values in the `blocksCreated` mapping for the current staking epoch and a new validator set."
      },
      "delegatorShare(uint256,uint256,uint256,uint256,uint256)": {
        "details": "Calculates delegator's share for the given pool reward amount and the specified staking epoch. Used by the `StakingAuRa.claimReward` function.",
        "params": {
          "_delegatorStaked": "The amount staked by a delegator.",
          "_poolReward": "The value of pool reward.",
          "_stakingEpoch": "The number of staking epoch.",
          "_totalStaked": "The total amount staked by a validator and their delegators.",
          "_validatorStaked": "The amount staked by a validator."
        }
      },
      "epochsPoolGotRewardFor(address)": {
        "details": "Returns an array of epoch numbers for which the specified pool (mining address) got a non-zero reward."
      },
      "epochsToClaimRewardFrom(address,address)": {
        "details": "Returns an array of epoch numbers for which the specified staker can claim a reward from the specified pool by the `StakingAuRa.claimReward` function.",
        "params": {
          "_poolStakingAddress": "The pool staking address.",
          "_staker": "The staker's address (delegator or candidate/validator)."
        }
      },
      "ercToErcBridgesAllowed()": {
        "details": "Returns the array of `erc-to-erc` bridge addresses set by the `setErcToErcBridgesAllowed` setter."
      },
      "ercToNativeBridgesAllowed()": {
        "details": "Returns the array of `erc-to-native` bridge addresses set by the `setErcToNativeBridgesAllowed` setter."
      },
      "extraReceiversQueueSize()": {
        "details": "Returns the current size of the address queue created by the `addExtraReceiver` function."
      },
      "getDelegatorReward(uint256,uint256,address)": {
        "details": "Returns the reward amounts in tokens and native coins for some delegator with the specified stake amount placed into the specified pool before the specified staking epoch. Used by the `StakingAuRa.claimReward` function.",
        "params": {
          "_delegatorStake": "The stake amount placed by some delegator into the `_poolMiningAddress` pool.",
          "_poolMiningAddress": "The pool mining address.",
          "_stakingEpoch": "The serial number of staking epoch."
        },
        "return": "`uint256 tokenReward` - the reward amount in tokens. `uint256 nativeReward` - the reward amount in native coins."
      },
      "getValidatorReward(uint256,address)": {
        "details": "Returns the reward amounts in tokens and native coins for the specified validator and for the specified staking epoch. Used by the `StakingAuRa.claimReward` function.",
        "params": {
          "_poolMiningAddress": "The pool mining address.",
          "_stakingEpoch": "The serial number of staking epoch."
        },
        "return": "`uint256 tokenReward` - the reward amount in tokens. `uint256 nativeReward` - the reward amount in native coins."
      },
      "initialize(address)": {
        "details": "Initializes the contract at network startup. Can only be called by the constructor of the `InitializerAuRa` contract or owner.",
        "params": {
          "_validatorSet": "The address of the `ValidatorSetAuRa` contract."
        }
      },
      "isInitialized()": {
        "details": "Returns a boolean flag indicating if the `initialize` function has been called."
      },
      "migrateMintingStatistics(address,address)": {
        "details": "Copies the minting statistics from the previous BlockReward contract for the `mintedTotally` and `mintedTotallyByBridge` getters. Can only be called once by the owner. This function assumes the bridge contract address is not changed due to its upgradable nature.",
        "params": {
          "_bridge": "The address of a bridge contract.",
          "_prevBlockRewardContract": "The address of the previous BlockReward contract."
        }
      },
      "nativeToErcBridgesAllowed()": {
        "details": "Returns the array of `native-to-erc` bridge addresses which were set by the `setNativeToErcBridgesAllowed` setter."
      },
      "onTokenTransfer(address,uint256,bytes)": {
        "details": "Prevents sending tokens directly to the `BlockRewardAuRa` contract address by the `ERC677BridgeTokenRewardable.transferAndCall` function."
      },
      "reward(address[],uint16[])": {
        "details": "Called by the validator's node when producing and closing a block, see https://wiki.parity.io/Block-Reward-Contract.html. This function performs all of the automatic operations needed for controlling numbers revealing by validators, accumulating block producing statistics, starting a new staking epoch, snapshotting staking amounts for the upcoming staking epoch, rewards distributing at the end of a staking epoch, and minting native coins needed for the `erc-to-native` bridge."
      },
      "setErcToErcBridgesAllowed(address[])": {
        "details": "Sets the array of `erc-to-erc` bridge addresses which are allowed to call some of the functions with the `onlyXToErcBridge` modifier. This setter can only be called by the `owner`.",
        "params": {
          "_bridgesAllowed": "The array of bridge addresses."
        }
      },
      "setErcToNativeBridgesAllowed(address[])": {
        "details": "Sets the array of `erc-to-native` bridge addresses which are allowed to call some of the functions with the `onlyErcToNativeBridge` modifier. This setter can only be called by the `owner`.",
        "params": {
          "_bridgesAllowed": "The array of bridge addresses."
        }
      },
      "setNativeToErcBridgesAllowed(address[])": {
        "details": "Sets the array of `native-to-erc` bridge addresses which are allowed to call some of the functions with the `onlyXToErcBridge` modifier. This setter can only be called by the `owner`.",
        "params": {
          "_bridgesAllowed": "The array of bridge addresses."
        }
      },
      "transferReward(uint256,uint256,address)": {
        "details": "Called by the `StakingAuRa.claimReward` function to transfer tokens and native coins from the balance of the `BlockRewardAuRa` contract to the specified address as a reward.",
        "params": {
          "_nativeCoins": "The amount of native coins to transfer as a reward.",
          "_to": "The target address to transfer the amounts to.",
          "_tokens": "The amount of tokens to transfer as a reward."
        }
      },
      "validatorRewardPercent(address)": {
        "details": "Returns the reward coefficient for the specified validator. The given value should be divided by 10000 to get the value of the reward percent (since EVM doesn't support float values). If the specified staking address is an address of a candidate that is not about to be a validator on the current staking epoch the potentially possible reward coefficient is returned.",
        "params": {
          "_stakingAddress": "The staking address of the validator/candidate pool for which the getter must return the coefficient."
        }
      },
      "validatorShare(uint256,uint256,uint256,uint256)": {
        "details": "Calculates validator's share for the given pool reward amount and the specified staking epoch. Used by the `validatorRewardPercent` and `StakingAuRa.claimReward` functions.",
        "params": {
          "_poolReward": "The value of pool reward.",
          "_stakingEpoch": "The number of staking epoch.",
          "_totalStaked": "The total amount staked by a validator and their delegators.",
          "_validatorStaked": "The amount staked by a validator."
        }
      }
    }
  },
  "userdoc": {
    "methods": {}
  }
}