{
	"contractName": "TimeLock",
	"abi": [
		{
			"stateMutability": "payable",
			"type": "receive"
		},
		{
			"inputs": [
				{
					"internalType": "address",
					"name": "_stakingContract",
					"type": "address"
				},
				{
					"internalType": "address",
					"name": "_resolverContract",
					"type": "address"
				},
				{
					"internalType": "address",
					"name": "_owner",
					"type": "address"
				},
				{
					"internalType": "address",
					"name": "_defaultPool",
					"type": "address"
				},
				{
					"internalType": "uint256",
					"name": "_lockTime",
					"type": "uint256"
				},
				{
					"internalType": "uint256",
					"name": "_lockThreshold",
					"type": "uint256"
				}
			],
			"name": "initialize",
			"outputs": [],
			"stateMutability": "nonpayable",
			"type": "function"
		},
		{
			"inputs": [],
			"name": "getOwner",
			"outputs": [
				{
					"internalType": "address",
					"name": "x",
					"type": "address"
				}
			],
			"stateMutability": "view",
			"type": "function"
		},
		{
			"constant": true,
			"inputs": [],
			"name": "getDefaultPool",
			"outputs": [
				{
					"internalType": "address",
					"name": "x",
					"type": "address"
				}
			],
			"stateMutability": "view",
			"type": "function"
		},
		{
			"constant": true,
			"inputs": [],
			"name": "enableForwarding",
			"outputs": [],
			"stateMutability": "nonpayable",
			"type": "function"
		},
		{
			"constant": true,
			"inputs": [],
			"name": "disableForwarding",
			"outputs": [],
			"stateMutability": "nonpayable",
			"type": "function"
		},
		{
			"constant": true,
			"inputs": [],
			"name": "isForwardingEnabled",
			"outputs": [
				{
					"internalType": "bool",
					"name": "x",
					"type": "bool"
				}
			],
			"stateMutability": "view",
			"type": "function"
		},
		{
			"constant": true,
			"inputs": [],
			"name": "withdraw",
			"outputs": [],
			"stateMutability": "nonpayable",
			"type": "function"
		},
		{
			"constant": true,
			"inputs": [],
			"name": "getTotalStaked",
			"outputs": [
				{
					"internalType": "uint256",
					"name": "x",
					"type": "uint256"
				}
			],
			"stateMutability": "view",
			"type": "function"
		},
		{
			"constant": true,
			"inputs": [],
			"name": "getNonStakedFunds",
			"outputs": [
				{
					"internalType": "uint256",
					"name": "x",
					"type": "uint256"
				}
			],
			"stateMutability": "view",
			"type": "function"
		},
		{
			"constant": true,
			"inputs": [],
			"name": "getLockedFundsReleaseTime",
			"outputs": [
				{
					"internalType": "uint256",
					"name": "x",
					"type": "uint256"
				}
			],
			"stateMutability": "view",
			"type": "function"
		},
		{
			"constant": true,
			"inputs": [],
			"name": "getLockThreshold",
			"outputs": [
				{
					"internalType": "uint256",
					"name": "x",
					"type": "uint256"
				}
			],
			"stateMutability": "view",
			"type": "function"
		},
		{
			"constant": true,
			"inputs": [],
			"name": "maxWithdrawAllowed",
			"outputs": [
				{
					"internalType": "uint256",
					"name": "x",
					"type": "uint256"
				}
			],
			"stateMutability": "view",
			"type": "function"
		},
		{
			"constant": true,
			"inputs": [
				{
					"internalType": "address",
					"name": "_pool",
					"type": "address"
				},
				{
					"internalType": "uint256",
					"name": "_amount",
					"type": "uint256"
				}
			],
			"name": "stake",
			"outputs": [],
			"stateMutability": "nonpayable",
			"type": "function"
		},
		{
			"constant": true,
			"inputs": [
				{
					"internalType": "address",
					"name": "_pool",
					"type": "address"
				},
				{
					"internalType": "uint256",
					"name": "_amount",
					"type": "uint256"
				}
			],
			"name": "unstake",
			"outputs": [],
			"stateMutability": "nonpayable",
			"type": "function"
		},
		{
			"constant": true,
			"inputs": [
				{
					"internalType": "address",
					"name": "_newPool",
					"type": "address"
				}
			],
			"name": "changeDefaultPool",
			"outputs": [],
			"stateMutability": "nonpayable",
			"type": "function"
		},
		{
			"constant": true,
			"inputs": [
				{
					"internalType": "address",
					"name": "_pool",
					"type": "address"
				}
			],
			"name": "stakeAmount",
			"outputs": [
				{
					"internalType": "uint256",
					"name": "",
					"type": "uint256"
				}
			],
			"stateMutability": "view",
			"type": "function"
		},
		{
			"constant": true,
			"inputs": [
				{
					"internalType": "address",
					"name": "_pool",
					"type": "address"
				},
				{
					"internalType": "uint256",
					"name": "_amount",
					"type": "uint256"
				}
			],
			"name": "requestUnstake",
			"outputs": [],
			"stateMutability": "nonpayable",
			"type": "function"
		},
		{
			"constant": true,
			"inputs": [
				{
					"internalType": "address",
					"name": "_pool",
					"type": "address"
				}
			],
			"name": "claimUnstakeRequest",
			"outputs": [],
			"stateMutability": "nonpayable",
			"type": "function"
		}
	],
	"bytecode": "0x608060405234801561001057600080fd5b50611813806100206000396000f3fe60806040526004361061010d5760003560e01c8063893d20e811610095578063c2a672e011610064578063c2a672e014610763578063cda07571146107be578063cf521243146107e9578063d7c41c791461083a578063e89cb977146108ff5761044f565b8063893d20e814610621578063adc9772e14610678578063bd4b7b8b146106d3578063bf135267146106fe5761044f565b80635456f01b116100dc5780635456f01b146104f057806360e539cc14610547578063710ba6311461055e57806387ecca7b146105b957806388948f0e146105d05761044f565b80630917e776146104545780633ccfd60b1461047f5780634598f6cb146104965780635136260d146104c55761044f565b3661044f57600560009054906101000a900460ff161561044d5760008060029054906101000a900473ffffffffffffffffffffffffffffffffffffffff1673ffffffffffffffffffffffffffffffffffffffff1663f49425016040518163ffffffff1660e01b815260040160206040518083038186803b15801561019057600080fd5b505afa1580156101a4573d6000803e3d6000fd5b505050506040513d60208110156101ba57600080fd5b8101908080519060200190929190505050905060008060029054906101000a900473ffffffffffffffffffffffffffffffffffffffff1673ffffffffffffffffffffffffffffffffffffffff1663a697ecff600360009054906101000a900473ffffffffffffffffffffffffffffffffffffffff16306040518363ffffffff1660e01b8152600401808373ffffffffffffffffffffffffffffffffffffffff1673ffffffffffffffffffffffffffffffffffffffff1681526020018273ffffffffffffffffffffffffffffffffffffffff1673ffffffffffffffffffffffffffffffffffffffff1681526020019250505060206040518083038186803b1580156102c357600080fd5b505afa1580156102d7573d6000803e3d6000fd5b505050506040513d60208110156102ed57600080fd5b8101908080519060200190929190505050905069021e19e0c9bab240000034101561032a5769021e19e0c9bab240000081101561032957600091505b5b811561044a57600060029054906101000a900473ffffffffffffffffffffffffffffffffffffffff1673ffffffffffffffffffffffffffffffffffffffff1663adc9772e34600360009054906101000a900473ffffffffffffffffffffffffffffffffffffffff16346040518463ffffffff1660e01b8152600401808373ffffffffffffffffffffffffffffffffffffffff1673ffffffffffffffffffffffffffffffffffffffff168152602001828152602001925050506000604051808303818588803b1580156103fb57600080fd5b505af115801561040f573d6000803e3d6000fd5b5050505050346007600082825401925050819055506000811415610449576000600560006101000a81548160ff0219169083151502179055505b5b50505b005b600080fd5b34801561046057600080fd5b5061046961092a565b6040518082815260200191505060405180910390f35b34801561048b57600080fd5b50610494610934565b005b3480156104a257600080fd5b506104ab6109ff565b604051808215151515815260200191505060405180910390f35b3480156104d157600080fd5b506104da610a16565b6040518082815260200191505060405180910390f35b3480156104fc57600080fd5b50610505610a20565b604051808273ffffffffffffffffffffffffffffffffffffffff1673ffffffffffffffffffffffffffffffffffffffff16815260200191505060405180910390f35b34801561055357600080fd5b5061055c610a4a565b005b34801561056a57600080fd5b506105b76004803603604081101561058157600080fd5b81019080803573ffffffffffffffffffffffffffffffffffffffff16906020019092919080359060200190929190505050610ac1565b005b3480156105c557600080fd5b506105ce610be0565b005b3480156105dc57600080fd5b5061061f600480360360208110156105f357600080fd5b81019080803573ffffffffffffffffffffffffffffffffffffffff169060200190929190505050610c57565b005b34801561062d57600080fd5b50610636610d6d565b604051808273ffffffffffffffffffffffffffffffffffffffff1673ffffffffffffffffffffffffffffffffffffffff16815260200191505060405180910390f35b34801561068457600080fd5b506106d16004803603604081101561069b57600080fd5b81019080803573ffffffffffffffffffffffffffffffffffffffff16906020019092919080359060200190929190505050610d97565b005b3480156106df57600080fd5b506106e861100b565b6040518082815260200191505060405180910390f35b34801561070a57600080fd5b5061074d6004803603602081101561072157600080fd5b81019080803573ffffffffffffffffffffffffffffffffffffffff1690602001909291905050506110b9565b6040518082815260200191505060405180910390f35b34801561076f57600080fd5b506107bc6004803603604081101561078657600080fd5b81019080803573ffffffffffffffffffffffffffffffffffffffff169060200190929190803590602001909291905050506111d5565b005b3480156107ca57600080fd5b506107d361134e565b6040518082815260200191505060405180910390f35b3480156107f557600080fd5b506108386004803603602081101561080c57600080fd5b81019080803573ffffffffffffffffffffffffffffffffffffffff169060200190929190505050611358565b005b34801561084657600080fd5b506108fd600480360360c081101561085d57600080fd5b81019080803573ffffffffffffffffffffffffffffffffffffffff169060200190929190803573ffffffffffffffffffffffffffffffffffffffff169060200190929190803573ffffffffffffffffffffffffffffffffffffffff169060200190929190803573ffffffffffffffffffffffffffffffffffffffff16906020019092919080359060200190929190803590602001909291905050506113f6565b005b34801561090b57600080fd5b50610914611790565b6040518082815260200191505060405180910390f35b6000600754905090565b600260009054906101000a900473ffffffffffffffffffffffffffffffffffffffff1673ffffffffffffffffffffffffffffffffffffffff163373ffffffffffffffffffffffffffffffffffffffff161461098e57600080fd5b600047141561099c57600080fd5b60006109a661100b565b9050600081116109b557600080fd5b3373ffffffffffffffffffffffffffffffffffffffff166108fc829081150290604051600060405180830381858888f193505050501580156109fb573d6000803e3d6000fd5b5050565b6000600560009054906101000a900460ff16905090565b6000600454905090565b6000600360009054906101000a900473ffffffffffffffffffffffffffffffffffffffff16905090565b600260009054906101000a900473ffffffffffffffffffffffffffffffffffffffff1673ffffffffffffffffffffffffffffffffffffffff163373ffffffffffffffffffffffffffffffffffffffff1614610aa457600080fd5b6001600560006101000a81548160ff021916908315150217905550565b600260009054906101000a900473ffffffffffffffffffffffffffffffffffffffff1673ffffffffffffffffffffffffffffffffffffffff163373ffffffffffffffffffffffffffffffffffffffff1614610b1b57600080fd5b600060029054906101000a900473ffffffffffffffffffffffffffffffffffffffff1673ffffffffffffffffffffffffffffffffffffffff1663b61ed63a83836040518363ffffffff1660e01b8152600401808373ffffffffffffffffffffffffffffffffffffffff1673ffffffffffffffffffffffffffffffffffffffff16815260200182815260200192505050600060405180830381600087803b158015610bc457600080fd5b505af1158015610bd8573d6000803e3d6000fd5b505050505050565b600260009054906101000a900473ffffffffffffffffffffffffffffffffffffffff1673ffffffffffffffffffffffffffffffffffffffff163373ffffffffffffffffffffffffffffffffffffffff1614610c3a57600080fd5b6000600560006101000a81548160ff021916908315150217905550565b600260009054906101000a900473ffffffffffffffffffffffffffffffffffffffff1673ffffffffffffffffffffffffffffffffffffffff163373ffffffffffffffffffffffffffffffffffffffff1614610cb157600080fd5b600060029054906101000a900473ffffffffffffffffffffffffffffffffffffffff1673ffffffffffffffffffffffffffffffffffffffff1663cfef1441826040518263ffffffff1660e01b8152600401808273ffffffffffffffffffffffffffffffffffffffff1673ffffffffffffffffffffffffffffffffffffffff168152602001915050600060405180830381600087803b158015610d5257600080fd5b505af1158015610d66573d6000803e3d6000fd5b5050505050565b6000600260009054906101000a900473ffffffffffffffffffffffffffffffffffffffff16905090565b600260009054906101000a900473ffffffffffffffffffffffffffffffffffffffff1673ffffffffffffffffffffffffffffffffffffffff163373ffffffffffffffffffffffffffffffffffffffff1614610df157600080fd5b80471015610dfe57600080fd5b60008060029054906101000a900473ffffffffffffffffffffffffffffffffffffffff1673ffffffffffffffffffffffffffffffffffffffff1663a697ecff84306040518363ffffffff1660e01b8152600401808373ffffffffffffffffffffffffffffffffffffffff1673ffffffffffffffffffffffffffffffffffffffff1681526020018273ffffffffffffffffffffffffffffffffffffffff1673ffffffffffffffffffffffffffffffffffffffff1681526020019250505060206040518083038186803b158015610ed257600080fd5b505afa158015610ee6573d6000803e3d6000fd5b505050506040513d6020811015610efc57600080fd5b81019080805190602001909291905050509050600060029054906101000a900473ffffffffffffffffffffffffffffffffffffffff1673ffffffffffffffffffffffffffffffffffffffff1663adc9772e8385856040518463ffffffff1660e01b8152600401808373ffffffffffffffffffffffffffffffffffffffff1673ffffffffffffffffffffffffffffffffffffffff168152602001828152602001925050506000604051808303818588803b158015610fb857600080fd5b505af1158015610fcc573d6000803e3d6000fd5b5050505050816007600082825401925050819055506000811415611006576000600560006101000a81548160ff0219169083151502179055505b505050565b60008047905042600454101561102457809150506110b6565b6000600654905060075460065411156110455760075460065403905061104a565b600090505b60006228206f42600454038161105c57fe5b04905060068110611088578183111561107c5781830393505050506110b6565b600093505050506110b6565b60006006546006836006038161109a57fe5b04029050808311156110ac5780830392505b8284039450505050505b90565b600080600060029054906101000a900473ffffffffffffffffffffffffffffffffffffffff1673ffffffffffffffffffffffffffffffffffffffff1663a697ecff84306040518363ffffffff1660e01b8152600401808373ffffffffffffffffffffffffffffffffffffffff1673ffffffffffffffffffffffffffffffffffffffff1681526020018273ffffffffffffffffffffffffffffffffffffffff1673ffffffffffffffffffffffffffffffffffffffff1681526020019250505060206040518083038186803b15801561118f57600080fd5b505afa1580156111a3573d6000803e3d6000fd5b505050506040513d60208110156111b957600080fd5b8101908080519060200190929190505050905080915050919050565b600260009054906101000a900473ffffffffffffffffffffffffffffffffffffffff1673ffffffffffffffffffffffffffffffffffffffff163373ffffffffffffffffffffffffffffffffffffffff161461122f57600080fd5b6000600560009054906101000a900460ff1690506000600560006101000a81548160ff021916908315150217905550600060029054906101000a900473ffffffffffffffffffffffffffffffffffffffff1673ffffffffffffffffffffffffffffffffffffffff1663f3fef3a384846040518363ffffffff1660e01b8152600401808373ffffffffffffffffffffffffffffffffffffffff1673ffffffffffffffffffffffffffffffffffffffff16815260200182815260200192505050600060405180830381600087803b15801561130757600080fd5b505af115801561131b573d6000803e3d6000fd5b505050508160076000828254039250508190555080600560006101000a81548160ff021916908315150217905550505050565b6000600654905090565b600260009054906101000a900473ffffffffffffffffffffffffffffffffffffffff1673ffffffffffffffffffffffffffffffffffffffff163373ffffffffffffffffffffffffffffffffffffffff16146113b257600080fd5b80600360006101000a81548173ffffffffffffffffffffffffffffffffffffffff021916908373ffffffffffffffffffffffffffffffffffffffff16021790555050565b600060019054906101000a900460ff16806114155750611414611798565b5b8061142c57506000809054906101000a900460ff16155b611481576040517f08c379a000000000000000000000000000000000000000000000000000000000815260040180806020018281038252602e8152602001806117b0602e913960400191505060405180910390fd5b60008060019054906101000a900460ff1615905080156114d1576001600060016101000a81548160ff02191690831515021790555060016000806101000a81548160ff0219169083151502179055505b86600060026101000a81548173ffffffffffffffffffffffffffffffffffffffff021916908373ffffffffffffffffffffffffffffffffffffffff16021790555085600160006101000a81548173ffffffffffffffffffffffffffffffffffffffff021916908373ffffffffffffffffffffffffffffffffffffffff16021790555083600360006101000a81548173ffffffffffffffffffffffffffffffffffffffff021916908373ffffffffffffffffffffffffffffffffffffffff16021790555084600260006101000a81548173ffffffffffffffffffffffffffffffffffffffff021916908373ffffffffffffffffffffffffffffffffffffffff16021790555082420160048190555081600681905550600073ffffffffffffffffffffffffffffffffffffffff16600360009054906101000a900473ffffffffffffffffffffffffffffffffffffffff1673ffffffffffffffffffffffffffffffffffffffff1614611657576001600560006101000a81548160ff0219169083151502179055505b600160009054906101000a900473ffffffffffffffffffffffffffffffffffffffff1673ffffffffffffffffffffffffffffffffffffffff16632a395162600260009054906101000a900473ffffffffffffffffffffffffffffffffffffffff16306040518363ffffffff1660e01b8152600401808373ffffffffffffffffffffffffffffffffffffffff1673ffffffffffffffffffffffffffffffffffffffff1681526020018273ffffffffffffffffffffffffffffffffffffffff1673ffffffffffffffffffffffffffffffffffffffff16815260200192505050600060405180830381600087803b15801561174e57600080fd5b505af1158015611762573d6000803e3d6000fd5b5050505080156117875760008060016101000a81548160ff0219169083151502179055505b50505050505050565b600047905090565b6000803090506000813b905060008114925050509056fe496e697469616c697a61626c653a20636f6e747261637420697320616c726561647920696e697469616c697a6564a2646970667358221220cba31bb90661b6847bc7360db9b2b4a6424ebc80240a14bfde7eaeb900ebc3f264736f6c634300060a0033",
	"immutableReferences": {},
	"source": "pragma solidity >=0.4.22 <0.7.0;\nimport \"@openzeppelin/contracts/proxy/Initializable.sol\";\n\ncontract TimeLock is Initializable {\n    IStakingAuRa stakingContract;\n    IResolver resolverContract;\n    address owner;\n    address defaultPool;\n    uint256 releaseTime;\n    bool forwardOnReceive;\n    uint256 constant MIN_DELEGATOR_STAKE = 10000000000000000000000;\n    uint256 constant VEST_STEP = 2629743;\n    uint256 constant LAST_VEST_PERIOD = 6;\n\n    uint256 lockThreshold;\n    uint256 stakeSum;\n\n    modifier onlyOwner {\n        require(msg.sender == owner);\n        _;\n    }\n\n    function initialize(\n        address _stakingContract,\n        address _resolverContract,\n        address _owner,\n        address _defaultPool,\n        uint _lockTime,\n        uint256 _lockThreshold\n    ) public initializer {\n        stakingContract = IStakingAuRa(_stakingContract);\n        resolverContract = IResolver(_resolverContract);\n        defaultPool = _defaultPool;\n        owner = _owner;\n        releaseTime = now + _lockTime;\n        lockThreshold = _lockThreshold;\n        if (defaultPool != address(0x0)) {\n            forwardOnReceive = true;\n        }\n\n        resolverContract.addLockupAddress(owner, address(this));\n    }\n\n    receive() external payable {\n        if (forwardOnReceive) {\n            bool allowed = stakingContract.areStakeAndWithdrawAllowed();\n            uint256 stake = stakingContract.stakeAmount(defaultPool, address(this));\n            if (msg.value < MIN_DELEGATOR_STAKE) {\n                if (stake < MIN_DELEGATOR_STAKE) {\n                    allowed = false;\n                }\n            }\n            if (allowed) {\n                stakingContract.stake.value(msg.value)(defaultPool, msg.value);\n                stakeSum += msg.value;\n                // check if it was first stake and disable\n                if (stake == 0) {\n                    forwardOnReceive = false;\n                }\n            }\n        }\n    }\n\n    function getOwner() external view returns (address x) {\n        return owner;\n    }\n\n    function getDefaultPool() external view returns (address x) {\n        return defaultPool;\n    }\n\n    function enableForwarding() external onlyOwner {\n        forwardOnReceive = true;\n    }\n\n    function disableForwarding() external onlyOwner {\n        forwardOnReceive = false;\n    }\n\n    function isForwardingEnabled() external view returns (bool x) {\n        return forwardOnReceive;\n    }\n\n    function withdraw() external onlyOwner {\n        // check if user has funds due for pay out because lock time is over\n        require(address(this).balance != 0);\n\n        uint256 max = maxWithdrawAllowed();\n        require(max > 0);\n\n        msg.sender.transfer(max);\n    }\n\n    function getTotalStaked() external view returns (uint256 x) {\n        return stakeSum;\n    }\n\n    function getNonStakedFunds() external view returns (uint x) {\n        return address(this).balance;\n    }\n\n    function getLockedFundsReleaseTime() external view returns (uint x) {\n        return releaseTime;\n    }\n\n    function getLockThreshold() public view returns (uint256 x) {\n        return lockThreshold;\n    }\n\n    function maxWithdrawAllowed() public view returns (uint256 x) {\n        uint256 totalAmount = address(this).balance;\n        if (releaseTime < now) {\n            return totalAmount;\n        }\n\n        uint256 totalLocked = lockThreshold;\n        if (lockThreshold > stakeSum) {\n            totalLocked = lockThreshold - stakeSum;\n        } else {\n            totalLocked = 0;\n        }\n\n        uint256 remainingMonths = (releaseTime - now) / VEST_STEP ;\n        if (remainingMonths >= LAST_VEST_PERIOD) {\n            if (totalAmount > totalLocked) {\n                return totalAmount - totalLocked;\n            }\n            return 0;\n        }\n\n        uint256 unlocked = (LAST_VEST_PERIOD - remainingMonths) / LAST_VEST_PERIOD * lockThreshold;\n        if (totalLocked > unlocked){\n        totalLocked -= unlocked;\n        }\n\n        return totalAmount - totalLocked;\n    }\n\n    function stake(address _pool, uint256 _amount) external onlyOwner {\n        require(address(this).balance >= _amount);\n        uint256 stake = stakingContract.stakeAmount(_pool, address(this));\n        stakingContract.stake.value(_amount)(_pool, _amount);\n        stakeSum += _amount;\n        // check if it was first stake and disable\n        if (stake == 0) {\n            forwardOnReceive = false;\n        }\n    }\n\n    function unstake(address _pool, uint256 _amount) external onlyOwner {\n        bool forward = forwardOnReceive;\n        forwardOnReceive = false;\n\n        stakingContract.withdraw(_pool, _amount);\n        stakeSum -= _amount;\n        forwardOnReceive = forward;\n    }\n\n    function changeDefaultPool(address _newPool) external onlyOwner {\n        defaultPool = _newPool;\n    }\n\n    function stakeAmount(address _pool) external view returns(uint256) {\n        uint256 amount = stakingContract.stakeAmount(_pool, address(this));\n        return amount;\n    }\n\n    function requestUnstake(address _pool, uint256 _amount) external onlyOwner {\n        stakingContract.orderWithdraw(_pool, int256(_amount));\n    }\n\n    function claimUnstakeRequest(address _pool) external onlyOwner {\n        stakingContract.claimOrderedWithdraw(_pool);\n    }\n}\n\ninterface IResolver {\n    function addLockupAddress(address _account, address _lockup) external;\n}\n\ninterface IStakingAuRa {\n    function stake(address _toPoolStakingAddress, uint256 _amount) external payable;\n    function withdraw(address _fromPoolStakingAddress, uint256 _amount) external;\n    function stakeAmount(address, address) external view returns(uint256);\n    function areStakeAndWithdrawAllowed() external view returns(bool);\n    function orderWithdraw(address _poolStakingAddress, int256 _amount) external;\n    function claimOrderedWithdraw(address _poolStakingAddress) external;\n}",
	"sourcePath": "/Users/tetyanalevochko/go/src/github.com/velas/lockup-contracts/contracts/TimeLock.sol",
	"compiler": {
		"name": "solc",
		"version": "0.6.10+commit.00c0fcaf.Emscripten.clang"
	},
	"schemaVersion": "3.2.5",
	"updatedAt": "2021-02-11T13:39:15.269Z",
	"devdoc": {
		"methods": {}
	},
	"userdoc": {
		"methods": {}
	}
}