{
	"contractName": "Resolver",
	"abi": [
		{
			"inputs": [
				{
					"internalType": "address",
					"name": "_account",
					"type": "address"
				},
				{
					"internalType": "address",
					"name": "_lockup",
					"type": "address"
				}
			],
			"name": "addLockupAddress",
			"outputs": [],
			"stateMutability": "nonpayable",
			"type": "function"
		},
		{
			"constant": true,
			"inputs": [
				{
					"internalType": "address",
					"name": "_account",
					"type": "address"
				}
			],
			"name": "getLockups",
			"outputs": [
				{
					"internalType": "address[]",
					"name": "",
					"type": "address[]"
				}
			],
			"stateMutability": "view",
			"type": "function"
		}
	],
	"bytecode": "0x608060405234801561001057600080fd5b506102e3806100206000396000f3fe608060405234801561001057600080fd5b50600436106100365760003560e01c80630f36e18b1461003b5780632a395162146100d4575b600080fd5b61007d6004803603602081101561005157600080fd5b81019080803573ffffffffffffffffffffffffffffffffffffffff169060200190929190505050610138565b6040518080602001828103825283818151815260200191508051906020019060200280838360005b838110156100c05780820151818401526020810190506100a5565b505050509050019250505060405180910390f35b610136600480360360408110156100ea57600080fd5b81019080803573ffffffffffffffffffffffffffffffffffffffff169060200190929190803573ffffffffffffffffffffffffffffffffffffffff169060200190929190505050610204565b005b60606000808373ffffffffffffffffffffffffffffffffffffffff1673ffffffffffffffffffffffffffffffffffffffff1681526020019081526020016000208054806020026020016040519081016040528092919081815260200182805480156101f857602002820191906000526020600020905b8160009054906101000a900473ffffffffffffffffffffffffffffffffffffffff1673ffffffffffffffffffffffffffffffffffffffff16815260200190600101908083116101ae575b50505050509050919050565b60008060008473ffffffffffffffffffffffffffffffffffffffff1673ffffffffffffffffffffffffffffffffffffffff168152602001908152602001600020905080829080600181540180825580915050600190039060005260206000200160009091909190916101000a81548173ffffffffffffffffffffffffffffffffffffffff021916908373ffffffffffffffffffffffffffffffffffffffff16021790555050505056fea264697066735822122051bce53718ab3f558570f9a8c6260288c59ad75d0bac2a344a775545eeb781ad64736f6c634300060a0033",
	"immutableReferences": {},
	"source": "pragma solidity >=0.4.22 <0.7.0;\n\ncontract Resolver {\n    mapping(address => address[]) internal locks;\n\n    function addLockupAddress(address _account, address _lockup) external {\n        address[] storage lockups = locks[_account];\n        lockups.push(_lockup);\n    }\n\n    function getLockups(address _account) view external returns(address[] memory) {\n        return locks[_account];\n    }\n}\n",
	"sourcePath": "/Users/tetyanalevochko/go/src/github.com/velas/lockup-contracts/contracts/Resolver.sol",
	"compiler": {
		"name": "solc",
		"version": "0.6.10+commit.00c0fcaf.Emscripten.clang"
	},
	"schemaVersion": "3.2.5",
	"updatedAt": "2021-02-03T11:44:28.165Z",
	"devdoc": {
		"methods": {}
	},
	"userdoc": {
		"methods": {}
	}
}