{
  "contractName": "TxPermission",
  "abi": [
    {
      "constant": true,
      "inputs": [],
      "name": "BLOCK_GAS_LIMIT_REDUCED",
      "outputs": [
        {
          "name": "",
          "type": "uint256"
        }
      ],
      "payable": false,
      "stateMutability": "view",
      "type": "function"
    },
    {
      "constant": true,
      "inputs": [],
      "name": "BLOCK_GAS_LIMIT",
      "outputs": [
        {
          "name": "",
          "type": "uint256"
        }
      ],
      "payable": false,
      "stateMutability": "view",
      "type": "function"
    },
    {
      "constant": true,
      "inputs": [],
      "name": "validatorSetContract",
      "outputs": [
        {
          "name": "",
          "type": "address"
        }
      ],
      "payable": false,
      "stateMutability": "view",
      "type": "function"
    },
    {
      "constant": false,
      "inputs": [
        {
          "name": "_allowed",
          "type": "address[]"
        },
        {
          "name": "_validatorSet",
          "type": "address"
        }
      ],
      "name": "initialize",
      "outputs": [],
      "payable": false,
      "stateMutability": "nonpayable",
      "type": "function"
    },
    {
      "constant": false,
      "inputs": [
        {
          "name": "_sender",
          "type": "address"
        }
      ],
      "name": "addAllowedSender",
      "outputs": [],
      "payable": false,
      "stateMutability": "nonpayable",
      "type": "function"
    },
    {
      "constant": false,
      "inputs": [
        {
          "name": "_sender",
          "type": "address"
        }
      ],
      "name": "removeAllowedSender",
      "outputs": [],
      "payable": false,
      "stateMutability": "nonpayable",
      "type": "function"
    },
    {
      "constant": true,
      "inputs": [],
      "name": "contractName",
      "outputs": [
        {
          "name": "",
          "type": "string"
        }
      ],
      "payable": false,
      "stateMutability": "pure",
      "type": "function"
    },
    {
      "constant": true,
      "inputs": [],
      "name": "contractNameHash",
      "outputs": [
        {
          "name": "",
          "type": "bytes32"
        }
      ],
      "payable": false,
      "stateMutability": "pure",
      "type": "function"
    },
    {
      "constant": true,
      "inputs": [],
      "name": "contractVersion",
      "outputs": [
        {
          "name": "",
          "type": "uint256"
        }
      ],
      "payable": false,
      "stateMutability": "pure",
      "type": "function"
    },
    {
      "constant": true,
      "inputs": [],
      "name": "allowedSenders",
      "outputs": [
        {
          "name": "",
          "type": "address[]"
        }
      ],
      "payable": false,
      "stateMutability": "view",
      "type": "function"
    },
    {
      "constant": true,
      "inputs": [
        {
          "name": "_sender",
          "type": "address"
        },
        {
          "name": "_to",
          "type": "address"
        },
        {
          "name": "_value",
          "type": "uint256"
        },
        {
          "name": "_gasPrice",
          "type": "uint256"
        },
        {
          "name": "_data",
          "type": "bytes"
        }
      ],
      "name": "allowedTxTypes",
      "outputs": [
        {
          "name": "typesMask",
          "type": "uint32"
        },
        {
          "name": "cache",
          "type": "bool"
        }
      ],
      "payable": false,
      "stateMutability": "view",
      "type": "function"
    },
    {
      "constant": true,
      "inputs": [],
      "name": "blockGasLimit",
      "outputs": [
        {
          "name": "",
          "type": "uint256"
        }
      ],
      "payable": false,
      "stateMutability": "view",
      "type": "function"
    },
    {
      "constant": true,
      "inputs": [],
      "name": "isInitialized",
      "outputs": [
        {
          "name": "",
          "type": "bool"
        }
      ],
      "payable": false,
      "stateMutability": "view",
      "type": "function"
    },
    {
      "constant": true,
      "inputs": [
        {
          "name": "_sender",
          "type": "address"
        }
      ],
      "name": "isSenderAllowed",
      "outputs": [
        {
          "name": "",
          "type": "bool"
        }
      ],
      "payable": false,
      "stateMutability": "view",
      "type": "function"
    }
  ],
  "bytecode": "0x608060405234801561001057600080fd5b506111d6806100206000396000f3fe608060405234801561001057600080fd5b50600436106100ea5760003560e01c80637877a7971161008c578063c746c8f411610066578063c746c8f41461039e578063d9eb2d5e146103c4578063dfc8bf4e146103cc578063efc78401146103f0576100ea565b80637877a797146102a3578063a0a8e460146102ab578063b9056afa146102b3576100ea565b8063462d0b2e116100c8578063462d0b2e1461017d578063469ab1e3146101f8578063471eab5c1461020057806375d0c0dc14610226576100ea565b80631b9f67a1146100ef5780633272b28c14610109578063392e53cd14610161575b600080fd5b6100f7610416565b60408051918252519081900360200190f35b61011161041d565b60408051602080825283518183015283519192839290830191858101910280838360005b8381101561014d578181015183820152602001610135565b505050509050019250505060405180910390f35b610169610480565b604080519115158252519081900360200190f35b6101f66004803603604081101561019357600080fd5b8101906020810181356401000000008111156101ae57600080fd5b8201836020820111156101c057600080fd5b803590602001918460208302840111640100000000831117156101e257600080fd5b9193509150356001600160a01b0316610491565b005b6100f7610540565b6101f66004803603602081101561021657600080fd5b50356001600160a01b03166105bc565b61022e6106b0565b6040805160208082528351818301528351919283929083019185019080838360005b83811015610268578181015183820152602001610250565b50505050905090810190601f1680156102955780820380516001836020036101000a031916815260200191505b509250505060405180910390f35b6100f76106e0565b6100f76107ff565b61037e600480360360a08110156102c957600080fd5b6001600160a01b03823581169260208101359091169160408201359160608101359181019060a08101608082013564010000000081111561030957600080fd5b82018360208201111561031b57600080fd5b8035906020019184600183028401116401000000008311171561033d57600080fd5b91908080601f016020809104026020016040519081016040528093929190818152602001838380828437600092019190915250929550610804945050505050565b6040805163ffffffff909316835290151560208301528051918290030190f35b6101f6600480360360208110156103b457600080fd5b50356001600160a01b031661101c565b6100f761105b565b6103d4611062565b604080516001600160a01b039092168252519081900360200190f35b6101696004803603602081101561040657600080fd5b50356001600160a01b0316611071565b621e848081565b6060600080548060200260200160405190810160405280929190818152602001828054801561047557602002820191906000526020600020905b81546001600160a01b03168152600190910190602001808311610457575b505050505090505b90565b6001546001600160a01b0316151590565b4315806104b657506104a16110ca565b6001600160a01b0316336001600160a01b0316145b6104bf57600080fd5b6104c7610480565b156104d157600080fd5b6001600160a01b0381166104e457600080fd5b60005b8281101561051b576105138484838181106104fe57fe5b905060200201356001600160a01b03166110ef565b6001016104e7565b50600180546001600160a01b0319166001600160a01b03929092169190911790555050565b600061054a6106b0565b6040516020018082805190602001908083835b6020831061057c5780518252601f19909201916020918201910161055d565b6001836020036101000a03801982511681845116808217855250505050505090500191505060405160208183030381529060405280519060200120905090565b6105c46110ca565b6001600160a01b0316336001600160a01b0316146105e157600080fd5b6105e9610480565b6105f257600080fd5b60008054905b818110156106aa576000818154811061060d57fe5b6000918252602090912001546001600160a01b03848116911614156106a2576000600183038154811061063c57fe5b600091825260208220015481546001600160a01b0390911691908390811061066057fe5b6000918252602082200180546001600160a01b0319166001600160a01b03939093169290921790915580549061069a906000198301611164565b5050506106ad565b6001016105f8565b50505b50565b604080518082019091526016815275151617d41154935254d4d253d397d0d3d395149050d560521b602082015290565b600080600160009054906101000a90046001600160a01b03166001600160a01b031663ee99205c6040518163ffffffff1660e01b815260040160206040518083038186803b15801561073157600080fd5b505afa158015610745573d6000803e3d6000fd5b505050506040513d602081101561075b57600080fd5b50516040805163461121d760e11b815290519192506000916001600160a01b03841691638c2243ae916004808301926020929190829003018186803b1580156107a357600080fd5b505afa1580156107b7573d6000803e3d6000fd5b505050506040513d60208110156107cd57600080fd5b5051905043600019820114806107e257508043145b156107f457621e84809250505061047d565b629896809250505090565b600390565b60008061081087611071565b15610824575063ffffffff90506000611012565b60006060815b600486511015801561083c5750600481105b1561086f578060080286828151811061085157fe5b01602001516001600160f81b031916901c929092179160010161082a565b600160009054906101000a90046001600160a01b03166001600160a01b031663ccf69e9b6040518163ffffffff1660e01b815260040160206040518083038186803b1580156108bd57600080fd5b505afa1580156108d1573d6000803e3d6000fd5b505050506040513d60208110156108e757600080fd5b50516001600160a01b038a811691161415610b90576001546040805163ccf69e9b60e01b815290516000926001600160a01b03169163ccf69e9b916004808301926020929190829003018186803b15801561094157600080fd5b505afa158015610955573d6000803e3d6000fd5b505050506040513d602081101561096b57600080fd5b5051875190915060206003199091011161098957600487510361098c565b60205b6040519080825280601f01601f1916602001820160405280156109b6576020820181803883390190505b509250600091505b8251821015610a0f578682600401815181106109d657fe5b602001015160f81c60f81b8383815181106109ed57fe5b60200101906001600160f81b031916908160001a9053506001909101906109be565b6001600160e01b03198416630b61ba8560e01b1415610adf576000838060200190516020811015610a3f57600080fd5b5051604080516306f084f160e51b81526001600160a01b038f811660048301526024820184905291519293509084169163de109e2091604480820192602092909190829003018186803b158015610a9557600080fd5b505afa158015610aa9573d6000803e3d6000fd5b505050506040513d6020811015610abf57600080fd5b5051610acc576000610acf565b60025b6000965096505050505050611012565b6001600160e01b0319841663fe7d567d60e01b1480610b0e57506001600160e01b03198416634c6fb3e360e11b145b15610b80576000838060200190516020811015610b2a57600080fd5b50516040805163fd6c1d1560e01b81526001600160a01b038f811660048301526024820184905291519293509084169163fd6c1d1591604480820192602092909190829003018186803b158015610a9557600080fd5b6000809550955050505050611012565b6001546001600160a01b038a811691161415610eb3576001600160e01b031983166349da712f60e11b1415610c5557600160009054906101000a90046001600160a01b03166001600160a01b0316633d3b54586040518163ffffffff1660e01b815260040160206040518083038186803b158015610c0d57600080fd5b505afa158015610c21573d6000803e3d6000fd5b505050506040513d6020811015610c3757600080fd5b5051610c44576000610c47565b60025b600094509450505050611012565b6001600160e01b03198316630311db7560e61b1415610e1a576040600487510311610c84576004865103610c87565b60405b6040519080825280601f01601f191660200182016040528015610cb1576020820181803883390190505b509150600090505b8151811015610d0757858160040181518110610cd157fe5b602001015160f81c60f81b828281518110610ce857fe5b60200101906001600160f81b031916908160001a905350600101610cb9565b600080838060200190516040811015610d1f57600080fd5b810190808051906020019092919080519060200190929190505050915091506000600160009054906101000a90046001600160a01b03166001600160a01b031663a670eb568e85856040518463ffffffff1660e01b815260040180846001600160a01b03166001600160a01b03168152602001836001600160a01b03166001600160a01b031681526020018281526020019350505050604080518083038186803b158015610dcc57600080fd5b505afa158015610de0573d6000803e3d6000fd5b505050506040513d6040811015610df657600080fd5b5051905080610e06576000610e09565b60025b600097509750505050505050611012565b8615610eb3576001546040805163facd743b60e01b81526001600160a01b038d811660048301529151919092169163facd743b916024808301926020929190829003018186803b158015610e6d57600080fd5b505afa158015610e81573d6000803e3d6000fd5b505050506040513d6020811015610e9757600080fd5b5051610ea4576002610c47565b60008094509450505050611012565b6001546040805163facd743b60e01b81526001600160a01b038d811660048301529151919092169163facd743b916024808301926020929190829003018186803b158015610f0057600080fd5b505afa158015610f14573d6000803e3d6000fd5b505050506040513d6020811015610f2a57600080fd5b50518015610f385750600087115b15610f665760008a6001600160a01b03163111610f56576000610c47565b6001600094509450505050611012565b6001546040805163facd743b60e01b81526001600160a01b038c811660048301529151919092169163facd743b916024808301926020929190829003018186803b158015610fb357600080fd5b505afa158015610fc7573d6000803e3d6000fd5b505050506040513d6020811015610fdd57600080fd5b505115610ff35760008094509450505050611012565b60008711611002576000611008565b63ffffffff5b6000945094505050505b9550959350505050565b6110246110ca565b6001600160a01b0316336001600160a01b03161461104157600080fd5b611049610480565b61105257600080fd5b6106ad816110ef565b6298968081565b6001546001600160a01b031681565b60008054815b818110156110be576000818154811061108c57fe5b6000918252602090912001546001600160a01b03858116911614156110b6576001925050506110c5565b600101611077565b5060009150505b919050565b7fb53127684a568b3173ae13b9f8a6016e243e63b6e8ee1178d6a717850b5d61035490565b6110f881611071565b1561110257600080fd5b6001600160a01b03811661111557600080fd5b600080546001810182559080527f290decd9548b62a8d60345a988386fc84ba6bc95484008f6362f93160ef3e5630180546001600160a01b0319166001600160a01b0392909216919091179055565b8154818355818111156106aa576000838152602090206106aa91810190830161047d91905b8082111561119d5760008155600101611189565b509056fea265627a7a72305820c354d2955c10cf1d0a18a3ea354157f57264dc16ebedb73fbbcfbd5156031ca164736f6c634300050a0032",
  "source": "pragma solidity 0.5.10;\n\nimport \"./interfaces/IRandomAuRa.sol\";\nimport \"./interfaces/IStakingAuRa.sol\";\nimport \"./interfaces/ITxPermission.sol\";\nimport \"./interfaces/IValidatorSetAuRa.sol\";\nimport \"./upgradeability/UpgradeableOwned.sol\";\n\n\n/// @dev Controls the use of zero gas price by validators in service transactions,\n/// protecting the network against \"transaction spamming\" by malicious validators.\n/// The protection logic is declared in the `allowedTxTypes` function.\ncontract TxPermission is UpgradeableOwned, ITxPermission {\n\n    // =============================================== Storage ========================================================\n\n    // WARNING: since this contract is upgradeable, do not remove\n    // existing storage variables, do not change their order,\n    // and do not change their types!\n\n    address[] internal _allowedSenders;\n\n    /// @dev The address of the `ValidatorSetAuRa` contract.\n    IValidatorSetAuRa public validatorSetContract;\n\n    // ============================================== Constants =======================================================\n\n    /// @dev A constant that defines a regular block gas limit.\n    /// Used by the `blockGasLimit` public getter.\n    uint256 public constant BLOCK_GAS_LIMIT = 10000000;\n\n    /// @dev A constant that defines a reduced block gas limit.\n    /// Used by the `blockGasLimit` public getter.\n    uint256 public constant BLOCK_GAS_LIMIT_REDUCED = 2000000;\n\n    // ============================================== Modifiers =======================================================\n\n    /// @dev Ensures the `initialize` function was called before.\n    modifier onlyInitialized {\n        require(isInitialized());\n        _;\n    }\n\n    // =============================================== Setters ========================================================\n\n    /// @dev Initializes the contract at network startup.\n    /// Can only be called by the constructor of the `InitializerAuRa` contract or owner.\n    /// @param _allowed The addresses for which transactions of any type must be allowed.\n    /// See the `allowedTxTypes` getter.\n    /// @param _validatorSet The address of the `ValidatorSetAuRa` contract.\n    function initialize(\n        address[] calldata _allowed,\n        address _validatorSet\n    ) external {\n        require(block.number == 0 || msg.sender == _admin());\n        require(!isInitialized());\n        require(_validatorSet != address(0));\n        for (uint256 i = 0; i < _allowed.length; i++) {\n            _addAllowedSender(_allowed[i]);\n        }\n        validatorSetContract = IValidatorSetAuRa(_validatorSet);\n    }\n\n    /// @dev Adds the address for which transactions of any type must be allowed.\n    /// Can only be called by the `owner`. See also the `allowedTxTypes` getter.\n    /// @param _sender The address for which transactions of any type must be allowed.\n    function addAllowedSender(address _sender) public onlyOwner onlyInitialized {\n        _addAllowedSender(_sender);\n    }\n\n    /// @dev Removes the specified address from the array of addresses allowed\n    /// to initiate transactions of any type. Can only be called by the `owner`.\n    /// See also the `addAllowedSender` function and `allowedSenders` getter.\n    /// @param _sender The removed address.\n    function removeAllowedSender(address _sender) public onlyOwner onlyInitialized {\n        uint256 allowedSendersLength = _allowedSenders.length;\n\n        for (uint256 i = 0; i < allowedSendersLength; i++) {\n            if (_sender == _allowedSenders[i]) {\n                _allowedSenders[i] = _allowedSenders[allowedSendersLength - 1];\n                _allowedSenders.length--;\n                return;\n            }\n        }\n    }\n\n    // =============================================== Getters ========================================================\n\n    /// @dev Returns the contract's name recognizable by node's engine.\n    function contractName() public pure returns(string memory) {\n        return \"TX_PERMISSION_CONTRACT\";\n    }\n\n    /// @dev Returns the contract name hash needed for node's engine.\n    function contractNameHash() public pure returns(bytes32) {\n        return keccak256(abi.encodePacked(contractName()));\n    }\n\n    /// @dev Returns the contract's version number needed for node's engine.\n    function contractVersion() public pure returns(uint256) {\n        return 3;\n    }\n\n    /// @dev Returns the list of addresses allowed to initiate transactions of any type.\n    /// For these addresses the `allowedTxTypes` getter always returns the `ALL` bit mask\n    /// (see https://wiki.parity.io/Permissioning.html#how-it-works-1).\n    function allowedSenders() public view returns(address[] memory) {\n        return _allowedSenders;\n    }\n\n    /// @dev Defines the allowed transaction types which may be initiated by the specified sender with\n    /// the specified gas price and data. Used by node's engine each time a transaction is about to be\n    /// included into a block. See https://wiki.parity.io/Permissioning.html#how-it-works-1\n    /// @param _sender Transaction sender address.\n    /// @param _to Transaction recipient address. If creating a contract, the `_to` address is zero.\n    /// @param _value Transaction amount in wei.\n    /// @param _gasPrice Gas price in wei for the transaction.\n    /// @param _data Transaction data.\n    /// @return `uint32 typesMask` - Set of allowed transactions for `_sender` depending on tx `_to` address,\n    /// `_gasPrice`, and `_data`. The result is represented as a set of flags:\n    /// 0x01 - basic transaction (e.g. ether transferring to user wallet);\n    /// 0x02 - contract call;\n    /// 0x04 - contract creation;\n    /// 0x08 - private transaction.\n    /// `bool cache` - If `true` is returned, the same permissions will be applied from the same\n    /// `_sender` without calling this contract again.\n    function allowedTxTypes(\n        address _sender,\n        address _to,\n        uint256 _value,\n        uint256 _gasPrice,\n        bytes memory _data\n    )\n        public\n        view\n        returns(uint32 typesMask, bool cache)\n    {\n        if (isSenderAllowed(_sender)) {\n            // Let the `_sender` initiate any transaction if the `_sender` is in the `allowedSenders` list\n            return (ALL, false);\n        }\n\n        // Get the called function's signature\n        bytes4 signature = bytes4(0);\n        bytes memory abiParams;\n        uint256 i;\n        for (i = 0; _data.length >= 4 && i < 4; i++) {\n            signature |= bytes4(_data[i]) >> i*8;\n        }\n\n        if (_to == validatorSetContract.randomContract()) {\n            address randomContract = validatorSetContract.randomContract();\n            abiParams = new bytes(_data.length - 4 > 32 ? 32 : _data.length - 4);\n\n            for (i = 0; i < abiParams.length; i++) {\n                abiParams[i] = _data[i + 4];\n            }\n\n            if (signature == COMMIT_HASH_SIGNATURE) {\n                (bytes32 numberHash) = abi.decode(abiParams, (bytes32));\n                return (IRandomAuRa(randomContract).commitHashCallable(_sender, numberHash) ? CALL : NONE, false);\n            } else if (signature == REVEAL_NUMBER_SIGNATURE || signature == REVEAL_SECRET_SIGNATURE) {\n                (uint256 number) = abi.decode(abiParams, (uint256));\n                return (IRandomAuRa(randomContract).revealNumberCallable(_sender, number) ? CALL : NONE, false);\n            } else {\n                return (NONE, false);\n            }\n        }\n\n        if (_to == address(validatorSetContract)) {\n            // The rules for the ValidatorSetAuRa contract\n            if (signature == EMIT_INITIATE_CHANGE_SIGNATURE) {\n                // The `emitInitiateChange()` can be called by anyone\n                // if `emitInitiateChangeCallable()` returns `true`\n                return (validatorSetContract.emitInitiateChangeCallable() ? CALL : NONE, false);\n            } else if (signature == REPORT_MALICIOUS_SIGNATURE) {\n                abiParams = new bytes(_data.length - 4 > 64 ? 64 : _data.length - 4);\n\n                for (i = 0; i < abiParams.length; i++) {\n                    abiParams[i] = _data[i + 4];\n                }\n\n                (\n                    address maliciousMiningAddress,\n                    uint256 blockNumber\n                ) = abi.decode(\n                    abiParams,\n                    (address, uint256)\n                );\n\n                // The `reportMalicious()` can only be called by the validator's mining address\n                // when the calling is allowed\n                (bool callable,) = validatorSetContract.reportMaliciousCallable(\n                    _sender, maliciousMiningAddress, blockNumber\n                );\n\n                return (callable ? CALL : NONE, false);\n            } else if (_gasPrice > 0) {\n                // The other functions of ValidatorSetAuRa contract can be called\n                // by anyone except validators' mining addresses if gasPrice is not zero\n                return (validatorSetContract.isValidator(_sender) ? NONE : CALL, false);\n            }\n        }\n\n        if (validatorSetContract.isValidator(_sender) && _gasPrice > 0) {\n            // Let the validator's mining address send their accumulated tx fees to some wallet\n            return (_sender.balance > 0 ? BASIC : NONE, false);\n        }\n\n        if (validatorSetContract.isValidator(_to)) {\n            // Validator's mining address can't receive any coins\n            return (NONE, false);\n        }\n\n        // In other cases let the `_sender` create any transaction with non-zero gas price,\n        // don't let them use a zero gas price\n        return (_gasPrice > 0 ? ALL : NONE, false);\n    }\n\n    /// @dev Returns the current block gas limit which depends on the stage of the current\n    /// staking epoch: the block gas limit is temporarily reduced for the latest block of the epoch.\n    function blockGasLimit() public view returns(uint256) {\n        address stakingContract = validatorSetContract.stakingContract();\n        uint256 stakingEpochEndBlock = IStakingAuRa(stakingContract).stakingEpochEndBlock();\n        if (block.number == stakingEpochEndBlock - 1 || block.number == stakingEpochEndBlock) {\n            return BLOCK_GAS_LIMIT_REDUCED;\n        }\n        return BLOCK_GAS_LIMIT;\n    }\n\n    /// @dev Returns a boolean flag indicating if the `initialize` function has been called.\n    function isInitialized() public view returns(bool) {\n        return validatorSetContract != IValidatorSetAuRa(0);\n    }\n\n    /// @dev Returns a boolean flag indicating whether the specified address is allowed\n    /// to initiate transactions of any type. Used by the `allowedTxTypes` getter.\n    /// See also the `addAllowedSender` and `removeAllowedSender` functions.\n    /// @param _sender The specified address to check.\n    function isSenderAllowed(address _sender) public view returns(bool) {\n        uint256 allowedSendersLength = _allowedSenders.length;\n\n        for (uint256 i = 0; i < allowedSendersLength; i++) {\n            if (_sender == _allowedSenders[i]) {\n                return true;\n            }\n        }\n\n        return false;\n    }\n\n    // ============================================== Internal ========================================================\n\n    // Allowed transaction types mask\n    uint32 internal constant NONE = 0;\n    uint32 internal constant ALL = 0xffffffff;\n    uint32 internal constant BASIC = 0x01;\n    uint32 internal constant CALL = 0x02;\n    uint32 internal constant CREATE = 0x04;\n    uint32 internal constant PRIVATE = 0x08;\n\n    // Function signatures\n\n    // bytes4(keccak256(\"commitHash(bytes32,bytes)\"))\n    bytes4 internal constant COMMIT_HASH_SIGNATURE = 0x0b61ba85; \n\n    // bytes4(keccak256(\"emitInitiateChange()\"))\n    bytes4 internal constant EMIT_INITIATE_CHANGE_SIGNATURE = 0x93b4e25e;\n\n    // bytes4(keccak256(\"reportMalicious(address,uint256,bytes)\"))\n    bytes4 internal constant REPORT_MALICIOUS_SIGNATURE = 0xc476dd40;\n\n    // bytes4(keccak256(\"revealSecret(uint256)\"))\n    bytes4 internal constant REVEAL_SECRET_SIGNATURE = 0x98df67c6;\n\n    // bytes4(keccak256(\"revealNumber(uint256)\"))\n    bytes4 internal constant REVEAL_NUMBER_SIGNATURE = 0xfe7d567d;\n\n    /// @dev An internal function used by the `addAllowedSender` and `initialize` functions.\n    /// @param _sender The address for which transactions of any type must be allowed.\n    function _addAllowedSender(address _sender) internal {\n        require(!isSenderAllowed(_sender));\n        require(_sender != address(0));\n        _allowedSenders.push(_sender);\n    }\n}\n",
  "sourcePath": "/home/jack/prog/blkchn/velas/posdao-test-setup/posdao-contracts/contracts/TxPermission.sol",
  "compiler": {
    "name": "solc",
    "version": "0.5.10+commit.5a6ea5b1.Emscripten.clang"
  },
  "schemaVersion": "3.0.17",
  "updatedAt": "2020-02-26T12:57:46.159Z",
  "devdoc": {
    "details": "Controls the use of zero gas price by validators in service transactions, protecting the network against \"transaction spamming\" by malicious validators. The protection logic is declared in the `allowedTxTypes` function.",
    "methods": {
      "addAllowedSender(address)": {
        "details": "Adds the address for which transactions of any type must be allowed. Can only be called by the `owner`. See also the `allowedTxTypes` getter.",
        "params": {
          "_sender": "The address for which transactions of any type must be allowed."
        }
      },
      "allowedSenders()": {
        "details": "Returns the list of addresses allowed to initiate transactions of any type. For these addresses the `allowedTxTypes` getter always returns the `ALL` bit mask (see https://wiki.parity.io/Permissioning.html#how-it-works-1)."
      },
      "allowedTxTypes(address,address,uint256,uint256,bytes)": {
        "details": "Defines the allowed transaction types which may be initiated by the specified sender with the specified gas price and data. Used by node's engine each time a transaction is about to be included into a block. See https://wiki.parity.io/Permissioning.html#how-it-works-1",
        "params": {
          "_data": "Transaction data.",
          "_gasPrice": "Gas price in wei for the transaction.",
          "_sender": "Transaction sender address.",
          "_to": "Transaction recipient address. If creating a contract, the `_to` address is zero.",
          "_value": "Transaction amount in wei."
        },
        "return": "`uint32 typesMask` - Set of allowed transactions for `_sender` depending on tx `_to` address, `_gasPrice`, and `_data`. The result is represented as a set of flags: 0x01 - basic transaction (e.g. ether transferring to user wallet); 0x02 - contract call; 0x04 - contract creation; 0x08 - private transaction. `bool cache` - If `true` is returned, the same permissions will be applied from the same `_sender` without calling this contract again."
      },
      "blockGasLimit()": {
        "details": "Returns the current block gas limit which depends on the stage of the current staking epoch: the block gas limit is temporarily reduced for the latest block of the epoch."
      },
      "contractName()": {
        "details": "Returns the contract's name recognizable by node's engine."
      },
      "contractNameHash()": {
        "details": "Returns the contract name hash needed for node's engine."
      },
      "contractVersion()": {
        "details": "Returns the contract's version number needed for node's engine."
      },
      "initialize(address[],address)": {
        "details": "Initializes the contract at network startup. Can only be called by the constructor of the `InitializerAuRa` contract or owner.",
        "params": {
          "_allowed": "The addresses for which transactions of any type must be allowed. See the `allowedTxTypes` getter.",
          "_validatorSet": "The address of the `ValidatorSetAuRa` contract."
        }
      },
      "isInitialized()": {
        "details": "Returns a boolean flag indicating if the `initialize` function has been called."
      },
      "isSenderAllowed(address)": {
        "details": "Returns a boolean flag indicating whether the specified address is allowed to initiate transactions of any type. Used by the `allowedTxTypes` getter. See also the `addAllowedSender` and `removeAllowedSender` functions.",
        "params": {
          "_sender": "The specified address to check."
        }
      },
      "removeAllowedSender(address)": {
        "details": "Removes the specified address from the array of addresses allowed to initiate transactions of any type. Can only be called by the `owner`. See also the `addAllowedSender` function and `allowedSenders` getter.",
        "params": {
          "_sender": "The removed address."
        }
      }
    }
  },
  "userdoc": {
    "methods": {}
  }
}