{
  "contractName": "StakingAuRa",
  "abi": [
    {
      "constant": true,
      "inputs": [
        {
          "name": "",
          "type": "address"
        },
        {
          "name": "",
          "type": "address"
        },
        {
          "name": "",
          "type": "uint256"
        }
      ],
      "name": "delegatorStakeSnapshot",
      "outputs": [
        {
          "name": "",
          "type": "uint256"
        }
      ],
      "payable": false,
      "stateMutability": "view",
      "type": "function"
    },
    {
      "constant": true,
      "inputs": [
        {
          "name": "",
          "type": "address"
        },
        {
          "name": "",
          "type": "address"
        }
      ],
      "name": "poolDelegatorIndex",
      "outputs": [
        {
          "name": "",
          "type": "uint256"
        }
      ],
      "payable": false,
      "stateMutability": "view",
      "type": "function"
    },
    {
      "constant": false,
      "inputs": [],
      "name": "removePools",
      "outputs": [],
      "payable": false,
      "stateMutability": "nonpayable",
      "type": "function"
    },
    {
      "constant": false,
      "inputs": [
        {
          "name": "_validatorSetContract",
          "type": "address"
        },
        {
          "name": "_initialStakingAddresses",
          "type": "address[]"
        },
        {
          "name": "_delegatorMinStake",
          "type": "uint256"
        },
        {
          "name": "_candidateMinStake",
          "type": "uint256"
        },
        {
          "name": "_stakingEpochDuration",
          "type": "uint256"
        },
        {
          "name": "_stakingEpochStartBlock",
          "type": "uint256"
        },
        {
          "name": "_stakeWithdrawDisallowPeriod",
          "type": "uint256"
        }
      ],
      "name": "initialize",
      "outputs": [],
      "payable": false,
      "stateMutability": "nonpayable",
      "type": "function"
    },
    {
      "constant": false,
      "inputs": [
        {
          "name": "_blockNumber",
          "type": "uint256"
        }
      ],
      "name": "setStakingEpochStartBlock",
      "outputs": [],
      "payable": false,
      "stateMutability": "nonpayable",
      "type": "function"
    },
    {
      "constant": false,
      "inputs": [
        {
          "name": "_fromPoolStakingAddress",
          "type": "address"
        },
        {
          "name": "_toPoolStakingAddress",
          "type": "address"
        },
        {
          "name": "_amount",
          "type": "uint256"
        }
      ],
      "name": "moveStake",
      "outputs": [],
      "payable": false,
      "stateMutability": "nonpayable",
      "type": "function"
    },
    {
      "constant": false,
      "inputs": [
        {
          "name": "_minStake",
          "type": "uint256"
        }
      ],
      "name": "setDelegatorMinStake",
      "outputs": [],
      "payable": false,
      "stateMutability": "nonpayable",
      "type": "function"
    },
    {
      "constant": true,
      "inputs": [
        {
          "name": "",
          "type": "address"
        },
        {
          "name": "",
          "type": "address"
        },
        {
          "name": "",
          "type": "uint256"
        }
      ],
      "name": "rewardWasTaken",
      "outputs": [
        {
          "name": "",
          "type": "bool"
        }
      ],
      "payable": false,
      "stateMutability": "view",
      "type": "function"
    },
    {
      "constant": false,
      "inputs": [
        {
          "name": "_amount",
          "type": "uint256"
        },
        {
          "name": "_miningAddress",
          "type": "address"
        }
      ],
      "name": "addPool",
      "outputs": [],
      "payable": true,
      "stateMutability": "payable",
      "type": "function"
    },
    {
      "constant": true,
      "inputs": [],
      "name": "isInitialized",
      "outputs": [
        {
          "name": "",
          "type": "bool"
        }
      ],
      "payable": false,
      "stateMutability": "view",
      "type": "function"
    },
    {
      "constant": false,
      "inputs": [
        {
          "name": "_stakingAddress",
          "type": "address"
        }
      ],
      "name": "removePool",
      "outputs": [],
      "payable": false,
      "stateMutability": "nonpayable",
      "type": "function"
    },
    {
      "constant": false,
      "inputs": [
        {
          "name": "_stakingEpochs",
          "type": "uint256[]"
        },
        {
          "name": "_poolStakingAddress",
          "type": "address"
        }
      ],
      "name": "claimReward",
      "outputs": [],
      "payable": false,
      "stateMutability": "nonpayable",
      "type": "function"
    },
    {
      "constant": false,
      "inputs": [
        {
          "name": "_minStake",
          "type": "uint256"
        }
      ],
      "name": "setCandidateMinStake",
      "outputs": [],
      "payable": false,
      "stateMutability": "nonpayable",
      "type": "function"
    },
    {
      "constant": true,
      "inputs": [
        {
          "name": "",
          "type": "address"
        }
      ],
      "name": "stakeAmountTotal",
      "outputs": [
        {
          "name": "",
          "type": "uint256"
        }
      ],
      "payable": false,
      "stateMutability": "view",
      "type": "function"
    },
    {
      "constant": true,
      "inputs": [
        {
          "name": "",
          "type": "address"
        },
        {
          "name": "",
          "type": "address"
        }
      ],
      "name": "stakeFirstEpoch",
      "outputs": [
        {
          "name": "",
          "type": "uint256"
        }
      ],
      "payable": false,
      "stateMutability": "view",
      "type": "function"
    },
    {
      "constant": true,
      "inputs": [],
      "name": "candidateMinStake",
      "outputs": [
        {
          "name": "",
          "type": "uint256"
        }
      ],
      "payable": false,
      "stateMutability": "view",
      "type": "function"
    },
    {
      "constant": true,
      "inputs": [
        {
          "name": "",
          "type": "address"
        }
      ],
      "name": "poolInactiveIndex",
      "outputs": [
        {
          "name": "",
          "type": "uint256"
        }
      ],
      "payable": false,
      "stateMutability": "view",
      "type": "function"
    },
    {
      "constant": true,
      "inputs": [],
      "name": "getPools",
      "outputs": [
        {
          "name": "",
          "type": "address[]"
        }
      ],
      "payable": false,
      "stateMutability": "view",
      "type": "function"
    },
    {
      "constant": true,
      "inputs": [
        {
          "name": "_poolStakingAddress",
          "type": "address"
        },
        {
          "name": "_staker",
          "type": "address"
        }
      ],
      "name": "maxWithdrawAllowed",
      "outputs": [
        {
          "name": "",
          "type": "uint256"
        }
      ],
      "payable": false,
      "stateMutability": "view",
      "type": "function"
    },
    {
      "constant": true,
      "inputs": [],
      "name": "stakingEpochStartBlock",
      "outputs": [
        {
          "name": "",
          "type": "uint256"
        }
      ],
      "payable": false,
      "stateMutability": "view",
      "type": "function"
    },
    {
      "constant": true,
      "inputs": [
        {
          "name": "_poolStakingAddress",
          "type": "address"
        }
      ],
      "name": "poolDelegatorsInactive",
      "outputs": [
        {
          "name": "",
          "type": "address[]"
        }
      ],
      "payable": false,
      "stateMutability": "view",
      "type": "function"
    },
    {
      "constant": true,
      "inputs": [
        {
          "name": "_poolStakingAddress",
          "type": "address"
        },
        {
          "name": "_staker",
          "type": "address"
        }
      ],
      "name": "stakeAmountByCurrentEpoch",
      "outputs": [
        {
          "name": "",
          "type": "uint256"
        }
      ],
      "payable": false,
      "stateMutability": "view",
      "type": "function"
    },
    {
      "constant": true,
      "inputs": [],
      "name": "stakingEpoch",
      "outputs": [
        {
          "name": "",
          "type": "uint256"
        }
      ],
      "payable": false,
      "stateMutability": "view",
      "type": "function"
    },
    {
      "constant": true,
      "inputs": [],
      "name": "stakingEpochEndBlock",
      "outputs": [
        {
          "name": "",
          "type": "uint256"
        }
      ],
      "payable": false,
      "stateMutability": "view",
      "type": "function"
    },
    {
      "constant": true,
      "inputs": [
        {
          "name": "_poolStakingAddress",
          "type": "address"
        },
        {
          "name": "_staker",
          "type": "address"
        }
      ],
      "name": "maxWithdrawOrderAllowed",
      "outputs": [
        {
          "name": "",
          "type": "uint256"
        }
      ],
      "payable": false,
      "stateMutability": "view",
      "type": "function"
    },
    {
      "constant": true,
      "inputs": [
        {
          "name": "",
          "type": "address"
        },
        {
          "name": "",
          "type": "address"
        }
      ],
      "name": "poolDelegatorInactiveIndex",
      "outputs": [
        {
          "name": "",
          "type": "uint256"
        }
      ],
      "payable": false,
      "stateMutability": "view",
      "type": "function"
    },
    {
      "constant": true,
      "inputs": [],
      "name": "getPoolsLikelihood",
      "outputs": [
        {
          "name": "likelihoods",
          "type": "uint256[]"
        },
        {
          "name": "sum",
          "type": "uint256"
        }
      ],
      "payable": false,
      "stateMutability": "view",
      "type": "function"
    },
    {
      "constant": true,
      "inputs": [],
      "name": "stakeWithdrawDisallowPeriod",
      "outputs": [
        {
          "name": "",
          "type": "uint256"
        }
      ],
      "payable": false,
      "stateMutability": "view",
      "type": "function"
    },
    {
      "constant": false,
      "inputs": [
        {
          "name": "_unremovableStakingAddress",
          "type": "address"
        }
      ],
      "name": "clearUnremovableValidator",
      "outputs": [],
      "payable": false,
      "stateMutability": "nonpayable",
      "type": "function"
    },
    {
      "constant": true,
      "inputs": [
        {
          "name": "_staker",
          "type": "address"
        },
        {
          "name": "_offset",
          "type": "uint256"
        },
        {
          "name": "_length",
          "type": "uint256"
        }
      ],
      "name": "getStakerPools",
      "outputs": [
        {
          "name": "result",
          "type": "address[]"
        }
      ],
      "payable": false,
      "stateMutability": "view",
      "type": "function"
    },
    {
      "constant": true,
      "inputs": [
        {
          "name": "_poolStakingAddress",
          "type": "address"
        }
      ],
      "name": "poolDelegators",
      "outputs": [
        {
          "name": "",
          "type": "address[]"
        }
      ],
      "payable": false,
      "stateMutability": "view",
      "type": "function"
    },
    {
      "constant": true,
      "inputs": [
        {
          "name": "",
          "type": "address"
        },
        {
          "name": "",
          "type": "address"
        }
      ],
      "name": "orderWithdrawEpoch",
      "outputs": [
        {
          "name": "",
          "type": "uint256"
        }
      ],
      "payable": false,
      "stateMutability": "view",
      "type": "function"
    },
    {
      "constant": true,
      "inputs": [
        {
          "name": "",
          "type": "address"
        },
        {
          "name": "",
          "type": "uint256"
        },
        {
          "name": "",
          "type": "bytes"
        }
      ],
      "name": "onTokenTransfer",
      "outputs": [
        {
          "name": "",
          "type": "bool"
        }
      ],
      "payable": false,
      "stateMutability": "pure",
      "type": "function"
    },
    {
      "constant": true,
      "inputs": [],
      "name": "getPoolsToBeElected",
      "outputs": [
        {
          "name": "",
          "type": "address[]"
        }
      ],
      "payable": false,
      "stateMutability": "view",
      "type": "function"
    },
    {
      "constant": true,
      "inputs": [
        {
          "name": "",
          "type": "address"
        },
        {
          "name": "",
          "type": "address"
        }
      ],
      "name": "stakeAmount",
      "outputs": [
        {
          "name": "",
          "type": "uint256"
        }
      ],
      "payable": false,
      "stateMutability": "view",
      "type": "function"
    },
    {
      "constant": true,
      "inputs": [
        {
          "name": "_staker",
          "type": "address"
        }
      ],
      "name": "getStakerPoolsLength",
      "outputs": [
        {
          "name": "",
          "type": "uint256"
        }
      ],
      "payable": false,
      "stateMutability": "view",
      "type": "function"
    },
    {
      "constant": true,
      "inputs": [
        {
          "name": "_stakingAddress",
          "type": "address"
        }
      ],
      "name": "isPoolActive",
      "outputs": [
        {
          "name": "",
          "type": "bool"
        }
      ],
      "payable": false,
      "stateMutability": "view",
      "type": "function"
    },
    {
      "constant": false,
      "inputs": [
        {
          "name": "_toPoolStakingAddress",
          "type": "address"
        },
        {
          "name": "_amount",
          "type": "uint256"
        }
      ],
      "name": "stake",
      "outputs": [],
      "payable": true,
      "stateMutability": "payable",
      "type": "function"
    },
    {
      "constant": true,
      "inputs": [
        {
          "name": "",
          "type": "address"
        }
      ],
      "name": "poolIndex",
      "outputs": [
        {
          "name": "",
          "type": "uint256"
        }
      ],
      "payable": false,
      "stateMutability": "view",
      "type": "function"
    },
    {
      "constant": false,
      "inputs": [
        {
          "name": "_poolStakingAddress",
          "type": "address"
        },
        {
          "name": "_amount",
          "type": "int256"
        }
      ],
      "name": "orderWithdraw",
      "outputs": [],
      "payable": false,
      "stateMutability": "nonpayable",
      "type": "function"
    },
    {
      "constant": true,
      "inputs": [
        {
          "name": "",
          "type": "address"
        },
        {
          "name": "",
          "type": "address"
        }
      ],
      "name": "stakeLastEpoch",
      "outputs": [
        {
          "name": "",
          "type": "uint256"
        }
      ],
      "payable": false,
      "stateMutability": "view",
      "type": "function"
    },
    {
      "constant": false,
      "inputs": [
        {
          "name": "_poolStakingAddress",
          "type": "address"
        }
      ],
      "name": "claimOrderedWithdraw",
      "outputs": [],
      "payable": false,
      "stateMutability": "nonpayable",
      "type": "function"
    },
    {
      "constant": true,
      "inputs": [],
      "name": "getPoolsToBeRemoved",
      "outputs": [
        {
          "name": "",
          "type": "address[]"
        }
      ],
      "payable": false,
      "stateMutability": "view",
      "type": "function"
    },
    {
      "constant": true,
      "inputs": [],
      "name": "stakingEpochDuration",
      "outputs": [
        {
          "name": "",
          "type": "uint256"
        }
      ],
      "payable": false,
      "stateMutability": "view",
      "type": "function"
    },
    {
      "constant": true,
      "inputs": [],
      "name": "delegatorMinStake",
      "outputs": [
        {
          "name": "",
          "type": "uint256"
        }
      ],
      "payable": false,
      "stateMutability": "view",
      "type": "function"
    },
    {
      "constant": true,
      "inputs": [
        {
          "name": "",
          "type": "address"
        }
      ],
      "name": "orderedWithdrawAmountTotal",
      "outputs": [
        {
          "name": "",
          "type": "uint256"
        }
      ],
      "payable": false,
      "stateMutability": "view",
      "type": "function"
    },
    {
      "constant": true,
      "inputs": [],
      "name": "getPoolsInactive",
      "outputs": [
        {
          "name": "",
          "type": "address[]"
        }
      ],
      "payable": false,
      "stateMutability": "view",
      "type": "function"
    },
    {
      "constant": true,
      "inputs": [],
      "name": "validatorSetContract",
      "outputs": [
        {
          "name": "",
          "type": "address"
        }
      ],
      "payable": false,
      "stateMutability": "view",
      "type": "function"
    },
    {
      "constant": true,
      "inputs": [
        {
          "name": "",
          "type": "address"
        },
        {
          "name": "",
          "type": "address"
        }
      ],
      "name": "orderedWithdrawAmount",
      "outputs": [
        {
          "name": "",
          "type": "uint256"
        }
      ],
      "payable": false,
      "stateMutability": "view",
      "type": "function"
    },
    {
      "constant": false,
      "inputs": [],
      "name": "removeMyPool",
      "outputs": [],
      "payable": false,
      "stateMutability": "nonpayable",
      "type": "function"
    },
    {
      "constant": true,
      "inputs": [
        {
          "name": "",
          "type": "address"
        }
      ],
      "name": "poolToBeRemovedIndex",
      "outputs": [
        {
          "name": "",
          "type": "uint256"
        }
      ],
      "payable": false,
      "stateMutability": "view",
      "type": "function"
    },
    {
      "constant": false,
      "inputs": [],
      "name": "incrementStakingEpoch",
      "outputs": [],
      "payable": false,
      "stateMutability": "nonpayable",
      "type": "function"
    },
    {
      "constant": true,
      "inputs": [],
      "name": "MAX_CANDIDATES",
      "outputs": [
        {
          "name": "",
          "type": "uint256"
        }
      ],
      "payable": false,
      "stateMutability": "view",
      "type": "function"
    },
    {
      "constant": false,
      "inputs": [
        {
          "name": "_fromPoolStakingAddress",
          "type": "address"
        },
        {
          "name": "_amount",
          "type": "uint256"
        }
      ],
      "name": "withdraw",
      "outputs": [],
      "payable": false,
      "stateMutability": "nonpayable",
      "type": "function"
    },
    {
      "constant": true,
      "inputs": [],
      "name": "areStakeAndWithdrawAllowed",
      "outputs": [
        {
          "name": "",
          "type": "bool"
        }
      ],
      "payable": false,
      "stateMutability": "view",
      "type": "function"
    },
    {
      "constant": true,
      "inputs": [
        {
          "name": "",
          "type": "address"
        }
      ],
      "name": "poolToBeElectedIndex",
      "outputs": [
        {
          "name": "",
          "type": "uint256"
        }
      ],
      "payable": false,
      "stateMutability": "view",
      "type": "function"
    },
    {
      "constant": true,
      "inputs": [
        {
          "name": "_stakingEpochs",
          "type": "uint256[]"
        },
        {
          "name": "_poolStakingAddress",
          "type": "address"
        },
        {
          "name": "_staker",
          "type": "address"
        }
      ],
      "name": "getRewardAmount",
      "outputs": [
        {
          "name": "rewardSum",
          "type": "uint256"
        }
      ],
      "payable": false,
      "stateMutability": "view",
      "type": "function"
    },
    {
      "payable": true,
      "stateMutability": "payable",
      "type": "fallback"
    },
    {
      "anonymous": false,
      "inputs": [
        {
          "indexed": true,
          "name": "fromPoolStakingAddress",
          "type": "address"
        },
        {
          "indexed": true,
          "name": "staker",
          "type": "address"
        },
        {
          "indexed": true,
          "name": "stakingEpoch",
          "type": "uint256"
        },
        {
          "indexed": false,
          "name": "nativeCoinsAmount",
          "type": "uint256"
        }
      ],
      "name": "ClaimedReward",
      "type": "event"
    },
    {
      "anonymous": false,
      "inputs": [
        {
          "indexed": true,
          "name": "poolStakingAddress",
          "type": "address"
        }
      ],
      "name": "AddedPool",
      "type": "event"
    },
    {
      "anonymous": false,
      "inputs": [
        {
          "indexed": true,
          "name": "fromPoolStakingAddress",
          "type": "address"
        },
        {
          "indexed": true,
          "name": "staker",
          "type": "address"
        },
        {
          "indexed": true,
          "name": "stakingEpoch",
          "type": "uint256"
        },
        {
          "indexed": false,
          "name": "amount",
          "type": "uint256"
        }
      ],
      "name": "ClaimedOrderedWithdrawal",
      "type": "event"
    },
    {
      "anonymous": false,
      "inputs": [
        {
          "indexed": false,
          "name": "fromPoolStakingAddress",
          "type": "address"
        },
        {
          "indexed": true,
          "name": "toPoolStakingAddress",
          "type": "address"
        },
        {
          "indexed": true,
          "name": "staker",
          "type": "address"
        },
        {
          "indexed": true,
          "name": "stakingEpoch",
          "type": "uint256"
        },
        {
          "indexed": false,
          "name": "amount",
          "type": "uint256"
        }
      ],
      "name": "MovedStake",
      "type": "event"
    },
    {
      "anonymous": false,
      "inputs": [
        {
          "indexed": true,
          "name": "fromPoolStakingAddress",
          "type": "address"
        },
        {
          "indexed": true,
          "name": "staker",
          "type": "address"
        },
        {
          "indexed": true,
          "name": "stakingEpoch",
          "type": "uint256"
        },
        {
          "indexed": false,
          "name": "amount",
          "type": "int256"
        }
      ],
      "name": "OrderedWithdrawal",
      "type": "event"
    },
    {
      "anonymous": false,
      "inputs": [
        {
          "indexed": true,
          "name": "toPoolStakingAddress",
          "type": "address"
        },
        {
          "indexed": true,
          "name": "staker",
          "type": "address"
        },
        {
          "indexed": true,
          "name": "stakingEpoch",
          "type": "uint256"
        },
        {
          "indexed": false,
          "name": "amount",
          "type": "uint256"
        }
      ],
      "name": "PlacedStake",
      "type": "event"
    },
    {
      "anonymous": false,
      "inputs": [
        {
          "indexed": true,
          "name": "poolStakingAddress",
          "type": "address"
        }
      ],
      "name": "RemovedPool",
      "type": "event"
    },
    {
      "anonymous": false,
      "inputs": [
        {
          "indexed": true,
          "name": "fromPoolStakingAddress",
          "type": "address"
        },
        {
          "indexed": true,
          "name": "staker",
          "type": "address"
        },
        {
          "indexed": true,
          "name": "stakingEpoch",
          "type": "uint256"
        },
        {
          "indexed": false,
          "name": "amount",
          "type": "uint256"
        }
      ],
      "name": "WithdrewStake",
      "type": "event"
    }
  ],
  "bytecode": "0x608060405234801561001057600080fd5b50614b2d806100206000396000f3fe6080604052600436106103755760003560e01c806398c46b90116101d1578063d290c21d11610102578063edd7db75116100a0578063f3fef3a31161006f578063f3fef3a314610ece578063f494250114610f07578063fa4aaf4714610f1c578063fb367a9b14610f4f57610375565b8063edd7db7514610e5c578063edf94b8214610e71578063ee435f5514610ea4578063f078609614610eb957610375565b8063dadee88a116100dc578063dadee88a14610da8578063df6f55f514610ddb578063dfc8bf4e14610df0578063e9ab030014610e2157610375565b8063d290c21d14610d69578063d609ea9314610d7e578063da7a9b6a14610d9357610375565b8063a6a3a2561161016f578063b42754a511610149578063b42754a514610c8f578063b61ed63a14610cc2578063bc9eb2c314610cfb578063cfef144114610d3657610375565b8063a6a3a25614610bfd578063a711e6a114610c30578063adc9772e14610c6357610375565b8063a4205967116101ab578063a420596714610aac578063a4c0ed3614610ae7578063a5d54f6514610bad578063a697ecff14610bc257610375565b806398c46b9014610a075780639dc7798814610a3a5780639ea8082b14610a7957610375565b80635659b742116102ab578063750dd2a111610249578063950a651311610223578063950a65131461090c5780639518c48114610947578063957950a71461098257806397997ebb146109f257610375565b8063750dd2a1146108a7578063794c0c68146108e25780638c2243ae146108f757610375565b8063673a2a1f11610285578063673a2a1f146107bf5780636bda1577146108245780637069e7461461085f57806373c218031461087457610375565b80635659b7421461073c5780635fef764314610777578063651139181461078c57610375565b806331727730116103185780633b7d0946116102f25780633b7d0946146105f35780633ea15d621461062657806348aaa4a2146106df5780635267e1d61461070957610375565b8063317277301461055b57806333ba8882146105b2578063392e53cd146105de57610375565b80631c5fb52d116103545780631c5fb52d1461042157806320d96e46146104c4578063251441a9146104ee5780632bafde8d1461053157610375565b80622ceebc1461037a5780630868c0d6146103cf5780631555371c1461040a575b600080fd5b34801561038657600080fd5b506103bd6004803603606081101561039d57600080fd5b506001600160a01b03813581169160208101359091169060400135611013565b60408051918252519081900360200190f35b3480156103db57600080fd5b506103bd600480360360408110156103f257600080fd5b506001600160a01b0381358116916020013516611036565b34801561041657600080fd5b5061041f611053565b005b34801561042d57600080fd5b5061041f600480360360e081101561044457600080fd5b6001600160a01b038235169190810190604081016020820135600160201b81111561046e57600080fd5b82018360208201111561048057600080fd5b803590602001918460208302840111600160201b831117156104a157600080fd5b9193509150803590602081013590604081013590606081013590608001356110ff565b3480156104d057600080fd5b5061041f600480360360208110156104e757600080fd5b5035611176565b3480156104fa57600080fd5b5061041f6004803603606081101561051157600080fd5b506001600160a01b03813581169160208101359091169060400135611192565b34801561053d57600080fd5b5061041f6004803603602081101561055457600080fd5b5035611237565b34801561056757600080fd5b5061059e6004803603606081101561057e57600080fd5b506001600160a01b03813581169160208101359091169060400135611272565b604080519115158252519081900360200190f35b61041f600480360360408110156105c857600080fd5b50803590602001356001600160a01b0316611298565b3480156105ea57600080fd5b5061059e611315565b3480156105ff57600080fd5b5061041f6004803603602081101561061657600080fd5b50356001600160a01b0316611327565b34801561063257600080fd5b5061041f6004803603604081101561064957600080fd5b810190602081018135600160201b81111561066357600080fd5b82018360208201111561067557600080fd5b803590602001918460208302840111600160201b8311171561069657600080fd5b919080806020026020016040519081016040528093929190818152602001838360200280828437600092019190915250929550505090356001600160a01b0316915061134a9050565b3480156106eb57600080fd5b5061041f6004803603602081101561070257600080fd5b503561192b565b34801561071557600080fd5b506103bd6004803603602081101561072c57600080fd5b50356001600160a01b0316611966565b34801561074857600080fd5b506103bd6004803603604081101561075f57600080fd5b506001600160a01b0381358116916020013516611978565b34801561078357600080fd5b506103bd611995565b34801561079857600080fd5b506103bd600480360360208110156107af57600080fd5b50356001600160a01b031661199b565b3480156107cb57600080fd5b506107d46119ad565b60408051602080825283518183015283519192839290830191858101910280838360005b838110156108105781810151838201526020016107f8565b505050509050019250505060405180910390f35b34801561083057600080fd5b506103bd6004803603604081101561084757600080fd5b506001600160a01b0381358116916020013516611a0f565b34801561086b57600080fd5b506103bd611b76565b34801561088057600080fd5b506107d46004803603602081101561089757600080fd5b50356001600160a01b0316611b7c565b3480156108b357600080fd5b506103bd600480360360408110156108ca57600080fd5b506001600160a01b0381358116916020013516611bf2565b3480156108ee57600080fd5b506103bd611c27565b34801561090357600080fd5b506103bd611c2d565b34801561091857600080fd5b506103bd6004803603604081101561092f57600080fd5b506001600160a01b0381358116916020013516611c52565b34801561095357600080fd5b506103bd6004803603604081101561096a57600080fd5b506001600160a01b0381358116916020013516611dc2565b34801561098e57600080fd5b50610997611ddf565b6040518080602001838152602001828103825284818151815260200191508051906020019060200280838360005b838110156109dd5781810151838201526020016109c5565b50505050905001935050505060405180910390f35b3480156109fe57600080fd5b506103bd611e42565b348015610a1357600080fd5b5061041f60048036036020811015610a2a57600080fd5b50356001600160a01b0316611e48565b348015610a4657600080fd5b506107d460048036036060811015610a5d57600080fd5b506001600160a01b038135169060208101359060400135611eb8565b348015610a8557600080fd5b506107d460048036036020811015610a9c57600080fd5b50356001600160a01b0316611ff7565b348015610ab857600080fd5b506103bd60048036036040811015610acf57600080fd5b506001600160a01b038135811691602001351661206b565b348015610af357600080fd5b5061059e60048036036060811015610b0a57600080fd5b6001600160a01b0382351691602081013591810190606081016040820135600160201b811115610b3957600080fd5b820183602082011115610b4b57600080fd5b803590602001918460018302840111600160201b83111715610b6c57600080fd5b91908080601f016020809104026020016040519081016040528093929190818152602001838380828437600092019190915250929550612088945050505050565b348015610bb957600080fd5b506107d461208f565b348015610bce57600080fd5b506103bd60048036036040811015610be557600080fd5b506001600160a01b03813581169160200135166120ef565b348015610c0957600080fd5b506103bd60048036036020811015610c2057600080fd5b50356001600160a01b031661210c565b348015610c3c57600080fd5b5061059e60048036036020811015610c5357600080fd5b50356001600160a01b0316612127565b61041f60048036036040811015610c7957600080fd5b506001600160a01b03813516906020013561217f565b348015610c9b57600080fd5b506103bd60048036036020811015610cb257600080fd5b50356001600160a01b0316612189565b348015610cce57600080fd5b5061041f60048036036040811015610ce557600080fd5b506001600160a01b03813516906020013561219b565b348015610d0757600080fd5b506103bd60048036036040811015610d1e57600080fd5b506001600160a01b0381358116916020013516612596565b348015610d4257600080fd5b5061041f60048036036020811015610d5957600080fd5b50356001600160a01b03166125b3565b348015610d7557600080fd5b506107d46127ab565b348015610d8a57600080fd5b506103bd61280b565b348015610d9f57600080fd5b506103bd612811565b348015610db457600080fd5b506103bd60048036036020811015610dcb57600080fd5b50356001600160a01b0316612817565b348015610de757600080fd5b506107d4612829565b348015610dfc57600080fd5b50610e05612889565b604080516001600160a01b039092168252519081900360200190f35b348015610e2d57600080fd5b506103bd60048036036040811015610e4457600080fd5b506001600160a01b0381358116916020013516612898565b348015610e6857600080fd5b5061041f6128b5565b348015610e7d57600080fd5b506103bd60048036036020811015610e9457600080fd5b50356001600160a01b0316612a78565b348015610eb057600080fd5b5061041f612a8a565b348015610ec557600080fd5b506103bd612aac565b348015610eda57600080fd5b5061041f60048036036040811015610ef157600080fd5b506001600160a01b038135169060200135612ab2565b348015610f1357600080fd5b5061059e612b36565b348015610f2857600080fd5b506103bd60048036036020811015610f3f57600080fd5b50356001600160a01b0316612b6e565b348015610f5b57600080fd5b506103bd60048036036060811015610f7257600080fd5b810190602081018135600160201b811115610f8c57600080fd5b820183602082011115610f9e57600080fd5b803590602001918460208302840111600160201b83111715610fbf57600080fd5b919080806020026020016040519081016040528093929190818152602001838360200280828437600092019190915250929550506001600160a01b038335811694506020909301359092169150612b809050565b602660209081526000938452604080852082529284528284209052825290205481565b602a60209081526000928352604080842090915290825290205481565b6039546001600160a01b0316331461106a57600080fd5b606060038054806020026020016040519081016040528092919081815260200182805480156110c257602002820191906000526020600020905b81546001600160a01b031681526001909101906020018083116110a4575b50939450600093505050505b81518110156110fb576110f38282815181106110e657fe5b602002602001015161300e565b6001016110ce565b5050565b8261110957600080fd5b80831161111557600080fd5b8061111f57600080fd5b611160888888808060200260200160405190810160405280939291908181526020018383602002808284376000920191909152508a92508991506131639050565b6036929092556034919091556037555050505050565b6039546001600160a01b0316331461118d57600080fd5b603755565b3a61119c57600080fd5b6111a4611315565b6111ad57600080fd5b816001600160a01b0316836001600160a01b031614156111cc57600080fd5b336111d8848284613327565b6111e38382846134c8565b603554604080516001600160a01b03878116825260208201869052825181861693918816927f4480d8e4b1e9095b94bf513961d26fe1d32386ebdd103d18fe8738cf4b2223ff92908290030190a450505050565b61123f6138d7565b6001600160a01b0316336001600160a01b03161461125c57600080fd5b611264611315565b61126d57600080fd5b602555565b603060209081526000938452604080852082529284528284209052825290205460ff1681565b60395460408051630526083960e11b81526001600160a01b0384811660048301523360248301819052925192931691630a4c10729160448082019260009290919082900301818387803b1580156112ee57600080fd5b505af1158015611302573d6000803e3d6000fd5b5050505061131081846138fc565b505050565b6039546001600160a01b031615155b90565b6039546001600160a01b0316331461133e57600080fd5b6113478161300e565b50565b3a61135457600080fd5b61135c611315565b61136557600080fd5b336000806001600160a01b03841683146113d3576001600160a01b038085166000908152603260209081526040808320938716835292905220549150816113ab57600080fd5b506001600160a01b038084166000908152603360209081526040808320938616835292905220545b60395460408051632b5aa5d760e11b815290516000926001600160a01b0316916356b54bae916004808301926020929190829003018186803b15801561141857600080fd5b505afa15801561142c573d6000803e3d6000fd5b505050506040513d602081101561144257600080fd5b5051603954604080516253517560e01b81526001600160a01b0389811660048301529151939450600093919092169162535175916024808301926020929190829003018186803b15801561149557600080fd5b505afa1580156114a9573d6000803e3d6000fd5b505050506040513d60208110156114bf57600080fd5b5051875190915060009081906115b157836001600160a01b031663dd03f5b9846040518263ffffffff1660e01b815260040180826001600160a01b03166001600160a01b0316815260200191505060006040518083038186803b15801561152557600080fd5b505afa158015611539573d6000803e3d6000fd5b505050506040513d6000823e601f3d908101601f19168201604052602081101561156257600080fd5b810190808051600160201b81111561157957600080fd5b8201602081018481111561158c57600080fd5b81518560208202830111600160201b821117156115a857600080fd5b50909c50505050505b60005b89518110156118a75760008a82815181106115cb57fe5b6020026020010151905081600014806115f957508a60018303815181106115ee57fe5b602002602001015181115b61160257600080fd5b603554811061161057600080fd5b6001600160a01b03808b166000908152603060209081526040808320938d1683529281528282208483529052205460ff161561164c575061189f565b6000896001600160a01b03168b6001600160a01b03161461173f578882101561167657505061189f565b81881115801561168557508715155b156116915750506118a7565b61169e828a868e8e613978565b9350816001019850866001600160a01b031663e1ab96d88584896040518463ffffffff1660e01b815260040180848152602001838152602001826001600160a01b03166001600160a01b03168152602001935050505060206040518083038186803b15801561170c57600080fd5b505afa158015611720573d6000803e3d6000fd5b505050506040513d602081101561173657600080fd5b505190506117cc565b866001600160a01b031663ba2d759783886040518363ffffffff1660e01b815260040180838152602001826001600160a01b03166001600160a01b031681526020019250505060206040518083038186803b15801561179d57600080fd5b505afa1580156117b1573d6000803e3d6000fd5b505050506040513d60208110156117c757600080fd5b505190505b6117dc858263ffffffff6139ed16565b94506001603060008d6001600160a01b03166001600160a01b0316815260200190815260200160002060008c6001600160a01b03166001600160a01b03168152602001908152602001600020600084815260200190815260200160002060006101000a81548160ff021916908315150217905550818a6001600160a01b03168c6001600160a01b03167fd3208fd5300db64b97bc442f47ade72b7ebcd9272aaecdcc04c777bb762861b9846040518082815260200191505060405180910390a450505b6001016115b4565b50836001600160a01b031663469507c683896040518363ffffffff1660e01b815260040180838152602001826001600160a01b03166001600160a01b0316815260200192505050600060405180830381600087803b15801561190857600080fd5b505af115801561191c573d6000803e3d6000fd5b50505050505050505050505050565b6119336138d7565b6001600160a01b0316336001600160a01b03161461195057600080fd5b611958611315565b61196157600080fd5b602455565b60386020526000908152604090205481565b603260209081526000928352604080842090915290825290205481565b60245481565b602c6020526000908152604090205481565b60606000805480602002602001604051908101604052809291908181526020018280548015611a0557602002820191906000526020600020905b81546001600160a01b031681526001909101906020018083116119e7575b5050505050905090565b603954604080516253517560e01b81526001600160a01b03858116600483015291516000938493169162535175916024808301926020929190829003018186803b158015611a5c57600080fd5b505afa158015611a70573d6000803e3d6000fd5b505050506040513d6020811015611a8657600080fd5b50519050611aa3816001600160a01b0386811690861614156139ff565b611ab1576000915050611b70565b6001600160a01b038085166000908152603160209081526040808320878516845282529182902054603954835163a0d16cad60e01b8152868616600482015293519194169263a0d16cad926024808301939192829003018186803b158015611b1857600080fd5b505afa158015611b2c573d6000803e3d6000fd5b505050506040513d6020811015611b4257600080fd5b5051611b51579150611b709050565b6000611b5d8686611bf2565b905080821115611b6b578091505b509150505b92915050565b60375481565b6001600160a01b038116600090815260076020908152604091829020805483518184028101840190945280845260609392830182828015611be657602002820191906000526020600020905b81546001600160a01b03168152600190910190602001808311611bc8575b50505050509050919050565b6001600160a01b039182166000908152600a602090815260408083209390941682529182528281206035548252909152205490565b60355481565b6037546000908015611c40576001611c43565b60005b60ff1660365482010391505090565b603954604080516253517560e01b81526001600160a01b03858116600483015291516000938493169162535175916024808301926020929190829003018186803b158015611c9f57600080fd5b505afa158015611cb3573d6000803e3d6000fd5b505050506040513d6020811015611cc957600080fd5b50519050611ce6816001600160a01b0386811690861614156139ff565b611cf4576000915050611b70565b6039546040805163a0d16cad60e01b81526001600160a01b0384811660048301529151919092169163a0d16cad916024808301926020929190829003018186803b158015611d4157600080fd5b505afa158015611d55573d6000803e3d6000fd5b505050506040513d6020811015611d6b57600080fd5b5051611d7b576000915050611b70565b611dba611d888585611bf2565b6001600160a01b038087166000908152603160209081526040808320938916835292905220549063ffffffff613b3516565b949350505050565b602b60209081526000928352604080842090915290825290205481565b60606000600460055481805480602002602001604051908101604052809291908181526020018280548015611e3357602002820191906000526020600020905b815481526020019060010190808311611e1f575b50505050509150915091509091565b60345481565b6039546001600160a01b03163314611e5f57600080fd5b6001600160a01b038116611e7257600080fd5b6001600160a01b038116600090815260316020908152604080832090915290205415611eaf57611ea181613b4a565b611eaa81613c39565b611347565b61134781613cf9565b6001600160a01b038316600090815260086020526040902060609082611f3657805460408051602080840282018101909252828152918391830182828015611f2957602002820191906000526020600020905b81546001600160a01b03168152600190910190602001808311611f0b575b5050505050915050611ff0565b8054600090611f4b908663ffffffff613b3516565b9050808411611f5a5783611f5c565b805b604051908082528060200260200182016040528015611f85578160200160208202803883390190505b50925060005b8351811015611fec578281870181548110611fa257fe5b9060005260206000200160009054906101000a90046001600160a01b0316848281518110611fcc57fe5b6001600160a01b0390921660209283029190910190910152600101611f8b565b5050505b9392505050565b6001600160a01b038116600090815260066020908152604091829020805483518184028101840190945280845260609392830182828015611be6576020028201919060005260206000209081546001600160a01b03168152600190910190602001808311611bc85750505050509050919050565b602960209081526000928352604080842090915290825290205481565b6000806000fd5b60606002805480602002602001604051908101604052809291908181526020018280548015611a05576020028201919060005260206000209081546001600160a01b031681526001909101906020018083116119e7575050505050905090565b603160209081526000928352604080842090915290825290205481565b6001600160a01b031660009081526008602052604090205490565b6001600160a01b0381166000908152602d6020526040812054815481108015611ff05750826001600160a01b03166000828154811061216257fe5b6000918252602090912001546001600160a01b0316149392505050565b6110fb82826138fc565b602d6020526000908152604090205481565b3a6121a557600080fd5b6121ad611315565b6121b657600080fd5b6001600160a01b0382166121c957600080fd5b806121d357600080fd5b603954604080516253517560e01b81526001600160a01b0385811660048301529151339361226293169162535175916024808301926020929190829003018186803b15801561222157600080fd5b505afa158015612235573d6000803e3d6000fd5b505050506040513d602081101561224b57600080fd5b50516001600160a01b0383811690861614156139ff565b61226b57600080fd5b6001600160a01b038084166000818152602760209081526040808320948616808452948252808320548484526028835281842054603184528285209685529583528184205494845260389092528220549093929186131561235557856122d18887611c52565b8111156122dd57600080fd5b6122ed858263ffffffff6139ed16565b94506122ff848263ffffffff6139ed16565b9350612311838263ffffffff613b3516565b9250612323828263ffffffff613b3516565b6035546001600160a01b03808b166000908152602960209081526040808320938c168352929052205591506123a49050565b600086900361236a858263ffffffff613b3516565b945061237c848263ffffffff613b3516565b935061238e838263ffffffff6139ed16565b92506123a0828263ffffffff6139ed16565b9150505b6001600160a01b038088166000818152602760209081526040808320948a16808452948252808320899055838352602882528083208890556031825280832085845282528083208790558383526038909152902083905514156124ed5781158061241057506024548210155b61241957600080fd5b60395460408051633820c4e560e11b815290516000926001600160a01b03169163704189ca916004808301926020929190829003018186803b15801561245e57600080fd5b505afa158015612472573d6000803e3d6000fd5b505050506040513d602081101561248857600080fd5b5051905060008713156124c857821580156124b55750806001600160a01b0316886001600160a01b031614155b156124c3576124c388613cf9565b6124e7565b6124e788826001600160a01b03168a6001600160a01b03161415613db7565b50612536565b8115806124fc57506025548210155b61250557600080fd5b6000861315612522578161251d5761251d8786613e80565b61252c565b61252c8786613fd8565b612536878661409a565b61253f87613c39565b603554856001600160a01b0316886001600160a01b03167f80d5c777e5f7ac6ee89723223803ca5c0ec0204f89e99c1b0cde973c66a64594896040518082815260200191505060405180910390a450505050505050565b603360209081526000928352604080842090915290825290205481565b3a6125bd57600080fd5b6125c5611315565b6125ce57600080fd5b6001600160a01b0381166000908152602960209081526040808320338085529252909120546035541161260057600080fd5b603954604080516253517560e01b81526001600160a01b03858116600483015291516126919392909216916253517591602480820192602092909190829003018186803b15801561265057600080fd5b505afa158015612664573d6000803e3d6000fd5b505050506040513d602081101561267a57600080fd5b50516001600160a01b0383811690851614156139ff565b61269a57600080fd5b6001600160a01b03808316600090815260276020908152604080832093851683529290522054806126ca57600080fd5b6001600160a01b03808416600081815260276020908152604080832094871683529381528382208290559181526028909152205461270e908263ffffffff613b3516565b6001600160a01b0380851660009081526028602090815260408083209490945560318152838220928616825291909152205461274e5761274e838361418c565b6127588282614367565b603554826001600160a01b0316846001600160a01b03167ff380b0bc887e00f5b50d3c9d4eaaf5c9a0afd97b956316b995159384c4ede9b3846040518082815260200191505060405180910390a4505050565b60606003805480602002602001604051908101604052809291908181526020018280548015611a05576020028201919060005260206000209081546001600160a01b031681526001909101906020018083116119e7575050505050905090565b60365481565b60255481565b60286020526000908152604090205481565b60606001805480602002602001604051908101604052809291908181526020018280548015611a05576020028201919060005260206000209081546001600160a01b031681526001909101906020018083116119e7575050505050905090565b6039546001600160a01b031681565b602760209081526000928352604080842090915290825290205481565b3a6128bf57600080fd5b6128c7611315565b6128d057600080fd5b603954604080516253517560e01b81523360048201819052915191926000926001600160a01b039091169162535175916024808301926020929190829003018186803b15801561291f57600080fd5b505afa158015612933573d6000803e3d6000fd5b505050506040513d602081101561294957600080fd5b50516035549091501515806129d457506039546040805163facd743b60e01b81526001600160a01b0384811660048301529151919092169163facd743b916024808301926020929190829003018186803b1580156129a657600080fd5b505afa1580156129ba573d6000803e3d6000fd5b505050506040513d60208110156129d057600080fd5b5051155b6129dd57600080fd5b603960009054906101000a90046001600160a01b03166001600160a01b031663704189ca6040518163ffffffff1660e01b815260040160206040518083038186803b158015612a2b57600080fd5b505afa158015612a3f573d6000803e3d6000fd5b505050506040513d6020811015612a5557600080fd5b50516001600160a01b0383811691161415612a6f57600080fd5b6110fb8261300e565b602f6020526000908152604090205481565b6039546001600160a01b03163314612aa157600080fd5b603580546001019055565b610bb881565b3a612abc57600080fd5b612ac4611315565b612acd57600080fd5b33612ad9838284613327565b612ae38183614367565b603554816001600160a01b0316846001600160a01b03167fa7c0f0cac6bd4d18042007706c84a8abe823751cf289b69c01e83eef7b5915c7856040518082815260200191505060405180910390a4505050565b600080612b416143ca565b6034546036546037549293500390821015612b6157600092505050611324565b6037549091031115905090565b602e6020526000908152604090205481565b6000806000836001600160a01b0316856001600160a01b031614612bf8576001600160a01b03808616600090815260326020908152604080832093881683529290522054915081612bd057600080fd5b506001600160a01b038085166000908152603360209081526040808320938716835292905220545b60395460408051632b5aa5d760e11b815290516000926001600160a01b0316916356b54bae916004808301926020929190829003018186803b158015612c3d57600080fd5b505afa158015612c51573d6000803e3d6000fd5b505050506040513d6020811015612c6757600080fd5b5051603954604080516253517560e01b81526001600160a01b038a811660048301529151939450600093919092169162535175916024808301926020929190829003018186803b158015612cba57600080fd5b505afa158015612cce573d6000803e3d6000fd5b505050506040513d6020811015612ce457600080fd5b50518851600096509091508590612dd757826001600160a01b031663dd03f5b9836040518263ffffffff1660e01b815260040180826001600160a01b03166001600160a01b0316815260200191505060006040518083038186803b158015612d4b57600080fd5b505afa158015612d5f573d6000803e3d6000fd5b505050506040513d6000823e601f3d908101601f191682016040526020811015612d8857600080fd5b810190808051600160201b811115612d9f57600080fd5b82016020810184811115612db257600080fd5b81518560208202830111600160201b82111715612dce57600080fd5b50909c50505050505b60005b89518110156130015760008a8281518110612df157fe5b602002602001015190508160001480612e1f57508a6001830381518110612e1457fe5b602002602001015181115b612e2857600080fd5b6035548110612e3657600080fd5b6001600160a01b03808b166000908152603060209081526040808320938d1683529281528282208483529052205460ff1615612e725750612ff9565b6000896001600160a01b03168b6001600160a01b031614612f655787821015612e9c575050612ff9565b818711158015612eab57508615155b15612eb7575050613001565b612ec48289868e8e613978565b9350816001019750856001600160a01b031663e1ab96d88584886040518463ffffffff1660e01b815260040180848152602001838152602001826001600160a01b03166001600160a01b03168152602001935050505060206040518083038186803b158015612f3257600080fd5b505afa158015612f46573d6000803e3d6000fd5b505050506040513d6020811015612f5c57600080fd5b50519050612ff2565b856001600160a01b031663ba2d759783876040518363ffffffff1660e01b815260040180838152602001826001600160a01b03166001600160a01b031681526020019250505060206040518083038186803b158015612fc357600080fd5b505afa158015612fd7573d6000803e3d6000fd5b505050506040513d6020811015612fed57600080fd5b505190505b9790970196505b600101612dda565b5050505050509392505050565b6001600160a01b0381166000908152602d60205260408120549054811080156130605750816001600160a01b03166000828154811061304957fe5b6000918252602090912001546001600160a01b0316145b1561312c57600080548190600019810190811061307957fe5b600091825260208220015481546001600160a01b039091169250829190849081106130a057fe5b600091825260208083209190910180546001600160a01b0319166001600160a01b039485161790558383168252602d9052604080822085905591851681529081208190558054906130f5906000198301614a78565b506040516001600160a01b038416907fa594a98df279c030a78f76e64f370882494d1a6fcedd0bd0d636d4608e1eb9f990600090a2505b613135826143ce565b15613148576131438261440c565b613151565b613151826144f8565b61315a826145b0565b6110fb82614754565b61316b6143ca565b158061318f575061317a6138d7565b6001600160a01b0316336001600160a01b0316145b61319857600080fd5b6131a0611315565b156131aa57600080fd5b6001600160a01b0384166131bd57600080fd5b60008351116131cb57600080fd5b816131d557600080fd5b806131df57600080fd5b603980546001600160a01b0319166001600160a01b03868116919091179182905560408051633820c4e560e11b815290516000939092169163704189ca91600480820192602092909190829003018186803b15801561323d57600080fd5b505afa158015613251573d6000803e3d6000fd5b505050506040513d602081101561326757600080fd5b5051905060005b84518110156133185760006001600160a01b031685828151811061328e57fe5b60200260200101516001600160a01b031614156132aa57600080fd5b6132c88582815181106132b957fe5b60200260200101516000613db7565b816001600160a01b03168582815181106132de57fe5b60200260200101516001600160a01b0316146133105761331085828151811061330357fe5b6020026020010151613cf9565b60010161326e565b50506025919091556024555050565b6001600160a01b03831661333a57600080fd5b8061334457600080fd5b61334e8383611a0f565b81111561335a57600080fd5b6001600160a01b038084166000908152603160209081526040808320938616835292905290812054613392908363ffffffff613b3516565b90506000836001600160a01b0316856001600160a01b0316146133b7576025546133bb565b6024545b90508115806133ca5750808210155b6133d357600080fd5b6001600160a01b03808616600090815260316020908152604080832093881683529290529081208390556134078686611bf2565b90508381101561341857600061341c565b8381035b6001600160a01b038088166000818152600a60209081526040808320948b1683529381528382206035548352815283822094909455908152603890925290205461346c908563ffffffff613b3516565b6001600160a01b0387166000908152603860205260409020558261349457613494868661418c565b856001600160a01b0316856001600160a01b0316146134b7576134b7868661409a565b6134c086613c39565b505050505050565b603954604080516253517560e01b81526001600160a01b038681166004830152915160009392909216916253517591602480820192602092909190829003018186803b15801561351757600080fd5b505afa15801561352b573d6000803e3d6000fd5b505050506040513d602081101561354157600080fd5b505190506001600160a01b03811661355857600080fd5b6001600160a01b03841661356b57600080fd5b8161357557600080fd5b60395460408051635491295760e11b81526001600160a01b0384811660048301529151919092169163a92252ae916024808301926020929190829003018186803b1580156135c257600080fd5b505afa1580156135d6573d6000803e3d6000fd5b505050506040513d60208110156135ec57600080fd5b5051156135f857600080fd5b613600612b36565b61360957600080fd5b6001600160a01b038085166000908152603160209081526040808320938716835292905290812054613641908463ffffffff6139ed16565b9050846001600160a01b0316846001600160a01b031614156136715760245481101561366c57600080fd5b6136aa565b60255481101561368057600080fd5b6001600160a01b03851660009081526031602090815260408083209091529020546136aa57600080fd5b6001600160a01b0380861660009081526031602090815260408083209388168352929052208190556136ec836136e08787611bf2565b9063ffffffff6139ed16565b6001600160a01b038087166000818152600a60209081526040808320948a1683529381528382206035548352815283822094909455908152603890925290205461373c908463ffffffff6139ed16565b6001600160a01b03808716600081815260386020526040902092909255851614156137f8576137f385603960009054906101000a90046001600160a01b03166001600160a01b031663704189ca6040518163ffffffff1660e01b815260040160206040518083038186803b1580156137b357600080fd5b505afa1580156137c7573d6000803e3d6000fd5b505050506040513d60208110156137dd57600080fd5b50516001600160a01b0388811691161415613db7565b61380c565b6138028585613fd8565b61380c858561409a565b61381585613c39565b6001600160a01b03808516600090815260086020908152604080832060098352818420948a1684529390915290205481548110158061387d5750866001600160a01b031682828154811061386557fe5b6000918252602090912001546001600160a01b031614155b156138ce5781546001600160a01b038088166000908152600960209081526040808320938c168084529382528220849055600184018655858252902090910180546001600160a01b03191690911790555b50505050505050565b7fb53127684a568b3173ae13b9f8a6016e243e63b6e8ee1178d6a717850b5d61035490565b3a61390657600080fd5b61390e611315565b61391757600080fd5b5034336139258382846134c8565b603554816001600160a01b0316846001600160a01b03167f2273de02cb1f69ba6259d22c4bc22c60e4c94c193265ef6afee324a04a9b6d22856040518082815260200191505060405180910390a4505050565b60005b506001600160a01b03808316600090815260266020908152604080832093851683529281528282208883529052205480156139c95760001981146139bf57806139c2565b60005b90506139e4565b848614156139d85750826139e4565b6000199095019461397b565b95945050505050565b600082820183811015611ff057600080fd5b60008115613a92576039546040805163a881c5fd60e01b81526001600160a01b0386811660048301529151919092169163a881c5fd916024808301926020929190829003018186803b158015613a5457600080fd5b505afa158015613a68573d6000803e3d6000fd5b505050506040513d6020811015613a7e57600080fd5b505115613a8d57506000611b70565b613b18565b60395460408051635491295760e11b81526001600160a01b0386811660048301529151919092169163a92252ae916024808301926020929190829003018186803b158015613adf57600080fd5b505afa158015613af3573d6000803e3d6000fd5b505050506040513d6020811015613b0957600080fd5b505115613b1857506000611b70565b613b20612b36565b613b2c57506000611b70565b50600192915050565b600082821115613b4457600080fd5b50900390565b6001600160a01b0381166000908152602e60205260409020546002548082101580613b9f5750826001600160a01b031660028381548110613b8757fe5b6000918252602090912001546001600160a01b031614155b15613c30576001600160a01b0383166000818152602e602052604081208390556002805460018181019092557f405787fa12a823e0f2b7631cc41b3ba8828b3321ca811111fa75cd3aa3bb5ace0180546001600160a01b03191690931790925560048054928301815581527f8a35acfbc15ff81a39ae7d344fd709f28e8600b4aa8c65c6b64bfe7fe36bd19b909101555b61131083614754565b600080613c4583614840565b9150915081613c55575050611347565b600060048281548110613c6457fe5b90600052602060002001549050600060386000866001600160a01b03166001600160a01b031681526020019081526020016000205490508060048481548110613ca957fe5b600091825260209091200155818110613cd957600554613cd19083830363ffffffff6139ed16565b600555613cf2565b600554613cee9082840363ffffffff613b3516565b6005555b5050505050565b6001600160a01b0381166000908152602f60205260409020546003548082101580613d4e5750826001600160a01b031660038381548110613d3657fe5b6000918252602090912001546001600160a01b031614155b15613dae576001600160a01b0383166000818152602f602052604081208390556003805460018101825591527fc2575a0e9e593c00f959f8c92f12db2869c3395a3b0502d05e2516446f71f85b0180546001600160a01b03191690911790555b611310836145b0565b613dc082612127565b613e6857600080546001600160a01b038416808352602d602052604083208290556001820183559180527f290decd9548b62a8d60345a988386fc84ba6bc95484008f6362f93160ef3e5630180546001600160a01b0319169091179055613e256148ad565b6000541115613e3357600080fd5b6040516001600160a01b038316907fd26e92d2046eac29686a6b001477592c752fb2045b2875e4e96f567ad735269d90600090a25b613e718261440c565b80156110fb576110fb82613b4a565b6001600160a01b038083166000908152600660209081526040808320602a8352818420948616845293909152902054815481108015613ee75750826001600160a01b0316828281548110613ed057fe5b6000918252602090912001546001600160a01b0316145b15613f8e57815460009083906000198101908110613f0157fe5b9060005260206000200160009054906101000a90046001600160a01b0316905080838381548110613f2e57fe5b600091825260208083209190910180546001600160a01b0319166001600160a01b039485161790558783168252602a8152604080832085851684529091528082208590559186168152908120558254613f8b846000198301614a78565b50505b6001600160a01b0380851660009081526027602090815260408083209387168352929052205415613fc857613fc384846148b3565b613fd2565b613fd28484614971565b50505050565b6001600160a01b038083166000908152600660209081526040808320602a8352818420948616845293909152902054815480821015806140415750836001600160a01b031683838154811061402957fe5b6000918252602090912001546001600160a01b031614155b15614090576001600160a01b038086166000908152602a602090815260408083209388168084529382528220849055855460018101875586835291200180546001600160a01b03191690911790555b613cf28585614971565b6035546001600160a01b03808416600090815260316020908152604080832093861683529290522054600190910190806140d6576000196140d8565b805b6001600160a01b03808616600081815260266020908152604080832094891680845294825280832088845282528083209590955591815260328252838120928152919052205461414b576001600160a01b0380851660009081526032602090815260408083209387168352929052208290555b801561415857600061415a565b815b6001600160a01b0394851660009081526033602090815260408083209690971682529490945293909220929092555050565b816001600160a01b0316816001600160a01b031614156143465760395460408051633820c4e560e11b815290516000926001600160a01b03169163704189ca916004808301926020929190829003018186803b1580156141eb57600080fd5b505afa1580156141ff573d6000803e3d6000fd5b505050506040513d602081101561421557600080fd5b505190506001600160a01b038381169082161461434057603954604080516253517560e01b81526001600160a01b038681166004830152915160009392909216916253517591602480820192602092909190829003018186803b15801561427b57600080fd5b505afa15801561428f573d6000803e3d6000fd5b505050506040513d60208110156142a557600080fd5b50516039546040805163facd743b60e01b81526001600160a01b038085166004830152915193945091169163facd743b91602480820192602092909190829003018186803b1580156142f657600080fd5b505afa15801561430a573d6000803e3d6000fd5b505050506040513d602081101561432057600080fd5b5051156143355761433084613cf9565b61433e565b61433e8461300e565b505b506110fb565b6143508282613e80565b614359826143ce565b156110fb576110fb8261440c565b6040516001600160a01b0383169082156108fc029083906000818181858888f193505050506110fb57808260405161439e90614a9c565b6001600160a01b039091168152604051908190036020019082f080158015613cf2573d6000803e3d6000fd5b4390565b6001600160a01b038116600090815260386020526040812054158015611b705750506001600160a01b03166000908152602860205260409020541590565b6001600160a01b0381166000908152602c60205260409020546001548110801561445f5750816001600160a01b03166001828154811061444857fe5b6000918252602090912001546001600160a01b0316145b156110fb576001805460009190600019810190811061447a57fe5b600091825260209091200154600180546001600160a01b0390921692508291849081106144a357fe5b600091825260208083209190910180546001600160a01b0319166001600160a01b039485161790558383168252602c905260408082208590559185168152908120556001805490613fd2906000198301614a78565b6001600160a01b0381166000908152602c6020526040902054600154808210158061454d5750826001600160a01b03166001838154811061453557fe5b6000918252602090912001546001600160a01b031614155b15611310576001600160a01b0383166000818152602c6020526040812083905560018054808201825591527fb10e2d527612073b26eecdfd717e6a320cf44b4afac2b0732d9fcbe2b7fa0cf60180546001600160a01b0319169091179055505050565b600454600254146145c057611347565b6001600160a01b0381166000908152602e6020526040902054600254811080156146135750816001600160a01b0316600282815481106145fc57fe5b6000918252602090912001546001600160a01b0316145b156110fb576004818154811061462557fe5b906000526020600020015460055410614660576004818154811061464557fe5b60009182526020909120015460058054919091039055614666565b60006005555b600280546000198101916000918390811061467d57fe5b600091825260209091200154600280546001600160a01b0390921692508291859081106146a657fe5b9060005260206000200160006101000a8154816001600160a01b0302191690836001600160a01b03160217905550600482815481106146e157fe5b9060005260206000200154600484815481106146f957fe5b60009182526020808320909101929092556001600160a01b038084168252602e90925260408082208690559186168152908120556002805490614740906000198301614a78565b506004805490613cf2906000198301614a78565b6001600160a01b0381166000908152602f6020526040902054600354811080156147a75750816001600160a01b03166003828154811061479057fe5b6000918252602090912001546001600160a01b0316145b156110fb57600380546000919060001981019081106147c257fe5b600091825260209091200154600380546001600160a01b0390921692508291849081106147eb57fe5b600091825260208083209190910180546001600160a01b0319166001600160a01b039485161790558383168252602f905260408082208590559185168152908120556003805490613fd2906000198301614a78565b6001600160a01b0381166000908152602e6020526040812054600254811080156148935750826001600160a01b03166002828154811061487c57fe5b6000918252602090912001546001600160a01b0316145b156148a157600191506148a8565b5060009050805b915091565b610bb890565b6001600160a01b038083166000908152600760209081526040808320602b83528184209486168452939091529020548154808210158061491c5750836001600160a01b031683838154811061490457fe5b6000918252602090912001546001600160a01b031614155b15613cf2576001600160a01b038086166000908152602b602090815260408083209388168084529382528220849055855460018101875586835291200180546001600160a01b03191690911790555050505050565b6001600160a01b038083166000908152600760209081526040808320602b83528184209486168452939091529020548154811080156149d85750826001600160a01b03168282815481106149c157fe5b6000918252602090912001546001600160a01b0316145b15613fd2578154600090839060001981019081106149f257fe5b9060005260206000200160009054906101000a90046001600160a01b0316905080838381548110614a1f57fe5b600091825260208083209190910180546001600160a01b0319166001600160a01b039485161790558783168252602b81526040808320858516845290915280822085905591861681529081205582546134c08460001983015b81548183558181111561131057600083815260209020611310918101908301614aa8565b603280614ac783390190565b61132491905b80821115614ac25760008155600101614aae565b509056fe60806040526040516032380380603283398181016040526020811015602357600080fd5b50516001600160a01b038116fffea265627a7a72305820d9a053dfb396a5c852f8ad64cdf17420cba47e6b492d7f3ff4b37b7ae38984a564736f6c634300050a0032",
  "source": "pragma solidity 0.5.10;\n\n//import \"./base/StakingAuRaTokens.sol\";\nimport \"./base/StakingAuRaCoins.sol\";\n\n\n// contract StakingAuRa is StakingAuRaTokens {}\n\n// Uncomment this line and comment out the above one\n// if staking in native coins is needed instead of staking in tokens:\ncontract StakingAuRa is StakingAuRaCoins {}",
  "sourcePath": "/home/jack/prog/blkchn/velas/posdao-test-setup/posdao-contracts/contracts/StakingAuRa.sol",
  "compiler": {
    "name": "solc",
    "version": "0.5.10+commit.5a6ea5b1.Emscripten.clang"
  },
  "schemaVersion": "3.0.17",
  "updatedAt": "2020-03-10T10:00:07.681Z",
  "devdoc": {
    "methods": {
      "addPool(uint256,address)": {
        "details": "Adds a new candidate's pool to the list of active pools (see the `getPools` getter) and moves the specified amount of staking tokens/coins from the candidate's staking address to the candidate's pool. A participant calls this function using their staking address when they want to create a pool. This is a wrapper for the `stake` function.",
        "params": {
          "_amount": "The amount of tokens to be staked. Ignored when staking in native coins because `msg.value` is used in that case.",
          "_miningAddress": "The mining address of the candidate. The mining address is bound to the staking address (msg.sender). This address cannot be equal to `msg.sender`."
        }
      },
      "areStakeAndWithdrawAllowed()": {
        "details": "Determines whether staking/withdrawal operations are allowed at the moment. Used by all staking/withdrawal functions."
      },
      "claimOrderedWithdraw(address)": {
        "details": "Withdraws the staking tokens/coins from the specified pool ordered during the previous staking epochs with the `orderWithdraw` function. The ordered amount can be retrieved by the `orderedWithdrawAmount` getter.",
        "params": {
          "_poolStakingAddress": "The staking address of the pool from which the ordered tokens/coins are withdrawn."
        }
      },
      "claimReward(uint256[],address)": {
        "details": "Withdraws a reward from the specified pool for the specified staking epochs to the staker address (msg.sender).",
        "params": {
          "_poolStakingAddress": "The staking address of the pool from which the reward needs to be withdrawn.",
          "_stakingEpochs": "The list of staking epochs in ascending order. If the list is empty, it is taken with `BlockRewardAuRa.epochsPoolGotRewardFor` getter."
        }
      },
      "clearUnremovableValidator(address)": {
        "details": "Adds the `unremovable validator` to either the `poolsToBeElected` or the `poolsToBeRemoved` array depending on their own stake in their own pool when they become removable. This allows the `ValidatorSetAuRa.newValidatorSet` function to recognize the unremovable validator as a regular removable pool. Called by the `ValidatorSet.clearUnremovableValidator` function.",
        "params": {
          "_unremovableStakingAddress": "The staking address of the unremovable validator."
        }
      },
      "getPools()": {
        "details": "Returns an array of the current active pools (the staking addresses of candidates and validators). The size of the array cannot exceed MAX_CANDIDATES. A pool can be added to this array with the `_addPoolActive` internal function which is called by the `stake` or `orderWithdraw` function. A pool is considered active if its address has at least the minimum stake and this stake is not ordered to be withdrawn."
      },
      "getPoolsInactive()": {
        "details": "Returns an array of the current inactive pools (the staking addresses of former candidates). A pool can be added to this array with the `_addPoolInactive` internal function which is called by `_removePool`. A pool is considered inactive if it is banned for some reason, if its address has zero stake, or if its entire stake is ordered to be withdrawn."
      },
      "getPoolsLikelihood()": {
        "details": "Returns the array of stake amounts for each corresponding address in the `poolsToBeElected` array (see the `getPoolsToBeElected` getter) and a sum of these amounts. Used by the `ValidatorSetAuRa.newValidatorSet` function when randomly selecting new validators at the last block of a staking epoch. An array value is updated every time any staked amount is changed in this pool (see the `_setLikelihood` internal function).",
        "return": "`uint256[] likelihoods` - The array of the coefficients. The array length is always equal to the length of the `poolsToBeElected` array. `uint256 sum` - The total sum of the amounts."
      },
      "getPoolsToBeElected()": {
        "details": "Returns the list of pools (their staking addresses) which will participate in a new validator set selection process in the `ValidatorSetAuRa.newValidatorSet` function. This is an array of pools which will be considered as candidates when forming a new validator set (at the last block of a staking epoch). This array is kept updated by the `_addPoolToBeElected` and `_deletePoolToBeElected` internal functions."
      },
      "getPoolsToBeRemoved()": {
        "details": "Returns the list of pools (their staking addresses) which will be removed by the `ValidatorSetAuRa.newValidatorSet` function from the active `pools` array (at the last block of a staking epoch). This array is kept updated by the `_addPoolToBeRemoved` and `_deletePoolToBeRemoved` internal functions. A pool is added to this array when the pool's address withdraws (or orders) all of its own staking tokens from the pool, inactivating the pool."
      },
      "getRewardAmount(uint256[],address,address)": {
        "details": "Returns reward amount in native coins for the specified pool, the specified staking epochs, and the specified staker address (delegator or validator).",
        "params": {
          "_poolStakingAddress": "The staking address of the pool for which the amounts need to be returned.",
          "_staker": "The staker address (validator's staking address or delegator's address).",
          "_stakingEpochs": "The list of staking epochs in ascending order. If the list is empty, it is taken with `BlockRewardAuRa.epochsPoolGotRewardFor` getter."
        }
      },
      "getStakerPools(address,uint256,uint256)": {
        "details": "Returns the list of pools (staking addresses) into which the specified staker have ever staked.",
        "params": {
          "_length": "The max number of items to return.",
          "_offset": "The index in the array at which the reading should start. Ignored if the `_length` is 0.",
          "_staker": "The staker address (it can be a delegator or a pool staking address itself)."
        }
      },
      "getStakerPoolsLength(address)": {
        "details": "Returns the length of the list of pools into which the specified staker have ever staked.",
        "params": {
          "_staker": "The staker address (it can be a delegator or a pool staking address itself)."
        }
      },
      "incrementStakingEpoch()": {
        "details": "Increments the serial number of the current staking epoch. Called by the `ValidatorSetAuRa.newValidatorSet` at the last block of the finished staking epoch."
      },
      "initialize(address,address[],uint256,uint256,uint256,uint256,uint256)": {
        "details": "Initializes the network parameters. Can only be called by the constructor of the `InitializerAuRa` contract or owner.",
        "params": {
          "_candidateMinStake": "The minimum allowed amount of candidate/validator stake in Wei.",
          "_delegatorMinStake": "The minimum allowed amount of delegator stake in Wei.",
          "_initialStakingAddresses": "The array of initial validators' staking addresses.",
          "_stakeWithdrawDisallowPeriod": "The duration period (in blocks) at the end of a staking epoch during which participants cannot stake/withdraw/order/claim their staking tokens/coins (e.g., 4320 = 6 hours for 5-seconds blocks in AuRa).",
          "_stakingEpochDuration": "The duration of a staking epoch in blocks (e.g., 120954 = 1 week for 5-seconds blocks in AuRa).",
          "_stakingEpochStartBlock": "The number of the first block of initial staking epoch (must be zero if the network is starting from genesis block).",
          "_validatorSetContract": "The address of the `ValidatorSetAuRa` contract."
        }
      },
      "isInitialized()": {
        "details": "Returns a boolean flag indicating if the `initialize` function has been called."
      },
      "isPoolActive(address)": {
        "details": "Returns a flag indicating whether a specified address is in the `pools` array. See the `getPools` getter.",
        "params": {
          "_stakingAddress": "The staking address of the pool."
        }
      },
      "maxWithdrawAllowed(address,address)": {
        "details": "Returns the maximum amount which can be withdrawn from the specified pool by the specified staker at the moment. Used by the `withdraw` and `moveStake` functions.",
        "params": {
          "_poolStakingAddress": "The pool staking address from which the withdrawal will be made.",
          "_staker": "The staker address that is going to withdraw."
        }
      },
      "maxWithdrawOrderAllowed(address,address)": {
        "details": "Returns the maximum amount which can be ordered to be withdrawn from the specified pool by the specified staker at the moment. Used by the `orderWithdraw` function.",
        "params": {
          "_poolStakingAddress": "The pool staking address from which the withdrawal will be ordered.",
          "_staker": "The staker address that is going to order the withdrawal."
        }
      },
      "moveStake(address,address,uint256)": {
        "details": "Moves staking tokens/coins from one pool to another. A staker calls this function when they want to move their tokens/coins from one pool to another without withdrawing their tokens/coins.",
        "params": {
          "_amount": "The amount of staking tokens/coins to be moved. The amount cannot exceed the value returned by the `maxWithdrawAllowed` getter.",
          "_fromPoolStakingAddress": "The staking address of the source pool.",
          "_toPoolStakingAddress": "The staking address of the target pool."
        }
      },
      "onTokenTransfer(address,uint256,bytes)": {
        "details": "Prevents sending tokens directly to the `StakingAuRa` contract address by the `ERC677BridgeTokenRewardable.transferAndCall` function."
      },
      "orderWithdraw(address,int256)": {
        "details": "Orders tokens/coins withdrawal from the staking address of the specified pool to the staker's address. The requested tokens/coins can be claimed after the current staking epoch is complete using the `claimOrderedWithdraw` function.",
        "params": {
          "_amount": "The amount to be withdrawn. A positive value means the staker wants to either set or increase their withdrawal amount. A negative value means the staker wants to decrease a withdrawal amount that was previously set. The amount cannot exceed the value returned by the `maxWithdrawOrderAllowed` getter.",
          "_poolStakingAddress": "The staking address of the pool from which the amount will be withdrawn."
        }
      },
      "poolDelegators(address)": {
        "details": "Returns an array of the current active delegators of the specified pool. A delegator is considered active if they have staked into the specified pool and their stake is not ordered to be withdrawn.",
        "params": {
          "_poolStakingAddress": "The pool staking address."
        }
      },
      "poolDelegatorsInactive(address)": {
        "details": "Returns an array of the current inactive delegators of the specified pool. A delegator is considered inactive if their entire stake is ordered to be withdrawn but not yet claimed.",
        "params": {
          "_poolStakingAddress": "The pool staking address."
        }
      },
      "removeMyPool()": {
        "details": "Removes the candidate's or validator's pool from the `pools` array (a list of active pools which can be retrieved by the `getPools` getter). When a candidate or validator wants to remove their pool, they should call this function from their staking address. A validator cannot remove their pool while they are an `unremovable validator`."
      },
      "removePool(address)": {
        "details": "Removes a specified pool from the `pools` array (a list of active pools which can be retrieved by the `getPools` getter). Called by the `ValidatorSetAuRa._removeMaliciousValidator` internal function when a pool must be removed by the algorithm.",
        "params": {
          "_stakingAddress": "The staking address of the pool to be removed."
        }
      },
      "removePools()": {
        "details": "Removes pools which are in the `_poolsToBeRemoved` internal array from the `pools` array. Called by the `ValidatorSetAuRa.newValidatorSet` function when a pool must be removed by the algorithm."
      },
      "setCandidateMinStake(uint256)": {
        "details": "Sets (updates) the limit of the minimum candidate stake (CANDIDATE_MIN_STAKE). Can only be called by the `owner`.",
        "params": {
          "_minStake": "The value of a new limit in Wei."
        }
      },
      "setDelegatorMinStake(uint256)": {
        "details": "Sets (updates) the limit of the minimum delegator stake (DELEGATOR_MIN_STAKE). Can only be called by the `owner`.",
        "params": {
          "_minStake": "The value of a new limit in Wei."
        }
      },
      "setStakingEpochStartBlock(uint256)": {
        "details": "Sets the number of the first block in the upcoming staking epoch. Called by the `ValidatorSetAuRa.newValidatorSet` function at the last block of a staking epoch.",
        "params": {
          "_blockNumber": "The number of the very first block in the upcoming staking epoch."
        }
      },
      "stake(address,uint256)": {
        "details": "Moves the specified amount of staking tokens/coins from the staker's address to the staking address of the specified pool. Actually, the amount is stored in a balance of this StakingAuRa contract. A staker calls this function when they want to make a stake into a pool.",
        "params": {
          "_amount": "The amount of tokens to be staked. Ignored when staking in native coins because `msg.value` is used instead.",
          "_toPoolStakingAddress": "The staking address of the pool where the tokens should be staked."
        }
      },
      "stakeAmountByCurrentEpoch(address,address)": {
        "details": "Returns the amount of staking tokens/coins staked into the specified pool by the specified staker during the current staking epoch (see the `stakingEpoch` getter). Used by the `stake`, `withdraw`, and `orderWithdraw` functions.",
        "params": {
          "_poolStakingAddress": "The pool staking address.",
          "_staker": "The staker's address."
        }
      },
      "stakingEpochEndBlock()": {
        "details": "Returns the number of the last block of the current staking epoch."
      },
      "withdraw(address,uint256)": {
        "details": "Moves the specified amount of staking tokens/coins from the staking address of the specified pool to the staker's address. A staker calls this function when they want to withdraw their tokens/coins.",
        "params": {
          "_amount": "The amount of tokens/coins to be withdrawn. The amount cannot exceed the value returned by the `maxWithdrawAllowed` getter.",
          "_fromPoolStakingAddress": "The staking address of the pool from which the tokens/coins should be withdrawn."
        }
      }
    }
  },
  "userdoc": {
    "methods": {}
  }
}