{
  "contractName": "ValidatorSetAuRa",
  "abi": [
    {
      "constant": true,
      "inputs": [
        {
          "name": "",
          "type": "address"
        }
      ],
      "name": "miningByStakingAddress",
      "outputs": [
        {
          "name": "",
          "type": "address"
        }
      ],
      "payable": false,
      "stateMutability": "view",
      "type": "function"
    },
    {
      "constant": true,
      "inputs": [
        {
          "name": "",
          "type": "address"
        }
      ],
      "name": "bannedDelegatorsUntil",
      "outputs": [
        {
          "name": "",
          "type": "uint256"
        }
      ],
      "payable": false,
      "stateMutability": "view",
      "type": "function"
    },
    {
      "constant": true,
      "inputs": [
        {
          "name": "",
          "type": "address"
        }
      ],
      "name": "banCounter",
      "outputs": [
        {
          "name": "",
          "type": "uint256"
        }
      ],
      "payable": false,
      "stateMutability": "view",
      "type": "function"
    },
    {
      "constant": true,
      "inputs": [
        {
          "name": "",
          "type": "address"
        }
      ],
      "name": "stakingByMiningAddress",
      "outputs": [
        {
          "name": "",
          "type": "address"
        }
      ],
      "payable": false,
      "stateMutability": "view",
      "type": "function"
    },
    {
      "constant": true,
      "inputs": [
        {
          "name": "",
          "type": "address"
        },
        {
          "name": "",
          "type": "uint256"
        }
      ],
      "name": "reportingCounter",
      "outputs": [
        {
          "name": "",
          "type": "uint256"
        }
      ],
      "payable": false,
      "stateMutability": "view",
      "type": "function"
    },
    {
      "constant": true,
      "inputs": [],
      "name": "blockRewardContract",
      "outputs": [
        {
          "name": "",
          "type": "address"
        }
      ],
      "payable": false,
      "stateMutability": "view",
      "type": "function"
    },
    {
      "constant": true,
      "inputs": [
        {
          "name": "",
          "type": "address"
        }
      ],
      "name": "bannedUntil",
      "outputs": [
        {
          "name": "",
          "type": "uint256"
        }
      ],
      "payable": false,
      "stateMutability": "view",
      "type": "function"
    },
    {
      "constant": true,
      "inputs": [],
      "name": "unremovableValidator",
      "outputs": [
        {
          "name": "",
          "type": "address"
        }
      ],
      "payable": false,
      "stateMutability": "view",
      "type": "function"
    },
    {
      "constant": true,
      "inputs": [],
      "name": "MAX_VALIDATORS",
      "outputs": [
        {
          "name": "",
          "type": "uint256"
        }
      ],
      "payable": false,
      "stateMutability": "view",
      "type": "function"
    },
    {
      "constant": true,
      "inputs": [
        {
          "name": "",
          "type": "address"
        }
      ],
      "name": "isValidatorPrevious",
      "outputs": [
        {
          "name": "",
          "type": "bool"
        }
      ],
      "payable": false,
      "stateMutability": "view",
      "type": "function"
    },
    {
      "constant": true,
      "inputs": [
        {
          "name": "",
          "type": "address"
        }
      ],
      "name": "validatorCounter",
      "outputs": [
        {
          "name": "",
          "type": "uint256"
        }
      ],
      "payable": false,
      "stateMutability": "view",
      "type": "function"
    },
    {
      "constant": true,
      "inputs": [],
      "name": "validatorSetApplyBlock",
      "outputs": [
        {
          "name": "",
          "type": "uint256"
        }
      ],
      "payable": false,
      "stateMutability": "view",
      "type": "function"
    },
    {
      "constant": true,
      "inputs": [
        {
          "name": "",
          "type": "address"
        }
      ],
      "name": "banReason",
      "outputs": [
        {
          "name": "",
          "type": "bytes32"
        }
      ],
      "payable": false,
      "stateMutability": "view",
      "type": "function"
    },
    {
      "constant": true,
      "inputs": [],
      "name": "randomContract",
      "outputs": [
        {
          "name": "",
          "type": "address"
        }
      ],
      "payable": false,
      "stateMutability": "view",
      "type": "function"
    },
    {
      "constant": true,
      "inputs": [],
      "name": "changeRequestCount",
      "outputs": [
        {
          "name": "",
          "type": "uint256"
        }
      ],
      "payable": false,
      "stateMutability": "view",
      "type": "function"
    },
    {
      "constant": true,
      "inputs": [
        {
          "name": "",
          "type": "uint256"
        }
      ],
      "name": "reportingCounterTotal",
      "outputs": [
        {
          "name": "",
          "type": "uint256"
        }
      ],
      "payable": false,
      "stateMutability": "view",
      "type": "function"
    },
    {
      "constant": true,
      "inputs": [],
      "name": "stakingContract",
      "outputs": [
        {
          "name": "",
          "type": "address"
        }
      ],
      "payable": false,
      "stateMutability": "view",
      "type": "function"
    },
    {
      "constant": true,
      "inputs": [
        {
          "name": "",
          "type": "address"
        }
      ],
      "name": "isValidator",
      "outputs": [
        {
          "name": "",
          "type": "bool"
        }
      ],
      "payable": false,
      "stateMutability": "view",
      "type": "function"
    },
    {
      "anonymous": false,
      "inputs": [
        {
          "indexed": true,
          "name": "parentHash",
          "type": "bytes32"
        },
        {
          "indexed": false,
          "name": "newSet",
          "type": "address[]"
        }
      ],
      "name": "InitiateChange",
      "type": "event"
    },
    {
      "anonymous": false,
      "inputs": [
        {
          "indexed": false,
          "name": "reportingValidator",
          "type": "address"
        },
        {
          "indexed": false,
          "name": "maliciousValidator",
          "type": "address"
        },
        {
          "indexed": false,
          "name": "blockNumber",
          "type": "uint256"
        }
      ],
      "name": "ReportedMalicious",
      "type": "event"
    },
    {
      "constant": false,
      "inputs": [],
      "name": "clearUnremovableValidator",
      "outputs": [],
      "payable": false,
      "stateMutability": "nonpayable",
      "type": "function"
    },
    {
      "constant": false,
      "inputs": [],
      "name": "emitInitiateChange",
      "outputs": [],
      "payable": false,
      "stateMutability": "nonpayable",
      "type": "function"
    },
    {
      "constant": false,
      "inputs": [],
      "name": "finalizeChange",
      "outputs": [],
      "payable": false,
      "stateMutability": "nonpayable",
      "type": "function"
    },
    {
      "constant": false,
      "inputs": [
        {
          "name": "_blockRewardContract",
          "type": "address"
        },
        {
          "name": "_randomContract",
          "type": "address"
        },
        {
          "name": "_stakingContract",
          "type": "address"
        },
        {
          "name": "_initialMiningAddresses",
          "type": "address[]"
        },
        {
          "name": "_initialStakingAddresses",
          "type": "address[]"
        },
        {
          "name": "_firstValidatorIsUnremovable",
          "type": "bool"
        }
      ],
      "name": "initialize",
      "outputs": [],
      "payable": false,
      "stateMutability": "nonpayable",
      "type": "function"
    },
    {
      "constant": false,
      "inputs": [],
      "name": "newValidatorSet",
      "outputs": [],
      "payable": false,
      "stateMutability": "nonpayable",
      "type": "function"
    },
    {
      "constant": false,
      "inputs": [
        {
          "name": "_miningAddresses",
          "type": "address[]"
        }
      ],
      "name": "removeMaliciousValidators",
      "outputs": [],
      "payable": false,
      "stateMutability": "nonpayable",
      "type": "function"
    },
    {
      "constant": false,
      "inputs": [
        {
          "name": "_maliciousMiningAddress",
          "type": "address"
        },
        {
          "name": "_blockNumber",
          "type": "uint256"
        },
        {
          "name": "",
          "type": "bytes"
        }
      ],
      "name": "reportMalicious",
      "outputs": [],
      "payable": false,
      "stateMutability": "nonpayable",
      "type": "function"
    },
    {
      "constant": false,
      "inputs": [
        {
          "name": "_miningAddress",
          "type": "address"
        },
        {
          "name": "_stakingAddress",
          "type": "address"
        }
      ],
      "name": "setStakingAddress",
      "outputs": [],
      "payable": false,
      "stateMutability": "nonpayable",
      "type": "function"
    },
    {
      "constant": true,
      "inputs": [
        {
          "name": "_miningAddress",
          "type": "address"
        }
      ],
      "name": "areDelegatorsBanned",
      "outputs": [
        {
          "name": "",
          "type": "bool"
        }
      ],
      "payable": false,
      "stateMutability": "view",
      "type": "function"
    },
    {
      "constant": true,
      "inputs": [],
      "name": "emitInitiateChangeCallable",
      "outputs": [
        {
          "name": "",
          "type": "bool"
        }
      ],
      "payable": false,
      "stateMutability": "view",
      "type": "function"
    },
    {
      "constant": true,
      "inputs": [],
      "name": "getPreviousValidators",
      "outputs": [
        {
          "name": "",
          "type": "address[]"
        }
      ],
      "payable": false,
      "stateMutability": "view",
      "type": "function"
    },
    {
      "constant": true,
      "inputs": [],
      "name": "getPendingValidators",
      "outputs": [
        {
          "name": "",
          "type": "address[]"
        }
      ],
      "payable": false,
      "stateMutability": "view",
      "type": "function"
    },
    {
      "constant": true,
      "inputs": [],
      "name": "getValidators",
      "outputs": [
        {
          "name": "",
          "type": "address[]"
        }
      ],
      "payable": false,
      "stateMutability": "view",
      "type": "function"
    },
    {
      "constant": true,
      "inputs": [],
      "name": "initiateChangeAllowed",
      "outputs": [
        {
          "name": "",
          "type": "bool"
        }
      ],
      "payable": false,
      "stateMutability": "view",
      "type": "function"
    },
    {
      "constant": true,
      "inputs": [],
      "name": "isInitialized",
      "outputs": [
        {
          "name": "",
          "type": "bool"
        }
      ],
      "payable": false,
      "stateMutability": "view",
      "type": "function"
    },
    {
      "constant": true,
      "inputs": [
        {
          "name": "_miningAddress",
          "type": "address"
        }
      ],
      "name": "isReportValidatorValid",
      "outputs": [
        {
          "name": "",
          "type": "bool"
        }
      ],
      "payable": false,
      "stateMutability": "view",
      "type": "function"
    },
    {
      "constant": true,
      "inputs": [
        {
          "name": "_miningAddress",
          "type": "address"
        }
      ],
      "name": "isValidatorBanned",
      "outputs": [
        {
          "name": "",
          "type": "bool"
        }
      ],
      "payable": false,
      "stateMutability": "view",
      "type": "function"
    },
    {
      "constant": true,
      "inputs": [
        {
          "name": "_miningAddress",
          "type": "address"
        }
      ],
      "name": "isValidatorOrPending",
      "outputs": [
        {
          "name": "",
          "type": "bool"
        }
      ],
      "payable": false,
      "stateMutability": "view",
      "type": "function"
    },
    {
      "constant": true,
      "inputs": [
        {
          "name": "_miningAddress",
          "type": "address"
        },
        {
          "name": "_blockNumber",
          "type": "uint256"
        }
      ],
      "name": "maliceReportedForBlock",
      "outputs": [
        {
          "name": "",
          "type": "address[]"
        }
      ],
      "payable": false,
      "stateMutability": "view",
      "type": "function"
    },
    {
      "constant": true,
      "inputs": [
        {
          "name": "_reportingMiningAddress",
          "type": "address"
        },
        {
          "name": "_maliciousMiningAddress",
          "type": "address"
        },
        {
          "name": "_blockNumber",
          "type": "uint256"
        }
      ],
      "name": "reportMaliciousCallable",
      "outputs": [
        {
          "name": "callable",
          "type": "bool"
        },
        {
          "name": "removeReportingValidator",
          "type": "bool"
        }
      ],
      "payable": false,
      "stateMutability": "view",
      "type": "function"
    },
    {
      "constant": true,
      "inputs": [
        {
          "name": "_reportingMiningAddress",
          "type": "address"
        },
        {
          "name": "_maliciousMiningAddress",
          "type": "address"
        },
        {
          "name": "_blockNumber",
          "type": "uint256"
        }
      ],
      "name": "shouldValidatorReport",
      "outputs": [
        {
          "name": "",
          "type": "bool"
        }
      ],
      "payable": false,
      "stateMutability": "view",
      "type": "function"
    },
    {
      "constant": true,
      "inputs": [],
      "name": "validatorsToBeFinalized",
      "outputs": [
        {
          "name": "miningAddresses",
          "type": "address[]"
        },
        {
          "name": "forNewEpoch",
          "type": "bool"
        }
      ],
      "payable": false,
      "stateMutability": "view",
      "type": "function"
    }
  ],
  "bytecode": "0x608060405234801561001057600080fd5b50612b1c806100206000396000f3fe608060405234801561001057600080fd5b50600436106102465760003560e01c806393b4e25e1161013b578063b927ef43116100b8578063d20777821161007c578063d20777821461085d578063d2dd2f1614610865578063ee99205c14610882578063eebc7a391461088a578063facd743b1461089257610246565b8063b927ef431461076e578063c476dd4014610776578063c9e9694d146107f9578063cbd2d5281461081f578063ccf69e9b1461085557610246565b8063a881c5fd116100ff578063a881c5fd146106c8578063a92252ae146106ee578063b41832e414610714578063b56b366b1461073a578063b7ab4db51461076657610246565b806393b4e25e146105425780639ea4b0ca1461054a578063a0d16cad1461062b578063a670eb5614610651578063a68b5b76146106a257610246565b80633d3b5458116101c9578063714897df1161018d578063714897df146104ac5780637218744b146104b457806375286211146104bc57806385602ad5146104c457806387eed76a1461051c57610246565b80633d3b54581461046657806356b54bae1461046e5780635836d08a146104765780635ccee1de1461049c578063704189ca146104a457610246565b80631a7fa237116102105780631a7fa237146103ae5780631d0cd4c6146103e65780631ee4d0bc1461040c5780633755243b14610432578063392e53cd1461045e57610246565b80624a88031461024b578062535175146102b25780630636bdac146102f45780630a4c1072146103645780631776dee314610392575b600080fd5b6102536108b8565b604051808060200183151515158152602001828103825284818151815260200191508051906020019060200280838360005b8381101561029d578181015183820152602001610285565b50505050905001935050505060405180910390f35b6102d8600480360360208110156102c857600080fd5b50356001600160a01b031661092a565b604080516001600160a01b039092168252519081900360200190f35b6103626004803603602081101561030a57600080fd5b810190602081018135600160201b81111561032457600080fd5b82018360208201111561033657600080fd5b803590602001918460208302840111600160201b8311171561035757600080fd5b509092509050610945565b005b6103626004803603604081101561037a57600080fd5b506001600160a01b03813581169160200135166109ab565b61039a6109cc565b604080519115158252519081900360200190f35b6103d4600480360360208110156103c457600080fd5b50356001600160a01b03166109d4565b60408051918252519081900360200190f35b6103d4600480360360208110156103fc57600080fd5b50356001600160a01b03166109e6565b6102d86004803603602081101561042257600080fd5b50356001600160a01b03166109f8565b6103d46004803603604081101561044857600080fd5b506001600160a01b038135169060200135610a13565b61039a610a30565b61039a610a41565b6102d8610a5e565b6103d46004803603602081101561048c57600080fd5b50356001600160a01b0316610a6d565b610362610a7f565b6102d8610fce565b6103d4610fdd565b610362610fe2565b6103626110a7565b6104cc611189565b60408051602080825283518183015283519192839290830191858101910280838360005b838110156105085781810151838201526020016104f0565b505050509050019250505060405180910390f35b61039a6004803603602081101561053257600080fd5b50356001600160a01b03166111eb565b61036261130c565b610362600480360360c081101561056057600080fd5b6001600160a01b0382358116926020810135821692604082013590921691810190608081016060820135600160201b81111561059b57600080fd5b8201836020820111156105ad57600080fd5b803590602001918460208302840111600160201b831117156105ce57600080fd5b919390929091602081019035600160201b8111156105eb57600080fd5b8201836020820111156105fd57600080fd5b803590602001918460208302840111600160201b8311171561061e57600080fd5b91935091503515156113f2565b61039a6004803603602081101561064157600080fd5b50356001600160a01b0316611604565b6106876004803603606081101561066757600080fd5b506001600160a01b038135811691602081013590911690604001356116dc565b60408051921515835290151560208301528051918290030190f35b61039a600480360360208110156106b857600080fd5b50356001600160a01b03166118a7565b61039a600480360360208110156106de57600080fd5b50356001600160a01b03166118bc565b61039a6004803603602081101561070457600080fd5b50356001600160a01b03166118e5565b6103d46004803603602081101561072a57600080fd5b50356001600160a01b0316611906565b6104cc6004803603604081101561075057600080fd5b506001600160a01b038135169060200135611918565b6104cc611998565b6103d46119f8565b6103626004803603606081101561078c57600080fd5b6001600160a01b0382351691602081013591810190606081016040820135600160201b8111156107bb57600080fd5b8201836020820111156107cd57600080fd5b803590602001918460018302840111600160201b831117156107ee57600080fd5b5090925090506119fe565b6103d46004803603602081101561080f57600080fd5b50356001600160a01b0316611c22565b61039a6004803603606081101561083557600080fd5b506001600160a01b03813581169160208101359091169060400135611c34565b6102d8611cc8565b6103d4611cd7565b6103d46004803603602081101561087b57600080fd5b5035611cdd565b6102d8611cef565b6104cc611cfe565b61039a600480360360208110156108a857600080fd5b50356001600160a01b0316611d5e565b60035460048054604080516020808402820181019092528281526060946000949360ff9091169284919083018282801561091b57602002820191906000526020600020905b81546001600160a01b031681526001909101906020018083116108fd575b50505050509150915091509091565b6010602052600090815260409020546001600160a01b031681565b6011546001600160a01b0316331461095c57600080fd5b6109a7828280806020026020016040519081016040528093929190818152602001838360200280828437600092019190915250691d5b9c995d99585b195960b21b9250611d73915050565b5050565b6015546001600160a01b031633146109c257600080fd5b6109a78282611de1565b600454155b90565b600a6020526000908152604090205481565b60086020526000908152604090205481565b6014602052600090815260409020546001600160a01b031681565b601260209081526000928352604080842090915290825290205481565b600c546001600160a01b0316151590565b6000610a4b6109cc565b8015610a59575060055460ff165b905090565b600c546001600160a01b031681565b60096020526000908152604090205481565b600c546001600160a01b03163314610a9657600080fd5b6015546040805163a5d54f6560e01b815290516060926001600160a01b03169163a5d54f65916004808301926000929190829003018186803b158015610adb57600080fd5b505afa158015610aef573d6000803e3d6000fd5b505050506040513d6000823e601f3d908101601f191682016040526020811015610b1857600080fd5b810190808051600160201b811115610b2f57600080fd5b82016020810184811115610b4257600080fd5b81518560208202830111600160201b82111715610b5e57600080fd5b505092919050505090506013815110158015610b90575060138151141580610b9057506016546001600160a01b031615155b15610e6f5760115460408051634191031360e11b815290516000926001600160a01b0316916383220626916004808301926020929190829003018186803b158015610bda57600080fd5b505afa158015610bee573d6000803e3d6000fd5b505050506040513d6020811015610c0457600080fd5b50516015546040805163957950a760e01b815290519293506060926000926001600160a01b03169163957950a79160048083019286929190829003018186803b158015610c5057600080fd5b505afa158015610c64573d6000803e3d6000fd5b505050506040513d6000823e601f3d908101601f191682016040908152811015610c8d57600080fd5b810190808051600160201b811115610ca457600080fd5b82016020810184811115610cb757600080fd5b81518560208202830111600160201b82111715610cd357600080fd5b50506020909101518151919550935015801592509050610cf35750600081115b15610e67576016546060906001600160a01b031615610d13576012610d16565b60135b604051908082528060200260200182016040528015610d3f578160200160208202803883390190505b50855190915060005b8251811015610e5a57604080516020808201989098528151808203890181529082019091528051960195909520946000610d83868689611f04565b9050878181518110610d9157fe5b6020026020010151848381518110610da557fe5b60200260200101906001600160a01b031690816001600160a01b031681525050858181518110610dd157fe5b602002602001015185039450828060019003935050878381518110610df257fe5b6020026020010151888281518110610e0657fe5b60200260200101906001600160a01b031690816001600160a01b031681525050858381518110610e3257fe5b6020026020010151868281518110610e4657fe5b602090810291909101015250600101610d48565b50610e6482611f51565b50505b505050610e78565b610e7881611f51565b610e826001612251565b805115610ef257601560009054906101000a90046001600160a01b03166001600160a01b0316631555371c6040518163ffffffff1660e01b8152600401600060405180830381600087803b158015610ed957600080fd5b505af1158015610eed573d6000803e3d6000fd5b505050505b601560009054906101000a90046001600160a01b03166001600160a01b031663ee435f556040518163ffffffff1660e01b8152600401600060405180830381600087803b158015610f4257600080fd5b505af1158015610f56573d6000803e3d6000fd5b50506015546001600160a01b031691506320d96e469050610f7561228d565b6001016040518263ffffffff1660e01b815260040180828152602001915050600060405180830381600087803b158015610fae57600080fd5b505af1158015610fc2573d6000803e3d6000fd5b50506000601855505050565b6016546001600160a01b031681565b601381565b610fea610a30565b610ff357600080fd5b6016546001600160a01b0316338114806110255750611010612291565b6001600160a01b0316336001600160a01b0316145b61102e57600080fd5b601680546001600160a01b03191690556015546040805163098c46b960e41b81526001600160a01b038481166004830152915191909216916398c46b9091602480830192600092919082900301818387803b15801561108c57600080fd5b505af11580156110a0573d6000803e3d6000fd5b5050505050565b6002600160a01b0333146110ba57600080fd5b60035460ff161561114f576110cd6122b6565b6110d76001612381565b600c60009054906101000a90046001600160a01b03166001600160a01b031663c5dd76286040518163ffffffff1660e01b8152600401600060405180830381600087803b15801561112757600080fd5b505af115801561113b573d6000803e3d6000fd5b5050505061114761228d565b601855611172565b60045415611166576111616000612381565b611172565b61116e61228d565b6018555b6003805460ff1916815560006109a7600482612a1b565b606060028054806020026020016040519081016040528092919081815260200182805480156111e157602002820191906000526020600020905b81546001600160a01b031681526001909101906020018083116111c3575b5050505050905090565b6001600160a01b0381166000908152600e6020526040812054819060ff16801561121b5750611219836118e5565b155b9050601560009054906101000a90046001600160a01b03166001600160a01b031663794c0c686040518163ffffffff1660e01b815260040160206040518083038186803b15801561126b57600080fd5b505afa15801561127f573d6000803e3d6000fd5b505050506040513d602081101561129557600080fd5b505115806112a35750601854155b156112af579050611307565b60136018546112bc61228d565b0311611304576001600160a01b0383166000908152600f602052604081205460ff1680156112f057506112ee846118e5565b155b905081806112fb5750805b92505050611307565b90505b919050565b611314610a30565b61131d57600080fd5b611325610a41565b61132e57600080fd5b6000611338612526565b600154909150156113ef57600161134d61228d565b03407f55252fa6eee4741b4e24a74a70e9c11fd2c2281df8d6ea13126ff845f7825c896001604051808060200182810382528381815481526020019150805480156113c157602002820191906000526020600020905b81546001600160a01b031681526001909101906020018083116113a3575b50509250505060405180910390a2600180546113df91600491612a39565b506003805460ff19168215151790555b50565b6113fa61228d565b158061141e5750611409612291565b6001600160a01b0316336001600160a01b0316145b61142757600080fd5b61142f610a30565b1561143957600080fd5b6001600160a01b03881661144c57600080fd5b6001600160a01b03871661145f57600080fd5b6001600160a01b03861661147257600080fd5b8361147c57600080fd5b83821461148857600080fd5b600c80546001600160a01b03808b166001600160a01b031992831617909255601180548a8416908316179055601580549289169290911691909117905560005b848110156115bc5760008686838181106114de57fe5b60008054600180820183557f290decd9548b62a8d60345a988386fc84ba6bc95484008f6362f93160ef3e5639091018054602094850296909601356001600160a01b03166001600160a01b03199687168117909155815480830183557fb10e2d527612073b26eecdfd717e6a320cf44b4afac2b0732d9fcbe2b7fa0cf60180549096168117909555848252600e83526040808320805460ff1916831790556017909352919020805490910190555090506115b38186868581811061159e57fe5b905060200201356001600160a01b0316611de1565b506001016114c8565b5080156115fa57828260008181106115d057fe5b6016805460209290920293909301356001600160a01b03166001600160a01b031990911617909155505b5050505050505050565b6001600160a01b0381166000908152600e602052604081205460ff161561162d57506001611307565b6004546000905b8082101561167f57600480548390811061164a57fe5b6000918252602090912001546001600160a01b038581169116141561167457600192505050611307565b600190910190611634565b50506001546000905b808210156116d2576001828154811061169d57fe5b6000918252602090912001546001600160a01b03858116911614156116c757600192505050611307565b600190910190611688565b5060009392505050565b6000806116e8856111eb565b6116f75750600090508061189f565b611700846111eb565b61170f5750600090508061189f565b60005460018111156118065760155460408051630f29818d60e31b815290516000926001600160a01b03169163794c0c68916004808301926020929190829003018186803b15801561176057600080fd5b505afa158015611774573d6000803e3d6000fd5b505050506040513d602081101561178a57600080fd5b50516001600160a01b0388166000908152601260209081526040808320848452825280832054601390925282205492935091908282106117d65760018503838303816117d257fe5b0490505b84603202831180156117ea575080600a0283115b15611801576000600196509650505050505061189f565b505050505b600061181061228d565b9050808511156118285760008093509350505061189f565b6064808211801561183a575080820386105b1561184e576000809450945050505061189f565b6001600160a01b0380881660009081526007602090815260408083208a84528252808320938c168352929052205460ff1615611893576000809450945050505061189f565b60016000945094505050505b935093915050565b600f6020526000908152604090205460ff1681565b6001600160a01b0381166000908152600a60205260408120546118dd61228d565b111592915050565b6001600160a01b0381166000908152600960205260408120546118dd61228d565b60176020526000908152604090205481565b6001600160a01b038216600090815260066020908152604080832084845282529182902080548351818402810184019094528084526060939283018282801561198a57602002820191906000526020600020905b81546001600160a01b0316815260019091019060200180831161196c575b505050505090505b92915050565b606060008054806020026020016040519081016040528092919081815260200182805480156111e1576020028201919060005260206000209081546001600160a01b031681526001909101906020018083116111c3575050505050905090565b60185481565b611a06610a30565b611a0f57600080fd5b33611a198161253e565b600080611a278388886116dc565b9150915081611aa1578015611a9957604080516001808252818301909252606091602080830190803883390190505090508381600081518110611a6657fe5b60200260200101906001600160a01b031690816001600160a01b031681525050611a9781637370616d60e01b611d73565b505b505050611c1c565b6001600160a01b0380881660008181526006602090815260408083208b845282528083208054600181810183558286528486209091018054978b166001600160a01b031990981688179055858552600784528285208d86528452828520878652845293829020805460ff1916909417909355805194855290840192909252828201899052905190917f729a19138e072a5a8d3a56d74ae0b5c84530f09aacd6e12b24c5b2fdc3f8a3d0919081900360600190a160008054906003821115611b8e57611b7382600263ffffffff61260216565b8354611b8690600363ffffffff61260216565b119050611ba7565b82548290611ba390600263ffffffff61260216565b1190505b8015611c1557604080516001808252818301909252606091602080830190803883390190505090508a81600081518110611bdd57fe5b60200260200101906001600160a01b031690816001600160a01b031681525050611c1381686d616c6963696f757360b81b611d73565b505b5050505050505b50505050565b600b6020526000908152604090205481565b600080611c3f61228d565b905080831115611c53576000915050611cc1565b606481118015611c6557508260648203115b15611c74576000915050611cc1565b611c7d846118e5565b15611c8c576000915050611cc1565b50506001600160a01b03808316600090815260076020908152604080832085845282528083209387168352929052205460ff16155b9392505050565b6011546001600160a01b031681565b600d5481565b60136020526000908152604090205481565b6015546001600160a01b031681565b606060018054806020026020016040519081016040528092919081815260200182805480156111e1576020028201919060005260206000209081546001600160a01b031681526001909101906020018083116111c3575050505050905090565b600e6020526000908152604090205460ff1681565b6000805b8351811015611dcb57611d9d848281518110611d8f57fe5b602002602001015184612629565b15611dc357611dbe848281518110611db157fe5b6020026020010151612830565b600191505b600101611d77565b508015611ddc57611ddc6000612251565b505050565b6001600160a01b038216611df457600080fd5b6001600160a01b038116611e0757600080fd5b806001600160a01b0316826001600160a01b03161415611e2657600080fd5b6001600160a01b038181166000908152601060205260409020541615611e4b57600080fd5b6001600160a01b038281166000908152601060205260409020541615611e7057600080fd5b6001600160a01b038181166000908152601460205260409020541615611e9557600080fd5b6001600160a01b038281166000908152601460205260409020541615611eba57600080fd5b6001600160a01b0390811660008181526010602090815260408083208054959096166001600160a01b03199586168117909655948252601490529290922080549091169091179055565b600080838381611f1057fe5b0690506000805b828211611f4357868181518110611f2a57fe5b6020026020010151820191508080600101915050611f17565b600019019695505050505050565b6016546001600160a01b0390811660009081526010602052604090205482519116906121765760005b60015481101561217057600060018281548110611f9357fe5b6000918252602090912001546001600160a01b0390811691508316811415611fbb5750612168565b6001600160a01b0380821660009081526014602090815260409182902054601554835163a711e6a160e01b81529185166004830181905293519394169263a711e6a192602480840193919291829003018186803b15801561201b57600080fd5b505afa15801561202f573d6000803e3d6000fd5b505050506040513d602081101561204557600080fd5b505180156120cf57506015546040805162e9ab0360e81b81526001600160a01b038481166004830181905260248301529151919092169163e9ab0300916044808301926020929190829003018186803b1580156120a157600080fd5b505afa1580156120b5573d6000803e3d6000fd5b505050506040513d60208110156120cb57600080fd5b5051155b156120db575050612168565b6001805414156120ec575050612170565b6001805460001981019081106120fe57fe5b600091825260209091200154600180546001600160a01b03909216918590811061212457fe5b600091825260209091200180546001600160a01b0319166001600160a01b03929092169190911790556001805490612160906000198301612a89565b505050600019015b600101611f7a565b506109a7565b61218260016000612a1b565b6001600160a01b038116156121dc576001805480820182556000919091527fb10e2d527612073b26eecdfd717e6a320cf44b4afac2b0732d9fcbe2b7fa0cf60180546001600160a01b0319166001600160a01b0383161790555b60005b8251811015611ddc576001601060008584815181106121fa57fe5b6020908102919091018101516001600160a01b0390811683528282019390935260409091016000908120548454600181810187559583529290912090910180546001600160a01b03191691909216179055016121df565b6005805460ff1916600117905580801561226c575060015415155b15612281576005805461ff0019166101001790555b50600d80546001019055565b4390565b7fb53127684a568b3173ae13b9f8a6016e243e63b6e8ee1178d6a717850b5d61035490565b60025460005b81811015612313576000600f6000600284815481106122d757fe5b6000918252602080832091909101546001600160a01b031683528201929092526040019020805460ff19169115159190911790556001016122bc565b505060008054905b81811015612371576001600f600080848154811061233557fe5b6000918252602080832091909101546001600160a01b031683528201929092526040019020805460ff191691151591909117905560010161231b565b60008054611ddc91600291612a39565b60606000808054806020026020016040519081016040528092919081815260200182805480156123da57602002820191906000526020600020905b81546001600160a01b031681526001909101906020018083116123bc575b50505050509150600090505b815181101561243b576000600e600084848151811061240157fe5b6020908102919091018101516001600160a01b03168252810191909152604001600020805460ff19169115159190911790556001016123e6565b6004805461244b91600091612a39565b5060008054806020026020016040519081016040528092919081815260200182805480156124a257602002820191906000526020600020905b81546001600160a01b03168152600190910190602001808311612484575b50505050509150600090505b8151811015611ddc5760008282815181106124c557fe5b6020908102919091018101516001600160a01b0381166000908152600e9092526040909120805460ff191660011790559050831561251d576001600160a01b0381166000908152601760205260409020805460010190555b506001016124ae565b6005805461ffff198116909155610100900460ff1690565b612547816111eb565b612550576113ef565b60155460408051630f29818d60e31b815290516000926001600160a01b03169163794c0c68916004808301926020929190829003018186803b15801561259557600080fd5b505afa1580156125a9573d6000803e3d6000fd5b505050506040513d60208110156125bf57600080fd5b50516001600160a01b0383166000908152601260209081526040808320938352928152828220805460019081019091556013909152919020805490910190555050565b60008261261157506000611992565b8282028284828161261e57fe5b0414611cc157600080fd5b6001600160a01b038083166000908152601460205260408120546016549192908116911681141561265e576000915050611992565b6000612669856118e5565b6001600160a01b038616600090815260086020526040902080546001019055905061269261290b565b6001600160a01b038616600090815260096020908152604080832093909355600b90522084905580156126ca57600092505050611992565b6126d261290b565b6001600160a01b038681166000908152600a6020526040808220939093556015548351631dbe84a360e11b815286841660048201529351921692633b7d0946926024808301939282900301818387803b15801561272e57600080fd5b505af1158015612742573d6000803e3d6000fd5b5050600180549250821415905061275f5760009350505050611992565b60005b8181101561282357866001600160a01b03166001828154811061278157fe5b6000918252602090912001546001600160a01b0316141561281b576001808303815481106127ab57fe5b600091825260209091200154600180546001600160a01b0390921691839081106127d157fe5b600091825260209091200180546001600160a01b0319166001600160a01b0392909216919091179055600180549061280d906000198301612a89565b506001945050505050611992565b600101612762565b5060009695505050505050565b60155460408051630f29818d60e31b815290516000926001600160a01b03169163794c0c68916004808301926020929190829003018186803b15801561287557600080fd5b505afa158015612889573d6000803e3d6000fd5b505050506040513d602081101561289f57600080fd5b50516000818152601360209081526040808320546001600160a01b038716845260128352818420858552909252822080549290559192508082106128f757600083815260136020526040902080548290039055611c1c565b505060009081526013602052604081205550565b60008061291661228d565b601560009054906101000a90046001600160a01b03166001600160a01b0316638c2243ae6040518163ffffffff1660e01b815260040160206040518083038186803b15801561296457600080fd5b505afa158015612978573d6000803e3d6000fd5b505050506040513d602081101561298e57600080fd5b50516015546040805163d609ea9360e01b8152905193909203935083926001600160a01b039091169163d609ea93916004808301926020929190829003018186803b1580156129dc57600080fd5b505afa1580156129f0573d6000803e3d6000fd5b505050506040513d6020811015612a0657600080fd5b5051600c02612a1361228d565b010191505090565b50805460008255906000526020600020908101906113ef9190612aa9565b828054828255906000526020600020908101928215612a795760005260206000209182015b82811115612a79578254825591600101919060010190612a5e565b50612a85929150612ac3565b5090565b815481835581811115611ddc57600083815260209020611ddc9181019083015b6109d191905b80821115612a855760008155600101612aaf565b6109d191905b80821115612a855780546001600160a01b0319168155600101612ac956fea265627a7a7230582003ea99b30448a2cd942b5ea59d51baca415f9d3f79794531a5e80d904f656b5a64736f6c634300050a0032",
  "source": "pragma solidity 0.5.10;\n\nimport \"./interfaces/IBlockRewardAuRa.sol\";\nimport \"./interfaces/IRandomAuRa.sol\";\nimport \"./interfaces/IStakingAuRa.sol\";\nimport \"./interfaces/IValidatorSetAuRa.sol\";\nimport \"./upgradeability/UpgradeabilityAdmin.sol\";\nimport \"./libs/SafeMath.sol\";\n\n\n/// @dev Stores the current validator set and contains the logic for choosing new validators\n/// before each staking epoch. The logic uses a random seed generated and stored by the `RandomAuRa` contract.\ncontract ValidatorSetAuRa is UpgradeabilityAdmin, IValidatorSetAuRa {\n    using SafeMath for uint256;\n\n    // =============================================== Storage ========================================================\n\n    // WARNING: since this contract is upgradeable, do not remove\n    // existing storage variables, do not change their order,\n    // and do not change their types!\n\n    address[] internal _currentValidators;\n    address[] internal _pendingValidators;\n    address[] internal _previousValidators;\n    struct ValidatorsList {\n        bool forNewEpoch;\n        address[] list;\n    }\n    ValidatorsList internal _finalizeValidators;\n\n    bool internal _pendingValidatorsChanged;\n    bool internal _pendingValidatorsChangedForNewEpoch;\n\n    mapping(address => mapping(uint256 => address[])) internal _maliceReportedForBlock;\n    mapping(address => mapping(uint256 => mapping(address => bool))) internal _maliceReportedForBlockMapped;\n\n    /// @dev How many times a given mining address was banned.\n    mapping(address => uint256) public banCounter;\n\n    /// @dev Returns the block number when the ban will be lifted for the specified mining address.\n    mapping(address => uint256) public bannedUntil;\n\n    /// @dev Returns the block number when the ban will be lifted for delegators\n    /// of the specified pool (mining address).\n    mapping(address => uint256) public bannedDelegatorsUntil;\n\n    /// @dev The reason for the latest ban of the specified mining address. See the `_removeMaliciousValidator`\n    /// internal function description for the list of possible reasons.\n    mapping(address => bytes32) public banReason;\n\n    /// @dev The address of the `BlockRewardAuRa` contract.\n    address public blockRewardContract;\n\n    /// @dev The serial number of a validator set change request. The counter is incremented\n    /// every time a validator set needs to be changed.\n    uint256 public changeRequestCount;\n\n    /// @dev A boolean flag indicating whether the specified mining address is in the current validator set.\n    /// See the `getValidators` getter.\n    mapping(address => bool) public isValidator;\n\n    /// @dev A boolean flag indicating whether the specified mining address was a validator in the previous set.\n    /// See the `getPreviousValidators` getter.\n    mapping(address => bool) public isValidatorPrevious;\n\n    /// @dev A mining address bound to a specified staking address.\n    /// See the `_setStakingAddress` internal function.\n    mapping(address => address) public miningByStakingAddress;\n\n    /// @dev The `RandomAuRa` contract address.\n    address public randomContract;\n\n    /// @dev The number of times the specified validator (mining address) reported misbehaviors during the specified\n    /// staking epoch. Used by the `reportMaliciousCallable` getter and `reportMalicious` function to determine\n    /// whether a validator reported too often.\n    mapping(address => mapping(uint256 => uint256)) public reportingCounter;\n\n    /// @dev How many times all validators reported misbehaviors during the specified staking epoch.\n    /// Used by the `reportMaliciousCallable` getter and `reportMalicious` function to determine\n    /// whether a validator reported too often.\n    mapping(uint256 => uint256) public reportingCounterTotal;\n\n    /// @dev A staking address bound to a specified mining address.\n    /// See the `_setStakingAddress` internal function.\n    mapping(address => address) public stakingByMiningAddress;\n\n    /// @dev The `StakingAuRa` contract address.\n    IStakingAuRa public stakingContract;\n\n    /// @dev The staking address of the non-removable validator.\n    /// Returns zero if a non-removable validator is not defined.\n    address public unremovableValidator;\n\n    /// @dev How many times the given mining address has become a validator.\n    mapping(address => uint256) public validatorCounter;\n\n    /// @dev The block number when the `finalizeChange` function was called to apply\n    /// the current validator set formed by the `newValidatorSet` function. If it is zero,\n    /// it means the `newValidatorSet` function has already been called (a new staking epoch has been started),\n    /// but the new staking epoch's validator set hasn't yet been finalized by the `finalizeChange` function.\n    uint256 public validatorSetApplyBlock;\n\n    // ============================================== Constants =======================================================\n\n    /// @dev The max number of validators.\n    uint256 public constant MAX_VALIDATORS = 19;\n\n    // ================================================ Events ========================================================\n\n    /// @dev Emitted by the `emitInitiateChange` function when a new validator set\n    /// needs to be applied by validator nodes. See https://wiki.parity.io/Validator-Set.html\n    /// @param parentHash Should be the parent block hash, otherwise the signal won't be recognized.\n    /// @param newSet An array of new validators (their mining addresses).\n    event InitiateChange(bytes32 indexed parentHash, address[] newSet);\n\n    /// @dev Emitted by the `reportMalicious` function to signal that a specified validator reported\n    /// misbehavior by a specified malicious validator at a specified block number.\n    /// @param reportingValidator The mining address of the reporting validator.\n    /// @param maliciousValidator The mining address of the malicious validator.\n    /// @param blockNumber The block number at which the `maliciousValidator` misbehaved.\n    event ReportedMalicious(address reportingValidator, address maliciousValidator, uint256 blockNumber);\n\n    // ============================================== Modifiers =======================================================\n\n    /// @dev Ensures the `initialize` function was called before.\n    modifier onlyInitialized {\n        require(isInitialized());\n        _;\n    }\n\n    /// @dev Ensures the caller is the BlockRewardAuRa contract address.\n    modifier onlyBlockRewardContract() {\n        require(msg.sender == blockRewardContract);\n        _;\n    }\n\n    /// @dev Ensures the caller is the RandomAuRa contract address.\n    modifier onlyRandomContract() {\n        require(msg.sender == randomContract);\n        _;\n    }\n\n    /// @dev Ensures the caller is the StakingAuRa contract address.\n    modifier onlyStakingContract() {\n        require(msg.sender == address(stakingContract));\n        _;\n    }\n\n    /// @dev Ensures the caller is the SYSTEM_ADDRESS. See https://wiki.parity.io/Validator-Set.html\n    modifier onlySystem() {\n        require(msg.sender == 0xffffFFFfFFffffffffffffffFfFFFfffFFFfFFfE);\n        _;\n    }\n\n    // =============================================== Setters ========================================================\n\n    /// @dev Makes the non-removable validator removable. Can only be called by the staking address of the\n    /// non-removable validator or by the `owner`.\n    function clearUnremovableValidator() external onlyInitialized {\n        address unremovableStakingAddress = unremovableValidator;\n        require(msg.sender == unremovableStakingAddress || msg.sender == _admin());\n        unremovableValidator = address(0);\n        stakingContract.clearUnremovableValidator(unremovableStakingAddress);\n    }\n\n    /// @dev Emits the `InitiateChange` event to pass a new validator set to the validator nodes.\n    /// Called automatically by one of the current validator's nodes when the `emitInitiateChangeCallable` getter\n    /// returns `true` (when some validator needs to be removed as malicious or the validator set needs to be\n    /// updated at the beginning of a new staking epoch). The new validator set is passed to the validator nodes\n    /// through the `InitiateChange` event and saved for later use by the `finalizeChange` function.\n    /// See https://wiki.parity.io/Validator-Set.html for more info about the `InitiateChange` event.\n    function emitInitiateChange() external onlyInitialized {\n        require(emitInitiateChangeCallable());\n        bool forNewEpoch = _unsetPendingValidatorsChanged();\n        if (_pendingValidators.length > 0) {\n            emit InitiateChange(blockhash(_getCurrentBlockNumber() - 1), _pendingValidators);\n            _finalizeValidators.list = _pendingValidators;\n            _finalizeValidators.forNewEpoch = forNewEpoch;\n        }\n    }\n\n    /// @dev Called by the system when an initiated validator set change reaches finality and is activated.\n    /// This function is called at the beginning of a block (before all the block transactions).\n    /// Only valid when msg.sender == SUPER_USER (EIP96, 2**160 - 2). Stores a new validator set saved\n    /// before by the `emitInitiateChange` function and passed through the `InitiateChange` event.\n    /// After this function is called, the `getValidators` getter returns the new validator set.\n    /// If this function finalizes a new validator set formed by the `newValidatorSet` function,\n    /// an old validator set is also stored and can be read by the `getPreviousValidators` getter.\n    /// The `finalizeChange` is only called once for each `InitiateChange` event emitted. The next `InitiateChange`\n    /// event is not emitted until the previous one is not yet finalized by the `finalizeChange`\n    /// (see the code of `emitInitiateChangeCallable` getter).\n    function finalizeChange() external onlySystem {\n        if (_finalizeValidators.forNewEpoch) {\n            // Apply a new validator set formed by the `newValidatorSet` function\n            _savePreviousValidators();\n            _finalizeNewValidators(true);\n            IBlockRewardAuRa(blockRewardContract).clearBlocksCreated();\n            validatorSetApplyBlock = _getCurrentBlockNumber();\n        } else if (_finalizeValidators.list.length != 0) {\n            // Apply the changed validator set after malicious validator is removed\n            _finalizeNewValidators(false);\n        } else {\n            // This is the very first call of the `finalizeChange` (block #1 when starting from genesis)\n            validatorSetApplyBlock = _getCurrentBlockNumber();\n        }\n        delete _finalizeValidators; // since this moment the `emitInitiateChange` is allowed\n    }\n\n    /// @dev Initializes the network parameters. Used by the\n    /// constructor of the `InitializerAuRa` contract.\n    /// @param _blockRewardContract The address of the `BlockRewardAuRa` contract.\n    /// @param _randomContract The address of the `RandomAuRa` contract.\n    /// @param _stakingContract The address of the `StakingAuRa` contract.\n    /// @param _initialMiningAddresses The array of initial validators' mining addresses.\n    /// @param _initialStakingAddresses The array of initial validators' staking addresses.\n    /// @param _firstValidatorIsUnremovable The boolean flag defining whether the first validator in the\n    /// `_initialMiningAddresses/_initialStakingAddresses` array is non-removable.\n    /// Should be `false` for a production network.\n    function initialize(\n        address _blockRewardContract,\n        address _randomContract,\n        address _stakingContract,\n        address[] calldata _initialMiningAddresses,\n        address[] calldata _initialStakingAddresses,\n        bool _firstValidatorIsUnremovable\n    ) external {\n        require(_getCurrentBlockNumber() == 0 || msg.sender == _admin());\n        require(!isInitialized()); // initialization can only be done once\n        require(_blockRewardContract != address(0));\n        require(_randomContract != address(0));\n        require(_stakingContract != address(0));\n        require(_initialMiningAddresses.length > 0);\n        require(_initialMiningAddresses.length == _initialStakingAddresses.length);\n\n        blockRewardContract = _blockRewardContract;\n        randomContract = _randomContract;\n        stakingContract = IStakingAuRa(_stakingContract);\n\n        // Add initial validators to the `_currentValidators` array\n        for (uint256 i = 0; i < _initialMiningAddresses.length; i++) {\n            address miningAddress = _initialMiningAddresses[i];\n            _currentValidators.push(miningAddress);\n            _pendingValidators.push(miningAddress);\n            isValidator[miningAddress] = true;\n            validatorCounter[miningAddress]++;\n            _setStakingAddress(miningAddress, _initialStakingAddresses[i]);\n        }\n\n        if (_firstValidatorIsUnremovable) {\n            unremovableValidator = _initialStakingAddresses[0];\n        }\n    }\n\n    /// @dev Implements the logic which forms a new validator set. If the number of active pools\n    /// is greater than MAX_VALIDATORS, the logic chooses the validators randomly using a random seed generated and\n    /// stored by the `RandomAuRa` contract.\n    /// Automatically called by the `BlockRewardAuRa.reward` function at the latest block of the staking epoch.\n    function newValidatorSet() external onlyBlockRewardContract {\n        address[] memory poolsToBeElected = stakingContract.getPoolsToBeElected();\n\n        // Choose new validators\n        if (\n            poolsToBeElected.length >= MAX_VALIDATORS &&\n            (poolsToBeElected.length != MAX_VALIDATORS || unremovableValidator != address(0))\n        ) {\n            uint256 randomNumber = IRandomAuRa(randomContract).currentSeed();\n\n            (uint256[] memory likelihood, uint256 likelihoodSum) = stakingContract.getPoolsLikelihood();\n\n            if (likelihood.length > 0 && likelihoodSum > 0) {\n                address[] memory newValidators = new address[](\n                    unremovableValidator == address(0) ? MAX_VALIDATORS : MAX_VALIDATORS - 1\n                );\n\n                uint256 poolsToBeElectedLength = poolsToBeElected.length;\n                for (uint256 i = 0; i < newValidators.length; i++) {\n                    randomNumber = uint256(keccak256(abi.encode(randomNumber)));\n                    uint256 randomPoolIndex = _getRandomIndex(likelihood, likelihoodSum, randomNumber);\n                    newValidators[i] = poolsToBeElected[randomPoolIndex];\n                    likelihoodSum -= likelihood[randomPoolIndex];\n                    poolsToBeElectedLength--;\n                    poolsToBeElected[randomPoolIndex] = poolsToBeElected[poolsToBeElectedLength];\n                    likelihood[randomPoolIndex] = likelihood[poolsToBeElectedLength];\n                }\n\n                _setPendingValidators(newValidators);\n            }\n        } else {\n            _setPendingValidators(poolsToBeElected);\n        }\n\n        // From this moment the `getPendingValidators()` returns the new validator set.\n        // Let the `emitInitiateChange` function know that the validator set is changed and needs\n        // to be passed to the `InitiateChange` event.\n        _setPendingValidatorsChanged(true);\n\n        if (poolsToBeElected.length != 0) {\n            // Remove pools marked as `to be removed`\n            stakingContract.removePools();\n        }\n        stakingContract.incrementStakingEpoch();\n        stakingContract.setStakingEpochStartBlock(_getCurrentBlockNumber() + 1);\n        validatorSetApplyBlock = 0;\n    }\n\n    /// @dev Removes malicious validators. Called by the `RandomAuRa.onFinishCollectRound` function.\n    /// @param _miningAddresses The mining addresses of the malicious validators.\n    function removeMaliciousValidators(address[] calldata _miningAddresses) external onlyRandomContract {\n        _removeMaliciousValidators(_miningAddresses, \"unrevealed\");\n    }\n\n    /// @dev Reports that the malicious validator misbehaved at the specified block.\n    /// Called by the node of each honest validator after the specified validator misbehaved.\n    /// See https://wiki.parity.io/Validator-Set.html#reporting-contract\n    /// Can only be called when the `reportMaliciousCallable` getter returns `true`.\n    /// @param _maliciousMiningAddress The mining address of the malicious validator.\n    /// @param _blockNumber The block number where the misbehavior was observed.\n    function reportMalicious(\n        address _maliciousMiningAddress,\n        uint256 _blockNumber,\n        bytes calldata\n    ) external onlyInitialized {\n        address reportingMiningAddress = msg.sender;\n\n        _incrementReportingCounter(reportingMiningAddress);\n\n        (\n            bool callable,\n            bool removeReportingValidator\n        ) = reportMaliciousCallable(\n            reportingMiningAddress,\n            _maliciousMiningAddress,\n            _blockNumber\n        );\n\n        if (!callable) {\n            if (removeReportingValidator) {\n                // Reporting validator reported too often, so\n                // treat them as a malicious as well\n                address[] memory miningAddresses = new address[](1);\n                miningAddresses[0] = reportingMiningAddress;\n                _removeMaliciousValidators(miningAddresses, \"spam\");\n            }\n            return;\n        }\n\n        address[] storage reportedValidators = _maliceReportedForBlock[_maliciousMiningAddress][_blockNumber];\n\n        reportedValidators.push(reportingMiningAddress);\n        _maliceReportedForBlockMapped[_maliciousMiningAddress][_blockNumber][reportingMiningAddress] = true;\n\n        emit ReportedMalicious(reportingMiningAddress, _maliciousMiningAddress, _blockNumber);\n\n        uint256 validatorsLength = _currentValidators.length;\n        bool remove;\n\n        if (validatorsLength > 3) {\n            // If more than 2/3 of validators reported about malicious validator\n            // for the same `blockNumber`\n            remove = reportedValidators.length.mul(3) > validatorsLength.mul(2);\n        } else {\n            // If more than 1/2 of validators reported about malicious validator\n            // for the same `blockNumber`\n            remove = reportedValidators.length.mul(2) > validatorsLength;\n        }\n\n        if (remove) {\n            address[] memory miningAddresses = new address[](1);\n            miningAddresses[0] = _maliciousMiningAddress;\n            _removeMaliciousValidators(miningAddresses, \"malicious\");\n        }\n    }\n\n    /// @dev Binds a mining address to the specified staking address. Called by the `StakingAuRa.addPool` function\n    /// when a user wants to become a candidate and creates a pool.\n    /// See also the `miningByStakingAddress` and `stakingByMiningAddress` public mappings.\n    /// @param _miningAddress The mining address of the newly created pool. Cannot be equal to the `_stakingAddress`\n    /// and should never be used as a pool before.\n    /// @param _stakingAddress The staking address of the newly created pool. Cannot be equal to the `_miningAddress`\n    /// and should never be used as a pool before.\n    function setStakingAddress(address _miningAddress, address _stakingAddress) external onlyStakingContract {\n        _setStakingAddress(_miningAddress, _stakingAddress);\n    }\n\n    // =============================================== Getters ========================================================\n\n    /// @dev Returns a boolean flag indicating whether delegators of the specified pool are currently banned.\n    /// A validator pool can be banned when they misbehave (see the `_removeMaliciousValidator` function).\n    /// @param _miningAddress The mining address of the pool.\n    function areDelegatorsBanned(address _miningAddress) public view returns(bool) {\n        return _getCurrentBlockNumber() <= bannedDelegatorsUntil[_miningAddress];\n    }\n\n    /// @dev Returns a boolean flag indicating whether the `emitInitiateChange` function can be called\n    /// at the moment. Used by a validator's node and `TxPermission` contract (to deny dummy calling).\n    function emitInitiateChangeCallable() public view returns(bool) {\n        return initiateChangeAllowed() && _pendingValidatorsChanged;\n    }\n\n    /// @dev Returns the previous validator set (validators' mining addresses array).\n    /// The array is stored by the `finalizeChange` function\n    /// when a new staking epoch's validator set is finalized.\n    function getPreviousValidators() public view returns(address[] memory) {\n        return _previousValidators;\n    }\n\n    /// @dev Returns the current array of validators which should be passed to the `InitiateChange` event.\n    /// The pending array is changed when a validator is removed as malicious\n    /// or the validator set is updated by the `newValidatorSet` function.\n    /// Every time the pending array is changed, it is marked by the `_setPendingValidatorsChanged` and then\n    /// used by the `emitInitiateChange` function which emits the `InitiateChange` event to all\n    /// validator nodes.\n    function getPendingValidators() public view returns(address[] memory) {\n        return _pendingValidators;\n    }\n\n    /// @dev Returns the current validator set (an array of mining addresses)\n    /// which always matches the validator set kept in validator's node.\n    function getValidators() public view returns(address[] memory) {\n        return _currentValidators;\n    }\n\n    /// @dev A boolean flag indicating whether the `emitInitiateChange` can be called at the moment.\n    /// Used by the `emitInitiateChangeCallable` getter. This flag is set to `false` by the `emitInitiateChange`\n    /// and set to `true` by the `finalizeChange` function. When the `InitiateChange` event is emitted by\n    /// `emitInitiateChange`, the next `emitInitiateChange` call is not possible until the validator set from\n    /// the previous call is finalized by the `finalizeChange` function.\n    function initiateChangeAllowed() public view returns(bool) {\n        return _finalizeValidators.list.length == 0;\n    }\n\n    /// @dev Returns a boolean flag indicating if the `initialize` function has been called.\n    function isInitialized() public view returns(bool) {\n        return blockRewardContract != address(0);\n    }\n\n    /// @dev Returns a boolean flag indicating whether the specified validator (mining address)\n    /// is able to call the `reportMalicious` function or whether the specified validator (mining address)\n    /// can be reported as malicious. This function also allows a validator to call the `reportMalicious`\n    /// function several blocks after ceasing to be a validator. This is possible if a\n    /// validator did not have the opportunity to call the `reportMalicious` function prior to the\n    /// engine calling the `finalizeChange` function.\n    /// @param _miningAddress The validator's mining address.\n    function isReportValidatorValid(address _miningAddress) public view returns(bool) {\n        bool isValid = isValidator[_miningAddress] && !isValidatorBanned(_miningAddress);\n        if (stakingContract.stakingEpoch() == 0 || validatorSetApplyBlock == 0) {\n            return isValid;\n        }\n        if (_getCurrentBlockNumber() - validatorSetApplyBlock <= MAX_VALIDATORS) {\n            // The current validator set was finalized by the engine,\n            // but we should let the previous validators finish\n            // reporting malicious validator within a few blocks\n            bool previousValidator = isValidatorPrevious[_miningAddress] && !isValidatorBanned(_miningAddress);\n            return isValid || previousValidator;\n        }\n        return isValid;\n    }\n\n    /// @dev Returns a boolean flag indicating whether the specified mining address is currently banned.\n    /// A validator can be banned when they misbehave (see the `_removeMaliciousValidator` internal function).\n    /// @param _miningAddress The mining address.\n    function isValidatorBanned(address _miningAddress) public view returns(bool) {\n        return _getCurrentBlockNumber() <= bannedUntil[_miningAddress];\n    }\n\n    /// @dev Returns a boolean flag indicating whether the specified mining address is a validator\n    /// or is in the `_pendingValidators` or `_finalizeValidators` array.\n    /// Used by the `StakingAuRa.maxWithdrawAllowed` and `StakingAuRa.maxWithdrawOrderAllowed` getters.\n    /// @param _miningAddress The mining address.\n    function isValidatorOrPending(address _miningAddress) public view returns(bool) {\n        if (isValidator[_miningAddress]) {\n            return true;\n        }\n\n        uint256 i;\n        uint256 length;\n\n        length = _finalizeValidators.list.length;\n        for (i = 0; i < length; i++) {\n            if (_miningAddress == _finalizeValidators.list[i]) {\n                // This validator waits to be finalized,\n                // so we treat them as `pending`\n                return true;\n            }\n        }\n\n        length = _pendingValidators.length;\n        for (i = 0; i < length; i++) {\n            if (_miningAddress == _pendingValidators[i]) {\n                return true;\n            }\n        }\n\n        return false;\n    }\n\n    /// @dev Returns an array of the validators (their mining addresses) which reported that the specified malicious\n    /// validator misbehaved at the specified block.\n    /// @param _miningAddress The mining address of malicious validator.\n    /// @param _blockNumber The block number.\n    function maliceReportedForBlock(\n        address _miningAddress,\n        uint256 _blockNumber\n    ) public view returns(address[] memory) {\n        return _maliceReportedForBlock[_miningAddress][_blockNumber];\n    }\n\n    /// @dev Returns whether the `reportMalicious` function can be called by the specified validator with the\n    /// given parameters. Used by the `reportMalicious` function and `TxPermission` contract. Also, returns\n    /// a boolean flag indicating whether the reporting validator should be removed as malicious due to\n    /// excessive reporting during the current staking epoch.\n    /// @param _reportingMiningAddress The mining address of the reporting validator which is calling\n    /// the `reportMalicious` function.\n    /// @param _maliciousMiningAddress The mining address of the malicious validator which is passed to\n    /// the `reportMalicious` function.\n    /// @param _blockNumber The block number which is passed to the `reportMalicious` function.\n    /// @return `bool callable` - The boolean flag indicating whether the `reportMalicious` function can be called at\n    /// the moment. `bool removeReportingValidator` - The boolean flag indicating whether the reporting validator\n    /// should be removed as malicious due to excessive reporting. This flag is only used by the `reportMalicious`\n    /// function.\n    function reportMaliciousCallable(\n        address _reportingMiningAddress,\n        address _maliciousMiningAddress,\n        uint256 _blockNumber\n    ) public view returns(bool callable, bool removeReportingValidator) {\n        if (!isReportValidatorValid(_reportingMiningAddress)) return (false, false);\n        if (!isReportValidatorValid(_maliciousMiningAddress)) return (false, false);\n\n        uint256 validatorsNumber = _currentValidators.length;\n\n        if (validatorsNumber > 1) {\n            uint256 currentStakingEpoch = stakingContract.stakingEpoch();\n            uint256 reportsNumber = reportingCounter[_reportingMiningAddress][currentStakingEpoch];\n            uint256 reportsTotalNumber = reportingCounterTotal[currentStakingEpoch];\n            uint256 averageReportsNumber = 0;\n\n            if (reportsTotalNumber >= reportsNumber) {\n                averageReportsNumber = (reportsTotalNumber - reportsNumber) / (validatorsNumber - 1);\n            }\n\n            if (reportsNumber > validatorsNumber * 50 && reportsNumber > averageReportsNumber * 10) {\n                return (false, true);\n            }\n        }\n\n        uint256 currentBlock = _getCurrentBlockNumber();\n\n        if (_blockNumber > currentBlock) return (false, false); // avoid reporting about future blocks\n\n        uint256 ancientBlocksLimit = 100;\n        if (currentBlock > ancientBlocksLimit && _blockNumber < currentBlock - ancientBlocksLimit) {\n            return (false, false); // avoid reporting about ancient blocks\n        }\n\n        if (_maliceReportedForBlockMapped[_maliciousMiningAddress][_blockNumber][_reportingMiningAddress]) {\n            // Don't allow reporting validator to report about the same misbehavior more than once\n            return (false, false);\n        }\n\n        return (true, false);\n    }\n\n    /// @dev Only used by Ethereum client (see https://github.com/paritytech/parity-ethereum/pull/11245).\n    /// Returns a boolean flag indicating whether the specified validator\n    /// should report about some validator's misbehaviour at the specified block.\n    /// @param _reportingMiningAddress The mining address of validator who reports.\n    /// @param _maliciousMiningAddress The mining address of malicious validator.\n    /// @param _blockNumber The block number at which the validator misbehaved.\n    function shouldValidatorReport(\n        address _reportingMiningAddress,\n        address _maliciousMiningAddress,\n        uint256 _blockNumber\n    ) public view returns(bool) {\n        uint256 currentBlock = _getCurrentBlockNumber();\n        if (_blockNumber > currentBlock) {\n            return false;\n        }\n        if (currentBlock > 100 && currentBlock - 100 > _blockNumber) {\n            return false;\n        }\n        if (isValidatorBanned(_maliciousMiningAddress)) {\n            // We shouldn't report of the malicious validator\n            // as it has already been reported\n            return false;\n        }\n        return !_maliceReportedForBlockMapped[_maliciousMiningAddress][_blockNumber][_reportingMiningAddress];\n    }\n\n    /// @dev Returns a validator set about to be finalized by the `finalizeChange` function.\n    /// @param miningAddresses An array set by the `emitInitiateChange` function.\n    /// @param forNewEpoch A boolean flag indicating whether the `miningAddresses` array was formed by the\n    /// `newValidatorSet` function. The `finalizeChange` function logic depends on this flag.\n    function validatorsToBeFinalized() public view returns(address[] memory miningAddresses, bool forNewEpoch) {\n        return (_finalizeValidators.list, _finalizeValidators.forNewEpoch);\n    }\n\n    // ============================================== Internal ========================================================\n\n    /// @dev Updates the total reporting counter (see the `reportingCounterTotal` public mapping) for the current\n    /// staking epoch after the specified validator is removed as malicious. The `reportMaliciousCallable` getter\n    /// uses this counter for reporting checks so it must be up-to-date. Called by the `_removeMaliciousValidators`\n    /// internal function.\n    /// @param _miningAddress The mining address of the removed malicious validator.\n    function _clearReportingCounter(address _miningAddress) internal {\n        uint256 currentStakingEpoch = stakingContract.stakingEpoch();\n        uint256 total = reportingCounterTotal[currentStakingEpoch];\n        uint256 counter = reportingCounter[_miningAddress][currentStakingEpoch];\n\n        reportingCounter[_miningAddress][currentStakingEpoch] = 0;\n\n        if (total >= counter) {\n            reportingCounterTotal[currentStakingEpoch] -= counter;\n        } else {\n            reportingCounterTotal[currentStakingEpoch] = 0;\n        }\n    }\n\n    /// @dev Sets a new validator set stored in `_finalizeValidators.list` array.\n    /// Called by the `finalizeChange` function.\n    /// @param _newStakingEpoch A boolean flag defining whether the validator set was formed by the\n    /// `newValidatorSet` function.\n    function _finalizeNewValidators(bool _newStakingEpoch) internal {\n        address[] memory validators;\n        uint256 i;\n\n        validators = _currentValidators;\n        for (i = 0; i < validators.length; i++) {\n            isValidator[validators[i]] = false;\n        }\n\n        _currentValidators = _finalizeValidators.list;\n\n        validators = _currentValidators;\n        for (i = 0; i < validators.length; i++) {\n            address miningAddress = validators[i];\n            isValidator[miningAddress] = true;\n            if (_newStakingEpoch) {\n                validatorCounter[miningAddress]++;\n            }\n        }\n    }\n\n    /// @dev Marks the pending validator set as changed to be used later by the `emitInitiateChange` function.\n    /// Called when a validator is removed from the set as malicious or when a new validator set is formed by\n    /// the `newValidatorSet` function.\n    /// @param _newStakingEpoch A boolean flag defining whether the pending validator set was formed by the\n    /// `newValidatorSet` function. The `finalizeChange` function logic depends on this flag.\n    function _setPendingValidatorsChanged(bool _newStakingEpoch) internal {\n        _pendingValidatorsChanged = true;\n        if (_newStakingEpoch && _pendingValidators.length != 0) {\n            _pendingValidatorsChangedForNewEpoch = true;\n        }\n        changeRequestCount++;\n    }\n\n    /// @dev Marks the pending validator set as unchanged before passing it to the `InitiateChange` event\n    /// (and then to the `finalizeChange` function). Called by the `emitInitiateChange` function.\n    function _unsetPendingValidatorsChanged() internal returns(bool) {\n        bool forNewEpoch = _pendingValidatorsChangedForNewEpoch;\n        _pendingValidatorsChanged = false;\n        _pendingValidatorsChangedForNewEpoch = false;\n        return forNewEpoch;\n    }\n\n    /// @dev Increments the reporting counter for the specified validator and the current staking epoch.\n    /// See the `reportingCounter` and `reportingCounterTotal` public mappings. Called by the `reportMalicious`\n    /// function when the validator reports a misbehavior.\n    /// @param _reportingMiningAddress The mining address of reporting validator.\n    function _incrementReportingCounter(address _reportingMiningAddress) internal {\n        if (!isReportValidatorValid(_reportingMiningAddress)) return;\n        uint256 currentStakingEpoch = stakingContract.stakingEpoch();\n        reportingCounter[_reportingMiningAddress][currentStakingEpoch]++;\n        reportingCounterTotal[currentStakingEpoch]++;\n    }\n\n    /// @dev Removes the specified validator as malicious. Used by the `_removeMaliciousValidators` internal function.\n    /// @param _miningAddress The removed validator mining address.\n    /// @param _reason A short string of the reason why the mining address is treated as malicious:\n    /// \"unrevealed\" - the validator didn't reveal their number at the end of staking epoch or skipped\n    /// too many reveals during the staking epoch;\n    /// \"spam\" - the validator made a lot of `reportMalicious` callings compared with other validators;\n    /// \"malicious\" - the validator was reported as malicious by other validators with the `reportMalicious` function.\n    /// @return Returns `true` if the specified validator has been removed from the pending validator set.\n    /// Otherwise returns `false` (if the specified validator has already been removed or cannot be removed).\n    function _removeMaliciousValidator(address _miningAddress, bytes32 _reason) internal returns(bool) {\n        address stakingAddress = stakingByMiningAddress[_miningAddress];\n\n        if (stakingAddress == unremovableValidator) {\n            return false;\n        }\n\n        bool isBanned = isValidatorBanned(_miningAddress);\n\n        // Ban the malicious validator for the next 3 months\n        banCounter[_miningAddress]++;\n        bannedUntil[_miningAddress] = _banUntil();\n        banReason[_miningAddress] = _reason;\n\n        if (isBanned) {\n            // The validator is already banned\n            return false;\n        } else {\n            bannedDelegatorsUntil[_miningAddress] = _banUntil();\n        }\n\n        // Remove malicious validator from the `pools`\n        stakingContract.removePool(stakingAddress);\n\n        uint256 length = _pendingValidators.length;\n\n        if (length == 1) {\n            // If the removed validator is one and only in the validator set, don't let remove them\n            return false;\n        }\n\n        for (uint256 i = 0; i < length; i++) {\n            if (_pendingValidators[i] == _miningAddress) {\n                // Remove the malicious validator from `_pendingValidators`\n                _pendingValidators[i] = _pendingValidators[length - 1];\n                _pendingValidators.length--;\n                return true;\n            }\n        }\n\n        return false;\n    }\n\n    /// @dev Removes the specified validators as malicious from the pending validator set and marks the updated\n    /// pending validator set as `changed` to be used by the `emitInitiateChange` function. Does nothing if\n    /// the specified validators are already banned, non-removable, or don't exist in the pending validator set.\n    /// @param _miningAddresses The mining addresses of the malicious validators.\n    /// @param _reason A short string of the reason why the mining addresses are treated as malicious,\n    /// see the `_removeMaliciousValidator` internal function description for possible values.\n    function _removeMaliciousValidators(address[] memory _miningAddresses, bytes32 _reason) internal {\n        bool removed = false;\n\n        for (uint256 i = 0; i < _miningAddresses.length; i++) {\n            if (_removeMaliciousValidator(_miningAddresses[i], _reason)) {\n                // From this moment `getPendingValidators()` returns the new validator set\n                _clearReportingCounter(_miningAddresses[i]);\n                removed = true;\n            }\n        }\n\n        if (removed) {\n            _setPendingValidatorsChanged(false);\n        }\n    }\n\n    /// @dev Stores previous validators. Used by the `finalizeChange` function.\n    function _savePreviousValidators() internal {\n        uint256 length;\n        uint256 i;\n\n        // Save the previous validator set\n        length = _previousValidators.length;\n        for (i = 0; i < length; i++) {\n            isValidatorPrevious[_previousValidators[i]] = false;\n        }\n        length = _currentValidators.length;\n        for (i = 0; i < length; i++) {\n            isValidatorPrevious[_currentValidators[i]] = true;\n        }\n        _previousValidators = _currentValidators;\n    }\n\n    /// @dev Sets a new validator set as a pending (which is not yet passed to the `InitiateChange` event).\n    /// Called by the `newValidatorSet` function.\n    /// @param _stakingAddresses The array of the new validators' staking addresses.\n    function _setPendingValidators(\n        address[] memory _stakingAddresses\n    ) internal {\n        address unremovableMiningAddress = miningByStakingAddress[unremovableValidator];\n\n        if (_stakingAddresses.length == 0) {\n            // If there are no `poolsToBeElected`, we remove the\n            // validators which want to exit from the validator set\n            for (uint256 i = 0; i < _pendingValidators.length; i++) {\n                address pvMiningAddress = _pendingValidators[i];\n                if (pvMiningAddress == unremovableMiningAddress) {\n                    continue; // don't touch unremovable validator\n                }\n                address pvStakingAddress = stakingByMiningAddress[pvMiningAddress];\n                if (\n                    stakingContract.isPoolActive(pvStakingAddress) &&\n                    stakingContract.orderedWithdrawAmount(pvStakingAddress, pvStakingAddress) == 0\n                ) {\n                    // The validator has an active pool and is not going to withdraw their\n                    // entire stake, so this validator doesn't want to exit from the validator set\n                    continue;\n                }\n                if (_pendingValidators.length == 1) {\n                    break; // don't remove one and only validator\n                }\n                // Remove the validator\n                _pendingValidators[i] = _pendingValidators[_pendingValidators.length - 1];\n                _pendingValidators.length--;\n                i--;\n            }\n        } else {\n            // If there are some `poolsToBeElected`, we remove all\n            // validators which are not in the `poolsToBeElected` or\n            // not selected by randomness\n            delete _pendingValidators;\n\n            if (unremovableMiningAddress != address(0)) {\n                // Keep unremovable validator\n                _pendingValidators.push(unremovableMiningAddress);\n            }\n\n            for (uint256 i = 0; i < _stakingAddresses.length; i++) {\n                _pendingValidators.push(miningByStakingAddress[_stakingAddresses[i]]);\n            }\n        }\n    }\n\n    /// @dev Binds a mining address to the specified staking address. Used by the `setStakingAddress` function.\n    /// See also the `miningByStakingAddress` and `stakingByMiningAddress` public mappings.\n    /// @param _miningAddress The mining address of the newly created pool. Cannot be equal to the `_stakingAddress`\n    /// and should never be used as a pool before.\n    /// @param _stakingAddress The staking address of the newly created pool. Cannot be equal to the `_miningAddress`\n    /// and should never be used as a pool before.\n    function _setStakingAddress(address _miningAddress, address _stakingAddress) internal {\n        require(_miningAddress != address(0));\n        require(_stakingAddress != address(0));\n        require(_miningAddress != _stakingAddress);\n        require(miningByStakingAddress[_stakingAddress] == address(0));\n        require(miningByStakingAddress[_miningAddress] == address(0));\n        require(stakingByMiningAddress[_stakingAddress] == address(0));\n        require(stakingByMiningAddress[_miningAddress] == address(0));\n        miningByStakingAddress[_stakingAddress] = _miningAddress;\n        stakingByMiningAddress[_miningAddress] = _stakingAddress;\n    }\n\n    /// @dev Returns the future block number until which a validator is banned.\n    /// Used by the `_removeMaliciousValidator` internal function.\n    function _banUntil() internal view returns(uint256) {\n        uint256 blocksUntilEnd = stakingContract.stakingEpochEndBlock() - _getCurrentBlockNumber();\n        // ~90 days, at least 12 full staking epochs (for 5 seconds block)\n        return _getCurrentBlockNumber() + 12 * stakingContract.stakingEpochDuration() + blocksUntilEnd;\n    }\n\n    /// @dev Returns the current block number. Needed mostly for unit tests.\n    function _getCurrentBlockNumber() internal view returns(uint256) {\n        return block.number;\n    }\n\n    /// @dev Returns an index of a pool in the `poolsToBeElected` array\n    /// (see the `StakingAuRa.getPoolsToBeElected` public getter)\n    /// by a random number and the corresponding probability coefficients.\n    /// Used by the `newValidatorSet` function.\n    /// @param _likelihood An array of probability coefficients.\n    /// @param _likelihoodSum A sum of probability coefficients.\n    /// @param _randomNumber A random number.\n    function _getRandomIndex(uint256[] memory _likelihood, uint256 _likelihoodSum, uint256 _randomNumber)\n        internal\n        pure\n        returns(uint256)\n    {\n        uint256 random = _randomNumber % _likelihoodSum;\n        uint256 sum = 0;\n        uint256 index = 0;\n        while (sum <= random) {\n            sum += _likelihood[index];\n            index++;\n        }\n        return index - 1;\n    }\n}\n",
  "sourcePath": "/home/jack/prog/blkchn/velas/posdao-test-setup/posdao-contracts/contracts/ValidatorSetAuRa.sol",
  "compiler": {
    "name": "solc",
    "version": "0.5.10+commit.5a6ea5b1.Emscripten.clang"
  },
  "schemaVersion": "3.0.17",
  "updatedAt": "2020-02-26T12:57:46.164Z",
  "devdoc": {
    "details": "Stores the current validator set and contains the logic for choosing new validators before each staking epoch. The logic uses a random seed generated and stored by the `RandomAuRa` contract.",
    "methods": {
      "areDelegatorsBanned(address)": {
        "details": "Returns a boolean flag indicating whether delegators of the specified pool are currently banned. A validator pool can be banned when they misbehave (see the `_removeMaliciousValidator` function).",
        "params": {
          "_miningAddress": "The mining address of the pool."
        }
      },
      "clearUnremovableValidator()": {
        "details": "Makes the non-removable validator removable. Can only be called by the staking address of the non-removable validator or by the `owner`."
      },
      "emitInitiateChange()": {
        "details": "Emits the `InitiateChange` event to pass a new validator set to the validator nodes. Called automatically by one of the current validator's nodes when the `emitInitiateChangeCallable` getter returns `true` (when some validator needs to be removed as malicious or the validator set needs to be updated at the beginning of a new staking epoch). The new validator set is passed to the validator nodes through the `InitiateChange` event and saved for later use by the `finalizeChange` function. See https://wiki.parity.io/Validator-Set.html for more info about the `InitiateChange` event."
      },
      "emitInitiateChangeCallable()": {
        "details": "Returns a boolean flag indicating whether the `emitInitiateChange` function can be called at the moment. Used by a validator's node and `TxPermission` contract (to deny dummy calling)."
      },
      "finalizeChange()": {
        "details": "Called by the system when an initiated validator set change reaches finality and is activated. This function is called at the beginning of a block (before all the block transactions). Only valid when msg.sender == SUPER_USER (EIP96, 2**160 - 2). Stores a new validator set saved before by the `emitInitiateChange` function and passed through the `InitiateChange` event. After this function is called, the `getValidators` getter returns the new validator set. If this function finalizes a new validator set formed by the `newValidatorSet` function, an old validator set is also stored and can be read by the `getPreviousValidators` getter. The `finalizeChange` is only called once for each `InitiateChange` event emitted. The next `InitiateChange` event is not emitted until the previous one is not yet finalized by the `finalizeChange` (see the code of `emitInitiateChangeCallable` getter)."
      },
      "getPendingValidators()": {
        "details": "Returns the current array of validators which should be passed to the `InitiateChange` event. The pending array is changed when a validator is removed as malicious or the validator set is updated by the `newValidatorSet` function. Every time the pending array is changed, it is marked by the `_setPendingValidatorsChanged` and then used by the `emitInitiateChange` function which emits the `InitiateChange` event to all validator nodes."
      },
      "getPreviousValidators()": {
        "details": "Returns the previous validator set (validators' mining addresses array). The array is stored by the `finalizeChange` function when a new staking epoch's validator set is finalized."
      },
      "getValidators()": {
        "details": "Returns the current validator set (an array of mining addresses) which always matches the validator set kept in validator's node."
      },
      "initialize(address,address,address,address[],address[],bool)": {
        "details": "Initializes the network parameters. Used by the constructor of the `InitializerAuRa` contract.",
        "params": {
          "_blockRewardContract": "The address of the `BlockRewardAuRa` contract.",
          "_firstValidatorIsUnremovable": "The boolean flag defining whether the first validator in the `_initialMiningAddresses/_initialStakingAddresses` array is non-removable. Should be `false` for a production network.",
          "_initialMiningAddresses": "The array of initial validators' mining addresses.",
          "_initialStakingAddresses": "The array of initial validators' staking addresses.",
          "_randomContract": "The address of the `RandomAuRa` contract.",
          "_stakingContract": "The address of the `StakingAuRa` contract."
        }
      },
      "initiateChangeAllowed()": {
        "details": "A boolean flag indicating whether the `emitInitiateChange` can be called at the moment. Used by the `emitInitiateChangeCallable` getter. This flag is set to `false` by the `emitInitiateChange` and set to `true` by the `finalizeChange` function. When the `InitiateChange` event is emitted by `emitInitiateChange`, the next `emitInitiateChange` call is not possible until the validator set from the previous call is finalized by the `finalizeChange` function."
      },
      "isInitialized()": {
        "details": "Returns a boolean flag indicating if the `initialize` function has been called."
      },
      "isReportValidatorValid(address)": {
        "details": "Returns a boolean flag indicating whether the specified validator (mining address) is able to call the `reportMalicious` function or whether the specified validator (mining address) can be reported as malicious. This function also allows a validator to call the `reportMalicious` function several blocks after ceasing to be a validator. This is possible if a validator did not have the opportunity to call the `reportMalicious` function prior to the engine calling the `finalizeChange` function.",
        "params": {
          "_miningAddress": "The validator's mining address."
        }
      },
      "isValidatorBanned(address)": {
        "details": "Returns a boolean flag indicating whether the specified mining address is currently banned. A validator can be banned when they misbehave (see the `_removeMaliciousValidator` internal function).",
        "params": {
          "_miningAddress": "The mining address."
        }
      },
      "isValidatorOrPending(address)": {
        "details": "Returns a boolean flag indicating whether the specified mining address is a validator or is in the `_pendingValidators` or `_finalizeValidators` array. Used by the `StakingAuRa.maxWithdrawAllowed` and `StakingAuRa.maxWithdrawOrderAllowed` getters.",
        "params": {
          "_miningAddress": "The mining address."
        }
      },
      "maliceReportedForBlock(address,uint256)": {
        "details": "Returns an array of the validators (their mining addresses) which reported that the specified malicious validator misbehaved at the specified block.",
        "params": {
          "_blockNumber": "The block number.",
          "_miningAddress": "The mining address of malicious validator."
        }
      },
      "newValidatorSet()": {
        "details": "Implements the logic which forms a new validator set. If the number of active pools is greater than MAX_VALIDATORS, the logic chooses the validators randomly using a random seed generated and stored by the `RandomAuRa` contract. Automatically called by the `BlockRewardAuRa.reward` function at the latest block of the staking epoch."
      },
      "removeMaliciousValidators(address[])": {
        "details": "Removes malicious validators. Called by the `RandomAuRa.onFinishCollectRound` function.",
        "params": {
          "_miningAddresses": "The mining addresses of the malicious validators."
        }
      },
      "reportMalicious(address,uint256,bytes)": {
        "details": "Reports that the malicious validator misbehaved at the specified block. Called by the node of each honest validator after the specified validator misbehaved. See https://wiki.parity.io/Validator-Set.html#reporting-contract Can only be called when the `reportMaliciousCallable` getter returns `true`.",
        "params": {
          "_blockNumber": "The block number where the misbehavior was observed.",
          "_maliciousMiningAddress": "The mining address of the malicious validator."
        }
      },
      "reportMaliciousCallable(address,address,uint256)": {
        "details": "Returns whether the `reportMalicious` function can be called by the specified validator with the given parameters. Used by the `reportMalicious` function and `TxPermission` contract. Also, returns a boolean flag indicating whether the reporting validator should be removed as malicious due to excessive reporting during the current staking epoch.",
        "params": {
          "_blockNumber": "The block number which is passed to the `reportMalicious` function.",
          "_maliciousMiningAddress": "The mining address of the malicious validator which is passed to the `reportMalicious` function.",
          "_reportingMiningAddress": "The mining address of the reporting validator which is calling the `reportMalicious` function."
        },
        "return": "`bool callable` - The boolean flag indicating whether the `reportMalicious` function can be called at the moment. `bool removeReportingValidator` - The boolean flag indicating whether the reporting validator should be removed as malicious due to excessive reporting. This flag is only used by the `reportMalicious` function."
      },
      "setStakingAddress(address,address)": {
        "details": "Binds a mining address to the specified staking address. Called by the `StakingAuRa.addPool` function when a user wants to become a candidate and creates a pool. See also the `miningByStakingAddress` and `stakingByMiningAddress` public mappings.",
        "params": {
          "_miningAddress": "The mining address of the newly created pool. Cannot be equal to the `_stakingAddress` and should never be used as a pool before.",
          "_stakingAddress": "The staking address of the newly created pool. Cannot be equal to the `_miningAddress` and should never be used as a pool before."
        }
      },
      "shouldValidatorReport(address,address,uint256)": {
        "details": "Only used by Ethereum client (see https://github.com/paritytech/parity-ethereum/pull/11245). Returns a boolean flag indicating whether the specified validator should report about some validator's misbehaviour at the specified block.",
        "params": {
          "_blockNumber": "The block number at which the validator misbehaved.",
          "_maliciousMiningAddress": "The mining address of malicious validator.",
          "_reportingMiningAddress": "The mining address of validator who reports."
        }
      },
      "validatorsToBeFinalized()": {
        "details": "Returns a validator set about to be finalized by the `finalizeChange` function.",
        "params": {
          "forNewEpoch": "A boolean flag indicating whether the `miningAddresses` array was formed by the `newValidatorSet` function. The `finalizeChange` function logic depends on this flag.",
          "miningAddresses": "An array set by the `emitInitiateChange` function."
        }
      }
    }
  },
  "userdoc": {
    "methods": {}
  }
}